{
	"FinalProject2/GameCoin.sol": {
		"GameCoin": {
			"abi": [
				{
					"inputs": [],
					"stateMutability": "nonpayable",
					"type": "constructor"
				},
				{
					"inputs": [
						{
							"internalType": "address",
							"name": "spender",
							"type": "address"
						},
						{
							"internalType": "uint256",
							"name": "allowance",
							"type": "uint256"
						},
						{
							"internalType": "uint256",
							"name": "needed",
							"type": "uint256"
						}
					],
					"name": "ERC20InsufficientAllowance",
					"type": "error"
				},
				{
					"inputs": [
						{
							"internalType": "address",
							"name": "sender",
							"type": "address"
						},
						{
							"internalType": "uint256",
							"name": "balance",
							"type": "uint256"
						},
						{
							"internalType": "uint256",
							"name": "needed",
							"type": "uint256"
						}
					],
					"name": "ERC20InsufficientBalance",
					"type": "error"
				},
				{
					"inputs": [
						{
							"internalType": "address",
							"name": "approver",
							"type": "address"
						}
					],
					"name": "ERC20InvalidApprover",
					"type": "error"
				},
				{
					"inputs": [
						{
							"internalType": "address",
							"name": "receiver",
							"type": "address"
						}
					],
					"name": "ERC20InvalidReceiver",
					"type": "error"
				},
				{
					"inputs": [
						{
							"internalType": "address",
							"name": "sender",
							"type": "address"
						}
					],
					"name": "ERC20InvalidSender",
					"type": "error"
				},
				{
					"inputs": [
						{
							"internalType": "address",
							"name": "spender",
							"type": "address"
						}
					],
					"name": "ERC20InvalidSpender",
					"type": "error"
				},
				{
					"inputs": [
						{
							"internalType": "address",
							"name": "owner",
							"type": "address"
						}
					],
					"name": "OwnableInvalidOwner",
					"type": "error"
				},
				{
					"inputs": [
						{
							"internalType": "address",
							"name": "account",
							"type": "address"
						}
					],
					"name": "OwnableUnauthorizedAccount",
					"type": "error"
				},
				{
					"anonymous": false,
					"inputs": [
						{
							"indexed": true,
							"internalType": "address",
							"name": "owner",
							"type": "address"
						},
						{
							"indexed": true,
							"internalType": "address",
							"name": "spender",
							"type": "address"
						},
						{
							"indexed": false,
							"internalType": "uint256",
							"name": "value",
							"type": "uint256"
						}
					],
					"name": "Approval",
					"type": "event"
				},
				{
					"anonymous": false,
					"inputs": [
						{
							"indexed": true,
							"internalType": "address",
							"name": "previousOwner",
							"type": "address"
						},
						{
							"indexed": true,
							"internalType": "address",
							"name": "newOwner",
							"type": "address"
						}
					],
					"name": "OwnershipTransferred",
					"type": "event"
				},
				{
					"anonymous": false,
					"inputs": [
						{
							"indexed": true,
							"internalType": "address",
							"name": "from",
							"type": "address"
						},
						{
							"indexed": true,
							"internalType": "address",
							"name": "to",
							"type": "address"
						},
						{
							"indexed": false,
							"internalType": "uint256",
							"name": "value",
							"type": "uint256"
						}
					],
					"name": "Transfer",
					"type": "event"
				},
				{
					"inputs": [
						{
							"internalType": "address",
							"name": "owner",
							"type": "address"
						},
						{
							"internalType": "address",
							"name": "spender",
							"type": "address"
						}
					],
					"name": "allowance",
					"outputs": [
						{
							"internalType": "uint256",
							"name": "",
							"type": "uint256"
						}
					],
					"stateMutability": "view",
					"type": "function"
				},
				{
					"inputs": [
						{
							"internalType": "address",
							"name": "spender",
							"type": "address"
						},
						{
							"internalType": "uint256",
							"name": "value",
							"type": "uint256"
						}
					],
					"name": "approve",
					"outputs": [
						{
							"internalType": "bool",
							"name": "",
							"type": "bool"
						}
					],
					"stateMutability": "nonpayable",
					"type": "function"
				},
				{
					"inputs": [
						{
							"internalType": "address",
							"name": "account",
							"type": "address"
						}
					],
					"name": "balanceOf",
					"outputs": [
						{
							"internalType": "uint256",
							"name": "",
							"type": "uint256"
						}
					],
					"stateMutability": "view",
					"type": "function"
				},
				{
					"inputs": [
						{
							"internalType": "uint256",
							"name": "gcAmount",
							"type": "uint256"
						}
					],
					"name": "buy",
					"outputs": [],
					"stateMutability": "payable",
					"type": "function"
				},
				{
					"inputs": [],
					"name": "buyRate",
					"outputs": [
						{
							"internalType": "uint256",
							"name": "",
							"type": "uint256"
						}
					],
					"stateMutability": "view",
					"type": "function"
				},
				{
					"inputs": [],
					"name": "decimals",
					"outputs": [
						{
							"internalType": "uint8",
							"name": "",
							"type": "uint8"
						}
					],
					"stateMutability": "view",
					"type": "function"
				},
				{
					"inputs": [
						{
							"internalType": "address",
							"name": "account",
							"type": "address"
						}
					],
					"name": "getUserInfo",
					"outputs": [
						{
							"internalType": "string",
							"name": "",
							"type": "string"
						},
						{
							"internalType": "string",
							"name": "",
							"type": "string"
						},
						{
							"internalType": "string",
							"name": "",
							"type": "string"
						}
					],
					"stateMutability": "view",
					"type": "function"
				},
				{
					"inputs": [],
					"name": "name",
					"outputs": [
						{
							"internalType": "string",
							"name": "",
							"type": "string"
						}
					],
					"stateMutability": "view",
					"type": "function"
				},
				{
					"inputs": [],
					"name": "owner",
					"outputs": [
						{
							"internalType": "address",
							"name": "",
							"type": "address"
						}
					],
					"stateMutability": "view",
					"type": "function"
				},
				{
					"inputs": [
						{
							"internalType": "string",
							"name": "username",
							"type": "string"
						},
						{
							"internalType": "string",
							"name": "email",
							"type": "string"
						},
						{
							"internalType": "string",
							"name": "bio",
							"type": "string"
						}
					],
					"name": "registerUser",
					"outputs": [],
					"stateMutability": "nonpayable",
					"type": "function"
				},
				{
					"inputs": [],
					"name": "renounceOwnership",
					"outputs": [],
					"stateMutability": "nonpayable",
					"type": "function"
				},
				{
					"inputs": [
						{
							"internalType": "uint256",
							"name": "gcAmount",
							"type": "uint256"
						}
					],
					"name": "sell",
					"outputs": [],
					"stateMutability": "nonpayable",
					"type": "function"
				},
				{
					"inputs": [],
					"name": "sellRate",
					"outputs": [
						{
							"internalType": "uint256",
							"name": "",
							"type": "uint256"
						}
					],
					"stateMutability": "view",
					"type": "function"
				},
				{
					"inputs": [
						{
							"internalType": "address",
							"name": "to",
							"type": "address"
						},
						{
							"internalType": "uint256",
							"name": "gcAmount",
							"type": "uint256"
						}
					],
					"name": "send",
					"outputs": [],
					"stateMutability": "nonpayable",
					"type": "function"
				},
				{
					"inputs": [
						{
							"internalType": "uint256",
							"name": "amount",
							"type": "uint256"
						}
					],
					"name": "sendToOwner",
					"outputs": [],
					"stateMutability": "nonpayable",
					"type": "function"
				},
				{
					"inputs": [
						{
							"internalType": "uint256",
							"name": "_sellRate",
							"type": "uint256"
						},
						{
							"internalType": "uint256",
							"name": "_buyRate",
							"type": "uint256"
						}
					],
					"name": "setRates",
					"outputs": [],
					"stateMutability": "nonpayable",
					"type": "function"
				},
				{
					"inputs": [],
					"name": "symbol",
					"outputs": [
						{
							"internalType": "string",
							"name": "",
							"type": "string"
						}
					],
					"stateMutability": "view",
					"type": "function"
				},
				{
					"inputs": [],
					"name": "totalSupply",
					"outputs": [
						{
							"internalType": "uint256",
							"name": "",
							"type": "uint256"
						}
					],
					"stateMutability": "view",
					"type": "function"
				},
				{
					"inputs": [
						{
							"internalType": "address",
							"name": "to",
							"type": "address"
						},
						{
							"internalType": "uint256",
							"name": "value",
							"type": "uint256"
						}
					],
					"name": "transfer",
					"outputs": [
						{
							"internalType": "bool",
							"name": "",
							"type": "bool"
						}
					],
					"stateMutability": "nonpayable",
					"type": "function"
				},
				{
					"inputs": [
						{
							"internalType": "address",
							"name": "from",
							"type": "address"
						},
						{
							"internalType": "address",
							"name": "to",
							"type": "address"
						},
						{
							"internalType": "uint256",
							"name": "value",
							"type": "uint256"
						}
					],
					"name": "transferFrom",
					"outputs": [
						{
							"internalType": "bool",
							"name": "",
							"type": "bool"
						}
					],
					"stateMutability": "nonpayable",
					"type": "function"
				},
				{
					"inputs": [
						{
							"internalType": "address",
							"name": "newOwner",
							"type": "address"
						}
					],
					"name": "transferOwnership",
					"outputs": [],
					"stateMutability": "nonpayable",
					"type": "function"
				},
				{
					"stateMutability": "payable",
					"type": "receive"
				}
			],
			"devdoc": {
				"errors": {
					"ERC20InsufficientAllowance(address,uint256,uint256)": [
						{
							"details": "Indicates a failure with the `spender`’s `allowance`. Used in transfers.",
							"params": {
								"allowance": "Amount of tokens a `spender` is allowed to operate with.",
								"needed": "Minimum amount required to perform a transfer.",
								"spender": "Address that may be allowed to operate on tokens without being their owner."
							}
						}
					],
					"ERC20InsufficientBalance(address,uint256,uint256)": [
						{
							"details": "Indicates an error related to the current `balance` of a `sender`. Used in transfers.",
							"params": {
								"balance": "Current balance for the interacting account.",
								"needed": "Minimum amount required to perform a transfer.",
								"sender": "Address whose tokens are being transferred."
							}
						}
					],
					"ERC20InvalidApprover(address)": [
						{
							"details": "Indicates a failure with the `approver` of a token to be approved. Used in approvals.",
							"params": {
								"approver": "Address initiating an approval operation."
							}
						}
					],
					"ERC20InvalidReceiver(address)": [
						{
							"details": "Indicates a failure with the token `receiver`. Used in transfers.",
							"params": {
								"receiver": "Address to which tokens are being transferred."
							}
						}
					],
					"ERC20InvalidSender(address)": [
						{
							"details": "Indicates a failure with the token `sender`. Used in transfers.",
							"params": {
								"sender": "Address whose tokens are being transferred."
							}
						}
					],
					"ERC20InvalidSpender(address)": [
						{
							"details": "Indicates a failure with the `spender` to be approved. Used in approvals.",
							"params": {
								"spender": "Address that may be allowed to operate on tokens without being their owner."
							}
						}
					],
					"OwnableInvalidOwner(address)": [
						{
							"details": "The owner is not a valid owner account. (eg. `address(0)`)"
						}
					],
					"OwnableUnauthorizedAccount(address)": [
						{
							"details": "The caller account is not authorized to perform an operation."
						}
					]
				},
				"events": {
					"Approval(address,address,uint256)": {
						"details": "Emitted when the allowance of a `spender` for an `owner` is set by a call to {approve}. `value` is the new allowance."
					},
					"Transfer(address,address,uint256)": {
						"details": "Emitted when `value` tokens are moved from one account (`from`) to another (`to`). Note that `value` may be zero."
					}
				},
				"kind": "dev",
				"methods": {
					"allowance(address,address)": {
						"details": "See {IERC20-allowance}."
					},
					"approve(address,uint256)": {
						"details": "See {IERC20-approve}. NOTE: If `value` is the maximum `uint256`, the allowance is not updated on `transferFrom`. This is semantically equivalent to an infinite approval. Requirements: - `spender` cannot be the zero address."
					},
					"balanceOf(address)": {
						"details": "See {IERC20-balanceOf}."
					},
					"decimals()": {
						"details": "Returns the number of decimals used to get its user representation. For example, if `decimals` equals `2`, a balance of `505` tokens should be displayed to a user as `5.05` (`505 / 10 ** 2`). Tokens usually opt for a value of 18, imitating the relationship between Ether and Wei. This is the default value returned by this function, unless it's overridden. NOTE: This information is only used for _display_ purposes: it in no way affects any of the arithmetic of the contract, including {IERC20-balanceOf} and {IERC20-transfer}."
					},
					"name()": {
						"details": "Returns the name of the token."
					},
					"owner()": {
						"details": "Returns the address of the current owner."
					},
					"renounceOwnership()": {
						"details": "Leaves the contract without owner. It will not be possible to call `onlyOwner` functions. Can only be called by the current owner. NOTE: Renouncing ownership will leave the contract without an owner, thereby disabling any functionality that is only available to the owner."
					},
					"symbol()": {
						"details": "Returns the symbol of the token, usually a shorter version of the name."
					},
					"totalSupply()": {
						"details": "See {IERC20-totalSupply}."
					},
					"transfer(address,uint256)": {
						"details": "See {IERC20-transfer}. Requirements: - `to` cannot be the zero address. - the caller must have a balance of at least `value`."
					},
					"transferFrom(address,address,uint256)": {
						"details": "See {IERC20-transferFrom}. Emits an {Approval} event indicating the updated allowance. This is not required by the EIP. See the note at the beginning of {ERC20}. NOTE: Does not update the allowance if the current allowance is the maximum `uint256`. Requirements: - `from` and `to` cannot be the zero address. - `from` must have a balance of at least `value`. - the caller must have allowance for ``from``'s tokens of at least `value`."
					},
					"transferOwnership(address)": {
						"details": "Transfers ownership of the contract to a new account (`newOwner`). Can only be called by the current owner."
					}
				},
				"version": 1
			},
			"evm": {
				"assembly": "    /* \"FinalProject2/GameCoin.sol\":168:2100  contract GameCoin is ERC20, Ownable {... */\n  mstore(0x40, 0x80)\n    /* \"FinalProject2/GameCoin.sol\":236:238  10 */\n  0x0a\n    /* \"FinalProject2/GameCoin.sol\":210:238  uint256 public sellRate = 10 */\n  0x06\n  sstore\n    /* \"FinalProject2/GameCoin.sol\":298:299  6 */\n  0x06\n    /* \"FinalProject2/GameCoin.sol\":273:299  uint256 public buyRate = 6 */\n  0x07\n  sstore\n    /* \"FinalProject2/GameCoin.sol\":476:621  constructor() ERC20(\"Namazbek's Token\", \"NB\") Ownable(msg.sender){... */\n  callvalue\n  dup1\n  iszero\n  tag_1\n  jumpi\n  0x00\n  dup1\n  revert\ntag_1:\n  pop\n    /* \"FinalProject2/GameCoin.sol\":530:540  msg.sender */\n  caller\n    /* \"@openzeppelin/contracts/token/ERC20/ERC20.sol\":1896:2009  constructor(string memory name_, string memory symbol_) {... */\n  mload(0x40)\n  dup1\n  0x40\n  add\n  0x40\n  mstore\n  dup1\n  0x10\n  dup2\n  mstore\n  0x20\n  add\n  0x4e616d617a62656b277320546f6b656e00000000000000000000000000000000\n  dup2\n  mstore\n  pop\n  mload(0x40)\n  dup1\n  0x40\n  add\n  0x40\n  mstore\n  dup1\n  0x02\n  dup2\n  mstore\n  0x20\n  add\n  0x4e42000000000000000000000000000000000000000000000000000000000000\n  dup2\n  mstore\n  pop\n    /* \"@openzeppelin/contracts/token/ERC20/ERC20.sol\":1970:1975  name_ */\n  dup2\n    /* \"@openzeppelin/contracts/token/ERC20/ERC20.sol\":1962:1967  _name */\n  0x03\n    /* \"@openzeppelin/contracts/token/ERC20/ERC20.sol\":1962:1975  _name = name_ */\n  swap1\n  dup2\n  tag_6\n  swap2\n  swap1\n  tag_7\n  jump\t// in\ntag_6:\n  pop\n    /* \"@openzeppelin/contracts/token/ERC20/ERC20.sol\":1995:2002  symbol_ */\n  dup1\n    /* \"@openzeppelin/contracts/token/ERC20/ERC20.sol\":1985:1992  _symbol */\n  0x04\n    /* \"@openzeppelin/contracts/token/ERC20/ERC20.sol\":1985:2002  _symbol = symbol_ */\n  swap1\n  dup2\n  tag_8\n  swap2\n  swap1\n  tag_7\n  jump\t// in\ntag_8:\n  pop\n    /* \"@openzeppelin/contracts/token/ERC20/ERC20.sol\":1896:2009  constructor(string memory name_, string memory symbol_) {... */\n  pop\n  pop\n    /* \"@openzeppelin/contracts/access/Ownable.sol\":1297:1298  0 */\n  0x00\n    /* \"@openzeppelin/contracts/access/Ownable.sol\":1273:1299  initialOwner == address(0) */\n  0xffffffffffffffffffffffffffffffffffffffff\n  and\n    /* \"@openzeppelin/contracts/access/Ownable.sol\":1273:1285  initialOwner */\n  dup2\n    /* \"@openzeppelin/contracts/access/Ownable.sol\":1273:1299  initialOwner == address(0) */\n  0xffffffffffffffffffffffffffffffffffffffff\n  and\n  sub\n    /* \"@openzeppelin/contracts/access/Ownable.sol\":1269:1364  if (initialOwner == address(0)) {... */\n  tag_10\n  jumpi\n    /* \"@openzeppelin/contracts/access/Ownable.sol\":1350:1351  0 */\n  0x00\n    /* \"@openzeppelin/contracts/access/Ownable.sol\":1322:1353  OwnableInvalidOwner(address(0)) */\n  mload(0x40)\n  0x1e4fbdf700000000000000000000000000000000000000000000000000000000\n  dup2\n  mstore\n  0x04\n  add\n  tag_11\n  swap2\n  swap1\n  tag_12\n  jump\t// in\ntag_11:\n  mload(0x40)\n  dup1\n  swap2\n  sub\n  swap1\n  revert\n    /* \"@openzeppelin/contracts/access/Ownable.sol\":1269:1364  if (initialOwner == address(0)) {... */\ntag_10:\n    /* \"@openzeppelin/contracts/access/Ownable.sol\":1373:1405  _transferOwnership(initialOwner) */\n  tag_13\n    /* \"@openzeppelin/contracts/access/Ownable.sol\":1392:1404  initialOwner */\n  dup2\n    /* \"@openzeppelin/contracts/access/Ownable.sol\":1373:1391  _transferOwnership */\n  shl(0x20, tag_14)\n    /* \"@openzeppelin/contracts/access/Ownable.sol\":1373:1405  _transferOwnership(initialOwner) */\n  0x20\n  shr\n  jump\t// in\ntag_13:\n    /* \"@openzeppelin/contracts/access/Ownable.sol\":1225:1412  constructor(address initialOwner) {... */\n  pop\n    /* \"FinalProject2/GameCoin.sol\":551:591  _mint(msg.sender, 1000 * 10**decimals()) */\n  tag_16\n    /* \"FinalProject2/GameCoin.sol\":557:567  msg.sender */\n  caller\n    /* \"FinalProject2/GameCoin.sol\":580:590  decimals() */\n  tag_17\n    /* \"FinalProject2/GameCoin.sol\":580:588  decimals */\n  shl(0x20, tag_18)\n    /* \"FinalProject2/GameCoin.sol\":580:590  decimals() */\n  0x20\n  shr\n  jump\t// in\ntag_17:\n    /* \"FinalProject2/GameCoin.sol\":576:578  10 */\n  0x0a\n    /* \"FinalProject2/GameCoin.sol\":576:590  10**decimals() */\n  tag_19\n  swap2\n  swap1\n  tag_20\n  jump\t// in\ntag_19:\n    /* \"FinalProject2/GameCoin.sol\":569:573  1000 */\n  0x03e8\n    /* \"FinalProject2/GameCoin.sol\":569:590  1000 * 10**decimals() */\n  tag_21\n  swap2\n  swap1\n  tag_22\n  jump\t// in\ntag_21:\n    /* \"FinalProject2/GameCoin.sol\":551:556  _mint */\n  shl(0x20, tag_23)\n    /* \"FinalProject2/GameCoin.sol\":551:591  _mint(msg.sender, 1000 * 10**decimals()) */\n  0x20\n  shr\n  jump\t// in\ntag_16:\n    /* \"FinalProject2/GameCoin.sol\":168:2100  contract GameCoin is ERC20, Ownable {... */\n  jump(tag_24)\n    /* \"@openzeppelin/contracts/access/Ownable.sol\":2912:3099  function _transferOwnership(address newOwner) internal virtual {... */\ntag_14:\n    /* \"@openzeppelin/contracts/access/Ownable.sol\":2985:3001  address oldOwner */\n  0x00\n    /* \"@openzeppelin/contracts/access/Ownable.sol\":3004:3010  _owner */\n  0x05\n  0x00\n  swap1\n  sload\n  swap1\n  0x0100\n  exp\n  swap1\n  div\n  0xffffffffffffffffffffffffffffffffffffffff\n  and\n    /* \"@openzeppelin/contracts/access/Ownable.sol\":2985:3010  address oldOwner = _owner */\n  swap1\n  pop\n    /* \"@openzeppelin/contracts/access/Ownable.sol\":3029:3037  newOwner */\n  dup2\n    /* \"@openzeppelin/contracts/access/Ownable.sol\":3020:3026  _owner */\n  0x05\n  0x00\n    /* \"@openzeppelin/contracts/access/Ownable.sol\":3020:3037  _owner = newOwner */\n  0x0100\n  exp\n  dup2\n  sload\n  dup2\n  0xffffffffffffffffffffffffffffffffffffffff\n  mul\n  not\n  and\n  swap1\n  dup4\n  0xffffffffffffffffffffffffffffffffffffffff\n  and\n  mul\n  or\n  swap1\n  sstore\n  pop\n    /* \"@openzeppelin/contracts/access/Ownable.sol\":3083:3091  newOwner */\n  dup2\n    /* \"@openzeppelin/contracts/access/Ownable.sol\":3052:3092  OwnershipTransferred(oldOwner, newOwner) */\n  0xffffffffffffffffffffffffffffffffffffffff\n  and\n    /* \"@openzeppelin/contracts/access/Ownable.sol\":3073:3081  oldOwner */\n  dup2\n    /* \"@openzeppelin/contracts/access/Ownable.sol\":3052:3092  OwnershipTransferred(oldOwner, newOwner) */\n  0xffffffffffffffffffffffffffffffffffffffff\n  and\n  0x8be0079c531659141344cd1fd0a4f28419497f9722a3daafe3b4186f6b6457e0\n  mload(0x40)\n  mload(0x40)\n  dup1\n  swap2\n  sub\n  swap1\n  log3\n    /* \"@openzeppelin/contracts/access/Ownable.sol\":2975:3099  {... */\n  pop\n    /* \"@openzeppelin/contracts/access/Ownable.sol\":2912:3099  function _transferOwnership(address newOwner) internal virtual {... */\n  pop\n  jump\t// out\n    /* \"@openzeppelin/contracts/token/ERC20/ERC20.sol\":3002:3084  function decimals() public view virtual returns (uint8) {... */\ntag_18:\n    /* \"@openzeppelin/contracts/token/ERC20/ERC20.sol\":3051:3056  uint8 */\n  0x00\n    /* \"@openzeppelin/contracts/token/ERC20/ERC20.sol\":3075:3077  18 */\n  0x12\n    /* \"@openzeppelin/contracts/token/ERC20/ERC20.sol\":3068:3077  return 18 */\n  swap1\n  pop\n    /* \"@openzeppelin/contracts/token/ERC20/ERC20.sol\":3002:3084  function decimals() public view virtual returns (uint8) {... */\n  swap1\n  jump\t// out\n    /* \"@openzeppelin/contracts/token/ERC20/ERC20.sol\":7721:7929  function _mint(address account, uint256 value) internal {... */\ntag_23:\n    /* \"@openzeppelin/contracts/token/ERC20/ERC20.sol\":7810:7811  0 */\n  0x00\n    /* \"@openzeppelin/contracts/token/ERC20/ERC20.sol\":7791:7812  account == address(0) */\n  0xffffffffffffffffffffffffffffffffffffffff\n  and\n    /* \"@openzeppelin/contracts/token/ERC20/ERC20.sol\":7791:7798  account */\n  dup3\n    /* \"@openzeppelin/contracts/token/ERC20/ERC20.sol\":7791:7812  account == address(0) */\n  0xffffffffffffffffffffffffffffffffffffffff\n  and\n  sub\n    /* \"@openzeppelin/contracts/token/ERC20/ERC20.sol\":7787:7878  if (account == address(0)) {... */\n  tag_28\n  jumpi\n    /* \"@openzeppelin/contracts/token/ERC20/ERC20.sol\":7864:7865  0 */\n  0x00\n    /* \"@openzeppelin/contracts/token/ERC20/ERC20.sol\":7835:7867  ERC20InvalidReceiver(address(0)) */\n  mload(0x40)\n  0xec442f0500000000000000000000000000000000000000000000000000000000\n  dup2\n  mstore\n  0x04\n  add\n  tag_29\n  swap2\n  swap1\n  tag_12\n  jump\t// in\ntag_29:\n  mload(0x40)\n  dup1\n  swap2\n  sub\n  swap1\n  revert\n    /* \"@openzeppelin/contracts/token/ERC20/ERC20.sol\":7787:7878  if (account == address(0)) {... */\ntag_28:\n    /* \"@openzeppelin/contracts/token/ERC20/ERC20.sol\":7887:7922  _update(address(0), account, value) */\n  tag_30\n    /* \"@openzeppelin/contracts/token/ERC20/ERC20.sol\":7903:7904  0 */\n  0x00\n    /* \"@openzeppelin/contracts/token/ERC20/ERC20.sol\":7907:7914  account */\n  dup4\n    /* \"@openzeppelin/contracts/token/ERC20/ERC20.sol\":7916:7921  value */\n  dup4\n    /* \"@openzeppelin/contracts/token/ERC20/ERC20.sol\":7887:7894  _update */\n  shl(0x20, tag_31)\n    /* \"@openzeppelin/contracts/token/ERC20/ERC20.sol\":7887:7922  _update(address(0), account, value) */\n  0x20\n  shr\n  jump\t// in\ntag_30:\n    /* \"@openzeppelin/contracts/token/ERC20/ERC20.sol\":7721:7929  function _mint(address account, uint256 value) internal {... */\n  pop\n  pop\n  jump\t// out\n    /* \"@openzeppelin/contracts/token/ERC20/ERC20.sol\":6271:7378  function _update(address from, address to, uint256 value) internal virtual {... */\ntag_31:\n    /* \"@openzeppelin/contracts/token/ERC20/ERC20.sol\":6376:6377  0 */\n  0x00\n    /* \"@openzeppelin/contracts/token/ERC20/ERC20.sol\":6360:6378  from == address(0) */\n  0xffffffffffffffffffffffffffffffffffffffff\n  and\n    /* \"@openzeppelin/contracts/token/ERC20/ERC20.sol\":6360:6364  from */\n  dup4\n    /* \"@openzeppelin/contracts/token/ERC20/ERC20.sol\":6360:6378  from == address(0) */\n  0xffffffffffffffffffffffffffffffffffffffff\n  and\n  sub\n    /* \"@openzeppelin/contracts/token/ERC20/ERC20.sol\":6356:6896  if (from == address(0)) {... */\n  tag_33\n  jumpi\n    /* \"@openzeppelin/contracts/token/ERC20/ERC20.sol\":6512:6517  value */\n  dup1\n    /* \"@openzeppelin/contracts/token/ERC20/ERC20.sol\":6496:6508  _totalSupply */\n  0x02\n  0x00\n    /* \"@openzeppelin/contracts/token/ERC20/ERC20.sol\":6496:6517  _totalSupply += value */\n  dup3\n  dup3\n  sload\n  tag_34\n  swap2\n  swap1\n  tag_35\n  jump\t// in\ntag_34:\n  swap3\n  pop\n  pop\n  dup2\n  swap1\n  sstore\n  pop\n    /* \"@openzeppelin/contracts/token/ERC20/ERC20.sol\":6356:6896  if (from == address(0)) {... */\n  jump(tag_36)\ntag_33:\n    /* \"@openzeppelin/contracts/token/ERC20/ERC20.sol\":6548:6567  uint256 fromBalance */\n  0x00\n    /* \"@openzeppelin/contracts/token/ERC20/ERC20.sol\":6570:6579  _balances */\n  dup1\n    /* \"@openzeppelin/contracts/token/ERC20/ERC20.sol\":6570:6585  _balances[from] */\n  0x00\n    /* \"@openzeppelin/contracts/token/ERC20/ERC20.sol\":6580:6584  from */\n  dup6\n    /* \"@openzeppelin/contracts/token/ERC20/ERC20.sol\":6570:6585  _balances[from] */\n  0xffffffffffffffffffffffffffffffffffffffff\n  and\n  0xffffffffffffffffffffffffffffffffffffffff\n  and\n  dup2\n  mstore\n  0x20\n  add\n  swap1\n  dup2\n  mstore\n  0x20\n  add\n  0x00\n  keccak256\n  sload\n    /* \"@openzeppelin/contracts/token/ERC20/ERC20.sol\":6548:6585  uint256 fromBalance = _balances[from] */\n  swap1\n  pop\n    /* \"@openzeppelin/contracts/token/ERC20/ERC20.sol\":6617:6622  value */\n  dup2\n    /* \"@openzeppelin/contracts/token/ERC20/ERC20.sol\":6603:6614  fromBalance */\n  dup2\n    /* \"@openzeppelin/contracts/token/ERC20/ERC20.sol\":6603:6622  fromBalance < value */\n  lt\n    /* \"@openzeppelin/contracts/token/ERC20/ERC20.sol\":6599:6714  if (fromBalance < value) {... */\n  iszero\n  tag_37\n  jumpi\n    /* \"@openzeppelin/contracts/token/ERC20/ERC20.sol\":6674:6678  from */\n  dup4\n    /* \"@openzeppelin/contracts/token/ERC20/ERC20.sol\":6680:6691  fromBalance */\n  dup2\n    /* \"@openzeppelin/contracts/token/ERC20/ERC20.sol\":6693:6698  value */\n  dup4\n    /* \"@openzeppelin/contracts/token/ERC20/ERC20.sol\":6649:6699  ERC20InsufficientBalance(from, fromBalance, value) */\n  mload(0x40)\n  0xe450d38c00000000000000000000000000000000000000000000000000000000\n  dup2\n  mstore\n  0x04\n  add\n  tag_38\n  swap4\n  swap3\n  swap2\n  swap1\n  tag_39\n  jump\t// in\ntag_38:\n  mload(0x40)\n  dup1\n  swap2\n  sub\n  swap1\n  revert\n    /* \"@openzeppelin/contracts/token/ERC20/ERC20.sol\":6599:6714  if (fromBalance < value) {... */\ntag_37:\n    /* \"@openzeppelin/contracts/token/ERC20/ERC20.sol\":6866:6871  value */\n  dup2\n    /* \"@openzeppelin/contracts/token/ERC20/ERC20.sol\":6852:6863  fromBalance */\n  dup2\n    /* \"@openzeppelin/contracts/token/ERC20/ERC20.sol\":6852:6871  fromBalance - value */\n  sub\n    /* \"@openzeppelin/contracts/token/ERC20/ERC20.sol\":6834:6843  _balances */\n  0x00\n    /* \"@openzeppelin/contracts/token/ERC20/ERC20.sol\":6834:6849  _balances[from] */\n  dup1\n    /* \"@openzeppelin/contracts/token/ERC20/ERC20.sol\":6844:6848  from */\n  dup7\n    /* \"@openzeppelin/contracts/token/ERC20/ERC20.sol\":6834:6849  _balances[from] */\n  0xffffffffffffffffffffffffffffffffffffffff\n  and\n  0xffffffffffffffffffffffffffffffffffffffff\n  and\n  dup2\n  mstore\n  0x20\n  add\n  swap1\n  dup2\n  mstore\n  0x20\n  add\n  0x00\n  keccak256\n    /* \"@openzeppelin/contracts/token/ERC20/ERC20.sol\":6834:6871  _balances[from] = fromBalance - value */\n  dup2\n  swap1\n  sstore\n  pop\n    /* \"@openzeppelin/contracts/token/ERC20/ERC20.sol\":6534:6896  {... */\n  pop\n    /* \"@openzeppelin/contracts/token/ERC20/ERC20.sol\":6356:6896  if (from == address(0)) {... */\ntag_36:\n    /* \"@openzeppelin/contracts/token/ERC20/ERC20.sol\":6924:6925  0 */\n  0x00\n    /* \"@openzeppelin/contracts/token/ERC20/ERC20.sol\":6910:6926  to == address(0) */\n  0xffffffffffffffffffffffffffffffffffffffff\n  and\n    /* \"@openzeppelin/contracts/token/ERC20/ERC20.sol\":6910:6912  to */\n  dup3\n    /* \"@openzeppelin/contracts/token/ERC20/ERC20.sol\":6910:6926  to == address(0) */\n  0xffffffffffffffffffffffffffffffffffffffff\n  and\n  sub\n    /* \"@openzeppelin/contracts/token/ERC20/ERC20.sol\":6906:7331  if (to == address(0)) {... */\n  tag_40\n  jumpi\n    /* \"@openzeppelin/contracts/token/ERC20/ERC20.sol\":7089:7094  value */\n  dup1\n    /* \"@openzeppelin/contracts/token/ERC20/ERC20.sol\":7073:7085  _totalSupply */\n  0x02\n  0x00\n    /* \"@openzeppelin/contracts/token/ERC20/ERC20.sol\":7073:7094  _totalSupply -= value */\n  dup3\n  dup3\n  sload\n  sub\n  swap3\n  pop\n  pop\n  dup2\n  swap1\n  sstore\n  pop\n    /* \"@openzeppelin/contracts/token/ERC20/ERC20.sol\":6906:7331  if (to == address(0)) {... */\n  jump(tag_41)\ntag_40:\n    /* \"@openzeppelin/contracts/token/ERC20/ERC20.sol\":7301:7306  value */\n  dup1\n    /* \"@openzeppelin/contracts/token/ERC20/ERC20.sol\":7284:7293  _balances */\n  0x00\n    /* \"@openzeppelin/contracts/token/ERC20/ERC20.sol\":7284:7297  _balances[to] */\n  dup1\n    /* \"@openzeppelin/contracts/token/ERC20/ERC20.sol\":7294:7296  to */\n  dup5\n    /* \"@openzeppelin/contracts/token/ERC20/ERC20.sol\":7284:7297  _balances[to] */\n  0xffffffffffffffffffffffffffffffffffffffff\n  and\n  0xffffffffffffffffffffffffffffffffffffffff\n  and\n  dup2\n  mstore\n  0x20\n  add\n  swap1\n  dup2\n  mstore\n  0x20\n  add\n  0x00\n  keccak256\n  0x00\n    /* \"@openzeppelin/contracts/token/ERC20/ERC20.sol\":7284:7306  _balances[to] += value */\n  dup3\n  dup3\n  sload\n  add\n  swap3\n  pop\n  pop\n  dup2\n  swap1\n  sstore\n  pop\n    /* \"@openzeppelin/contracts/token/ERC20/ERC20.sol\":6906:7331  if (to == address(0)) {... */\ntag_41:\n    /* \"@openzeppelin/contracts/token/ERC20/ERC20.sol\":7361:7363  to */\n  dup2\n    /* \"@openzeppelin/contracts/token/ERC20/ERC20.sol\":7346:7371  Transfer(from, to, value) */\n  0xffffffffffffffffffffffffffffffffffffffff\n  and\n    /* \"@openzeppelin/contracts/token/ERC20/ERC20.sol\":7355:7359  from */\n  dup4\n    /* \"@openzeppelin/contracts/token/ERC20/ERC20.sol\":7346:7371  Transfer(from, to, value) */\n  0xffffffffffffffffffffffffffffffffffffffff\n  and\n  0xddf252ad1be2c89b69c2b068fc378daa952ba7f163c4a11628f55a4df523b3ef\n    /* \"@openzeppelin/contracts/token/ERC20/ERC20.sol\":7365:7370  value */\n  dup4\n    /* \"@openzeppelin/contracts/token/ERC20/ERC20.sol\":7346:7371  Transfer(from, to, value) */\n  mload(0x40)\n  tag_42\n  swap2\n  swap1\n  tag_43\n  jump\t// in\ntag_42:\n  mload(0x40)\n  dup1\n  swap2\n  sub\n  swap1\n  log3\n    /* \"@openzeppelin/contracts/token/ERC20/ERC20.sol\":6271:7378  function _update(address from, address to, uint256 value) internal virtual {... */\n  pop\n  pop\n  pop\n  jump\t// out\n    /* \"#utility.yul\":7:106   */\ntag_44:\n    /* \"#utility.yul\":59:65   */\n  0x00\n    /* \"#utility.yul\":93:98   */\n  dup2\n    /* \"#utility.yul\":87:99   */\n  mload\n    /* \"#utility.yul\":77:99   */\n  swap1\n  pop\n    /* \"#utility.yul\":7:106   */\n  swap2\n  swap1\n  pop\n  jump\t// out\n    /* \"#utility.yul\":112:292   */\ntag_45:\n    /* \"#utility.yul\":160:237   */\n  0x4e487b7100000000000000000000000000000000000000000000000000000000\n    /* \"#utility.yul\":157:158   */\n  0x00\n    /* \"#utility.yul\":150:238   */\n  mstore\n    /* \"#utility.yul\":257:261   */\n  0x41\n    /* \"#utility.yul\":254:255   */\n  0x04\n    /* \"#utility.yul\":247:262   */\n  mstore\n    /* \"#utility.yul\":281:285   */\n  0x24\n    /* \"#utility.yul\":278:279   */\n  0x00\n    /* \"#utility.yul\":271:286   */\n  revert\n    /* \"#utility.yul\":298:478   */\ntag_46:\n    /* \"#utility.yul\":346:423   */\n  0x4e487b7100000000000000000000000000000000000000000000000000000000\n    /* \"#utility.yul\":343:344   */\n  0x00\n    /* \"#utility.yul\":336:424   */\n  mstore\n    /* \"#utility.yul\":443:447   */\n  0x22\n    /* \"#utility.yul\":440:441   */\n  0x04\n    /* \"#utility.yul\":433:448   */\n  mstore\n    /* \"#utility.yul\":467:471   */\n  0x24\n    /* \"#utility.yul\":464:465   */\n  0x00\n    /* \"#utility.yul\":457:472   */\n  revert\n    /* \"#utility.yul\":484:804   */\ntag_47:\n    /* \"#utility.yul\":528:534   */\n  0x00\n    /* \"#utility.yul\":565:566   */\n  0x02\n    /* \"#utility.yul\":559:563   */\n  dup3\n    /* \"#utility.yul\":555:567   */\n  div\n    /* \"#utility.yul\":545:567   */\n  swap1\n  pop\n    /* \"#utility.yul\":612:613   */\n  0x01\n    /* \"#utility.yul\":606:610   */\n  dup3\n    /* \"#utility.yul\":602:614   */\n  and\n    /* \"#utility.yul\":633:651   */\n  dup1\n    /* \"#utility.yul\":623:704   */\n  tag_78\n  jumpi\n    /* \"#utility.yul\":689:693   */\n  0x7f\n    /* \"#utility.yul\":681:687   */\n  dup3\n    /* \"#utility.yul\":677:694   */\n  and\n    /* \"#utility.yul\":667:694   */\n  swap2\n  pop\n    /* \"#utility.yul\":623:704   */\ntag_78:\n    /* \"#utility.yul\":751:753   */\n  0x20\n    /* \"#utility.yul\":743:749   */\n  dup3\n    /* \"#utility.yul\":740:754   */\n  lt\n    /* \"#utility.yul\":720:738   */\n  dup2\n    /* \"#utility.yul\":717:755   */\n  sub\n    /* \"#utility.yul\":714:798   */\n  tag_79\n  jumpi\n    /* \"#utility.yul\":770:788   */\n  tag_80\n  tag_46\n  jump\t// in\ntag_80:\n    /* \"#utility.yul\":714:798   */\ntag_79:\n    /* \"#utility.yul\":535:804   */\n  pop\n    /* \"#utility.yul\":484:804   */\n  swap2\n  swap1\n  pop\n  jump\t// out\n    /* \"#utility.yul\":810:951   */\ntag_48:\n    /* \"#utility.yul\":859:863   */\n  0x00\n    /* \"#utility.yul\":882:885   */\n  dup2\n    /* \"#utility.yul\":874:885   */\n  swap1\n  pop\n    /* \"#utility.yul\":905:908   */\n  dup2\n    /* \"#utility.yul\":902:903   */\n  0x00\n    /* \"#utility.yul\":895:909   */\n  mstore\n    /* \"#utility.yul\":939:943   */\n  0x20\n    /* \"#utility.yul\":936:937   */\n  0x00\n    /* \"#utility.yul\":926:944   */\n  keccak256\n    /* \"#utility.yul\":918:944   */\n  swap1\n  pop\n    /* \"#utility.yul\":810:951   */\n  swap2\n  swap1\n  pop\n  jump\t// out\n    /* \"#utility.yul\":957:1050   */\ntag_49:\n    /* \"#utility.yul\":994:1000   */\n  0x00\n    /* \"#utility.yul\":1041:1043   */\n  0x20\n    /* \"#utility.yul\":1036:1038   */\n  0x1f\n    /* \"#utility.yul\":1029:1034   */\n  dup4\n    /* \"#utility.yul\":1025:1039   */\n  add\n    /* \"#utility.yul\":1021:1044   */\n  div\n    /* \"#utility.yul\":1011:1044   */\n  swap1\n  pop\n    /* \"#utility.yul\":957:1050   */\n  swap2\n  swap1\n  pop\n  jump\t// out\n    /* \"#utility.yul\":1056:1163   */\ntag_50:\n    /* \"#utility.yul\":1100:1108   */\n  0x00\n    /* \"#utility.yul\":1150:1155   */\n  dup3\n    /* \"#utility.yul\":1144:1148   */\n  dup3\n    /* \"#utility.yul\":1140:1156   */\n  shl\n    /* \"#utility.yul\":1119:1156   */\n  swap1\n  pop\n    /* \"#utility.yul\":1056:1163   */\n  swap3\n  swap2\n  pop\n  pop\n  jump\t// out\n    /* \"#utility.yul\":1169:1562   */\ntag_51:\n    /* \"#utility.yul\":1238:1244   */\n  0x00\n    /* \"#utility.yul\":1288:1289   */\n  0x08\n    /* \"#utility.yul\":1276:1286   */\n  dup4\n    /* \"#utility.yul\":1272:1290   */\n  mul\n    /* \"#utility.yul\":1311:1408   */\n  tag_85\n    /* \"#utility.yul\":1341:1407   */\n  0xffffffffffffffffffffffffffffffffffffffffffffffffffffffffffffffff\n    /* \"#utility.yul\":1330:1339   */\n  dup3\n    /* \"#utility.yul\":1311:1408   */\n  tag_50\n  jump\t// in\ntag_85:\n    /* \"#utility.yul\":1429:1468   */\n  tag_86\n    /* \"#utility.yul\":1459:1467   */\n  dup7\n    /* \"#utility.yul\":1448:1457   */\n  dup4\n    /* \"#utility.yul\":1429:1468   */\n  tag_50\n  jump\t// in\ntag_86:\n    /* \"#utility.yul\":1417:1468   */\n  swap6\n  pop\n    /* \"#utility.yul\":1501:1505   */\n  dup1\n    /* \"#utility.yul\":1497:1506   */\n  not\n    /* \"#utility.yul\":1490:1495   */\n  dup5\n    /* \"#utility.yul\":1486:1507   */\n  and\n    /* \"#utility.yul\":1477:1507   */\n  swap4\n  pop\n    /* \"#utility.yul\":1550:1554   */\n  dup1\n    /* \"#utility.yul\":1540:1548   */\n  dup7\n    /* \"#utility.yul\":1536:1555   */\n  and\n    /* \"#utility.yul\":1529:1534   */\n  dup5\n    /* \"#utility.yul\":1526:1556   */\n  or\n    /* \"#utility.yul\":1516:1556   */\n  swap3\n  pop\n    /* \"#utility.yul\":1245:1562   */\n  pop\n  pop\n    /* \"#utility.yul\":1169:1562   */\n  swap4\n  swap3\n  pop\n  pop\n  pop\n  jump\t// out\n    /* \"#utility.yul\":1568:1645   */\ntag_52:\n    /* \"#utility.yul\":1605:1612   */\n  0x00\n    /* \"#utility.yul\":1634:1639   */\n  dup2\n    /* \"#utility.yul\":1623:1639   */\n  swap1\n  pop\n    /* \"#utility.yul\":1568:1645   */\n  swap2\n  swap1\n  pop\n  jump\t// out\n    /* \"#utility.yul\":1651:1711   */\ntag_53:\n    /* \"#utility.yul\":1679:1682   */\n  0x00\n    /* \"#utility.yul\":1700:1705   */\n  dup2\n    /* \"#utility.yul\":1693:1705   */\n  swap1\n  pop\n    /* \"#utility.yul\":1651:1711   */\n  swap2\n  swap1\n  pop\n  jump\t// out\n    /* \"#utility.yul\":1717:1859   */\ntag_54:\n    /* \"#utility.yul\":1767:1776   */\n  0x00\n    /* \"#utility.yul\":1800:1853   */\n  tag_90\n    /* \"#utility.yul\":1818:1852   */\n  tag_91\n    /* \"#utility.yul\":1827:1851   */\n  tag_92\n    /* \"#utility.yul\":1845:1850   */\n  dup5\n    /* \"#utility.yul\":1827:1851   */\n  tag_52\n  jump\t// in\ntag_92:\n    /* \"#utility.yul\":1818:1852   */\n  tag_53\n  jump\t// in\ntag_91:\n    /* \"#utility.yul\":1800:1853   */\n  tag_52\n  jump\t// in\ntag_90:\n    /* \"#utility.yul\":1787:1853   */\n  swap1\n  pop\n    /* \"#utility.yul\":1717:1859   */\n  swap2\n  swap1\n  pop\n  jump\t// out\n    /* \"#utility.yul\":1865:1940   */\ntag_55:\n    /* \"#utility.yul\":1908:1911   */\n  0x00\n    /* \"#utility.yul\":1929:1934   */\n  dup2\n    /* \"#utility.yul\":1922:1934   */\n  swap1\n  pop\n    /* \"#utility.yul\":1865:1940   */\n  swap2\n  swap1\n  pop\n  jump\t// out\n    /* \"#utility.yul\":1946:2215   */\ntag_56:\n    /* \"#utility.yul\":2056:2095   */\n  tag_95\n    /* \"#utility.yul\":2087:2094   */\n  dup4\n    /* \"#utility.yul\":2056:2095   */\n  tag_54\n  jump\t// in\ntag_95:\n    /* \"#utility.yul\":2117:2208   */\n  tag_96\n    /* \"#utility.yul\":2166:2207   */\n  tag_97\n    /* \"#utility.yul\":2190:2206   */\n  dup3\n    /* \"#utility.yul\":2166:2207   */\n  tag_55\n  jump\t// in\ntag_97:\n    /* \"#utility.yul\":2158:2164   */\n  dup5\n    /* \"#utility.yul\":2151:2155   */\n  dup5\n    /* \"#utility.yul\":2145:2156   */\n  sload\n    /* \"#utility.yul\":2117:2208   */\n  tag_51\n  jump\t// in\ntag_96:\n    /* \"#utility.yul\":2111:2115   */\n  dup3\n    /* \"#utility.yul\":2104:2209   */\n  sstore\n    /* \"#utility.yul\":2022:2215   */\n  pop\n    /* \"#utility.yul\":1946:2215   */\n  pop\n  pop\n  pop\n  jump\t// out\n    /* \"#utility.yul\":2221:2294   */\ntag_57:\n    /* \"#utility.yul\":2266:2269   */\n  0x00\n    /* \"#utility.yul\":2221:2294   */\n  swap1\n  jump\t// out\n    /* \"#utility.yul\":2300:2489   */\ntag_58:\n    /* \"#utility.yul\":2377:2409   */\n  tag_100\n  tag_57\n  jump\t// in\ntag_100:\n    /* \"#utility.yul\":2418:2483   */\n  tag_101\n    /* \"#utility.yul\":2476:2482   */\n  dup2\n    /* \"#utility.yul\":2468:2474   */\n  dup5\n    /* \"#utility.yul\":2462:2466   */\n  dup5\n    /* \"#utility.yul\":2418:2483   */\n  tag_56\n  jump\t// in\ntag_101:\n    /* \"#utility.yul\":2353:2489   */\n  pop\n    /* \"#utility.yul\":2300:2489   */\n  pop\n  pop\n  jump\t// out\n    /* \"#utility.yul\":2495:2681   */\ntag_59:\n    /* \"#utility.yul\":2555:2675   */\ntag_103:\n    /* \"#utility.yul\":2572:2575   */\n  dup2\n    /* \"#utility.yul\":2565:2570   */\n  dup2\n    /* \"#utility.yul\":2562:2576   */\n  lt\n    /* \"#utility.yul\":2555:2675   */\n  iszero\n  tag_105\n  jumpi\n    /* \"#utility.yul\":2626:2665   */\n  tag_106\n    /* \"#utility.yul\":2663:2664   */\n  0x00\n    /* \"#utility.yul\":2656:2661   */\n  dup3\n    /* \"#utility.yul\":2626:2665   */\n  tag_58\n  jump\t// in\ntag_106:\n    /* \"#utility.yul\":2599:2600   */\n  0x01\n    /* \"#utility.yul\":2592:2597   */\n  dup2\n    /* \"#utility.yul\":2588:2601   */\n  add\n    /* \"#utility.yul\":2579:2601   */\n  swap1\n  pop\n    /* \"#utility.yul\":2555:2675   */\n  jump(tag_103)\ntag_105:\n    /* \"#utility.yul\":2495:2681   */\n  pop\n  pop\n  jump\t// out\n    /* \"#utility.yul\":2687:3230   */\ntag_60:\n    /* \"#utility.yul\":2788:2790   */\n  0x1f\n    /* \"#utility.yul\":2783:2786   */\n  dup3\n    /* \"#utility.yul\":2780:2791   */\n  gt\n    /* \"#utility.yul\":2777:3223   */\n  iszero\n  tag_108\n  jumpi\n    /* \"#utility.yul\":2822:2860   */\n  tag_109\n    /* \"#utility.yul\":2854:2859   */\n  dup2\n    /* \"#utility.yul\":2822:2860   */\n  tag_48\n  jump\t// in\ntag_109:\n    /* \"#utility.yul\":2906:2935   */\n  tag_110\n    /* \"#utility.yul\":2924:2934   */\n  dup5\n    /* \"#utility.yul\":2906:2935   */\n  tag_49\n  jump\t// in\ntag_110:\n    /* \"#utility.yul\":2896:2904   */\n  dup2\n    /* \"#utility.yul\":2892:2936   */\n  add\n    /* \"#utility.yul\":3089:3091   */\n  0x20\n    /* \"#utility.yul\":3077:3087   */\n  dup6\n    /* \"#utility.yul\":3074:3092   */\n  lt\n    /* \"#utility.yul\":3071:3120   */\n  iszero\n  tag_111\n  jumpi\n    /* \"#utility.yul\":3110:3118   */\n  dup2\n    /* \"#utility.yul\":3095:3118   */\n  swap1\n  pop\n    /* \"#utility.yul\":3071:3120   */\ntag_111:\n    /* \"#utility.yul\":3133:3213   */\n  tag_112\n    /* \"#utility.yul\":3189:3211   */\n  tag_113\n    /* \"#utility.yul\":3207:3210   */\n  dup6\n    /* \"#utility.yul\":3189:3211   */\n  tag_49\n  jump\t// in\ntag_113:\n    /* \"#utility.yul\":3179:3187   */\n  dup4\n    /* \"#utility.yul\":3175:3212   */\n  add\n    /* \"#utility.yul\":3162:3173   */\n  dup3\n    /* \"#utility.yul\":3133:3213   */\n  tag_59\n  jump\t// in\ntag_112:\n    /* \"#utility.yul\":2792:3223   */\n  pop\n  pop\n    /* \"#utility.yul\":2777:3223   */\ntag_108:\n    /* \"#utility.yul\":2687:3230   */\n  pop\n  pop\n  pop\n  jump\t// out\n    /* \"#utility.yul\":3236:3353   */\ntag_61:\n    /* \"#utility.yul\":3290:3298   */\n  0x00\n    /* \"#utility.yul\":3340:3345   */\n  dup3\n    /* \"#utility.yul\":3334:3338   */\n  dup3\n    /* \"#utility.yul\":3330:3346   */\n  shr\n    /* \"#utility.yul\":3309:3346   */\n  swap1\n  pop\n    /* \"#utility.yul\":3236:3353   */\n  swap3\n  swap2\n  pop\n  pop\n  jump\t// out\n    /* \"#utility.yul\":3359:3528   */\ntag_62:\n    /* \"#utility.yul\":3403:3409   */\n  0x00\n    /* \"#utility.yul\":3436:3487   */\n  tag_116\n    /* \"#utility.yul\":3484:3485   */\n  0x00\n    /* \"#utility.yul\":3480:3486   */\n  not\n    /* \"#utility.yul\":3472:3477   */\n  dup5\n    /* \"#utility.yul\":3469:3470   */\n  0x08\n    /* \"#utility.yul\":3465:3478   */\n  mul\n    /* \"#utility.yul\":3436:3487   */\n  tag_61\n  jump\t// in\ntag_116:\n    /* \"#utility.yul\":3432:3488   */\n  not\n    /* \"#utility.yul\":3517:3521   */\n  dup1\n    /* \"#utility.yul\":3511:3515   */\n  dup4\n    /* \"#utility.yul\":3507:3522   */\n  and\n    /* \"#utility.yul\":3497:3522   */\n  swap2\n  pop\n    /* \"#utility.yul\":3410:3528   */\n  pop\n    /* \"#utility.yul\":3359:3528   */\n  swap3\n  swap2\n  pop\n  pop\n  jump\t// out\n    /* \"#utility.yul\":3533:3828   */\ntag_63:\n    /* \"#utility.yul\":3609:3613   */\n  0x00\n    /* \"#utility.yul\":3755:3784   */\n  tag_118\n    /* \"#utility.yul\":3780:3783   */\n  dup4\n    /* \"#utility.yul\":3774:3778   */\n  dup4\n    /* \"#utility.yul\":3755:3784   */\n  tag_62\n  jump\t// in\ntag_118:\n    /* \"#utility.yul\":3747:3784   */\n  swap2\n  pop\n    /* \"#utility.yul\":3817:3820   */\n  dup3\n    /* \"#utility.yul\":3814:3815   */\n  0x02\n    /* \"#utility.yul\":3810:3821   */\n  mul\n    /* \"#utility.yul\":3804:3808   */\n  dup3\n    /* \"#utility.yul\":3801:3822   */\n  or\n    /* \"#utility.yul\":3793:3822   */\n  swap1\n  pop\n    /* \"#utility.yul\":3533:3828   */\n  swap3\n  swap2\n  pop\n  pop\n  jump\t// out\n    /* \"#utility.yul\":3833:5228   */\ntag_7:\n    /* \"#utility.yul\":3950:3987   */\n  tag_120\n    /* \"#utility.yul\":3983:3986   */\n  dup3\n    /* \"#utility.yul\":3950:3987   */\n  tag_44\n  jump\t// in\ntag_120:\n    /* \"#utility.yul\":4052:4070   */\n  0xffffffffffffffff\n    /* \"#utility.yul\":4044:4050   */\n  dup2\n    /* \"#utility.yul\":4041:4071   */\n  gt\n    /* \"#utility.yul\":4038:4094   */\n  iszero\n  tag_121\n  jumpi\n    /* \"#utility.yul\":4074:4092   */\n  tag_122\n  tag_45\n  jump\t// in\ntag_122:\n    /* \"#utility.yul\":4038:4094   */\ntag_121:\n    /* \"#utility.yul\":4118:4156   */\n  tag_123\n    /* \"#utility.yul\":4150:4154   */\n  dup3\n    /* \"#utility.yul\":4144:4155   */\n  sload\n    /* \"#utility.yul\":4118:4156   */\n  tag_47\n  jump\t// in\ntag_123:\n    /* \"#utility.yul\":4203:4270   */\n  tag_124\n    /* \"#utility.yul\":4263:4269   */\n  dup3\n    /* \"#utility.yul\":4255:4261   */\n  dup3\n    /* \"#utility.yul\":4249:4253   */\n  dup6\n    /* \"#utility.yul\":4203:4270   */\n  tag_60\n  jump\t// in\ntag_124:\n    /* \"#utility.yul\":4297:4298   */\n  0x00\n    /* \"#utility.yul\":4321:4325   */\n  0x20\n    /* \"#utility.yul\":4308:4325   */\n  swap1\n  pop\n    /* \"#utility.yul\":4353:4355   */\n  0x1f\n    /* \"#utility.yul\":4345:4351   */\n  dup4\n    /* \"#utility.yul\":4342:4356   */\n  gt\n    /* \"#utility.yul\":4370:4371   */\n  0x01\n    /* \"#utility.yul\":4365:4983   */\n  dup2\n  eq\n  tag_126\n  jumpi\n    /* \"#utility.yul\":5027:5028   */\n  0x00\n    /* \"#utility.yul\":5044:5050   */\n  dup5\n    /* \"#utility.yul\":5041:5118   */\n  iszero\n  tag_127\n  jumpi\n    /* \"#utility.yul\":5093:5102   */\n  dup3\n    /* \"#utility.yul\":5088:5091   */\n  dup8\n    /* \"#utility.yul\":5084:5103   */\n  add\n    /* \"#utility.yul\":5078:5104   */\n  mload\n    /* \"#utility.yul\":5069:5104   */\n  swap1\n  pop\n    /* \"#utility.yul\":5041:5118   */\ntag_127:\n    /* \"#utility.yul\":5144:5211   */\n  tag_128\n    /* \"#utility.yul\":5204:5210   */\n  dup6\n    /* \"#utility.yul\":5197:5202   */\n  dup3\n    /* \"#utility.yul\":5144:5211   */\n  tag_63\n  jump\t// in\ntag_128:\n    /* \"#utility.yul\":5138:5142   */\n  dup7\n    /* \"#utility.yul\":5131:5212   */\n  sstore\n    /* \"#utility.yul\":5000:5222   */\n  pop\n    /* \"#utility.yul\":4335:5222   */\n  jump(tag_125)\n    /* \"#utility.yul\":4365:4983   */\ntag_126:\n    /* \"#utility.yul\":4417:4421   */\n  0x1f\n    /* \"#utility.yul\":4413:4422   */\n  not\n    /* \"#utility.yul\":4405:4411   */\n  dup5\n    /* \"#utility.yul\":4401:4423   */\n  and\n    /* \"#utility.yul\":4451:4488   */\n  tag_129\n    /* \"#utility.yul\":4483:4487   */\n  dup7\n    /* \"#utility.yul\":4451:4488   */\n  tag_48\n  jump\t// in\ntag_129:\n    /* \"#utility.yul\":4510:4511   */\n  0x00\n    /* \"#utility.yul\":4524:4732   */\ntag_130:\n    /* \"#utility.yul\":4538:4545   */\n  dup3\n    /* \"#utility.yul\":4535:4536   */\n  dup2\n    /* \"#utility.yul\":4532:4546   */\n  lt\n    /* \"#utility.yul\":4524:4732   */\n  iszero\n  tag_132\n  jumpi\n    /* \"#utility.yul\":4617:4626   */\n  dup5\n    /* \"#utility.yul\":4612:4615   */\n  dup10\n    /* \"#utility.yul\":4608:4627   */\n  add\n    /* \"#utility.yul\":4602:4628   */\n  mload\n    /* \"#utility.yul\":4594:4600   */\n  dup3\n    /* \"#utility.yul\":4587:4629   */\n  sstore\n    /* \"#utility.yul\":4668:4669   */\n  0x01\n    /* \"#utility.yul\":4660:4666   */\n  dup3\n    /* \"#utility.yul\":4656:4670   */\n  add\n    /* \"#utility.yul\":4646:4670   */\n  swap2\n  pop\n    /* \"#utility.yul\":4715:4717   */\n  0x20\n    /* \"#utility.yul\":4704:4713   */\n  dup6\n    /* \"#utility.yul\":4700:4718   */\n  add\n    /* \"#utility.yul\":4687:4718   */\n  swap5\n  pop\n    /* \"#utility.yul\":4561:4565   */\n  0x20\n    /* \"#utility.yul\":4558:4559   */\n  dup2\n    /* \"#utility.yul\":4554:4566   */\n  add\n    /* \"#utility.yul\":4549:4566   */\n  swap1\n  pop\n    /* \"#utility.yul\":4524:4732   */\n  jump(tag_130)\ntag_132:\n    /* \"#utility.yul\":4760:4766   */\n  dup7\n    /* \"#utility.yul\":4751:4758   */\n  dup4\n    /* \"#utility.yul\":4748:4767   */\n  lt\n    /* \"#utility.yul\":4745:4924   */\n  iszero\n  tag_133\n  jumpi\n    /* \"#utility.yul\":4818:4827   */\n  dup5\n    /* \"#utility.yul\":4813:4816   */\n  dup10\n    /* \"#utility.yul\":4809:4828   */\n  add\n    /* \"#utility.yul\":4803:4829   */\n  mload\n    /* \"#utility.yul\":4861:4909   */\n  tag_134\n    /* \"#utility.yul\":4903:4907   */\n  0x1f\n    /* \"#utility.yul\":4895:4901   */\n  dup10\n    /* \"#utility.yul\":4891:4908   */\n  and\n    /* \"#utility.yul\":4880:4889   */\n  dup3\n    /* \"#utility.yul\":4861:4909   */\n  tag_62\n  jump\t// in\ntag_134:\n    /* \"#utility.yul\":4853:4859   */\n  dup4\n    /* \"#utility.yul\":4846:4910   */\n  sstore\n    /* \"#utility.yul\":4768:4924   */\n  pop\n    /* \"#utility.yul\":4745:4924   */\ntag_133:\n    /* \"#utility.yul\":4970:4971   */\n  0x01\n    /* \"#utility.yul\":4966:4967   */\n  0x02\n    /* \"#utility.yul\":4958:4964   */\n  dup9\n    /* \"#utility.yul\":4954:4968   */\n  mul\n    /* \"#utility.yul\":4950:4972   */\n  add\n    /* \"#utility.yul\":4944:4948   */\n  dup9\n    /* \"#utility.yul\":4937:4973   */\n  sstore\n    /* \"#utility.yul\":4372:4983   */\n  pop\n  pop\n  pop\n    /* \"#utility.yul\":4335:5222   */\ntag_125:\n  pop\n    /* \"#utility.yul\":3925:5228   */\n  pop\n  pop\n  pop\n    /* \"#utility.yul\":3833:5228   */\n  pop\n  pop\n  jump\t// out\n    /* \"#utility.yul\":5234:5360   */\ntag_64:\n    /* \"#utility.yul\":5271:5278   */\n  0x00\n    /* \"#utility.yul\":5311:5353   */\n  0xffffffffffffffffffffffffffffffffffffffff\n    /* \"#utility.yul\":5304:5309   */\n  dup3\n    /* \"#utility.yul\":5300:5354   */\n  and\n    /* \"#utility.yul\":5289:5354   */\n  swap1\n  pop\n    /* \"#utility.yul\":5234:5360   */\n  swap2\n  swap1\n  pop\n  jump\t// out\n    /* \"#utility.yul\":5366:5462   */\ntag_65:\n    /* \"#utility.yul\":5403:5410   */\n  0x00\n    /* \"#utility.yul\":5432:5456   */\n  tag_137\n    /* \"#utility.yul\":5450:5455   */\n  dup3\n    /* \"#utility.yul\":5432:5456   */\n  tag_64\n  jump\t// in\ntag_137:\n    /* \"#utility.yul\":5421:5456   */\n  swap1\n  pop\n    /* \"#utility.yul\":5366:5462   */\n  swap2\n  swap1\n  pop\n  jump\t// out\n    /* \"#utility.yul\":5468:5586   */\ntag_66:\n    /* \"#utility.yul\":5555:5579   */\n  tag_139\n    /* \"#utility.yul\":5573:5578   */\n  dup2\n    /* \"#utility.yul\":5555:5579   */\n  tag_65\n  jump\t// in\ntag_139:\n    /* \"#utility.yul\":5550:5553   */\n  dup3\n    /* \"#utility.yul\":5543:5580   */\n  mstore\n    /* \"#utility.yul\":5468:5586   */\n  pop\n  pop\n  jump\t// out\n    /* \"#utility.yul\":5592:5814   */\ntag_12:\n    /* \"#utility.yul\":5685:5689   */\n  0x00\n    /* \"#utility.yul\":5723:5725   */\n  0x20\n    /* \"#utility.yul\":5712:5721   */\n  dup3\n    /* \"#utility.yul\":5708:5726   */\n  add\n    /* \"#utility.yul\":5700:5726   */\n  swap1\n  pop\n    /* \"#utility.yul\":5736:5807   */\n  tag_141\n    /* \"#utility.yul\":5804:5805   */\n  0x00\n    /* \"#utility.yul\":5793:5802   */\n  dup4\n    /* \"#utility.yul\":5789:5806   */\n  add\n    /* \"#utility.yul\":5780:5786   */\n  dup5\n    /* \"#utility.yul\":5736:5807   */\n  tag_66\n  jump\t// in\ntag_141:\n    /* \"#utility.yul\":5592:5814   */\n  swap3\n  swap2\n  pop\n  pop\n  jump\t// out\n    /* \"#utility.yul\":5820:6000   */\ntag_67:\n    /* \"#utility.yul\":5868:5945   */\n  0x4e487b7100000000000000000000000000000000000000000000000000000000\n    /* \"#utility.yul\":5865:5866   */\n  0x00\n    /* \"#utility.yul\":5858:5946   */\n  mstore\n    /* \"#utility.yul\":5965:5969   */\n  0x11\n    /* \"#utility.yul\":5962:5963   */\n  0x04\n    /* \"#utility.yul\":5955:5970   */\n  mstore\n    /* \"#utility.yul\":5989:5993   */\n  0x24\n    /* \"#utility.yul\":5986:5987   */\n  0x00\n    /* \"#utility.yul\":5979:5994   */\n  revert\n    /* \"#utility.yul\":6006:6108   */\ntag_68:\n    /* \"#utility.yul\":6048:6056   */\n  0x00\n    /* \"#utility.yul\":6095:6100   */\n  dup2\n    /* \"#utility.yul\":6092:6093   */\n  0x01\n    /* \"#utility.yul\":6088:6101   */\n  shr\n    /* \"#utility.yul\":6067:6101   */\n  swap1\n  pop\n    /* \"#utility.yul\":6006:6108   */\n  swap2\n  swap1\n  pop\n  jump\t// out\n    /* \"#utility.yul\":6114:6962   */\ntag_69:\n    /* \"#utility.yul\":6175:6180   */\n  0x00\n    /* \"#utility.yul\":6182:6186   */\n  dup1\n    /* \"#utility.yul\":6206:6212   */\n  dup3\n    /* \"#utility.yul\":6197:6212   */\n  swap2\n  pop\n    /* \"#utility.yul\":6230:6235   */\n  dup4\n    /* \"#utility.yul\":6221:6235   */\n  swap1\n  pop\n    /* \"#utility.yul\":6244:6956   */\ntag_145:\n    /* \"#utility.yul\":6265:6266   */\n  0x01\n    /* \"#utility.yul\":6255:6263   */\n  dup6\n    /* \"#utility.yul\":6252:6267   */\n  gt\n    /* \"#utility.yul\":6244:6956   */\n  iszero\n  tag_147\n  jumpi\n    /* \"#utility.yul\":6360:6364   */\n  dup1\n    /* \"#utility.yul\":6355:6358   */\n  dup7\n    /* \"#utility.yul\":6351:6365   */\n  div\n    /* \"#utility.yul\":6345:6349   */\n  dup2\n    /* \"#utility.yul\":6342:6366   */\n  gt\n    /* \"#utility.yul\":6339:6389   */\n  iszero\n  tag_148\n  jumpi\n    /* \"#utility.yul\":6369:6387   */\n  tag_149\n  tag_67\n  jump\t// in\ntag_149:\n    /* \"#utility.yul\":6339:6389   */\ntag_148:\n    /* \"#utility.yul\":6419:6420   */\n  0x01\n    /* \"#utility.yul\":6409:6417   */\n  dup6\n    /* \"#utility.yul\":6405:6421   */\n  and\n    /* \"#utility.yul\":6402:6853   */\n  iszero\n  tag_150\n  jumpi\n    /* \"#utility.yul\":6834:6838   */\n  dup1\n    /* \"#utility.yul\":6827:6832   */\n  dup3\n    /* \"#utility.yul\":6823:6839   */\n  mul\n    /* \"#utility.yul\":6814:6839   */\n  swap2\n  pop\n    /* \"#utility.yul\":6402:6853   */\ntag_150:\n    /* \"#utility.yul\":6884:6888   */\n  dup1\n    /* \"#utility.yul\":6878:6882   */\n  dup2\n    /* \"#utility.yul\":6874:6889   */\n  mul\n    /* \"#utility.yul\":6866:6889   */\n  swap1\n  pop\n    /* \"#utility.yul\":6914:6946   */\n  tag_151\n    /* \"#utility.yul\":6937:6945   */\n  dup6\n    /* \"#utility.yul\":6914:6946   */\n  tag_68\n  jump\t// in\ntag_151:\n    /* \"#utility.yul\":6902:6946   */\n  swap5\n  pop\n    /* \"#utility.yul\":6244:6956   */\n  jump(tag_145)\ntag_147:\n    /* \"#utility.yul\":6114:6962   */\n  swap5\n  pop\n  swap5\n  swap3\n  pop\n  pop\n  pop\n  jump\t// out\n    /* \"#utility.yul\":6968:8041   */\ntag_70:\n    /* \"#utility.yul\":7022:7027   */\n  0x00\n    /* \"#utility.yul\":7213:7221   */\n  dup3\n    /* \"#utility.yul\":7203:7243   */\n  tag_153\n  jumpi\n    /* \"#utility.yul\":7234:7235   */\n  0x01\n    /* \"#utility.yul\":7225:7235   */\n  swap1\n  pop\n    /* \"#utility.yul\":7236:7241   */\n  jump(tag_152)\n    /* \"#utility.yul\":7203:7243   */\ntag_153:\n    /* \"#utility.yul\":7262:7266   */\n  dup2\n    /* \"#utility.yul\":7252:7288   */\n  tag_154\n  jumpi\n    /* \"#utility.yul\":7279:7280   */\n  0x00\n    /* \"#utility.yul\":7270:7280   */\n  swap1\n  pop\n    /* \"#utility.yul\":7281:7286   */\n  jump(tag_152)\n    /* \"#utility.yul\":7252:7288   */\ntag_154:\n    /* \"#utility.yul\":7348:7352   */\n  dup2\n    /* \"#utility.yul\":7396:7397   */\n  0x01\n    /* \"#utility.yul\":7391:7418   */\n  dup2\n  eq\n  tag_156\n  jumpi\n    /* \"#utility.yul\":7432:7433   */\n  0x02\n    /* \"#utility.yul\":7427:7618   */\n  dup2\n  eq\n  tag_157\n  jumpi\n    /* \"#utility.yul\":7341:7618   */\n  jump(tag_155)\n    /* \"#utility.yul\":7391:7418   */\ntag_156:\n    /* \"#utility.yul\":7409:7410   */\n  0x01\n    /* \"#utility.yul\":7400:7410   */\n  swap2\n  pop\n    /* \"#utility.yul\":7411:7416   */\n  pop\n  jump(tag_152)\n    /* \"#utility.yul\":7427:7618   */\ntag_157:\n    /* \"#utility.yul\":7472:7475   */\n  0xff\n    /* \"#utility.yul\":7462:7470   */\n  dup5\n    /* \"#utility.yul\":7459:7476   */\n  gt\n    /* \"#utility.yul\":7456:7499   */\n  iszero\n  tag_158\n  jumpi\n    /* \"#utility.yul\":7479:7497   */\n  tag_159\n  tag_67\n  jump\t// in\ntag_159:\n    /* \"#utility.yul\":7456:7499   */\ntag_158:\n    /* \"#utility.yul\":7528:7536   */\n  dup4\n    /* \"#utility.yul\":7525:7526   */\n  0x02\n    /* \"#utility.yul\":7521:7537   */\n  exp\n    /* \"#utility.yul\":7512:7537   */\n  swap2\n  pop\n    /* \"#utility.yul\":7563:7566   */\n  dup5\n    /* \"#utility.yul\":7556:7561   */\n  dup3\n    /* \"#utility.yul\":7553:7567   */\n  gt\n    /* \"#utility.yul\":7550:7590   */\n  iszero\n  tag_160\n  jumpi\n    /* \"#utility.yul\":7570:7588   */\n  tag_161\n  tag_67\n  jump\t// in\ntag_161:\n    /* \"#utility.yul\":7550:7590   */\ntag_160:\n    /* \"#utility.yul\":7603:7608   */\n  pop\n  jump(tag_152)\n    /* \"#utility.yul\":7341:7618   */\ntag_155:\n  pop\n    /* \"#utility.yul\":7727:7729   */\n  0x20\n    /* \"#utility.yul\":7717:7725   */\n  dup4\n    /* \"#utility.yul\":7714:7730   */\n  lt\n    /* \"#utility.yul\":7708:7711   */\n  0x0133\n    /* \"#utility.yul\":7702:7706   */\n  dup4\n    /* \"#utility.yul\":7699:7712   */\n  lt\n    /* \"#utility.yul\":7695:7731   */\n  and\n    /* \"#utility.yul\":7677:7679   */\n  0x4e\n    /* \"#utility.yul\":7667:7675   */\n  dup5\n    /* \"#utility.yul\":7664:7680   */\n  lt\n    /* \"#utility.yul\":7659:7661   */\n  0x0b\n    /* \"#utility.yul\":7653:7657   */\n  dup5\n    /* \"#utility.yul\":7650:7662   */\n  lt\n    /* \"#utility.yul\":7646:7681   */\n  and\n    /* \"#utility.yul\":7630:7741   */\n  or\n    /* \"#utility.yul\":7627:7873   */\n  iszero\n  tag_162\n  jumpi\n    /* \"#utility.yul\":7783:7791   */\n  dup3\n    /* \"#utility.yul\":7777:7781   */\n  dup3\n    /* \"#utility.yul\":7773:7792   */\n  exp\n    /* \"#utility.yul\":7764:7792   */\n  swap1\n  pop\n    /* \"#utility.yul\":7818:7821   */\n  dup4\n    /* \"#utility.yul\":7811:7816   */\n  dup2\n    /* \"#utility.yul\":7808:7822   */\n  gt\n    /* \"#utility.yul\":7805:7845   */\n  iszero\n  tag_163\n  jumpi\n    /* \"#utility.yul\":7825:7843   */\n  tag_164\n  tag_67\n  jump\t// in\ntag_164:\n    /* \"#utility.yul\":7805:7845   */\ntag_163:\n    /* \"#utility.yul\":7858:7863   */\n  jump(tag_152)\n    /* \"#utility.yul\":7627:7873   */\ntag_162:\n    /* \"#utility.yul\":7898:7940   */\n  tag_165\n    /* \"#utility.yul\":7936:7939   */\n  dup5\n    /* \"#utility.yul\":7926:7934   */\n  dup5\n    /* \"#utility.yul\":7920:7924   */\n  dup5\n    /* \"#utility.yul\":7917:7918   */\n  0x01\n    /* \"#utility.yul\":7898:7940   */\n  tag_69\n  jump\t// in\ntag_165:\n    /* \"#utility.yul\":7883:7940   */\n  swap3\n  pop\n  swap1\n  pop\n    /* \"#utility.yul\":7972:7976   */\n  dup2\n    /* \"#utility.yul\":7967:7970   */\n  dup5\n    /* \"#utility.yul\":7963:7977   */\n  div\n    /* \"#utility.yul\":7956:7961   */\n  dup2\n    /* \"#utility.yul\":7953:7978   */\n  gt\n    /* \"#utility.yul\":7950:8001   */\n  iszero\n  tag_166\n  jumpi\n    /* \"#utility.yul\":7981:7999   */\n  tag_167\n  tag_67\n  jump\t// in\ntag_167:\n    /* \"#utility.yul\":7950:8001   */\ntag_166:\n    /* \"#utility.yul\":8030:8034   */\n  dup2\n    /* \"#utility.yul\":8023:8028   */\n  dup2\n    /* \"#utility.yul\":8019:8035   */\n  mul\n    /* \"#utility.yul\":8010:8035   */\n  swap1\n  pop\n    /* \"#utility.yul\":6968:8041   */\ntag_152:\n  swap4\n  swap3\n  pop\n  pop\n  pop\n  jump\t// out\n    /* \"#utility.yul\":8047:8133   */\ntag_71:\n    /* \"#utility.yul\":8082:8089   */\n  0x00\n    /* \"#utility.yul\":8122:8126   */\n  0xff\n    /* \"#utility.yul\":8115:8120   */\n  dup3\n    /* \"#utility.yul\":8111:8127   */\n  and\n    /* \"#utility.yul\":8100:8127   */\n  swap1\n  pop\n    /* \"#utility.yul\":8047:8133   */\n  swap2\n  swap1\n  pop\n  jump\t// out\n    /* \"#utility.yul\":8139:8420   */\ntag_20:\n    /* \"#utility.yul\":8197:8202   */\n  0x00\n    /* \"#utility.yul\":8221:8244   */\n  tag_170\n    /* \"#utility.yul\":8239:8243   */\n  dup3\n    /* \"#utility.yul\":8221:8244   */\n  tag_52\n  jump\t// in\ntag_170:\n    /* \"#utility.yul\":8213:8244   */\n  swap2\n  pop\n    /* \"#utility.yul\":8265:8290   */\n  tag_171\n    /* \"#utility.yul\":8281:8289   */\n  dup4\n    /* \"#utility.yul\":8265:8290   */\n  tag_71\n  jump\t// in\ntag_171:\n    /* \"#utility.yul\":8253:8290   */\n  swap3\n  pop\n    /* \"#utility.yul\":8309:8413   */\n  tag_172\n    /* \"#utility.yul\":8346:8412   */\n  0xffffffffffffffffffffffffffffffffffffffffffffffffffffffffffffffff\n    /* \"#utility.yul\":8336:8344   */\n  dup5\n    /* \"#utility.yul\":8330:8334   */\n  dup5\n    /* \"#utility.yul\":8309:8413   */\n  tag_70\n  jump\t// in\ntag_172:\n    /* \"#utility.yul\":8300:8413   */\n  swap1\n  pop\n    /* \"#utility.yul\":8139:8420   */\n  swap3\n  swap2\n  pop\n  pop\n  jump\t// out\n    /* \"#utility.yul\":8426:8836   */\ntag_22:\n    /* \"#utility.yul\":8466:8473   */\n  0x00\n    /* \"#utility.yul\":8489:8509   */\n  tag_174\n    /* \"#utility.yul\":8507:8508   */\n  dup3\n    /* \"#utility.yul\":8489:8509   */\n  tag_52\n  jump\t// in\ntag_174:\n    /* \"#utility.yul\":8484:8509   */\n  swap2\n  pop\n    /* \"#utility.yul\":8523:8543   */\n  tag_175\n    /* \"#utility.yul\":8541:8542   */\n  dup4\n    /* \"#utility.yul\":8523:8543   */\n  tag_52\n  jump\t// in\ntag_175:\n    /* \"#utility.yul\":8518:8543   */\n  swap3\n  pop\n    /* \"#utility.yul\":8578:8579   */\n  dup3\n    /* \"#utility.yul\":8575:8576   */\n  dup3\n    /* \"#utility.yul\":8571:8580   */\n  mul\n    /* \"#utility.yul\":8600:8630   */\n  tag_176\n    /* \"#utility.yul\":8618:8629   */\n  dup2\n    /* \"#utility.yul\":8600:8630   */\n  tag_52\n  jump\t// in\ntag_176:\n    /* \"#utility.yul\":8589:8630   */\n  swap2\n  pop\n    /* \"#utility.yul\":8779:8780   */\n  dup3\n    /* \"#utility.yul\":8770:8777   */\n  dup3\n    /* \"#utility.yul\":8766:8781   */\n  div\n    /* \"#utility.yul\":8763:8764   */\n  dup5\n    /* \"#utility.yul\":8760:8782   */\n  eq\n    /* \"#utility.yul\":8740:8741   */\n  dup4\n    /* \"#utility.yul\":8733:8742   */\n  iszero\n    /* \"#utility.yul\":8713:8796   */\n  or\n    /* \"#utility.yul\":8690:8829   */\n  tag_177\n  jumpi\n    /* \"#utility.yul\":8809:8827   */\n  tag_178\n  tag_67\n  jump\t// in\ntag_178:\n    /* \"#utility.yul\":8690:8829   */\ntag_177:\n    /* \"#utility.yul\":8474:8836   */\n  pop\n    /* \"#utility.yul\":8426:8836   */\n  swap3\n  swap2\n  pop\n  pop\n  jump\t// out\n    /* \"#utility.yul\":8842:9033   */\ntag_35:\n    /* \"#utility.yul\":8882:8885   */\n  0x00\n    /* \"#utility.yul\":8901:8921   */\n  tag_180\n    /* \"#utility.yul\":8919:8920   */\n  dup3\n    /* \"#utility.yul\":8901:8921   */\n  tag_52\n  jump\t// in\ntag_180:\n    /* \"#utility.yul\":8896:8921   */\n  swap2\n  pop\n    /* \"#utility.yul\":8935:8955   */\n  tag_181\n    /* \"#utility.yul\":8953:8954   */\n  dup4\n    /* \"#utility.yul\":8935:8955   */\n  tag_52\n  jump\t// in\ntag_181:\n    /* \"#utility.yul\":8930:8955   */\n  swap3\n  pop\n    /* \"#utility.yul\":8978:8979   */\n  dup3\n    /* \"#utility.yul\":8975:8976   */\n  dup3\n    /* \"#utility.yul\":8971:8980   */\n  add\n    /* \"#utility.yul\":8964:8980   */\n  swap1\n  pop\n    /* \"#utility.yul\":8999:9002   */\n  dup1\n    /* \"#utility.yul\":8996:8997   */\n  dup3\n    /* \"#utility.yul\":8993:9003   */\n  gt\n    /* \"#utility.yul\":8990:9026   */\n  iszero\n  tag_182\n  jumpi\n    /* \"#utility.yul\":9006:9024   */\n  tag_183\n  tag_67\n  jump\t// in\ntag_183:\n    /* \"#utility.yul\":8990:9026   */\ntag_182:\n    /* \"#utility.yul\":8842:9033   */\n  swap3\n  swap2\n  pop\n  pop\n  jump\t// out\n    /* \"#utility.yul\":9039:9157   */\ntag_72:\n    /* \"#utility.yul\":9126:9150   */\n  tag_185\n    /* \"#utility.yul\":9144:9149   */\n  dup2\n    /* \"#utility.yul\":9126:9150   */\n  tag_52\n  jump\t// in\ntag_185:\n    /* \"#utility.yul\":9121:9124   */\n  dup3\n    /* \"#utility.yul\":9114:9151   */\n  mstore\n    /* \"#utility.yul\":9039:9157   */\n  pop\n  pop\n  jump\t// out\n    /* \"#utility.yul\":9163:9605   */\ntag_39:\n    /* \"#utility.yul\":9312:9316   */\n  0x00\n    /* \"#utility.yul\":9350:9352   */\n  0x60\n    /* \"#utility.yul\":9339:9348   */\n  dup3\n    /* \"#utility.yul\":9335:9353   */\n  add\n    /* \"#utility.yul\":9327:9353   */\n  swap1\n  pop\n    /* \"#utility.yul\":9363:9434   */\n  tag_187\n    /* \"#utility.yul\":9431:9432   */\n  0x00\n    /* \"#utility.yul\":9420:9429   */\n  dup4\n    /* \"#utility.yul\":9416:9433   */\n  add\n    /* \"#utility.yul\":9407:9413   */\n  dup7\n    /* \"#utility.yul\":9363:9434   */\n  tag_66\n  jump\t// in\ntag_187:\n    /* \"#utility.yul\":9444:9516   */\n  tag_188\n    /* \"#utility.yul\":9512:9514   */\n  0x20\n    /* \"#utility.yul\":9501:9510   */\n  dup4\n    /* \"#utility.yul\":9497:9515   */\n  add\n    /* \"#utility.yul\":9488:9494   */\n  dup6\n    /* \"#utility.yul\":9444:9516   */\n  tag_72\n  jump\t// in\ntag_188:\n    /* \"#utility.yul\":9526:9598   */\n  tag_189\n    /* \"#utility.yul\":9594:9596   */\n  0x40\n    /* \"#utility.yul\":9583:9592   */\n  dup4\n    /* \"#utility.yul\":9579:9597   */\n  add\n    /* \"#utility.yul\":9570:9576   */\n  dup5\n    /* \"#utility.yul\":9526:9598   */\n  tag_72\n  jump\t// in\ntag_189:\n    /* \"#utility.yul\":9163:9605   */\n  swap5\n  swap4\n  pop\n  pop\n  pop\n  pop\n  jump\t// out\n    /* \"#utility.yul\":9611:9833   */\ntag_43:\n    /* \"#utility.yul\":9704:9708   */\n  0x00\n    /* \"#utility.yul\":9742:9744   */\n  0x20\n    /* \"#utility.yul\":9731:9740   */\n  dup3\n    /* \"#utility.yul\":9727:9745   */\n  add\n    /* \"#utility.yul\":9719:9745   */\n  swap1\n  pop\n    /* \"#utility.yul\":9755:9826   */\n  tag_191\n    /* \"#utility.yul\":9823:9824   */\n  0x00\n    /* \"#utility.yul\":9812:9821   */\n  dup4\n    /* \"#utility.yul\":9808:9825   */\n  add\n    /* \"#utility.yul\":9799:9805   */\n  dup5\n    /* \"#utility.yul\":9755:9826   */\n  tag_72\n  jump\t// in\ntag_191:\n    /* \"#utility.yul\":9611:9833   */\n  swap3\n  swap2\n  pop\n  pop\n  jump\t// out\n    /* \"FinalProject2/GameCoin.sol\":168:2100  contract GameCoin is ERC20, Ownable {... */\ntag_24:\n  dataSize(sub_0)\n  dup1\n  dataOffset(sub_0)\n  0x00\n  codecopy\n  0x00\n  return\nstop\n\nsub_0: assembly {\n        /* \"FinalProject2/GameCoin.sol\":168:2100  contract GameCoin is ERC20, Ownable {... */\n      mstore(0x40, 0x80)\n      jumpi(tag_1, lt(calldatasize, 0x04))\n      shr(0xe0, calldataload(0x00))\n      dup1\n      0x95d89b41\n      gt\n      tag_24\n      jumpi\n      dup1\n      0xd637dcfa\n      gt\n      tag_25\n      jumpi\n      dup1\n      0xd637dcfa\n      eq\n      tag_18\n      jumpi\n      dup1\n      0xd96a094a\n      eq\n      tag_19\n      jumpi\n      dup1\n      0xdd62ed3e\n      eq\n      tag_20\n      jumpi\n      dup1\n      0xe4849b32\n      eq\n      tag_21\n      jumpi\n      dup1\n      0xf2fde38b\n      eq\n      tag_22\n      jumpi\n      dup1\n      0xfc37987b\n      eq\n      tag_23\n      jumpi\n      jump(tag_2)\n    tag_25:\n      dup1\n      0x95d89b41\n      eq\n      tag_13\n      jumpi\n      dup1\n      0xa9059cbb\n      eq\n      tag_14\n      jumpi\n      dup1\n      0xac6af280\n      eq\n      tag_15\n      jumpi\n      dup1\n      0xcb797836\n      eq\n      tag_16\n      jumpi\n      dup1\n      0xd0679d34\n      eq\n      tag_17\n      jumpi\n      jump(tag_2)\n    tag_24:\n      dup1\n      0x6217229b\n      gt\n      tag_26\n      jumpi\n      dup1\n      0x6217229b\n      eq\n      tag_8\n      jumpi\n      dup1\n      0x6386c1c7\n      eq\n      tag_9\n      jumpi\n      dup1\n      0x70a08231\n      eq\n      tag_10\n      jumpi\n      dup1\n      0x715018a6\n      eq\n      tag_11\n      jumpi\n      dup1\n      0x8da5cb5b\n      eq\n      tag_12\n      jumpi\n      jump(tag_2)\n    tag_26:\n      dup1\n      0x06fdde03\n      eq\n      tag_3\n      jumpi\n      dup1\n      0x095ea7b3\n      eq\n      tag_4\n      jumpi\n      dup1\n      0x18160ddd\n      eq\n      tag_5\n      jumpi\n      dup1\n      0x23b872dd\n      eq\n      tag_6\n      jumpi\n      dup1\n      0x313ce567\n      eq\n      tag_7\n      jumpi\n      jump(tag_2)\n    tag_1:\n      jumpi(tag_2, calldatasize)\n      stop\n    tag_2:\n      0x00\n      dup1\n      revert\n        /* \"@openzeppelin/contracts/token/ERC20/ERC20.sol\":2074:2163  function name() public view virtual returns (string memory) {... */\n    tag_3:\n      callvalue\n      dup1\n      iszero\n      tag_29\n      jumpi\n      0x00\n      dup1\n      revert\n    tag_29:\n      pop\n      tag_30\n      tag_31\n      jump\t// in\n    tag_30:\n      mload(0x40)\n      tag_32\n      swap2\n      swap1\n      tag_33\n      jump\t// in\n    tag_32:\n      mload(0x40)\n      dup1\n      swap2\n      sub\n      swap1\n      return\n        /* \"@openzeppelin/contracts/token/ERC20/ERC20.sol\":4293:4479  function approve(address spender, uint256 value) public virtual returns (bool) {... */\n    tag_4:\n      callvalue\n      dup1\n      iszero\n      tag_34\n      jumpi\n      0x00\n      dup1\n      revert\n    tag_34:\n      pop\n      tag_35\n      0x04\n      dup1\n      calldatasize\n      sub\n      dup2\n      add\n      swap1\n      tag_36\n      swap2\n      swap1\n      tag_37\n      jump\t// in\n    tag_36:\n      tag_38\n      jump\t// in\n    tag_35:\n      mload(0x40)\n      tag_39\n      swap2\n      swap1\n      tag_40\n      jump\t// in\n    tag_39:\n      mload(0x40)\n      dup1\n      swap2\n      sub\n      swap1\n      return\n        /* \"@openzeppelin/contracts/token/ERC20/ERC20.sol\":3144:3241  function totalSupply() public view virtual returns (uint256) {... */\n    tag_5:\n      callvalue\n      dup1\n      iszero\n      tag_41\n      jumpi\n      0x00\n      dup1\n      revert\n    tag_41:\n      pop\n      tag_42\n      tag_43\n      jump\t// in\n    tag_42:\n      mload(0x40)\n      tag_44\n      swap2\n      swap1\n      tag_45\n      jump\t// in\n    tag_44:\n      mload(0x40)\n      dup1\n      swap2\n      sub\n      swap1\n      return\n        /* \"@openzeppelin/contracts/token/ERC20/ERC20.sol\":5039:5283  function transferFrom(address from, address to, uint256 value) public virtual returns (bool) {... */\n    tag_6:\n      callvalue\n      dup1\n      iszero\n      tag_46\n      jumpi\n      0x00\n      dup1\n      revert\n    tag_46:\n      pop\n      tag_47\n      0x04\n      dup1\n      calldatasize\n      sub\n      dup2\n      add\n      swap1\n      tag_48\n      swap2\n      swap1\n      tag_49\n      jump\t// in\n    tag_48:\n      tag_50\n      jump\t// in\n    tag_47:\n      mload(0x40)\n      tag_51\n      swap2\n      swap1\n      tag_40\n      jump\t// in\n    tag_51:\n      mload(0x40)\n      dup1\n      swap2\n      sub\n      swap1\n      return\n        /* \"@openzeppelin/contracts/token/ERC20/ERC20.sol\":3002:3084  function decimals() public view virtual returns (uint8) {... */\n    tag_7:\n      callvalue\n      dup1\n      iszero\n      tag_52\n      jumpi\n      0x00\n      dup1\n      revert\n    tag_52:\n      pop\n      tag_53\n      tag_54\n      jump\t// in\n    tag_53:\n      mload(0x40)\n      tag_55\n      swap2\n      swap1\n      tag_56\n      jump\t// in\n    tag_55:\n      mload(0x40)\n      dup1\n      swap2\n      sub\n      swap1\n      return\n        /* \"FinalProject2/GameCoin.sol\":210:238  uint256 public sellRate = 10 */\n    tag_8:\n      callvalue\n      dup1\n      iszero\n      tag_57\n      jumpi\n      0x00\n      dup1\n      revert\n    tag_57:\n      pop\n      tag_58\n      tag_59\n      jump\t// in\n    tag_58:\n      mload(0x40)\n      tag_60\n      swap2\n      swap1\n      tag_45\n      jump\t// in\n    tag_60:\n      mload(0x40)\n      dup1\n      swap2\n      sub\n      swap1\n      return\n        /* \"FinalProject2/GameCoin.sol\":933:1141  function getUserInfo(address account) public view returns (string memory, string memory, string memory) {... */\n    tag_9:\n      callvalue\n      dup1\n      iszero\n      tag_61\n      jumpi\n      0x00\n      dup1\n      revert\n    tag_61:\n      pop\n      tag_62\n      0x04\n      dup1\n      calldatasize\n      sub\n      dup2\n      add\n      swap1\n      tag_63\n      swap2\n      swap1\n      tag_64\n      jump\t// in\n    tag_63:\n      tag_65\n      jump\t// in\n    tag_62:\n      mload(0x40)\n      tag_66\n      swap4\n      swap3\n      swap2\n      swap1\n      tag_67\n      jump\t// in\n    tag_66:\n      mload(0x40)\n      dup1\n      swap2\n      sub\n      swap1\n      return\n        /* \"@openzeppelin/contracts/token/ERC20/ERC20.sol\":3299:3415  function balanceOf(address account) public view virtual returns (uint256) {... */\n    tag_10:\n      callvalue\n      dup1\n      iszero\n      tag_68\n      jumpi\n      0x00\n      dup1\n      revert\n    tag_68:\n      pop\n      tag_69\n      0x04\n      dup1\n      calldatasize\n      sub\n      dup2\n      add\n      swap1\n      tag_70\n      swap2\n      swap1\n      tag_64\n      jump\t// in\n    tag_70:\n      tag_71\n      jump\t// in\n    tag_69:\n      mload(0x40)\n      tag_72\n      swap2\n      swap1\n      tag_45\n      jump\t// in\n    tag_72:\n      mload(0x40)\n      dup1\n      swap2\n      sub\n      swap1\n      return\n        /* \"@openzeppelin/contracts/access/Ownable.sol\":2293:2394  function renounceOwnership() public virtual onlyOwner {... */\n    tag_11:\n      callvalue\n      dup1\n      iszero\n      tag_73\n      jumpi\n      0x00\n      dup1\n      revert\n    tag_73:\n      pop\n      tag_74\n      tag_75\n      jump\t// in\n    tag_74:\n      stop\n        /* \"@openzeppelin/contracts/access/Ownable.sol\":1638:1723  function owner() public view virtual returns (address) {... */\n    tag_12:\n      callvalue\n      dup1\n      iszero\n      tag_76\n      jumpi\n      0x00\n      dup1\n      revert\n    tag_76:\n      pop\n      tag_77\n      tag_78\n      jump\t// in\n    tag_77:\n      mload(0x40)\n      tag_79\n      swap2\n      swap1\n      tag_80\n      jump\t// in\n    tag_79:\n      mload(0x40)\n      dup1\n      swap2\n      sub\n      swap1\n      return\n        /* \"@openzeppelin/contracts/token/ERC20/ERC20.sol\":2276:2369  function symbol() public view virtual returns (string memory) {... */\n    tag_13:\n      callvalue\n      dup1\n      iszero\n      tag_81\n      jumpi\n      0x00\n      dup1\n      revert\n    tag_81:\n      pop\n      tag_82\n      tag_83\n      jump\t// in\n    tag_82:\n      mload(0x40)\n      tag_84\n      swap2\n      swap1\n      tag_33\n      jump\t// in\n    tag_84:\n      mload(0x40)\n      dup1\n      swap2\n      sub\n      swap1\n      return\n        /* \"@openzeppelin/contracts/token/ERC20/ERC20.sol\":3610:3788  function transfer(address to, uint256 value) public virtual returns (bool) {... */\n    tag_14:\n      callvalue\n      dup1\n      iszero\n      tag_85\n      jumpi\n      0x00\n      dup1\n      revert\n    tag_85:\n      pop\n      tag_86\n      0x04\n      dup1\n      calldatasize\n      sub\n      dup2\n      add\n      swap1\n      tag_87\n      swap2\n      swap1\n      tag_37\n      jump\t// in\n    tag_87:\n      tag_88\n      jump\t// in\n    tag_86:\n      mload(0x40)\n      tag_89\n      swap2\n      swap1\n      tag_40\n      jump\t// in\n    tag_89:\n      mload(0x40)\n      dup1\n      swap2\n      sub\n      swap1\n      return\n        /* \"FinalProject2/GameCoin.sol\":1926:2063  function setRates(uint256 _sellRate, uint256 _buyRate) public onlyOwner {... */\n    tag_15:\n      callvalue\n      dup1\n      iszero\n      tag_90\n      jumpi\n      0x00\n      dup1\n      revert\n    tag_90:\n      pop\n      tag_91\n      0x04\n      dup1\n      calldatasize\n      sub\n      dup2\n      add\n      swap1\n      tag_92\n      swap2\n      swap1\n      tag_93\n      jump\t// in\n    tag_92:\n      tag_94\n      jump\t// in\n    tag_91:\n      stop\n        /* \"FinalProject2/GameCoin.sol\":1811:1920  function sendToOwner(uint256 amount) public onlyOwner {... */\n    tag_16:\n      callvalue\n      dup1\n      iszero\n      tag_95\n      jumpi\n      0x00\n      dup1\n      revert\n    tag_95:\n      pop\n      tag_96\n      0x04\n      dup1\n      calldatasize\n      sub\n      dup2\n      add\n      swap1\n      tag_97\n      swap2\n      swap1\n      tag_98\n      jump\t// in\n    tag_97:\n      tag_99\n      jump\t// in\n    tag_96:\n      stop\n        /* \"FinalProject2/GameCoin.sol\":1702:1805  function send(address to, uint256 gcAmount) public {... */\n    tag_17:\n      callvalue\n      dup1\n      iszero\n      tag_100\n      jumpi\n      0x00\n      dup1\n      revert\n    tag_100:\n      pop\n      tag_101\n      0x04\n      dup1\n      calldatasize\n      sub\n      dup2\n      add\n      swap1\n      tag_102\n      swap2\n      swap1\n      tag_37\n      jump\t// in\n    tag_102:\n      tag_103\n      jump\t// in\n    tag_101:\n      stop\n        /* \"FinalProject2/GameCoin.sol\":627:927  function registerUser(string memory username, string memory email, string memory bio) public {... */\n    tag_18:\n      callvalue\n      dup1\n      iszero\n      tag_104\n      jumpi\n      0x00\n      dup1\n      revert\n    tag_104:\n      pop\n      tag_105\n      0x04\n      dup1\n      calldatasize\n      sub\n      dup2\n      add\n      swap1\n      tag_106\n      swap2\n      swap1\n      tag_107\n      jump\t// in\n    tag_106:\n      tag_108\n      jump\t// in\n    tag_105:\n      stop\n        /* \"FinalProject2/GameCoin.sol\":1147:1412  function buy(uint256 gcAmount) public payable {... */\n    tag_19:\n      tag_109\n      0x04\n      dup1\n      calldatasize\n      sub\n      dup2\n      add\n      swap1\n      tag_110\n      swap2\n      swap1\n      tag_98\n      jump\t// in\n    tag_110:\n      tag_111\n      jump\t// in\n    tag_109:\n      stop\n        /* \"@openzeppelin/contracts/token/ERC20/ERC20.sol\":3846:3986  function allowance(address owner, address spender) public view virtual returns (uint256) {... */\n    tag_20:\n      callvalue\n      dup1\n      iszero\n      tag_112\n      jumpi\n      0x00\n      dup1\n      revert\n    tag_112:\n      pop\n      tag_113\n      0x04\n      dup1\n      calldatasize\n      sub\n      dup2\n      add\n      swap1\n      tag_114\n      swap2\n      swap1\n      tag_115\n      jump\t// in\n    tag_114:\n      tag_116\n      jump\t// in\n    tag_113:\n      mload(0x40)\n      tag_117\n      swap2\n      swap1\n      tag_45\n      jump\t// in\n    tag_117:\n      mload(0x40)\n      dup1\n      swap2\n      sub\n      swap1\n      return\n        /* \"FinalProject2/GameCoin.sol\":1418:1696  function sell(uint256 gcAmount) public {... */\n    tag_21:\n      callvalue\n      dup1\n      iszero\n      tag_118\n      jumpi\n      0x00\n      dup1\n      revert\n    tag_118:\n      pop\n      tag_119\n      0x04\n      dup1\n      calldatasize\n      sub\n      dup2\n      add\n      swap1\n      tag_120\n      swap2\n      swap1\n      tag_98\n      jump\t// in\n    tag_120:\n      tag_121\n      jump\t// in\n    tag_119:\n      stop\n        /* \"@openzeppelin/contracts/access/Ownable.sol\":2543:2758  function transferOwnership(address newOwner) public virtual onlyOwner {... */\n    tag_22:\n      callvalue\n      dup1\n      iszero\n      tag_122\n      jumpi\n      0x00\n      dup1\n      revert\n    tag_122:\n      pop\n      tag_123\n      0x04\n      dup1\n      calldatasize\n      sub\n      dup2\n      add\n      swap1\n      tag_124\n      swap2\n      swap1\n      tag_64\n      jump\t// in\n    tag_124:\n      tag_125\n      jump\t// in\n    tag_123:\n      stop\n        /* \"FinalProject2/GameCoin.sol\":273:299  uint256 public buyRate = 6 */\n    tag_23:\n      callvalue\n      dup1\n      iszero\n      tag_126\n      jumpi\n      0x00\n      dup1\n      revert\n    tag_126:\n      pop\n      tag_127\n      tag_128\n      jump\t// in\n    tag_127:\n      mload(0x40)\n      tag_129\n      swap2\n      swap1\n      tag_45\n      jump\t// in\n    tag_129:\n      mload(0x40)\n      dup1\n      swap2\n      sub\n      swap1\n      return\n        /* \"@openzeppelin/contracts/token/ERC20/ERC20.sol\":2074:2163  function name() public view virtual returns (string memory) {... */\n    tag_31:\n        /* \"@openzeppelin/contracts/token/ERC20/ERC20.sol\":2119:2132  string memory */\n      0x60\n        /* \"@openzeppelin/contracts/token/ERC20/ERC20.sol\":2151:2156  _name */\n      0x03\n        /* \"@openzeppelin/contracts/token/ERC20/ERC20.sol\":2144:2156  return _name */\n      dup1\n      sload\n      tag_131\n      swap1\n      tag_132\n      jump\t// in\n    tag_131:\n      dup1\n      0x1f\n      add\n      0x20\n      dup1\n      swap2\n      div\n      mul\n      0x20\n      add\n      mload(0x40)\n      swap1\n      dup2\n      add\n      0x40\n      mstore\n      dup1\n      swap3\n      swap2\n      swap1\n      dup2\n      dup2\n      mstore\n      0x20\n      add\n      dup3\n      dup1\n      sload\n      tag_133\n      swap1\n      tag_132\n      jump\t// in\n    tag_133:\n      dup1\n      iszero\n      tag_134\n      jumpi\n      dup1\n      0x1f\n      lt\n      tag_135\n      jumpi\n      0x0100\n      dup1\n      dup4\n      sload\n      div\n      mul\n      dup4\n      mstore\n      swap2\n      0x20\n      add\n      swap2\n      jump(tag_134)\n    tag_135:\n      dup3\n      add\n      swap2\n      swap1\n      0x00\n      mstore\n      keccak256(0x00, 0x20)\n      swap1\n    tag_136:\n      dup2\n      sload\n      dup2\n      mstore\n      swap1\n      0x01\n      add\n      swap1\n      0x20\n      add\n      dup1\n      dup4\n      gt\n      tag_136\n      jumpi\n      dup3\n      swap1\n      sub\n      0x1f\n      and\n      dup3\n      add\n      swap2\n    tag_134:\n      pop\n      pop\n      pop\n      pop\n      pop\n      swap1\n      pop\n        /* \"@openzeppelin/contracts/token/ERC20/ERC20.sol\":2074:2163  function name() public view virtual returns (string memory) {... */\n      swap1\n      jump\t// out\n        /* \"@openzeppelin/contracts/token/ERC20/ERC20.sol\":4293:4479  function approve(address spender, uint256 value) public virtual returns (bool) {... */\n    tag_38:\n        /* \"@openzeppelin/contracts/token/ERC20/ERC20.sol\":4366:4370  bool */\n      0x00\n        /* \"@openzeppelin/contracts/token/ERC20/ERC20.sol\":4382:4395  address owner */\n      dup1\n        /* \"@openzeppelin/contracts/token/ERC20/ERC20.sol\":4398:4410  _msgSender() */\n      tag_138\n        /* \"@openzeppelin/contracts/token/ERC20/ERC20.sol\":4398:4408  _msgSender */\n      tag_139\n        /* \"@openzeppelin/contracts/token/ERC20/ERC20.sol\":4398:4410  _msgSender() */\n      jump\t// in\n    tag_138:\n        /* \"@openzeppelin/contracts/token/ERC20/ERC20.sol\":4382:4410  address owner = _msgSender() */\n      swap1\n      pop\n        /* \"@openzeppelin/contracts/token/ERC20/ERC20.sol\":4420:4451  _approve(owner, spender, value) */\n      tag_140\n        /* \"@openzeppelin/contracts/token/ERC20/ERC20.sol\":4429:4434  owner */\n      dup2\n        /* \"@openzeppelin/contracts/token/ERC20/ERC20.sol\":4436:4443  spender */\n      dup6\n        /* \"@openzeppelin/contracts/token/ERC20/ERC20.sol\":4445:4450  value */\n      dup6\n        /* \"@openzeppelin/contracts/token/ERC20/ERC20.sol\":4420:4428  _approve */\n      tag_141\n        /* \"@openzeppelin/contracts/token/ERC20/ERC20.sol\":4420:4451  _approve(owner, spender, value) */\n      jump\t// in\n    tag_140:\n        /* \"@openzeppelin/contracts/token/ERC20/ERC20.sol\":4468:4472  true */\n      0x01\n        /* \"@openzeppelin/contracts/token/ERC20/ERC20.sol\":4461:4472  return true */\n      swap2\n      pop\n      pop\n        /* \"@openzeppelin/contracts/token/ERC20/ERC20.sol\":4293:4479  function approve(address spender, uint256 value) public virtual returns (bool) {... */\n      swap3\n      swap2\n      pop\n      pop\n      jump\t// out\n        /* \"@openzeppelin/contracts/token/ERC20/ERC20.sol\":3144:3241  function totalSupply() public view virtual returns (uint256) {... */\n    tag_43:\n        /* \"@openzeppelin/contracts/token/ERC20/ERC20.sol\":3196:3203  uint256 */\n      0x00\n        /* \"@openzeppelin/contracts/token/ERC20/ERC20.sol\":3222:3234  _totalSupply */\n      sload(0x02)\n        /* \"@openzeppelin/contracts/token/ERC20/ERC20.sol\":3215:3234  return _totalSupply */\n      swap1\n      pop\n        /* \"@openzeppelin/contracts/token/ERC20/ERC20.sol\":3144:3241  function totalSupply() public view virtual returns (uint256) {... */\n      swap1\n      jump\t// out\n        /* \"@openzeppelin/contracts/token/ERC20/ERC20.sol\":5039:5283  function transferFrom(address from, address to, uint256 value) public virtual returns (bool) {... */\n    tag_50:\n        /* \"@openzeppelin/contracts/token/ERC20/ERC20.sol\":5126:5130  bool */\n      0x00\n        /* \"@openzeppelin/contracts/token/ERC20/ERC20.sol\":5142:5157  address spender */\n      dup1\n        /* \"@openzeppelin/contracts/token/ERC20/ERC20.sol\":5160:5172  _msgSender() */\n      tag_144\n        /* \"@openzeppelin/contracts/token/ERC20/ERC20.sol\":5160:5170  _msgSender */\n      tag_139\n        /* \"@openzeppelin/contracts/token/ERC20/ERC20.sol\":5160:5172  _msgSender() */\n      jump\t// in\n    tag_144:\n        /* \"@openzeppelin/contracts/token/ERC20/ERC20.sol\":5142:5172  address spender = _msgSender() */\n      swap1\n      pop\n        /* \"@openzeppelin/contracts/token/ERC20/ERC20.sol\":5182:5219  _spendAllowance(from, spender, value) */\n      tag_145\n        /* \"@openzeppelin/contracts/token/ERC20/ERC20.sol\":5198:5202  from */\n      dup6\n        /* \"@openzeppelin/contracts/token/ERC20/ERC20.sol\":5204:5211  spender */\n      dup3\n        /* \"@openzeppelin/contracts/token/ERC20/ERC20.sol\":5213:5218  value */\n      dup6\n        /* \"@openzeppelin/contracts/token/ERC20/ERC20.sol\":5182:5197  _spendAllowance */\n      tag_146\n        /* \"@openzeppelin/contracts/token/ERC20/ERC20.sol\":5182:5219  _spendAllowance(from, spender, value) */\n      jump\t// in\n    tag_145:\n        /* \"@openzeppelin/contracts/token/ERC20/ERC20.sol\":5229:5255  _transfer(from, to, value) */\n      tag_147\n        /* \"@openzeppelin/contracts/token/ERC20/ERC20.sol\":5239:5243  from */\n      dup6\n        /* \"@openzeppelin/contracts/token/ERC20/ERC20.sol\":5245:5247  to */\n      dup6\n        /* \"@openzeppelin/contracts/token/ERC20/ERC20.sol\":5249:5254  value */\n      dup6\n        /* \"@openzeppelin/contracts/token/ERC20/ERC20.sol\":5229:5238  _transfer */\n      tag_148\n        /* \"@openzeppelin/contracts/token/ERC20/ERC20.sol\":5229:5255  _transfer(from, to, value) */\n      jump\t// in\n    tag_147:\n        /* \"@openzeppelin/contracts/token/ERC20/ERC20.sol\":5272:5276  true */\n      0x01\n        /* \"@openzeppelin/contracts/token/ERC20/ERC20.sol\":5265:5276  return true */\n      swap2\n      pop\n      pop\n        /* \"@openzeppelin/contracts/token/ERC20/ERC20.sol\":5039:5283  function transferFrom(address from, address to, uint256 value) public virtual returns (bool) {... */\n      swap4\n      swap3\n      pop\n      pop\n      pop\n      jump\t// out\n        /* \"@openzeppelin/contracts/token/ERC20/ERC20.sol\":3002:3084  function decimals() public view virtual returns (uint8) {... */\n    tag_54:\n        /* \"@openzeppelin/contracts/token/ERC20/ERC20.sol\":3051:3056  uint8 */\n      0x00\n        /* \"@openzeppelin/contracts/token/ERC20/ERC20.sol\":3075:3077  18 */\n      0x12\n        /* \"@openzeppelin/contracts/token/ERC20/ERC20.sol\":3068:3077  return 18 */\n      swap1\n      pop\n        /* \"@openzeppelin/contracts/token/ERC20/ERC20.sol\":3002:3084  function decimals() public view virtual returns (uint8) {... */\n      swap1\n      jump\t// out\n        /* \"FinalProject2/GameCoin.sol\":210:238  uint256 public sellRate = 10 */\n    tag_59:\n      sload(0x06)\n      dup2\n      jump\t// out\n        /* \"FinalProject2/GameCoin.sol\":933:1141  function getUserInfo(address account) public view returns (string memory, string memory, string memory) {... */\n    tag_65:\n        /* \"FinalProject2/GameCoin.sol\":992:1005  string memory */\n      0x60\n        /* \"FinalProject2/GameCoin.sol\":1007:1020  string memory */\n      dup1\n        /* \"FinalProject2/GameCoin.sol\":1022:1035  string memory */\n      0x60\n        /* \"FinalProject2/GameCoin.sol\":1047:1063  User memory user */\n      0x00\n        /* \"FinalProject2/GameCoin.sol\":1066:1071  users */\n      0x08\n        /* \"FinalProject2/GameCoin.sol\":1066:1080  users[account] */\n      0x00\n        /* \"FinalProject2/GameCoin.sol\":1072:1079  account */\n      dup7\n        /* \"FinalProject2/GameCoin.sol\":1066:1080  users[account] */\n      0xffffffffffffffffffffffffffffffffffffffff\n      and\n      0xffffffffffffffffffffffffffffffffffffffff\n      and\n      dup2\n      mstore\n      0x20\n      add\n      swap1\n      dup2\n      mstore\n      0x20\n      add\n      0x00\n      keccak256\n        /* \"FinalProject2/GameCoin.sol\":1047:1080  User memory user = users[account] */\n      mload(0x40)\n      dup1\n      0x60\n      add\n      0x40\n      mstore\n      swap1\n      dup2\n      0x00\n      dup3\n      add\n      dup1\n      sload\n      tag_151\n      swap1\n      tag_132\n      jump\t// in\n    tag_151:\n      dup1\n      0x1f\n      add\n      0x20\n      dup1\n      swap2\n      div\n      mul\n      0x20\n      add\n      mload(0x40)\n      swap1\n      dup2\n      add\n      0x40\n      mstore\n      dup1\n      swap3\n      swap2\n      swap1\n      dup2\n      dup2\n      mstore\n      0x20\n      add\n      dup3\n      dup1\n      sload\n      tag_152\n      swap1\n      tag_132\n      jump\t// in\n    tag_152:\n      dup1\n      iszero\n      tag_153\n      jumpi\n      dup1\n      0x1f\n      lt\n      tag_154\n      jumpi\n      0x0100\n      dup1\n      dup4\n      sload\n      div\n      mul\n      dup4\n      mstore\n      swap2\n      0x20\n      add\n      swap2\n      jump(tag_153)\n    tag_154:\n      dup3\n      add\n      swap2\n      swap1\n      0x00\n      mstore\n      keccak256(0x00, 0x20)\n      swap1\n    tag_155:\n      dup2\n      sload\n      dup2\n      mstore\n      swap1\n      0x01\n      add\n      swap1\n      0x20\n      add\n      dup1\n      dup4\n      gt\n      tag_155\n      jumpi\n      dup3\n      swap1\n      sub\n      0x1f\n      and\n      dup3\n      add\n      swap2\n    tag_153:\n      pop\n      pop\n      pop\n      pop\n      pop\n      dup2\n      mstore\n      0x20\n      add\n      0x01\n      dup3\n      add\n      dup1\n      sload\n      tag_156\n      swap1\n      tag_132\n      jump\t// in\n    tag_156:\n      dup1\n      0x1f\n      add\n      0x20\n      dup1\n      swap2\n      div\n      mul\n      0x20\n      add\n      mload(0x40)\n      swap1\n      dup2\n      add\n      0x40\n      mstore\n      dup1\n      swap3\n      swap2\n      swap1\n      dup2\n      dup2\n      mstore\n      0x20\n      add\n      dup3\n      dup1\n      sload\n      tag_157\n      swap1\n      tag_132\n      jump\t// in\n    tag_157:\n      dup1\n      iszero\n      tag_158\n      jumpi\n      dup1\n      0x1f\n      lt\n      tag_159\n      jumpi\n      0x0100\n      dup1\n      dup4\n      sload\n      div\n      mul\n      dup4\n      mstore\n      swap2\n      0x20\n      add\n      swap2\n      jump(tag_158)\n    tag_159:\n      dup3\n      add\n      swap2\n      swap1\n      0x00\n      mstore\n      keccak256(0x00, 0x20)\n      swap1\n    tag_160:\n      dup2\n      sload\n      dup2\n      mstore\n      swap1\n      0x01\n      add\n      swap1\n      0x20\n      add\n      dup1\n      dup4\n      gt\n      tag_160\n      jumpi\n      dup3\n      swap1\n      sub\n      0x1f\n      and\n      dup3\n      add\n      swap2\n    tag_158:\n      pop\n      pop\n      pop\n      pop\n      pop\n      dup2\n      mstore\n      0x20\n      add\n      0x02\n      dup3\n      add\n      dup1\n      sload\n      tag_161\n      swap1\n      tag_132\n      jump\t// in\n    tag_161:\n      dup1\n      0x1f\n      add\n      0x20\n      dup1\n      swap2\n      div\n      mul\n      0x20\n      add\n      mload(0x40)\n      swap1\n      dup2\n      add\n      0x40\n      mstore\n      dup1\n      swap3\n      swap2\n      swap1\n      dup2\n      dup2\n      mstore\n      0x20\n      add\n      dup3\n      dup1\n      sload\n      tag_162\n      swap1\n      tag_132\n      jump\t// in\n    tag_162:\n      dup1\n      iszero\n      tag_163\n      jumpi\n      dup1\n      0x1f\n      lt\n      tag_164\n      jumpi\n      0x0100\n      dup1\n      dup4\n      sload\n      div\n      mul\n      dup4\n      mstore\n      swap2\n      0x20\n      add\n      swap2\n      jump(tag_163)\n    tag_164:\n      dup3\n      add\n      swap2\n      swap1\n      0x00\n      mstore\n      keccak256(0x00, 0x20)\n      swap1\n    tag_165:\n      dup2\n      sload\n      dup2\n      mstore\n      swap1\n      0x01\n      add\n      swap1\n      0x20\n      add\n      dup1\n      dup4\n      gt\n      tag_165\n      jumpi\n      dup3\n      swap1\n      sub\n      0x1f\n      and\n      dup3\n      add\n      swap2\n    tag_163:\n      pop\n      pop\n      pop\n      pop\n      pop\n      dup2\n      mstore\n      pop\n      pop\n      swap1\n      pop\n        /* \"FinalProject2/GameCoin.sol\":1098:1102  user */\n      dup1\n        /* \"FinalProject2/GameCoin.sol\":1098:1111  user.username */\n      0x00\n      add\n      mload\n        /* \"FinalProject2/GameCoin.sol\":1113:1117  user */\n      dup2\n        /* \"FinalProject2/GameCoin.sol\":1113:1123  user.email */\n      0x20\n      add\n      mload\n        /* \"FinalProject2/GameCoin.sol\":1125:1129  user */\n      dup3\n        /* \"FinalProject2/GameCoin.sol\":1125:1133  user.bio */\n      0x40\n      add\n      mload\n        /* \"FinalProject2/GameCoin.sol\":1090:1134  return (user.username, user.email, user.bio) */\n      swap4\n      pop\n      swap4\n      pop\n      swap4\n      pop\n      pop\n        /* \"FinalProject2/GameCoin.sol\":933:1141  function getUserInfo(address account) public view returns (string memory, string memory, string memory) {... */\n      swap2\n      swap4\n      swap1\n      swap3\n      pop\n      jump\t// out\n        /* \"@openzeppelin/contracts/token/ERC20/ERC20.sol\":3299:3415  function balanceOf(address account) public view virtual returns (uint256) {... */\n    tag_71:\n        /* \"@openzeppelin/contracts/token/ERC20/ERC20.sol\":3364:3371  uint256 */\n      0x00\n        /* \"@openzeppelin/contracts/token/ERC20/ERC20.sol\":3390:3399  _balances */\n      dup1\n        /* \"@openzeppelin/contracts/token/ERC20/ERC20.sol\":3390:3408  _balances[account] */\n      0x00\n        /* \"@openzeppelin/contracts/token/ERC20/ERC20.sol\":3400:3407  account */\n      dup4\n        /* \"@openzeppelin/contracts/token/ERC20/ERC20.sol\":3390:3408  _balances[account] */\n      0xffffffffffffffffffffffffffffffffffffffff\n      and\n      0xffffffffffffffffffffffffffffffffffffffff\n      and\n      dup2\n      mstore\n      0x20\n      add\n      swap1\n      dup2\n      mstore\n      0x20\n      add\n      0x00\n      keccak256\n      sload\n        /* \"@openzeppelin/contracts/token/ERC20/ERC20.sol\":3383:3408  return _balances[account] */\n      swap1\n      pop\n        /* \"@openzeppelin/contracts/token/ERC20/ERC20.sol\":3299:3415  function balanceOf(address account) public view virtual returns (uint256) {... */\n      swap2\n      swap1\n      pop\n      jump\t// out\n        /* \"@openzeppelin/contracts/access/Ownable.sol\":2293:2394  function renounceOwnership() public virtual onlyOwner {... */\n    tag_75:\n        /* \"@openzeppelin/contracts/access/Ownable.sol\":1531:1544  _checkOwner() */\n      tag_168\n        /* \"@openzeppelin/contracts/access/Ownable.sol\":1531:1542  _checkOwner */\n      tag_169\n        /* \"@openzeppelin/contracts/access/Ownable.sol\":1531:1544  _checkOwner() */\n      jump\t// in\n    tag_168:\n        /* \"@openzeppelin/contracts/access/Ownable.sol\":2357:2387  _transferOwnership(address(0)) */\n      tag_171\n        /* \"@openzeppelin/contracts/access/Ownable.sol\":2384:2385  0 */\n      0x00\n        /* \"@openzeppelin/contracts/access/Ownable.sol\":2357:2375  _transferOwnership */\n      tag_172\n        /* \"@openzeppelin/contracts/access/Ownable.sol\":2357:2387  _transferOwnership(address(0)) */\n      jump\t// in\n    tag_171:\n        /* \"@openzeppelin/contracts/access/Ownable.sol\":2293:2394  function renounceOwnership() public virtual onlyOwner {... */\n      jump\t// out\n        /* \"@openzeppelin/contracts/access/Ownable.sol\":1638:1723  function owner() public view virtual returns (address) {... */\n    tag_78:\n        /* \"@openzeppelin/contracts/access/Ownable.sol\":1684:1691  address */\n      0x00\n        /* \"@openzeppelin/contracts/access/Ownable.sol\":1710:1716  _owner */\n      0x05\n      0x00\n      swap1\n      sload\n      swap1\n      0x0100\n      exp\n      swap1\n      div\n      0xffffffffffffffffffffffffffffffffffffffff\n      and\n        /* \"@openzeppelin/contracts/access/Ownable.sol\":1703:1716  return _owner */\n      swap1\n      pop\n        /* \"@openzeppelin/contracts/access/Ownable.sol\":1638:1723  function owner() public view virtual returns (address) {... */\n      swap1\n      jump\t// out\n        /* \"@openzeppelin/contracts/token/ERC20/ERC20.sol\":2276:2369  function symbol() public view virtual returns (string memory) {... */\n    tag_83:\n        /* \"@openzeppelin/contracts/token/ERC20/ERC20.sol\":2323:2336  string memory */\n      0x60\n        /* \"@openzeppelin/contracts/token/ERC20/ERC20.sol\":2355:2362  _symbol */\n      0x04\n        /* \"@openzeppelin/contracts/token/ERC20/ERC20.sol\":2348:2362  return _symbol */\n      dup1\n      sload\n      tag_175\n      swap1\n      tag_132\n      jump\t// in\n    tag_175:\n      dup1\n      0x1f\n      add\n      0x20\n      dup1\n      swap2\n      div\n      mul\n      0x20\n      add\n      mload(0x40)\n      swap1\n      dup2\n      add\n      0x40\n      mstore\n      dup1\n      swap3\n      swap2\n      swap1\n      dup2\n      dup2\n      mstore\n      0x20\n      add\n      dup3\n      dup1\n      sload\n      tag_176\n      swap1\n      tag_132\n      jump\t// in\n    tag_176:\n      dup1\n      iszero\n      tag_177\n      jumpi\n      dup1\n      0x1f\n      lt\n      tag_178\n      jumpi\n      0x0100\n      dup1\n      dup4\n      sload\n      div\n      mul\n      dup4\n      mstore\n      swap2\n      0x20\n      add\n      swap2\n      jump(tag_177)\n    tag_178:\n      dup3\n      add\n      swap2\n      swap1\n      0x00\n      mstore\n      keccak256(0x00, 0x20)\n      swap1\n    tag_179:\n      dup2\n      sload\n      dup2\n      mstore\n      swap1\n      0x01\n      add\n      swap1\n      0x20\n      add\n      dup1\n      dup4\n      gt\n      tag_179\n      jumpi\n      dup3\n      swap1\n      sub\n      0x1f\n      and\n      dup3\n      add\n      swap2\n    tag_177:\n      pop\n      pop\n      pop\n      pop\n      pop\n      swap1\n      pop\n        /* \"@openzeppelin/contracts/token/ERC20/ERC20.sol\":2276:2369  function symbol() public view virtual returns (string memory) {... */\n      swap1\n      jump\t// out\n        /* \"@openzeppelin/contracts/token/ERC20/ERC20.sol\":3610:3788  function transfer(address to, uint256 value) public virtual returns (bool) {... */\n    tag_88:\n        /* \"@openzeppelin/contracts/token/ERC20/ERC20.sol\":3679:3683  bool */\n      0x00\n        /* \"@openzeppelin/contracts/token/ERC20/ERC20.sol\":3695:3708  address owner */\n      dup1\n        /* \"@openzeppelin/contracts/token/ERC20/ERC20.sol\":3711:3723  _msgSender() */\n      tag_181\n        /* \"@openzeppelin/contracts/token/ERC20/ERC20.sol\":3711:3721  _msgSender */\n      tag_139\n        /* \"@openzeppelin/contracts/token/ERC20/ERC20.sol\":3711:3723  _msgSender() */\n      jump\t// in\n    tag_181:\n        /* \"@openzeppelin/contracts/token/ERC20/ERC20.sol\":3695:3723  address owner = _msgSender() */\n      swap1\n      pop\n        /* \"@openzeppelin/contracts/token/ERC20/ERC20.sol\":3733:3760  _transfer(owner, to, value) */\n      tag_182\n        /* \"@openzeppelin/contracts/token/ERC20/ERC20.sol\":3743:3748  owner */\n      dup2\n        /* \"@openzeppelin/contracts/token/ERC20/ERC20.sol\":3750:3752  to */\n      dup6\n        /* \"@openzeppelin/contracts/token/ERC20/ERC20.sol\":3754:3759  value */\n      dup6\n        /* \"@openzeppelin/contracts/token/ERC20/ERC20.sol\":3733:3742  _transfer */\n      tag_148\n        /* \"@openzeppelin/contracts/token/ERC20/ERC20.sol\":3733:3760  _transfer(owner, to, value) */\n      jump\t// in\n    tag_182:\n        /* \"@openzeppelin/contracts/token/ERC20/ERC20.sol\":3777:3781  true */\n      0x01\n        /* \"@openzeppelin/contracts/token/ERC20/ERC20.sol\":3770:3781  return true */\n      swap2\n      pop\n      pop\n        /* \"@openzeppelin/contracts/token/ERC20/ERC20.sol\":3610:3788  function transfer(address to, uint256 value) public virtual returns (bool) {... */\n      swap3\n      swap2\n      pop\n      pop\n      jump\t// out\n        /* \"FinalProject2/GameCoin.sol\":1926:2063  function setRates(uint256 _sellRate, uint256 _buyRate) public onlyOwner {... */\n    tag_94:\n        /* \"@openzeppelin/contracts/access/Ownable.sol\":1531:1544  _checkOwner() */\n      tag_184\n        /* \"@openzeppelin/contracts/access/Ownable.sol\":1531:1542  _checkOwner */\n      tag_169\n        /* \"@openzeppelin/contracts/access/Ownable.sol\":1531:1544  _checkOwner() */\n      jump\t// in\n    tag_184:\n        /* \"FinalProject2/GameCoin.sol\":2019:2028  _sellRate */\n      dup2\n        /* \"FinalProject2/GameCoin.sol\":2008:2016  sellRate */\n      0x06\n        /* \"FinalProject2/GameCoin.sol\":2008:2028  sellRate = _sellRate */\n      dup2\n      swap1\n      sstore\n      pop\n        /* \"FinalProject2/GameCoin.sol\":2048:2056  _buyRate */\n      dup1\n        /* \"FinalProject2/GameCoin.sol\":2038:2045  buyRate */\n      0x07\n        /* \"FinalProject2/GameCoin.sol\":2038:2056  buyRate = _buyRate */\n      dup2\n      swap1\n      sstore\n      pop\n        /* \"FinalProject2/GameCoin.sol\":1926:2063  function setRates(uint256 _sellRate, uint256 _buyRate) public onlyOwner {... */\n      pop\n      pop\n      jump\t// out\n        /* \"FinalProject2/GameCoin.sol\":1811:1920  function sendToOwner(uint256 amount) public onlyOwner {... */\n    tag_99:\n        /* \"@openzeppelin/contracts/access/Ownable.sol\":1531:1544  _checkOwner() */\n      tag_187\n        /* \"@openzeppelin/contracts/access/Ownable.sol\":1531:1542  _checkOwner */\n      tag_169\n        /* \"@openzeppelin/contracts/access/Ownable.sol\":1531:1544  _checkOwner() */\n      jump\t// in\n    tag_187:\n        /* \"FinalProject2/GameCoin.sol\":1875:1913  _transfer(msg.sender, owner(), amount) */\n      tag_189\n        /* \"FinalProject2/GameCoin.sol\":1885:1895  msg.sender */\n      caller\n        /* \"FinalProject2/GameCoin.sol\":1897:1904  owner() */\n      tag_190\n        /* \"FinalProject2/GameCoin.sol\":1897:1902  owner */\n      tag_78\n        /* \"FinalProject2/GameCoin.sol\":1897:1904  owner() */\n      jump\t// in\n    tag_190:\n        /* \"FinalProject2/GameCoin.sol\":1906:1912  amount */\n      dup4\n        /* \"FinalProject2/GameCoin.sol\":1875:1884  _transfer */\n      tag_148\n        /* \"FinalProject2/GameCoin.sol\":1875:1913  _transfer(msg.sender, owner(), amount) */\n      jump\t// in\n    tag_189:\n        /* \"FinalProject2/GameCoin.sol\":1811:1920  function sendToOwner(uint256 amount) public onlyOwner {... */\n      pop\n      jump\t// out\n        /* \"FinalProject2/GameCoin.sol\":1702:1805  function send(address to, uint256 gcAmount) public {... */\n    tag_103:\n        /* \"FinalProject2/GameCoin.sol\":1763:1798  _transfer(msg.sender, to, gcAmount) */\n      tag_192\n        /* \"FinalProject2/GameCoin.sol\":1773:1783  msg.sender */\n      caller\n        /* \"FinalProject2/GameCoin.sol\":1785:1787  to */\n      dup4\n        /* \"FinalProject2/GameCoin.sol\":1789:1797  gcAmount */\n      dup4\n        /* \"FinalProject2/GameCoin.sol\":1763:1772  _transfer */\n      tag_148\n        /* \"FinalProject2/GameCoin.sol\":1763:1798  _transfer(msg.sender, to, gcAmount) */\n      jump\t// in\n    tag_192:\n        /* \"FinalProject2/GameCoin.sol\":1702:1805  function send(address to, uint256 gcAmount) public {... */\n      pop\n      pop\n      jump\t// out\n        /* \"FinalProject2/GameCoin.sol\":627:927  function registerUser(string memory username, string memory email, string memory bio) public {... */\n    tag_108:\n        /* \"FinalProject2/GameCoin.sol\":763:764  0 */\n      0x00\n        /* \"FinalProject2/GameCoin.sol\":744:752  username */\n      dup4\n        /* \"FinalProject2/GameCoin.sol\":738:760  bytes(username).length */\n      mload\n        /* \"FinalProject2/GameCoin.sol\":738:764  bytes(username).length > 0 */\n      gt\n        /* \"FinalProject2/GameCoin.sol\":730:795  require(bytes(username).length > 0, \"Username must not be empty\") */\n      tag_194\n      jumpi\n      mload(0x40)\n      0x08c379a000000000000000000000000000000000000000000000000000000000\n      dup2\n      mstore\n      0x04\n      add\n      tag_195\n      swap1\n      tag_196\n      jump\t// in\n    tag_195:\n      mload(0x40)\n      dup1\n      swap2\n      sub\n      swap1\n      revert\n    tag_194:\n        /* \"FinalProject2/GameCoin.sol\":835:836  0 */\n      0x00\n        /* \"FinalProject2/GameCoin.sol\":819:824  email */\n      dup3\n        /* \"FinalProject2/GameCoin.sol\":813:832  bytes(email).length */\n      mload\n        /* \"FinalProject2/GameCoin.sol\":813:836  bytes(email).length > 0 */\n      gt\n        /* \"FinalProject2/GameCoin.sol\":805:864  require(bytes(email).length > 0, \"Email must not be empty\") */\n      tag_197\n      jumpi\n      mload(0x40)\n      0x08c379a000000000000000000000000000000000000000000000000000000000\n      dup2\n      mstore\n      0x04\n      add\n      tag_198\n      swap1\n      tag_199\n      jump\t// in\n    tag_198:\n      mload(0x40)\n      dup1\n      swap2\n      sub\n      swap1\n      revert\n    tag_197:\n        /* \"FinalProject2/GameCoin.sol\":894:920  User(username, email, bio) */\n      mload(0x40)\n      dup1\n      0x60\n      add\n      0x40\n      mstore\n      dup1\n        /* \"FinalProject2/GameCoin.sol\":899:907  username */\n      dup5\n        /* \"FinalProject2/GameCoin.sol\":894:920  User(username, email, bio) */\n      dup2\n      mstore\n      0x20\n      add\n        /* \"FinalProject2/GameCoin.sol\":909:914  email */\n      dup4\n        /* \"FinalProject2/GameCoin.sol\":894:920  User(username, email, bio) */\n      dup2\n      mstore\n      0x20\n      add\n        /* \"FinalProject2/GameCoin.sol\":916:919  bio */\n      dup3\n        /* \"FinalProject2/GameCoin.sol\":894:920  User(username, email, bio) */\n      dup2\n      mstore\n      pop\n        /* \"FinalProject2/GameCoin.sol\":874:879  users */\n      0x08\n        /* \"FinalProject2/GameCoin.sol\":874:891  users[msg.sender] */\n      0x00\n        /* \"FinalProject2/GameCoin.sol\":880:890  msg.sender */\n      caller\n        /* \"FinalProject2/GameCoin.sol\":874:891  users[msg.sender] */\n      0xffffffffffffffffffffffffffffffffffffffff\n      and\n      0xffffffffffffffffffffffffffffffffffffffff\n      and\n      dup2\n      mstore\n      0x20\n      add\n      swap1\n      dup2\n      mstore\n      0x20\n      add\n      0x00\n      keccak256\n        /* \"FinalProject2/GameCoin.sol\":874:920  users[msg.sender] = User(username, email, bio) */\n      0x00\n      dup3\n      add\n      mload\n      dup2\n      0x00\n      add\n      swap1\n      dup2\n      tag_200\n      swap2\n      swap1\n      tag_201\n      jump\t// in\n    tag_200:\n      pop\n      0x20\n      dup3\n      add\n      mload\n      dup2\n      0x01\n      add\n      swap1\n      dup2\n      tag_202\n      swap2\n      swap1\n      tag_201\n      jump\t// in\n    tag_202:\n      pop\n      0x40\n      dup3\n      add\n      mload\n      dup2\n      0x02\n      add\n      swap1\n      dup2\n      tag_203\n      swap2\n      swap1\n      tag_201\n      jump\t// in\n    tag_203:\n      pop\n      swap1\n      pop\n      pop\n        /* \"FinalProject2/GameCoin.sol\":627:927  function registerUser(string memory username, string memory email, string memory bio) public {... */\n      pop\n      pop\n      pop\n      jump\t// out\n        /* \"FinalProject2/GameCoin.sol\":1147:1412  function buy(uint256 gcAmount) public payable {... */\n    tag_111:\n        /* \"FinalProject2/GameCoin.sol\":1203:1222  uint256 requiredETH */\n      0x00\n        /* \"FinalProject2/GameCoin.sol\":1253:1263  decimals() */\n      tag_205\n        /* \"FinalProject2/GameCoin.sol\":1253:1261  decimals */\n      tag_54\n        /* \"FinalProject2/GameCoin.sol\":1253:1263  decimals() */\n      jump\t// in\n    tag_205:\n        /* \"FinalProject2/GameCoin.sol\":1249:1251  10 */\n      0x0a\n        /* \"FinalProject2/GameCoin.sol\":1249:1263  10**decimals() */\n      tag_206\n      swap2\n      swap1\n      tag_207\n      jump\t// in\n    tag_206:\n        /* \"FinalProject2/GameCoin.sol\":1237:1245  sellRate */\n      sload(0x06)\n        /* \"FinalProject2/GameCoin.sol\":1226:1234  gcAmount */\n      dup4\n        /* \"FinalProject2/GameCoin.sol\":1226:1245  gcAmount * sellRate */\n      tag_208\n      swap2\n      swap1\n      tag_209\n      jump\t// in\n    tag_208:\n        /* \"FinalProject2/GameCoin.sol\":1225:1263  (gcAmount * sellRate) / 10**decimals() */\n      tag_210\n      swap2\n      swap1\n      tag_211\n      jump\t// in\n    tag_210:\n        /* \"FinalProject2/GameCoin.sol\":1203:1263  uint256 requiredETH = (gcAmount * sellRate) / 10**decimals() */\n      swap1\n      pop\n        /* \"FinalProject2/GameCoin.sol\":1294:1305  requiredETH */\n      dup1\n        /* \"FinalProject2/GameCoin.sol\":1281:1290  msg.value */\n      callvalue\n        /* \"FinalProject2/GameCoin.sol\":1281:1305  msg.value == requiredETH */\n      eq\n        /* \"FinalProject2/GameCoin.sol\":1273:1335  require(msg.value == requiredETH, \"Incorrect ETH amount sent\") */\n      tag_212\n      jumpi\n      mload(0x40)\n      0x08c379a000000000000000000000000000000000000000000000000000000000\n      dup2\n      mstore\n      0x04\n      add\n      tag_213\n      swap1\n      tag_214\n      jump\t// in\n    tag_213:\n      mload(0x40)\n      dup1\n      swap2\n      sub\n      swap1\n      revert\n    tag_212:\n        /* \"FinalProject2/GameCoin.sol\":1345:1372  _mint(msg.sender, gcAmount) */\n      tag_215\n        /* \"FinalProject2/GameCoin.sol\":1351:1361  msg.sender */\n      caller\n        /* \"FinalProject2/GameCoin.sol\":1363:1371  gcAmount */\n      dup4\n        /* \"FinalProject2/GameCoin.sol\":1345:1350  _mint */\n      tag_216\n        /* \"FinalProject2/GameCoin.sol\":1345:1372  _mint(msg.sender, gcAmount) */\n      jump\t// in\n    tag_215:\n        /* \"FinalProject2/GameCoin.sol\":1193:1412  {... */\n      pop\n        /* \"FinalProject2/GameCoin.sol\":1147:1412  function buy(uint256 gcAmount) public payable {... */\n      pop\n      jump\t// out\n        /* \"@openzeppelin/contracts/token/ERC20/ERC20.sol\":3846:3986  function allowance(address owner, address spender) public view virtual returns (uint256) {... */\n    tag_116:\n        /* \"@openzeppelin/contracts/token/ERC20/ERC20.sol\":3926:3933  uint256 */\n      0x00\n        /* \"@openzeppelin/contracts/token/ERC20/ERC20.sol\":3952:3963  _allowances */\n      0x01\n        /* \"@openzeppelin/contracts/token/ERC20/ERC20.sol\":3952:3970  _allowances[owner] */\n      0x00\n        /* \"@openzeppelin/contracts/token/ERC20/ERC20.sol\":3964:3969  owner */\n      dup5\n        /* \"@openzeppelin/contracts/token/ERC20/ERC20.sol\":3952:3970  _allowances[owner] */\n      0xffffffffffffffffffffffffffffffffffffffff\n      and\n      0xffffffffffffffffffffffffffffffffffffffff\n      and\n      dup2\n      mstore\n      0x20\n      add\n      swap1\n      dup2\n      mstore\n      0x20\n      add\n      0x00\n      keccak256\n        /* \"@openzeppelin/contracts/token/ERC20/ERC20.sol\":3952:3979  _allowances[owner][spender] */\n      0x00\n        /* \"@openzeppelin/contracts/token/ERC20/ERC20.sol\":3971:3978  spender */\n      dup4\n        /* \"@openzeppelin/contracts/token/ERC20/ERC20.sol\":3952:3979  _allowances[owner][spender] */\n      0xffffffffffffffffffffffffffffffffffffffff\n      and\n      0xffffffffffffffffffffffffffffffffffffffff\n      and\n      dup2\n      mstore\n      0x20\n      add\n      swap1\n      dup2\n      mstore\n      0x20\n      add\n      0x00\n      keccak256\n      sload\n        /* \"@openzeppelin/contracts/token/ERC20/ERC20.sol\":3945:3979  return _allowances[owner][spender] */\n      swap1\n      pop\n        /* \"@openzeppelin/contracts/token/ERC20/ERC20.sol\":3846:3986  function allowance(address owner, address spender) public view virtual returns (uint256) {... */\n      swap3\n      swap2\n      pop\n      pop\n      jump\t// out\n        /* \"FinalProject2/GameCoin.sol\":1418:1696  function sell(uint256 gcAmount) public {... */\n    tag_121:\n        /* \"FinalProject2/GameCoin.sol\":1467:1484  uint256 ethAmount */\n      0x00\n        /* \"FinalProject2/GameCoin.sol\":1514:1524  decimals() */\n      tag_219\n        /* \"FinalProject2/GameCoin.sol\":1514:1522  decimals */\n      tag_54\n        /* \"FinalProject2/GameCoin.sol\":1514:1524  decimals() */\n      jump\t// in\n    tag_219:\n        /* \"FinalProject2/GameCoin.sol\":1510:1512  10 */\n      0x0a\n        /* \"FinalProject2/GameCoin.sol\":1510:1524  10**decimals() */\n      tag_220\n      swap2\n      swap1\n      tag_207\n      jump\t// in\n    tag_220:\n        /* \"FinalProject2/GameCoin.sol\":1499:1506  buyRate */\n      sload(0x07)\n        /* \"FinalProject2/GameCoin.sol\":1488:1496  gcAmount */\n      dup4\n        /* \"FinalProject2/GameCoin.sol\":1488:1506  gcAmount * buyRate */\n      tag_221\n      swap2\n      swap1\n      tag_209\n      jump\t// in\n    tag_221:\n        /* \"FinalProject2/GameCoin.sol\":1487:1524  (gcAmount * buyRate) / 10**decimals() */\n      tag_222\n      swap2\n      swap1\n      tag_211\n      jump\t// in\n    tag_222:\n        /* \"FinalProject2/GameCoin.sol\":1467:1524  uint256 ethAmount = (gcAmount * buyRate) / 10**decimals() */\n      swap1\n      pop\n        /* \"FinalProject2/GameCoin.sol\":1567:1575  gcAmount */\n      dup2\n        /* \"FinalProject2/GameCoin.sol\":1542:1563  balanceOf(msg.sender) */\n      tag_223\n        /* \"FinalProject2/GameCoin.sol\":1552:1562  msg.sender */\n      caller\n        /* \"FinalProject2/GameCoin.sol\":1542:1551  balanceOf */\n      tag_71\n        /* \"FinalProject2/GameCoin.sol\":1542:1563  balanceOf(msg.sender) */\n      jump\t// in\n    tag_223:\n        /* \"FinalProject2/GameCoin.sol\":1542:1575  balanceOf(msg.sender) >= gcAmount */\n      lt\n      iszero\n        /* \"FinalProject2/GameCoin.sol\":1534:1603  require(balanceOf(msg.sender) >= gcAmount, \"Insufficient NB balance\") */\n      tag_224\n      jumpi\n      mload(0x40)\n      0x08c379a000000000000000000000000000000000000000000000000000000000\n      dup2\n      mstore\n      0x04\n      add\n      tag_225\n      swap1\n      tag_226\n      jump\t// in\n    tag_225:\n      mload(0x40)\n      dup1\n      swap2\n      sub\n      swap1\n      revert\n    tag_224:\n        /* \"FinalProject2/GameCoin.sol\":1613:1640  _burn(msg.sender, gcAmount) */\n      tag_227\n        /* \"FinalProject2/GameCoin.sol\":1619:1629  msg.sender */\n      caller\n        /* \"FinalProject2/GameCoin.sol\":1631:1639  gcAmount */\n      dup4\n        /* \"FinalProject2/GameCoin.sol\":1613:1618  _burn */\n      tag_228\n        /* \"FinalProject2/GameCoin.sol\":1613:1640  _burn(msg.sender, gcAmount) */\n      jump\t// in\n    tag_227:\n        /* \"FinalProject2/GameCoin.sol\":1658:1668  msg.sender */\n      caller\n        /* \"FinalProject2/GameCoin.sol\":1650:1678  payable(msg.sender).transfer */\n      0xffffffffffffffffffffffffffffffffffffffff\n      and\n        /* \"FinalProject2/GameCoin.sol\":1650:1689  payable(msg.sender).transfer(ethAmount) */\n      0x08fc\n        /* \"FinalProject2/GameCoin.sol\":1679:1688  ethAmount */\n      dup3\n        /* \"FinalProject2/GameCoin.sol\":1650:1689  payable(msg.sender).transfer(ethAmount) */\n      swap1\n      dup2\n      iszero\n      mul\n      swap1\n      mload(0x40)\n      0x00\n      mload(0x40)\n      dup1\n      dup4\n      sub\n      dup2\n      dup6\n      dup9\n      dup9\n      call\n      swap4\n      pop\n      pop\n      pop\n      pop\n      iszero\n      dup1\n      iszero\n      tag_230\n      jumpi\n      returndatasize\n      0x00\n      dup1\n      returndatacopy\n      revert(0x00, returndatasize)\n    tag_230:\n      pop\n        /* \"FinalProject2/GameCoin.sol\":1457:1696  {... */\n      pop\n        /* \"FinalProject2/GameCoin.sol\":1418:1696  function sell(uint256 gcAmount) public {... */\n      pop\n      jump\t// out\n        /* \"@openzeppelin/contracts/access/Ownable.sol\":2543:2758  function transferOwnership(address newOwner) public virtual onlyOwner {... */\n    tag_125:\n        /* \"@openzeppelin/contracts/access/Ownable.sol\":1531:1544  _checkOwner() */\n      tag_232\n        /* \"@openzeppelin/contracts/access/Ownable.sol\":1531:1542  _checkOwner */\n      tag_169\n        /* \"@openzeppelin/contracts/access/Ownable.sol\":1531:1544  _checkOwner() */\n      jump\t// in\n    tag_232:\n        /* \"@openzeppelin/contracts/access/Ownable.sol\":2647:2648  0 */\n      0x00\n        /* \"@openzeppelin/contracts/access/Ownable.sol\":2627:2649  newOwner == address(0) */\n      0xffffffffffffffffffffffffffffffffffffffff\n      and\n        /* \"@openzeppelin/contracts/access/Ownable.sol\":2627:2635  newOwner */\n      dup2\n        /* \"@openzeppelin/contracts/access/Ownable.sol\":2627:2649  newOwner == address(0) */\n      0xffffffffffffffffffffffffffffffffffffffff\n      and\n      sub\n        /* \"@openzeppelin/contracts/access/Ownable.sol\":2623:2714  if (newOwner == address(0)) {... */\n      tag_234\n      jumpi\n        /* \"@openzeppelin/contracts/access/Ownable.sol\":2700:2701  0 */\n      0x00\n        /* \"@openzeppelin/contracts/access/Ownable.sol\":2672:2703  OwnableInvalidOwner(address(0)) */\n      mload(0x40)\n      0x1e4fbdf700000000000000000000000000000000000000000000000000000000\n      dup2\n      mstore\n      0x04\n      add\n      tag_235\n      swap2\n      swap1\n      tag_80\n      jump\t// in\n    tag_235:\n      mload(0x40)\n      dup1\n      swap2\n      sub\n      swap1\n      revert\n        /* \"@openzeppelin/contracts/access/Ownable.sol\":2623:2714  if (newOwner == address(0)) {... */\n    tag_234:\n        /* \"@openzeppelin/contracts/access/Ownable.sol\":2723:2751  _transferOwnership(newOwner) */\n      tag_236\n        /* \"@openzeppelin/contracts/access/Ownable.sol\":2742:2750  newOwner */\n      dup2\n        /* \"@openzeppelin/contracts/access/Ownable.sol\":2723:2741  _transferOwnership */\n      tag_172\n        /* \"@openzeppelin/contracts/access/Ownable.sol\":2723:2751  _transferOwnership(newOwner) */\n      jump\t// in\n    tag_236:\n        /* \"@openzeppelin/contracts/access/Ownable.sol\":2543:2758  function transferOwnership(address newOwner) public virtual onlyOwner {... */\n      pop\n      jump\t// out\n        /* \"FinalProject2/GameCoin.sol\":273:299  uint256 public buyRate = 6 */\n    tag_128:\n      sload(0x07)\n      dup2\n      jump\t// out\n        /* \"@openzeppelin/contracts/utils/Context.sol\":656:752  function _msgSender() internal view virtual returns (address) {... */\n    tag_139:\n        /* \"@openzeppelin/contracts/utils/Context.sol\":709:716  address */\n      0x00\n        /* \"@openzeppelin/contracts/utils/Context.sol\":735:745  msg.sender */\n      caller\n        /* \"@openzeppelin/contracts/utils/Context.sol\":728:745  return msg.sender */\n      swap1\n      pop\n        /* \"@openzeppelin/contracts/utils/Context.sol\":656:752  function _msgSender() internal view virtual returns (address) {... */\n      swap1\n      jump\t// out\n        /* \"@openzeppelin/contracts/token/ERC20/ERC20.sol\":8989:9117  function _approve(address owner, address spender, uint256 value) internal {... */\n    tag_141:\n        /* \"@openzeppelin/contracts/token/ERC20/ERC20.sol\":9073:9110  _approve(owner, spender, value, true) */\n      tag_239\n        /* \"@openzeppelin/contracts/token/ERC20/ERC20.sol\":9082:9087  owner */\n      dup4\n        /* \"@openzeppelin/contracts/token/ERC20/ERC20.sol\":9089:9096  spender */\n      dup4\n        /* \"@openzeppelin/contracts/token/ERC20/ERC20.sol\":9098:9103  value */\n      dup4\n        /* \"@openzeppelin/contracts/token/ERC20/ERC20.sol\":9105:9109  true */\n      0x01\n        /* \"@openzeppelin/contracts/token/ERC20/ERC20.sol\":9073:9081  _approve */\n      tag_240\n        /* \"@openzeppelin/contracts/token/ERC20/ERC20.sol\":9073:9110  _approve(owner, spender, value, true) */\n      jump\t// in\n    tag_239:\n        /* \"@openzeppelin/contracts/token/ERC20/ERC20.sol\":8989:9117  function _approve(address owner, address spender, uint256 value) internal {... */\n      pop\n      pop\n      pop\n      jump\t// out\n        /* \"@openzeppelin/contracts/token/ERC20/ERC20.sol\":10663:11140  function _spendAllowance(address owner, address spender, uint256 value) internal virtual {... */\n    tag_146:\n        /* \"@openzeppelin/contracts/token/ERC20/ERC20.sol\":10762:10786  uint256 currentAllowance */\n      0x00\n        /* \"@openzeppelin/contracts/token/ERC20/ERC20.sol\":10789:10814  allowance(owner, spender) */\n      tag_242\n        /* \"@openzeppelin/contracts/token/ERC20/ERC20.sol\":10799:10804  owner */\n      dup5\n        /* \"@openzeppelin/contracts/token/ERC20/ERC20.sol\":10806:10813  spender */\n      dup5\n        /* \"@openzeppelin/contracts/token/ERC20/ERC20.sol\":10789:10798  allowance */\n      tag_116\n        /* \"@openzeppelin/contracts/token/ERC20/ERC20.sol\":10789:10814  allowance(owner, spender) */\n      jump\t// in\n    tag_242:\n        /* \"@openzeppelin/contracts/token/ERC20/ERC20.sol\":10762:10814  uint256 currentAllowance = allowance(owner, spender) */\n      swap1\n      pop\n        /* \"@openzeppelin/contracts/token/ERC20/ERC20.sol\":10848:10865  type(uint256).max */\n      0xffffffffffffffffffffffffffffffffffffffffffffffffffffffffffffffff\n        /* \"@openzeppelin/contracts/token/ERC20/ERC20.sol\":10828:10844  currentAllowance */\n      dup2\n        /* \"@openzeppelin/contracts/token/ERC20/ERC20.sol\":10828:10865  currentAllowance != type(uint256).max */\n      eq\n        /* \"@openzeppelin/contracts/token/ERC20/ERC20.sol\":10824:11134  if (currentAllowance != type(uint256).max) {... */\n      tag_243\n      jumpi\n        /* \"@openzeppelin/contracts/token/ERC20/ERC20.sol\":10904:10909  value */\n      dup2\n        /* \"@openzeppelin/contracts/token/ERC20/ERC20.sol\":10885:10901  currentAllowance */\n      dup2\n        /* \"@openzeppelin/contracts/token/ERC20/ERC20.sol\":10885:10909  currentAllowance < value */\n      lt\n        /* \"@openzeppelin/contracts/token/ERC20/ERC20.sol\":10881:11011  if (currentAllowance < value) {... */\n      iszero\n      tag_244\n      jumpi\n        /* \"@openzeppelin/contracts/token/ERC20/ERC20.sol\":10963:10970  spender */\n      dup3\n        /* \"@openzeppelin/contracts/token/ERC20/ERC20.sol\":10972:10988  currentAllowance */\n      dup2\n        /* \"@openzeppelin/contracts/token/ERC20/ERC20.sol\":10990:10995  value */\n      dup4\n        /* \"@openzeppelin/contracts/token/ERC20/ERC20.sol\":10936:10996  ERC20InsufficientAllowance(spender, currentAllowance, value) */\n      mload(0x40)\n      0xfb8f41b200000000000000000000000000000000000000000000000000000000\n      dup2\n      mstore\n      0x04\n      add\n      tag_245\n      swap4\n      swap3\n      swap2\n      swap1\n      tag_246\n      jump\t// in\n    tag_245:\n      mload(0x40)\n      dup1\n      swap2\n      sub\n      swap1\n      revert\n        /* \"@openzeppelin/contracts/token/ERC20/ERC20.sol\":10881:11011  if (currentAllowance < value) {... */\n    tag_244:\n        /* \"@openzeppelin/contracts/token/ERC20/ERC20.sol\":11052:11109  _approve(owner, spender, currentAllowance - value, false) */\n      tag_247\n        /* \"@openzeppelin/contracts/token/ERC20/ERC20.sol\":11061:11066  owner */\n      dup5\n        /* \"@openzeppelin/contracts/token/ERC20/ERC20.sol\":11068:11075  spender */\n      dup5\n        /* \"@openzeppelin/contracts/token/ERC20/ERC20.sol\":11096:11101  value */\n      dup5\n        /* \"@openzeppelin/contracts/token/ERC20/ERC20.sol\":11077:11093  currentAllowance */\n      dup5\n        /* \"@openzeppelin/contracts/token/ERC20/ERC20.sol\":11077:11101  currentAllowance - value */\n      sub\n        /* \"@openzeppelin/contracts/token/ERC20/ERC20.sol\":11103:11108  false */\n      0x00\n        /* \"@openzeppelin/contracts/token/ERC20/ERC20.sol\":11052:11060  _approve */\n      tag_240\n        /* \"@openzeppelin/contracts/token/ERC20/ERC20.sol\":11052:11109  _approve(owner, spender, currentAllowance - value, false) */\n      jump\t// in\n    tag_247:\n        /* \"@openzeppelin/contracts/token/ERC20/ERC20.sol\":10824:11134  if (currentAllowance != type(uint256).max) {... */\n    tag_243:\n        /* \"@openzeppelin/contracts/token/ERC20/ERC20.sol\":10752:11140  {... */\n      pop\n        /* \"@openzeppelin/contracts/token/ERC20/ERC20.sol\":10663:11140  function _spendAllowance(address owner, address spender, uint256 value) internal virtual {... */\n      pop\n      pop\n      pop\n      jump\t// out\n        /* \"@openzeppelin/contracts/token/ERC20/ERC20.sol\":5656:5956  function _transfer(address from, address to, uint256 value) internal {... */\n    tag_148:\n        /* \"@openzeppelin/contracts/token/ERC20/ERC20.sol\":5755:5756  0 */\n      0x00\n        /* \"@openzeppelin/contracts/token/ERC20/ERC20.sol\":5739:5757  from == address(0) */\n      0xffffffffffffffffffffffffffffffffffffffff\n      and\n        /* \"@openzeppelin/contracts/token/ERC20/ERC20.sol\":5739:5743  from */\n      dup4\n        /* \"@openzeppelin/contracts/token/ERC20/ERC20.sol\":5739:5757  from == address(0) */\n      0xffffffffffffffffffffffffffffffffffffffff\n      and\n      sub\n        /* \"@openzeppelin/contracts/token/ERC20/ERC20.sol\":5735:5821  if (from == address(0)) {... */\n      tag_249\n      jumpi\n        /* \"@openzeppelin/contracts/token/ERC20/ERC20.sol\":5807:5808  0 */\n      0x00\n        /* \"@openzeppelin/contracts/token/ERC20/ERC20.sol\":5780:5810  ERC20InvalidSender(address(0)) */\n      mload(0x40)\n      0x96c6fd1e00000000000000000000000000000000000000000000000000000000\n      dup2\n      mstore\n      0x04\n      add\n      tag_250\n      swap2\n      swap1\n      tag_80\n      jump\t// in\n    tag_250:\n      mload(0x40)\n      dup1\n      swap2\n      sub\n      swap1\n      revert\n        /* \"@openzeppelin/contracts/token/ERC20/ERC20.sol\":5735:5821  if (from == address(0)) {... */\n    tag_249:\n        /* \"@openzeppelin/contracts/token/ERC20/ERC20.sol\":5848:5849  0 */\n      0x00\n        /* \"@openzeppelin/contracts/token/ERC20/ERC20.sol\":5834:5850  to == address(0) */\n      0xffffffffffffffffffffffffffffffffffffffff\n      and\n        /* \"@openzeppelin/contracts/token/ERC20/ERC20.sol\":5834:5836  to */\n      dup3\n        /* \"@openzeppelin/contracts/token/ERC20/ERC20.sol\":5834:5850  to == address(0) */\n      0xffffffffffffffffffffffffffffffffffffffff\n      and\n      sub\n        /* \"@openzeppelin/contracts/token/ERC20/ERC20.sol\":5830:5916  if (to == address(0)) {... */\n      tag_251\n      jumpi\n        /* \"@openzeppelin/contracts/token/ERC20/ERC20.sol\":5902:5903  0 */\n      0x00\n        /* \"@openzeppelin/contracts/token/ERC20/ERC20.sol\":5873:5905  ERC20InvalidReceiver(address(0)) */\n      mload(0x40)\n      0xec442f0500000000000000000000000000000000000000000000000000000000\n      dup2\n      mstore\n      0x04\n      add\n      tag_252\n      swap2\n      swap1\n      tag_80\n      jump\t// in\n    tag_252:\n      mload(0x40)\n      dup1\n      swap2\n      sub\n      swap1\n      revert\n        /* \"@openzeppelin/contracts/token/ERC20/ERC20.sol\":5830:5916  if (to == address(0)) {... */\n    tag_251:\n        /* \"@openzeppelin/contracts/token/ERC20/ERC20.sol\":5925:5949  _update(from, to, value) */\n      tag_253\n        /* \"@openzeppelin/contracts/token/ERC20/ERC20.sol\":5933:5937  from */\n      dup4\n        /* \"@openzeppelin/contracts/token/ERC20/ERC20.sol\":5939:5941  to */\n      dup4\n        /* \"@openzeppelin/contracts/token/ERC20/ERC20.sol\":5943:5948  value */\n      dup4\n        /* \"@openzeppelin/contracts/token/ERC20/ERC20.sol\":5925:5932  _update */\n      tag_254\n        /* \"@openzeppelin/contracts/token/ERC20/ERC20.sol\":5925:5949  _update(from, to, value) */\n      jump\t// in\n    tag_253:\n        /* \"@openzeppelin/contracts/token/ERC20/ERC20.sol\":5656:5956  function _transfer(address from, address to, uint256 value) internal {... */\n      pop\n      pop\n      pop\n      jump\t// out\n        /* \"@openzeppelin/contracts/access/Ownable.sol\":1796:1958  function _checkOwner() internal view virtual {... */\n    tag_169:\n        /* \"@openzeppelin/contracts/access/Ownable.sol\":1866:1878  _msgSender() */\n      tag_256\n        /* \"@openzeppelin/contracts/access/Ownable.sol\":1866:1876  _msgSender */\n      tag_139\n        /* \"@openzeppelin/contracts/access/Ownable.sol\":1866:1878  _msgSender() */\n      jump\t// in\n    tag_256:\n        /* \"@openzeppelin/contracts/access/Ownable.sol\":1855:1878  owner() != _msgSender() */\n      0xffffffffffffffffffffffffffffffffffffffff\n      and\n        /* \"@openzeppelin/contracts/access/Ownable.sol\":1855:1862  owner() */\n      tag_257\n        /* \"@openzeppelin/contracts/access/Ownable.sol\":1855:1860  owner */\n      tag_78\n        /* \"@openzeppelin/contracts/access/Ownable.sol\":1855:1862  owner() */\n      jump\t// in\n    tag_257:\n        /* \"@openzeppelin/contracts/access/Ownable.sol\":1855:1878  owner() != _msgSender() */\n      0xffffffffffffffffffffffffffffffffffffffff\n      and\n      eq\n        /* \"@openzeppelin/contracts/access/Ownable.sol\":1851:1952  if (owner() != _msgSender()) {... */\n      tag_258\n      jumpi\n        /* \"@openzeppelin/contracts/access/Ownable.sol\":1928:1940  _msgSender() */\n      tag_259\n        /* \"@openzeppelin/contracts/access/Ownable.sol\":1928:1938  _msgSender */\n      tag_139\n        /* \"@openzeppelin/contracts/access/Ownable.sol\":1928:1940  _msgSender() */\n      jump\t// in\n    tag_259:\n        /* \"@openzeppelin/contracts/access/Ownable.sol\":1901:1941  OwnableUnauthorizedAccount(_msgSender()) */\n      mload(0x40)\n      0x118cdaa700000000000000000000000000000000000000000000000000000000\n      dup2\n      mstore\n      0x04\n      add\n      tag_260\n      swap2\n      swap1\n      tag_80\n      jump\t// in\n    tag_260:\n      mload(0x40)\n      dup1\n      swap2\n      sub\n      swap1\n      revert\n        /* \"@openzeppelin/contracts/access/Ownable.sol\":1851:1952  if (owner() != _msgSender()) {... */\n    tag_258:\n        /* \"@openzeppelin/contracts/access/Ownable.sol\":1796:1958  function _checkOwner() internal view virtual {... */\n      jump\t// out\n        /* \"@openzeppelin/contracts/access/Ownable.sol\":2912:3099  function _transferOwnership(address newOwner) internal virtual {... */\n    tag_172:\n        /* \"@openzeppelin/contracts/access/Ownable.sol\":2985:3001  address oldOwner */\n      0x00\n        /* \"@openzeppelin/contracts/access/Ownable.sol\":3004:3010  _owner */\n      0x05\n      0x00\n      swap1\n      sload\n      swap1\n      0x0100\n      exp\n      swap1\n      div\n      0xffffffffffffffffffffffffffffffffffffffff\n      and\n        /* \"@openzeppelin/contracts/access/Ownable.sol\":2985:3010  address oldOwner = _owner */\n      swap1\n      pop\n        /* \"@openzeppelin/contracts/access/Ownable.sol\":3029:3037  newOwner */\n      dup2\n        /* \"@openzeppelin/contracts/access/Ownable.sol\":3020:3026  _owner */\n      0x05\n      0x00\n        /* \"@openzeppelin/contracts/access/Ownable.sol\":3020:3037  _owner = newOwner */\n      0x0100\n      exp\n      dup2\n      sload\n      dup2\n      0xffffffffffffffffffffffffffffffffffffffff\n      mul\n      not\n      and\n      swap1\n      dup4\n      0xffffffffffffffffffffffffffffffffffffffff\n      and\n      mul\n      or\n      swap1\n      sstore\n      pop\n        /* \"@openzeppelin/contracts/access/Ownable.sol\":3083:3091  newOwner */\n      dup2\n        /* \"@openzeppelin/contracts/access/Ownable.sol\":3052:3092  OwnershipTransferred(oldOwner, newOwner) */\n      0xffffffffffffffffffffffffffffffffffffffff\n      and\n        /* \"@openzeppelin/contracts/access/Ownable.sol\":3073:3081  oldOwner */\n      dup2\n        /* \"@openzeppelin/contracts/access/Ownable.sol\":3052:3092  OwnershipTransferred(oldOwner, newOwner) */\n      0xffffffffffffffffffffffffffffffffffffffff\n      and\n      0x8be0079c531659141344cd1fd0a4f28419497f9722a3daafe3b4186f6b6457e0\n      mload(0x40)\n      mload(0x40)\n      dup1\n      swap2\n      sub\n      swap1\n      log3\n        /* \"@openzeppelin/contracts/access/Ownable.sol\":2975:3099  {... */\n      pop\n        /* \"@openzeppelin/contracts/access/Ownable.sol\":2912:3099  function _transferOwnership(address newOwner) internal virtual {... */\n      pop\n      jump\t// out\n        /* \"@openzeppelin/contracts/token/ERC20/ERC20.sol\":7721:7929  function _mint(address account, uint256 value) internal {... */\n    tag_216:\n        /* \"@openzeppelin/contracts/token/ERC20/ERC20.sol\":7810:7811  0 */\n      0x00\n        /* \"@openzeppelin/contracts/token/ERC20/ERC20.sol\":7791:7812  account == address(0) */\n      0xffffffffffffffffffffffffffffffffffffffff\n      and\n        /* \"@openzeppelin/contracts/token/ERC20/ERC20.sol\":7791:7798  account */\n      dup3\n        /* \"@openzeppelin/contracts/token/ERC20/ERC20.sol\":7791:7812  account == address(0) */\n      0xffffffffffffffffffffffffffffffffffffffff\n      and\n      sub\n        /* \"@openzeppelin/contracts/token/ERC20/ERC20.sol\":7787:7878  if (account == address(0)) {... */\n      tag_263\n      jumpi\n        /* \"@openzeppelin/contracts/token/ERC20/ERC20.sol\":7864:7865  0 */\n      0x00\n        /* \"@openzeppelin/contracts/token/ERC20/ERC20.sol\":7835:7867  ERC20InvalidReceiver(address(0)) */\n      mload(0x40)\n      0xec442f0500000000000000000000000000000000000000000000000000000000\n      dup2\n      mstore\n      0x04\n      add\n      tag_264\n      swap2\n      swap1\n      tag_80\n      jump\t// in\n    tag_264:\n      mload(0x40)\n      dup1\n      swap2\n      sub\n      swap1\n      revert\n        /* \"@openzeppelin/contracts/token/ERC20/ERC20.sol\":7787:7878  if (account == address(0)) {... */\n    tag_263:\n        /* \"@openzeppelin/contracts/token/ERC20/ERC20.sol\":7887:7922  _update(address(0), account, value) */\n      tag_265\n        /* \"@openzeppelin/contracts/token/ERC20/ERC20.sol\":7903:7904  0 */\n      0x00\n        /* \"@openzeppelin/contracts/token/ERC20/ERC20.sol\":7907:7914  account */\n      dup4\n        /* \"@openzeppelin/contracts/token/ERC20/ERC20.sol\":7916:7921  value */\n      dup4\n        /* \"@openzeppelin/contracts/token/ERC20/ERC20.sol\":7887:7894  _update */\n      tag_254\n        /* \"@openzeppelin/contracts/token/ERC20/ERC20.sol\":7887:7922  _update(address(0), account, value) */\n      jump\t// in\n    tag_265:\n        /* \"@openzeppelin/contracts/token/ERC20/ERC20.sol\":7721:7929  function _mint(address account, uint256 value) internal {... */\n      pop\n      pop\n      jump\t// out\n        /* \"@openzeppelin/contracts/token/ERC20/ERC20.sol\":8247:8453  function _burn(address account, uint256 value) internal {... */\n    tag_228:\n        /* \"@openzeppelin/contracts/token/ERC20/ERC20.sol\":8336:8337  0 */\n      0x00\n        /* \"@openzeppelin/contracts/token/ERC20/ERC20.sol\":8317:8338  account == address(0) */\n      0xffffffffffffffffffffffffffffffffffffffff\n      and\n        /* \"@openzeppelin/contracts/token/ERC20/ERC20.sol\":8317:8324  account */\n      dup3\n        /* \"@openzeppelin/contracts/token/ERC20/ERC20.sol\":8317:8338  account == address(0) */\n      0xffffffffffffffffffffffffffffffffffffffff\n      and\n      sub\n        /* \"@openzeppelin/contracts/token/ERC20/ERC20.sol\":8313:8402  if (account == address(0)) {... */\n      tag_267\n      jumpi\n        /* \"@openzeppelin/contracts/token/ERC20/ERC20.sol\":8388:8389  0 */\n      0x00\n        /* \"@openzeppelin/contracts/token/ERC20/ERC20.sol\":8361:8391  ERC20InvalidSender(address(0)) */\n      mload(0x40)\n      0x96c6fd1e00000000000000000000000000000000000000000000000000000000\n      dup2\n      mstore\n      0x04\n      add\n      tag_268\n      swap2\n      swap1\n      tag_80\n      jump\t// in\n    tag_268:\n      mload(0x40)\n      dup1\n      swap2\n      sub\n      swap1\n      revert\n        /* \"@openzeppelin/contracts/token/ERC20/ERC20.sol\":8313:8402  if (account == address(0)) {... */\n    tag_267:\n        /* \"@openzeppelin/contracts/token/ERC20/ERC20.sol\":8411:8446  _update(account, address(0), value) */\n      tag_269\n        /* \"@openzeppelin/contracts/token/ERC20/ERC20.sol\":8419:8426  account */\n      dup3\n        /* \"@openzeppelin/contracts/token/ERC20/ERC20.sol\":8436:8437  0 */\n      0x00\n        /* \"@openzeppelin/contracts/token/ERC20/ERC20.sol\":8440:8445  value */\n      dup4\n        /* \"@openzeppelin/contracts/token/ERC20/ERC20.sol\":8411:8418  _update */\n      tag_254\n        /* \"@openzeppelin/contracts/token/ERC20/ERC20.sol\":8411:8446  _update(account, address(0), value) */\n      jump\t// in\n    tag_269:\n        /* \"@openzeppelin/contracts/token/ERC20/ERC20.sol\":8247:8453  function _burn(address account, uint256 value) internal {... */\n      pop\n      pop\n      jump\t// out\n        /* \"@openzeppelin/contracts/token/ERC20/ERC20.sol\":9949:10381  function _approve(address owner, address spender, uint256 value, bool emitEvent) internal virtual {... */\n    tag_240:\n        /* \"@openzeppelin/contracts/token/ERC20/ERC20.sol\":10078:10079  0 */\n      0x00\n        /* \"@openzeppelin/contracts/token/ERC20/ERC20.sol\":10061:10080  owner == address(0) */\n      0xffffffffffffffffffffffffffffffffffffffff\n      and\n        /* \"@openzeppelin/contracts/token/ERC20/ERC20.sol\":10061:10066  owner */\n      dup5\n        /* \"@openzeppelin/contracts/token/ERC20/ERC20.sol\":10061:10080  owner == address(0) */\n      0xffffffffffffffffffffffffffffffffffffffff\n      and\n      sub\n        /* \"@openzeppelin/contracts/token/ERC20/ERC20.sol\":10057:10146  if (owner == address(0)) {... */\n      tag_271\n      jumpi\n        /* \"@openzeppelin/contracts/token/ERC20/ERC20.sol\":10132:10133  0 */\n      0x00\n        /* \"@openzeppelin/contracts/token/ERC20/ERC20.sol\":10103:10135  ERC20InvalidApprover(address(0)) */\n      mload(0x40)\n      0xe602df0500000000000000000000000000000000000000000000000000000000\n      dup2\n      mstore\n      0x04\n      add\n      tag_272\n      swap2\n      swap1\n      tag_80\n      jump\t// in\n    tag_272:\n      mload(0x40)\n      dup1\n      swap2\n      sub\n      swap1\n      revert\n        /* \"@openzeppelin/contracts/token/ERC20/ERC20.sol\":10057:10146  if (owner == address(0)) {... */\n    tag_271:\n        /* \"@openzeppelin/contracts/token/ERC20/ERC20.sol\":10178:10179  0 */\n      0x00\n        /* \"@openzeppelin/contracts/token/ERC20/ERC20.sol\":10159:10180  spender == address(0) */\n      0xffffffffffffffffffffffffffffffffffffffff\n      and\n        /* \"@openzeppelin/contracts/token/ERC20/ERC20.sol\":10159:10166  spender */\n      dup4\n        /* \"@openzeppelin/contracts/token/ERC20/ERC20.sol\":10159:10180  spender == address(0) */\n      0xffffffffffffffffffffffffffffffffffffffff\n      and\n      sub\n        /* \"@openzeppelin/contracts/token/ERC20/ERC20.sol\":10155:10245  if (spender == address(0)) {... */\n      tag_273\n      jumpi\n        /* \"@openzeppelin/contracts/token/ERC20/ERC20.sol\":10231:10232  0 */\n      0x00\n        /* \"@openzeppelin/contracts/token/ERC20/ERC20.sol\":10203:10234  ERC20InvalidSpender(address(0)) */\n      mload(0x40)\n      0x94280d6200000000000000000000000000000000000000000000000000000000\n      dup2\n      mstore\n      0x04\n      add\n      tag_274\n      swap2\n      swap1\n      tag_80\n      jump\t// in\n    tag_274:\n      mload(0x40)\n      dup1\n      swap2\n      sub\n      swap1\n      revert\n        /* \"@openzeppelin/contracts/token/ERC20/ERC20.sol\":10155:10245  if (spender == address(0)) {... */\n    tag_273:\n        /* \"@openzeppelin/contracts/token/ERC20/ERC20.sol\":10284:10289  value */\n      dup2\n        /* \"@openzeppelin/contracts/token/ERC20/ERC20.sol\":10254:10265  _allowances */\n      0x01\n        /* \"@openzeppelin/contracts/token/ERC20/ERC20.sol\":10254:10272  _allowances[owner] */\n      0x00\n        /* \"@openzeppelin/contracts/token/ERC20/ERC20.sol\":10266:10271  owner */\n      dup7\n        /* \"@openzeppelin/contracts/token/ERC20/ERC20.sol\":10254:10272  _allowances[owner] */\n      0xffffffffffffffffffffffffffffffffffffffff\n      and\n      0xffffffffffffffffffffffffffffffffffffffff\n      and\n      dup2\n      mstore\n      0x20\n      add\n      swap1\n      dup2\n      mstore\n      0x20\n      add\n      0x00\n      keccak256\n        /* \"@openzeppelin/contracts/token/ERC20/ERC20.sol\":10254:10281  _allowances[owner][spender] */\n      0x00\n        /* \"@openzeppelin/contracts/token/ERC20/ERC20.sol\":10273:10280  spender */\n      dup6\n        /* \"@openzeppelin/contracts/token/ERC20/ERC20.sol\":10254:10281  _allowances[owner][spender] */\n      0xffffffffffffffffffffffffffffffffffffffff\n      and\n      0xffffffffffffffffffffffffffffffffffffffff\n      and\n      dup2\n      mstore\n      0x20\n      add\n      swap1\n      dup2\n      mstore\n      0x20\n      add\n      0x00\n      keccak256\n        /* \"@openzeppelin/contracts/token/ERC20/ERC20.sol\":10254:10289  _allowances[owner][spender] = value */\n      dup2\n      swap1\n      sstore\n      pop\n        /* \"@openzeppelin/contracts/token/ERC20/ERC20.sol\":10303:10312  emitEvent */\n      dup1\n        /* \"@openzeppelin/contracts/token/ERC20/ERC20.sol\":10299:10375  if (emitEvent) {... */\n      iszero\n      tag_275\n      jumpi\n        /* \"@openzeppelin/contracts/token/ERC20/ERC20.sol\":10349:10356  spender */\n      dup3\n        /* \"@openzeppelin/contracts/token/ERC20/ERC20.sol\":10333:10364  Approval(owner, spender, value) */\n      0xffffffffffffffffffffffffffffffffffffffff\n      and\n        /* \"@openzeppelin/contracts/token/ERC20/ERC20.sol\":10342:10347  owner */\n      dup5\n        /* \"@openzeppelin/contracts/token/ERC20/ERC20.sol\":10333:10364  Approval(owner, spender, value) */\n      0xffffffffffffffffffffffffffffffffffffffff\n      and\n      0x8c5be1e5ebec7d5bd14f71427d1e84f3dd0314c0f7b2291e5b200ac8c7c3b925\n        /* \"@openzeppelin/contracts/token/ERC20/ERC20.sol\":10358:10363  value */\n      dup5\n        /* \"@openzeppelin/contracts/token/ERC20/ERC20.sol\":10333:10364  Approval(owner, spender, value) */\n      mload(0x40)\n      tag_276\n      swap2\n      swap1\n      tag_45\n      jump\t// in\n    tag_276:\n      mload(0x40)\n      dup1\n      swap2\n      sub\n      swap1\n      log3\n        /* \"@openzeppelin/contracts/token/ERC20/ERC20.sol\":10299:10375  if (emitEvent) {... */\n    tag_275:\n        /* \"@openzeppelin/contracts/token/ERC20/ERC20.sol\":9949:10381  function _approve(address owner, address spender, uint256 value, bool emitEvent) internal virtual {... */\n      pop\n      pop\n      pop\n      pop\n      jump\t// out\n        /* \"@openzeppelin/contracts/token/ERC20/ERC20.sol\":6271:7378  function _update(address from, address to, uint256 value) internal virtual {... */\n    tag_254:\n        /* \"@openzeppelin/contracts/token/ERC20/ERC20.sol\":6376:6377  0 */\n      0x00\n        /* \"@openzeppelin/contracts/token/ERC20/ERC20.sol\":6360:6378  from == address(0) */\n      0xffffffffffffffffffffffffffffffffffffffff\n      and\n        /* \"@openzeppelin/contracts/token/ERC20/ERC20.sol\":6360:6364  from */\n      dup4\n        /* \"@openzeppelin/contracts/token/ERC20/ERC20.sol\":6360:6378  from == address(0) */\n      0xffffffffffffffffffffffffffffffffffffffff\n      and\n      sub\n        /* \"@openzeppelin/contracts/token/ERC20/ERC20.sol\":6356:6896  if (from == address(0)) {... */\n      tag_278\n      jumpi\n        /* \"@openzeppelin/contracts/token/ERC20/ERC20.sol\":6512:6517  value */\n      dup1\n        /* \"@openzeppelin/contracts/token/ERC20/ERC20.sol\":6496:6508  _totalSupply */\n      0x02\n      0x00\n        /* \"@openzeppelin/contracts/token/ERC20/ERC20.sol\":6496:6517  _totalSupply += value */\n      dup3\n      dup3\n      sload\n      tag_279\n      swap2\n      swap1\n      tag_280\n      jump\t// in\n    tag_279:\n      swap3\n      pop\n      pop\n      dup2\n      swap1\n      sstore\n      pop\n        /* \"@openzeppelin/contracts/token/ERC20/ERC20.sol\":6356:6896  if (from == address(0)) {... */\n      jump(tag_281)\n    tag_278:\n        /* \"@openzeppelin/contracts/token/ERC20/ERC20.sol\":6548:6567  uint256 fromBalance */\n      0x00\n        /* \"@openzeppelin/contracts/token/ERC20/ERC20.sol\":6570:6579  _balances */\n      dup1\n        /* \"@openzeppelin/contracts/token/ERC20/ERC20.sol\":6570:6585  _balances[from] */\n      0x00\n        /* \"@openzeppelin/contracts/token/ERC20/ERC20.sol\":6580:6584  from */\n      dup6\n        /* \"@openzeppelin/contracts/token/ERC20/ERC20.sol\":6570:6585  _balances[from] */\n      0xffffffffffffffffffffffffffffffffffffffff\n      and\n      0xffffffffffffffffffffffffffffffffffffffff\n      and\n      dup2\n      mstore\n      0x20\n      add\n      swap1\n      dup2\n      mstore\n      0x20\n      add\n      0x00\n      keccak256\n      sload\n        /* \"@openzeppelin/contracts/token/ERC20/ERC20.sol\":6548:6585  uint256 fromBalance = _balances[from] */\n      swap1\n      pop\n        /* \"@openzeppelin/contracts/token/ERC20/ERC20.sol\":6617:6622  value */\n      dup2\n        /* \"@openzeppelin/contracts/token/ERC20/ERC20.sol\":6603:6614  fromBalance */\n      dup2\n        /* \"@openzeppelin/contracts/token/ERC20/ERC20.sol\":6603:6622  fromBalance < value */\n      lt\n        /* \"@openzeppelin/contracts/token/ERC20/ERC20.sol\":6599:6714  if (fromBalance < value) {... */\n      iszero\n      tag_282\n      jumpi\n        /* \"@openzeppelin/contracts/token/ERC20/ERC20.sol\":6674:6678  from */\n      dup4\n        /* \"@openzeppelin/contracts/token/ERC20/ERC20.sol\":6680:6691  fromBalance */\n      dup2\n        /* \"@openzeppelin/contracts/token/ERC20/ERC20.sol\":6693:6698  value */\n      dup4\n        /* \"@openzeppelin/contracts/token/ERC20/ERC20.sol\":6649:6699  ERC20InsufficientBalance(from, fromBalance, value) */\n      mload(0x40)\n      0xe450d38c00000000000000000000000000000000000000000000000000000000\n      dup2\n      mstore\n      0x04\n      add\n      tag_283\n      swap4\n      swap3\n      swap2\n      swap1\n      tag_246\n      jump\t// in\n    tag_283:\n      mload(0x40)\n      dup1\n      swap2\n      sub\n      swap1\n      revert\n        /* \"@openzeppelin/contracts/token/ERC20/ERC20.sol\":6599:6714  if (fromBalance < value) {... */\n    tag_282:\n        /* \"@openzeppelin/contracts/token/ERC20/ERC20.sol\":6866:6871  value */\n      dup2\n        /* \"@openzeppelin/contracts/token/ERC20/ERC20.sol\":6852:6863  fromBalance */\n      dup2\n        /* \"@openzeppelin/contracts/token/ERC20/ERC20.sol\":6852:6871  fromBalance - value */\n      sub\n        /* \"@openzeppelin/contracts/token/ERC20/ERC20.sol\":6834:6843  _balances */\n      0x00\n        /* \"@openzeppelin/contracts/token/ERC20/ERC20.sol\":6834:6849  _balances[from] */\n      dup1\n        /* \"@openzeppelin/contracts/token/ERC20/ERC20.sol\":6844:6848  from */\n      dup7\n        /* \"@openzeppelin/contracts/token/ERC20/ERC20.sol\":6834:6849  _balances[from] */\n      0xffffffffffffffffffffffffffffffffffffffff\n      and\n      0xffffffffffffffffffffffffffffffffffffffff\n      and\n      dup2\n      mstore\n      0x20\n      add\n      swap1\n      dup2\n      mstore\n      0x20\n      add\n      0x00\n      keccak256\n        /* \"@openzeppelin/contracts/token/ERC20/ERC20.sol\":6834:6871  _balances[from] = fromBalance - value */\n      dup2\n      swap1\n      sstore\n      pop\n        /* \"@openzeppelin/contracts/token/ERC20/ERC20.sol\":6534:6896  {... */\n      pop\n        /* \"@openzeppelin/contracts/token/ERC20/ERC20.sol\":6356:6896  if (from == address(0)) {... */\n    tag_281:\n        /* \"@openzeppelin/contracts/token/ERC20/ERC20.sol\":6924:6925  0 */\n      0x00\n        /* \"@openzeppelin/contracts/token/ERC20/ERC20.sol\":6910:6926  to == address(0) */\n      0xffffffffffffffffffffffffffffffffffffffff\n      and\n        /* \"@openzeppelin/contracts/token/ERC20/ERC20.sol\":6910:6912  to */\n      dup3\n        /* \"@openzeppelin/contracts/token/ERC20/ERC20.sol\":6910:6926  to == address(0) */\n      0xffffffffffffffffffffffffffffffffffffffff\n      and\n      sub\n        /* \"@openzeppelin/contracts/token/ERC20/ERC20.sol\":6906:7331  if (to == address(0)) {... */\n      tag_284\n      jumpi\n        /* \"@openzeppelin/contracts/token/ERC20/ERC20.sol\":7089:7094  value */\n      dup1\n        /* \"@openzeppelin/contracts/token/ERC20/ERC20.sol\":7073:7085  _totalSupply */\n      0x02\n      0x00\n        /* \"@openzeppelin/contracts/token/ERC20/ERC20.sol\":7073:7094  _totalSupply -= value */\n      dup3\n      dup3\n      sload\n      sub\n      swap3\n      pop\n      pop\n      dup2\n      swap1\n      sstore\n      pop\n        /* \"@openzeppelin/contracts/token/ERC20/ERC20.sol\":6906:7331  if (to == address(0)) {... */\n      jump(tag_285)\n    tag_284:\n        /* \"@openzeppelin/contracts/token/ERC20/ERC20.sol\":7301:7306  value */\n      dup1\n        /* \"@openzeppelin/contracts/token/ERC20/ERC20.sol\":7284:7293  _balances */\n      0x00\n        /* \"@openzeppelin/contracts/token/ERC20/ERC20.sol\":7284:7297  _balances[to] */\n      dup1\n        /* \"@openzeppelin/contracts/token/ERC20/ERC20.sol\":7294:7296  to */\n      dup5\n        /* \"@openzeppelin/contracts/token/ERC20/ERC20.sol\":7284:7297  _balances[to] */\n      0xffffffffffffffffffffffffffffffffffffffff\n      and\n      0xffffffffffffffffffffffffffffffffffffffff\n      and\n      dup2\n      mstore\n      0x20\n      add\n      swap1\n      dup2\n      mstore\n      0x20\n      add\n      0x00\n      keccak256\n      0x00\n        /* \"@openzeppelin/contracts/token/ERC20/ERC20.sol\":7284:7306  _balances[to] += value */\n      dup3\n      dup3\n      sload\n      add\n      swap3\n      pop\n      pop\n      dup2\n      swap1\n      sstore\n      pop\n        /* \"@openzeppelin/contracts/token/ERC20/ERC20.sol\":6906:7331  if (to == address(0)) {... */\n    tag_285:\n        /* \"@openzeppelin/contracts/token/ERC20/ERC20.sol\":7361:7363  to */\n      dup2\n        /* \"@openzeppelin/contracts/token/ERC20/ERC20.sol\":7346:7371  Transfer(from, to, value) */\n      0xffffffffffffffffffffffffffffffffffffffff\n      and\n        /* \"@openzeppelin/contracts/token/ERC20/ERC20.sol\":7355:7359  from */\n      dup4\n        /* \"@openzeppelin/contracts/token/ERC20/ERC20.sol\":7346:7371  Transfer(from, to, value) */\n      0xffffffffffffffffffffffffffffffffffffffff\n      and\n      0xddf252ad1be2c89b69c2b068fc378daa952ba7f163c4a11628f55a4df523b3ef\n        /* \"@openzeppelin/contracts/token/ERC20/ERC20.sol\":7365:7370  value */\n      dup4\n        /* \"@openzeppelin/contracts/token/ERC20/ERC20.sol\":7346:7371  Transfer(from, to, value) */\n      mload(0x40)\n      tag_286\n      swap2\n      swap1\n      tag_45\n      jump\t// in\n    tag_286:\n      mload(0x40)\n      dup1\n      swap2\n      sub\n      swap1\n      log3\n        /* \"@openzeppelin/contracts/token/ERC20/ERC20.sol\":6271:7378  function _update(address from, address to, uint256 value) internal virtual {... */\n      pop\n      pop\n      pop\n      jump\t// out\n        /* \"#utility.yul\":7:106   */\n    tag_287:\n        /* \"#utility.yul\":59:65   */\n      0x00\n        /* \"#utility.yul\":93:98   */\n      dup2\n        /* \"#utility.yul\":87:99   */\n      mload\n        /* \"#utility.yul\":77:99   */\n      swap1\n      pop\n        /* \"#utility.yul\":7:106   */\n      swap2\n      swap1\n      pop\n      jump\t// out\n        /* \"#utility.yul\":112:281   */\n    tag_288:\n        /* \"#utility.yul\":196:207   */\n      0x00\n        /* \"#utility.yul\":230:236   */\n      dup3\n        /* \"#utility.yul\":225:228   */\n      dup3\n        /* \"#utility.yul\":218:237   */\n      mstore\n        /* \"#utility.yul\":270:274   */\n      0x20\n        /* \"#utility.yul\":265:268   */\n      dup3\n        /* \"#utility.yul\":261:275   */\n      add\n        /* \"#utility.yul\":246:275   */\n      swap1\n      pop\n        /* \"#utility.yul\":112:281   */\n      swap3\n      swap2\n      pop\n      pop\n      jump\t// out\n        /* \"#utility.yul\":287:533   */\n    tag_289:\n        /* \"#utility.yul\":368:369   */\n      0x00\n        /* \"#utility.yul\":378:491   */\n    tag_350:\n        /* \"#utility.yul\":392:398   */\n      dup4\n        /* \"#utility.yul\":389:390   */\n      dup2\n        /* \"#utility.yul\":386:399   */\n      lt\n        /* \"#utility.yul\":378:491   */\n      iszero\n      tag_352\n      jumpi\n        /* \"#utility.yul\":477:478   */\n      dup1\n        /* \"#utility.yul\":472:475   */\n      dup3\n        /* \"#utility.yul\":468:479   */\n      add\n        /* \"#utility.yul\":462:480   */\n      mload\n        /* \"#utility.yul\":458:459   */\n      dup2\n        /* \"#utility.yul\":453:456   */\n      dup5\n        /* \"#utility.yul\":449:460   */\n      add\n        /* \"#utility.yul\":442:481   */\n      mstore\n        /* \"#utility.yul\":414:416   */\n      0x20\n        /* \"#utility.yul\":411:412   */\n      dup2\n        /* \"#utility.yul\":407:417   */\n      add\n        /* \"#utility.yul\":402:417   */\n      swap1\n      pop\n        /* \"#utility.yul\":378:491   */\n      jump(tag_350)\n    tag_352:\n        /* \"#utility.yul\":525:526   */\n      0x00\n        /* \"#utility.yul\":516:522   */\n      dup5\n        /* \"#utility.yul\":511:514   */\n      dup5\n        /* \"#utility.yul\":507:523   */\n      add\n        /* \"#utility.yul\":500:527   */\n      mstore\n        /* \"#utility.yul\":349:533   */\n      pop\n        /* \"#utility.yul\":287:533   */\n      pop\n      pop\n      pop\n      jump\t// out\n        /* \"#utility.yul\":539:641   */\n    tag_290:\n        /* \"#utility.yul\":580:586   */\n      0x00\n        /* \"#utility.yul\":631:633   */\n      0x1f\n        /* \"#utility.yul\":627:634   */\n      not\n        /* \"#utility.yul\":622:624   */\n      0x1f\n        /* \"#utility.yul\":615:620   */\n      dup4\n        /* \"#utility.yul\":611:625   */\n      add\n        /* \"#utility.yul\":607:635   */\n      and\n        /* \"#utility.yul\":597:635   */\n      swap1\n      pop\n        /* \"#utility.yul\":539:641   */\n      swap2\n      swap1\n      pop\n      jump\t// out\n        /* \"#utility.yul\":647:1024   */\n    tag_291:\n        /* \"#utility.yul\":735:738   */\n      0x00\n        /* \"#utility.yul\":763:802   */\n      tag_355\n        /* \"#utility.yul\":796:801   */\n      dup3\n        /* \"#utility.yul\":763:802   */\n      tag_287\n      jump\t// in\n    tag_355:\n        /* \"#utility.yul\":818:889   */\n      tag_356\n        /* \"#utility.yul\":882:888   */\n      dup2\n        /* \"#utility.yul\":877:880   */\n      dup6\n        /* \"#utility.yul\":818:889   */\n      tag_288\n      jump\t// in\n    tag_356:\n        /* \"#utility.yul\":811:889   */\n      swap4\n      pop\n        /* \"#utility.yul\":898:963   */\n      tag_357\n        /* \"#utility.yul\":956:962   */\n      dup2\n        /* \"#utility.yul\":951:954   */\n      dup6\n        /* \"#utility.yul\":944:948   */\n      0x20\n        /* \"#utility.yul\":937:942   */\n      dup7\n        /* \"#utility.yul\":933:949   */\n      add\n        /* \"#utility.yul\":898:963   */\n      tag_289\n      jump\t// in\n    tag_357:\n        /* \"#utility.yul\":988:1017   */\n      tag_358\n        /* \"#utility.yul\":1010:1016   */\n      dup2\n        /* \"#utility.yul\":988:1017   */\n      tag_290\n      jump\t// in\n    tag_358:\n        /* \"#utility.yul\":983:986   */\n      dup5\n        /* \"#utility.yul\":979:1018   */\n      add\n        /* \"#utility.yul\":972:1018   */\n      swap2\n      pop\n        /* \"#utility.yul\":739:1024   */\n      pop\n        /* \"#utility.yul\":647:1024   */\n      swap3\n      swap2\n      pop\n      pop\n      jump\t// out\n        /* \"#utility.yul\":1030:1343   */\n    tag_33:\n        /* \"#utility.yul\":1143:1147   */\n      0x00\n        /* \"#utility.yul\":1181:1183   */\n      0x20\n        /* \"#utility.yul\":1170:1179   */\n      dup3\n        /* \"#utility.yul\":1166:1184   */\n      add\n        /* \"#utility.yul\":1158:1184   */\n      swap1\n      pop\n        /* \"#utility.yul\":1230:1239   */\n      dup2\n        /* \"#utility.yul\":1224:1228   */\n      dup2\n        /* \"#utility.yul\":1220:1240   */\n      sub\n        /* \"#utility.yul\":1216:1217   */\n      0x00\n        /* \"#utility.yul\":1205:1214   */\n      dup4\n        /* \"#utility.yul\":1201:1218   */\n      add\n        /* \"#utility.yul\":1194:1241   */\n      mstore\n        /* \"#utility.yul\":1258:1336   */\n      tag_360\n        /* \"#utility.yul\":1331:1335   */\n      dup2\n        /* \"#utility.yul\":1322:1328   */\n      dup5\n        /* \"#utility.yul\":1258:1336   */\n      tag_291\n      jump\t// in\n    tag_360:\n        /* \"#utility.yul\":1250:1336   */\n      swap1\n      pop\n        /* \"#utility.yul\":1030:1343   */\n      swap3\n      swap2\n      pop\n      pop\n      jump\t// out\n        /* \"#utility.yul\":1349:1424   */\n    tag_292:\n        /* \"#utility.yul\":1382:1388   */\n      0x00\n        /* \"#utility.yul\":1415:1417   */\n      0x40\n        /* \"#utility.yul\":1409:1418   */\n      mload\n        /* \"#utility.yul\":1399:1418   */\n      swap1\n      pop\n        /* \"#utility.yul\":1349:1424   */\n      swap1\n      jump\t// out\n        /* \"#utility.yul\":1430:1547   */\n    tag_293:\n        /* \"#utility.yul\":1539:1540   */\n      0x00\n        /* \"#utility.yul\":1536:1537   */\n      dup1\n        /* \"#utility.yul\":1529:1541   */\n      revert\n        /* \"#utility.yul\":1553:1670   */\n    tag_294:\n        /* \"#utility.yul\":1662:1663   */\n      0x00\n        /* \"#utility.yul\":1659:1660   */\n      dup1\n        /* \"#utility.yul\":1652:1664   */\n      revert\n        /* \"#utility.yul\":1676:1802   */\n    tag_295:\n        /* \"#utility.yul\":1713:1720   */\n      0x00\n        /* \"#utility.yul\":1753:1795   */\n      0xffffffffffffffffffffffffffffffffffffffff\n        /* \"#utility.yul\":1746:1751   */\n      dup3\n        /* \"#utility.yul\":1742:1796   */\n      and\n        /* \"#utility.yul\":1731:1796   */\n      swap1\n      pop\n        /* \"#utility.yul\":1676:1802   */\n      swap2\n      swap1\n      pop\n      jump\t// out\n        /* \"#utility.yul\":1808:1904   */\n    tag_296:\n        /* \"#utility.yul\":1845:1852   */\n      0x00\n        /* \"#utility.yul\":1874:1898   */\n      tag_366\n        /* \"#utility.yul\":1892:1897   */\n      dup3\n        /* \"#utility.yul\":1874:1898   */\n      tag_295\n      jump\t// in\n    tag_366:\n        /* \"#utility.yul\":1863:1898   */\n      swap1\n      pop\n        /* \"#utility.yul\":1808:1904   */\n      swap2\n      swap1\n      pop\n      jump\t// out\n        /* \"#utility.yul\":1910:2032   */\n    tag_297:\n        /* \"#utility.yul\":1983:2007   */\n      tag_368\n        /* \"#utility.yul\":2001:2006   */\n      dup2\n        /* \"#utility.yul\":1983:2007   */\n      tag_296\n      jump\t// in\n    tag_368:\n        /* \"#utility.yul\":1976:1981   */\n      dup2\n        /* \"#utility.yul\":1973:2008   */\n      eq\n        /* \"#utility.yul\":1963:2026   */\n      tag_369\n      jumpi\n        /* \"#utility.yul\":2022:2023   */\n      0x00\n        /* \"#utility.yul\":2019:2020   */\n      dup1\n        /* \"#utility.yul\":2012:2024   */\n      revert\n        /* \"#utility.yul\":1963:2026   */\n    tag_369:\n        /* \"#utility.yul\":1910:2032   */\n      pop\n      jump\t// out\n        /* \"#utility.yul\":2038:2177   */\n    tag_298:\n        /* \"#utility.yul\":2084:2089   */\n      0x00\n        /* \"#utility.yul\":2122:2128   */\n      dup2\n        /* \"#utility.yul\":2109:2129   */\n      calldataload\n        /* \"#utility.yul\":2100:2129   */\n      swap1\n      pop\n        /* \"#utility.yul\":2138:2171   */\n      tag_371\n        /* \"#utility.yul\":2165:2170   */\n      dup2\n        /* \"#utility.yul\":2138:2171   */\n      tag_297\n      jump\t// in\n    tag_371:\n        /* \"#utility.yul\":2038:2177   */\n      swap3\n      swap2\n      pop\n      pop\n      jump\t// out\n        /* \"#utility.yul\":2183:2260   */\n    tag_299:\n        /* \"#utility.yul\":2220:2227   */\n      0x00\n        /* \"#utility.yul\":2249:2254   */\n      dup2\n        /* \"#utility.yul\":2238:2254   */\n      swap1\n      pop\n        /* \"#utility.yul\":2183:2260   */\n      swap2\n      swap1\n      pop\n      jump\t// out\n        /* \"#utility.yul\":2266:2388   */\n    tag_300:\n        /* \"#utility.yul\":2339:2363   */\n      tag_374\n        /* \"#utility.yul\":2357:2362   */\n      dup2\n        /* \"#utility.yul\":2339:2363   */\n      tag_299\n      jump\t// in\n    tag_374:\n        /* \"#utility.yul\":2332:2337   */\n      dup2\n        /* \"#utility.yul\":2329:2364   */\n      eq\n        /* \"#utility.yul\":2319:2382   */\n      tag_375\n      jumpi\n        /* \"#utility.yul\":2378:2379   */\n      0x00\n        /* \"#utility.yul\":2375:2376   */\n      dup1\n        /* \"#utility.yul\":2368:2380   */\n      revert\n        /* \"#utility.yul\":2319:2382   */\n    tag_375:\n        /* \"#utility.yul\":2266:2388   */\n      pop\n      jump\t// out\n        /* \"#utility.yul\":2394:2533   */\n    tag_301:\n        /* \"#utility.yul\":2440:2445   */\n      0x00\n        /* \"#utility.yul\":2478:2484   */\n      dup2\n        /* \"#utility.yul\":2465:2485   */\n      calldataload\n        /* \"#utility.yul\":2456:2485   */\n      swap1\n      pop\n        /* \"#utility.yul\":2494:2527   */\n      tag_377\n        /* \"#utility.yul\":2521:2526   */\n      dup2\n        /* \"#utility.yul\":2494:2527   */\n      tag_300\n      jump\t// in\n    tag_377:\n        /* \"#utility.yul\":2394:2533   */\n      swap3\n      swap2\n      pop\n      pop\n      jump\t// out\n        /* \"#utility.yul\":2539:3013   */\n    tag_37:\n        /* \"#utility.yul\":2607:2613   */\n      0x00\n        /* \"#utility.yul\":2615:2621   */\n      dup1\n        /* \"#utility.yul\":2664:2666   */\n      0x40\n        /* \"#utility.yul\":2652:2661   */\n      dup4\n        /* \"#utility.yul\":2643:2650   */\n      dup6\n        /* \"#utility.yul\":2639:2662   */\n      sub\n        /* \"#utility.yul\":2635:2667   */\n      slt\n        /* \"#utility.yul\":2632:2751   */\n      iszero\n      tag_379\n      jumpi\n        /* \"#utility.yul\":2670:2749   */\n      tag_380\n      tag_293\n      jump\t// in\n    tag_380:\n        /* \"#utility.yul\":2632:2751   */\n    tag_379:\n        /* \"#utility.yul\":2790:2791   */\n      0x00\n        /* \"#utility.yul\":2815:2868   */\n      tag_381\n        /* \"#utility.yul\":2860:2867   */\n      dup6\n        /* \"#utility.yul\":2851:2857   */\n      dup3\n        /* \"#utility.yul\":2840:2849   */\n      dup7\n        /* \"#utility.yul\":2836:2858   */\n      add\n        /* \"#utility.yul\":2815:2868   */\n      tag_298\n      jump\t// in\n    tag_381:\n        /* \"#utility.yul\":2805:2868   */\n      swap3\n      pop\n        /* \"#utility.yul\":2761:2878   */\n      pop\n        /* \"#utility.yul\":2917:2919   */\n      0x20\n        /* \"#utility.yul\":2943:2996   */\n      tag_382\n        /* \"#utility.yul\":2988:2995   */\n      dup6\n        /* \"#utility.yul\":2979:2985   */\n      dup3\n        /* \"#utility.yul\":2968:2977   */\n      dup7\n        /* \"#utility.yul\":2964:2986   */\n      add\n        /* \"#utility.yul\":2943:2996   */\n      tag_301\n      jump\t// in\n    tag_382:\n        /* \"#utility.yul\":2933:2996   */\n      swap2\n      pop\n        /* \"#utility.yul\":2888:3006   */\n      pop\n        /* \"#utility.yul\":2539:3013   */\n      swap3\n      pop\n      swap3\n      swap1\n      pop\n      jump\t// out\n        /* \"#utility.yul\":3019:3109   */\n    tag_302:\n        /* \"#utility.yul\":3053:3060   */\n      0x00\n        /* \"#utility.yul\":3096:3101   */\n      dup2\n        /* \"#utility.yul\":3089:3102   */\n      iszero\n        /* \"#utility.yul\":3082:3103   */\n      iszero\n        /* \"#utility.yul\":3071:3103   */\n      swap1\n      pop\n        /* \"#utility.yul\":3019:3109   */\n      swap2\n      swap1\n      pop\n      jump\t// out\n        /* \"#utility.yul\":3115:3224   */\n    tag_303:\n        /* \"#utility.yul\":3196:3217   */\n      tag_385\n        /* \"#utility.yul\":3211:3216   */\n      dup2\n        /* \"#utility.yul\":3196:3217   */\n      tag_302\n      jump\t// in\n    tag_385:\n        /* \"#utility.yul\":3191:3194   */\n      dup3\n        /* \"#utility.yul\":3184:3218   */\n      mstore\n        /* \"#utility.yul\":3115:3224   */\n      pop\n      pop\n      jump\t// out\n        /* \"#utility.yul\":3230:3440   */\n    tag_40:\n        /* \"#utility.yul\":3317:3321   */\n      0x00\n        /* \"#utility.yul\":3355:3357   */\n      0x20\n        /* \"#utility.yul\":3344:3353   */\n      dup3\n        /* \"#utility.yul\":3340:3358   */\n      add\n        /* \"#utility.yul\":3332:3358   */\n      swap1\n      pop\n        /* \"#utility.yul\":3368:3433   */\n      tag_387\n        /* \"#utility.yul\":3430:3431   */\n      0x00\n        /* \"#utility.yul\":3419:3428   */\n      dup4\n        /* \"#utility.yul\":3415:3432   */\n      add\n        /* \"#utility.yul\":3406:3412   */\n      dup5\n        /* \"#utility.yul\":3368:3433   */\n      tag_303\n      jump\t// in\n    tag_387:\n        /* \"#utility.yul\":3230:3440   */\n      swap3\n      swap2\n      pop\n      pop\n      jump\t// out\n        /* \"#utility.yul\":3446:3564   */\n    tag_304:\n        /* \"#utility.yul\":3533:3557   */\n      tag_389\n        /* \"#utility.yul\":3551:3556   */\n      dup2\n        /* \"#utility.yul\":3533:3557   */\n      tag_299\n      jump\t// in\n    tag_389:\n        /* \"#utility.yul\":3528:3531   */\n      dup3\n        /* \"#utility.yul\":3521:3558   */\n      mstore\n        /* \"#utility.yul\":3446:3564   */\n      pop\n      pop\n      jump\t// out\n        /* \"#utility.yul\":3570:3792   */\n    tag_45:\n        /* \"#utility.yul\":3663:3667   */\n      0x00\n        /* \"#utility.yul\":3701:3703   */\n      0x20\n        /* \"#utility.yul\":3690:3699   */\n      dup3\n        /* \"#utility.yul\":3686:3704   */\n      add\n        /* \"#utility.yul\":3678:3704   */\n      swap1\n      pop\n        /* \"#utility.yul\":3714:3785   */\n      tag_391\n        /* \"#utility.yul\":3782:3783   */\n      0x00\n        /* \"#utility.yul\":3771:3780   */\n      dup4\n        /* \"#utility.yul\":3767:3784   */\n      add\n        /* \"#utility.yul\":3758:3764   */\n      dup5\n        /* \"#utility.yul\":3714:3785   */\n      tag_304\n      jump\t// in\n    tag_391:\n        /* \"#utility.yul\":3570:3792   */\n      swap3\n      swap2\n      pop\n      pop\n      jump\t// out\n        /* \"#utility.yul\":3798:4417   */\n    tag_49:\n        /* \"#utility.yul\":3875:3881   */\n      0x00\n        /* \"#utility.yul\":3883:3889   */\n      dup1\n        /* \"#utility.yul\":3891:3897   */\n      0x00\n        /* \"#utility.yul\":3940:3942   */\n      0x60\n        /* \"#utility.yul\":3928:3937   */\n      dup5\n        /* \"#utility.yul\":3919:3926   */\n      dup7\n        /* \"#utility.yul\":3915:3938   */\n      sub\n        /* \"#utility.yul\":3911:3943   */\n      slt\n        /* \"#utility.yul\":3908:4027   */\n      iszero\n      tag_393\n      jumpi\n        /* \"#utility.yul\":3946:4025   */\n      tag_394\n      tag_293\n      jump\t// in\n    tag_394:\n        /* \"#utility.yul\":3908:4027   */\n    tag_393:\n        /* \"#utility.yul\":4066:4067   */\n      0x00\n        /* \"#utility.yul\":4091:4144   */\n      tag_395\n        /* \"#utility.yul\":4136:4143   */\n      dup7\n        /* \"#utility.yul\":4127:4133   */\n      dup3\n        /* \"#utility.yul\":4116:4125   */\n      dup8\n        /* \"#utility.yul\":4112:4134   */\n      add\n        /* \"#utility.yul\":4091:4144   */\n      tag_298\n      jump\t// in\n    tag_395:\n        /* \"#utility.yul\":4081:4144   */\n      swap4\n      pop\n        /* \"#utility.yul\":4037:4154   */\n      pop\n        /* \"#utility.yul\":4193:4195   */\n      0x20\n        /* \"#utility.yul\":4219:4272   */\n      tag_396\n        /* \"#utility.yul\":4264:4271   */\n      dup7\n        /* \"#utility.yul\":4255:4261   */\n      dup3\n        /* \"#utility.yul\":4244:4253   */\n      dup8\n        /* \"#utility.yul\":4240:4262   */\n      add\n        /* \"#utility.yul\":4219:4272   */\n      tag_298\n      jump\t// in\n    tag_396:\n        /* \"#utility.yul\":4209:4272   */\n      swap3\n      pop\n        /* \"#utility.yul\":4164:4282   */\n      pop\n        /* \"#utility.yul\":4321:4323   */\n      0x40\n        /* \"#utility.yul\":4347:4400   */\n      tag_397\n        /* \"#utility.yul\":4392:4399   */\n      dup7\n        /* \"#utility.yul\":4383:4389   */\n      dup3\n        /* \"#utility.yul\":4372:4381   */\n      dup8\n        /* \"#utility.yul\":4368:4390   */\n      add\n        /* \"#utility.yul\":4347:4400   */\n      tag_301\n      jump\t// in\n    tag_397:\n        /* \"#utility.yul\":4337:4400   */\n      swap2\n      pop\n        /* \"#utility.yul\":4292:4410   */\n      pop\n        /* \"#utility.yul\":3798:4417   */\n      swap3\n      pop\n      swap3\n      pop\n      swap3\n      jump\t// out\n        /* \"#utility.yul\":4423:4509   */\n    tag_305:\n        /* \"#utility.yul\":4458:4465   */\n      0x00\n        /* \"#utility.yul\":4498:4502   */\n      0xff\n        /* \"#utility.yul\":4491:4496   */\n      dup3\n        /* \"#utility.yul\":4487:4503   */\n      and\n        /* \"#utility.yul\":4476:4503   */\n      swap1\n      pop\n        /* \"#utility.yul\":4423:4509   */\n      swap2\n      swap1\n      pop\n      jump\t// out\n        /* \"#utility.yul\":4515:4627   */\n    tag_306:\n        /* \"#utility.yul\":4598:4620   */\n      tag_400\n        /* \"#utility.yul\":4614:4619   */\n      dup2\n        /* \"#utility.yul\":4598:4620   */\n      tag_305\n      jump\t// in\n    tag_400:\n        /* \"#utility.yul\":4593:4596   */\n      dup3\n        /* \"#utility.yul\":4586:4621   */\n      mstore\n        /* \"#utility.yul\":4515:4627   */\n      pop\n      pop\n      jump\t// out\n        /* \"#utility.yul\":4633:4847   */\n    tag_56:\n        /* \"#utility.yul\":4722:4726   */\n      0x00\n        /* \"#utility.yul\":4760:4762   */\n      0x20\n        /* \"#utility.yul\":4749:4758   */\n      dup3\n        /* \"#utility.yul\":4745:4763   */\n      add\n        /* \"#utility.yul\":4737:4763   */\n      swap1\n      pop\n        /* \"#utility.yul\":4773:4840   */\n      tag_402\n        /* \"#utility.yul\":4837:4838   */\n      0x00\n        /* \"#utility.yul\":4826:4835   */\n      dup4\n        /* \"#utility.yul\":4822:4839   */\n      add\n        /* \"#utility.yul\":4813:4819   */\n      dup5\n        /* \"#utility.yul\":4773:4840   */\n      tag_306\n      jump\t// in\n    tag_402:\n        /* \"#utility.yul\":4633:4847   */\n      swap3\n      swap2\n      pop\n      pop\n      jump\t// out\n        /* \"#utility.yul\":4853:5182   */\n    tag_64:\n        /* \"#utility.yul\":4912:4918   */\n      0x00\n        /* \"#utility.yul\":4961:4963   */\n      0x20\n        /* \"#utility.yul\":4949:4958   */\n      dup3\n        /* \"#utility.yul\":4940:4947   */\n      dup5\n        /* \"#utility.yul\":4936:4959   */\n      sub\n        /* \"#utility.yul\":4932:4964   */\n      slt\n        /* \"#utility.yul\":4929:5048   */\n      iszero\n      tag_404\n      jumpi\n        /* \"#utility.yul\":4967:5046   */\n      tag_405\n      tag_293\n      jump\t// in\n    tag_405:\n        /* \"#utility.yul\":4929:5048   */\n    tag_404:\n        /* \"#utility.yul\":5087:5088   */\n      0x00\n        /* \"#utility.yul\":5112:5165   */\n      tag_406\n        /* \"#utility.yul\":5157:5164   */\n      dup5\n        /* \"#utility.yul\":5148:5154   */\n      dup3\n        /* \"#utility.yul\":5137:5146   */\n      dup6\n        /* \"#utility.yul\":5133:5155   */\n      add\n        /* \"#utility.yul\":5112:5165   */\n      tag_298\n      jump\t// in\n    tag_406:\n        /* \"#utility.yul\":5102:5165   */\n      swap2\n      pop\n        /* \"#utility.yul\":5058:5175   */\n      pop\n        /* \"#utility.yul\":4853:5182   */\n      swap3\n      swap2\n      pop\n      pop\n      jump\t// out\n        /* \"#utility.yul\":5188:5903   */\n    tag_67:\n        /* \"#utility.yul\":5397:5401   */\n      0x00\n        /* \"#utility.yul\":5435:5437   */\n      0x60\n        /* \"#utility.yul\":5424:5433   */\n      dup3\n        /* \"#utility.yul\":5420:5438   */\n      add\n        /* \"#utility.yul\":5412:5438   */\n      swap1\n      pop\n        /* \"#utility.yul\":5484:5493   */\n      dup2\n        /* \"#utility.yul\":5478:5482   */\n      dup2\n        /* \"#utility.yul\":5474:5494   */\n      sub\n        /* \"#utility.yul\":5470:5471   */\n      0x00\n        /* \"#utility.yul\":5459:5468   */\n      dup4\n        /* \"#utility.yul\":5455:5472   */\n      add\n        /* \"#utility.yul\":5448:5495   */\n      mstore\n        /* \"#utility.yul\":5512:5590   */\n      tag_408\n        /* \"#utility.yul\":5585:5589   */\n      dup2\n        /* \"#utility.yul\":5576:5582   */\n      dup7\n        /* \"#utility.yul\":5512:5590   */\n      tag_291\n      jump\t// in\n    tag_408:\n        /* \"#utility.yul\":5504:5590   */\n      swap1\n      pop\n        /* \"#utility.yul\":5637:5646   */\n      dup2\n        /* \"#utility.yul\":5631:5635   */\n      dup2\n        /* \"#utility.yul\":5627:5647   */\n      sub\n        /* \"#utility.yul\":5622:5624   */\n      0x20\n        /* \"#utility.yul\":5611:5620   */\n      dup4\n        /* \"#utility.yul\":5607:5625   */\n      add\n        /* \"#utility.yul\":5600:5648   */\n      mstore\n        /* \"#utility.yul\":5665:5743   */\n      tag_409\n        /* \"#utility.yul\":5738:5742   */\n      dup2\n        /* \"#utility.yul\":5729:5735   */\n      dup6\n        /* \"#utility.yul\":5665:5743   */\n      tag_291\n      jump\t// in\n    tag_409:\n        /* \"#utility.yul\":5657:5743   */\n      swap1\n      pop\n        /* \"#utility.yul\":5790:5799   */\n      dup2\n        /* \"#utility.yul\":5784:5788   */\n      dup2\n        /* \"#utility.yul\":5780:5800   */\n      sub\n        /* \"#utility.yul\":5775:5777   */\n      0x40\n        /* \"#utility.yul\":5764:5773   */\n      dup4\n        /* \"#utility.yul\":5760:5778   */\n      add\n        /* \"#utility.yul\":5753:5801   */\n      mstore\n        /* \"#utility.yul\":5818:5896   */\n      tag_410\n        /* \"#utility.yul\":5891:5895   */\n      dup2\n        /* \"#utility.yul\":5882:5888   */\n      dup5\n        /* \"#utility.yul\":5818:5896   */\n      tag_291\n      jump\t// in\n    tag_410:\n        /* \"#utility.yul\":5810:5896   */\n      swap1\n      pop\n        /* \"#utility.yul\":5188:5903   */\n      swap5\n      swap4\n      pop\n      pop\n      pop\n      pop\n      jump\t// out\n        /* \"#utility.yul\":5909:6027   */\n    tag_307:\n        /* \"#utility.yul\":5996:6020   */\n      tag_412\n        /* \"#utility.yul\":6014:6019   */\n      dup2\n        /* \"#utility.yul\":5996:6020   */\n      tag_296\n      jump\t// in\n    tag_412:\n        /* \"#utility.yul\":5991:5994   */\n      dup3\n        /* \"#utility.yul\":5984:6021   */\n      mstore\n        /* \"#utility.yul\":5909:6027   */\n      pop\n      pop\n      jump\t// out\n        /* \"#utility.yul\":6033:6255   */\n    tag_80:\n        /* \"#utility.yul\":6126:6130   */\n      0x00\n        /* \"#utility.yul\":6164:6166   */\n      0x20\n        /* \"#utility.yul\":6153:6162   */\n      dup3\n        /* \"#utility.yul\":6149:6167   */\n      add\n        /* \"#utility.yul\":6141:6167   */\n      swap1\n      pop\n        /* \"#utility.yul\":6177:6248   */\n      tag_414\n        /* \"#utility.yul\":6245:6246   */\n      0x00\n        /* \"#utility.yul\":6234:6243   */\n      dup4\n        /* \"#utility.yul\":6230:6247   */\n      add\n        /* \"#utility.yul\":6221:6227   */\n      dup5\n        /* \"#utility.yul\":6177:6248   */\n      tag_307\n      jump\t// in\n    tag_414:\n        /* \"#utility.yul\":6033:6255   */\n      swap3\n      swap2\n      pop\n      pop\n      jump\t// out\n        /* \"#utility.yul\":6261:6735   */\n    tag_93:\n        /* \"#utility.yul\":6329:6335   */\n      0x00\n        /* \"#utility.yul\":6337:6343   */\n      dup1\n        /* \"#utility.yul\":6386:6388   */\n      0x40\n        /* \"#utility.yul\":6374:6383   */\n      dup4\n        /* \"#utility.yul\":6365:6372   */\n      dup6\n        /* \"#utility.yul\":6361:6384   */\n      sub\n        /* \"#utility.yul\":6357:6389   */\n      slt\n        /* \"#utility.yul\":6354:6473   */\n      iszero\n      tag_416\n      jumpi\n        /* \"#utility.yul\":6392:6471   */\n      tag_417\n      tag_293\n      jump\t// in\n    tag_417:\n        /* \"#utility.yul\":6354:6473   */\n    tag_416:\n        /* \"#utility.yul\":6512:6513   */\n      0x00\n        /* \"#utility.yul\":6537:6590   */\n      tag_418\n        /* \"#utility.yul\":6582:6589   */\n      dup6\n        /* \"#utility.yul\":6573:6579   */\n      dup3\n        /* \"#utility.yul\":6562:6571   */\n      dup7\n        /* \"#utility.yul\":6558:6580   */\n      add\n        /* \"#utility.yul\":6537:6590   */\n      tag_301\n      jump\t// in\n    tag_418:\n        /* \"#utility.yul\":6527:6590   */\n      swap3\n      pop\n        /* \"#utility.yul\":6483:6600   */\n      pop\n        /* \"#utility.yul\":6639:6641   */\n      0x20\n        /* \"#utility.yul\":6665:6718   */\n      tag_419\n        /* \"#utility.yul\":6710:6717   */\n      dup6\n        /* \"#utility.yul\":6701:6707   */\n      dup3\n        /* \"#utility.yul\":6690:6699   */\n      dup7\n        /* \"#utility.yul\":6686:6708   */\n      add\n        /* \"#utility.yul\":6665:6718   */\n      tag_301\n      jump\t// in\n    tag_419:\n        /* \"#utility.yul\":6655:6718   */\n      swap2\n      pop\n        /* \"#utility.yul\":6610:6728   */\n      pop\n        /* \"#utility.yul\":6261:6735   */\n      swap3\n      pop\n      swap3\n      swap1\n      pop\n      jump\t// out\n        /* \"#utility.yul\":6741:7070   */\n    tag_98:\n        /* \"#utility.yul\":6800:6806   */\n      0x00\n        /* \"#utility.yul\":6849:6851   */\n      0x20\n        /* \"#utility.yul\":6837:6846   */\n      dup3\n        /* \"#utility.yul\":6828:6835   */\n      dup5\n        /* \"#utility.yul\":6824:6847   */\n      sub\n        /* \"#utility.yul\":6820:6852   */\n      slt\n        /* \"#utility.yul\":6817:6936   */\n      iszero\n      tag_421\n      jumpi\n        /* \"#utility.yul\":6855:6934   */\n      tag_422\n      tag_293\n      jump\t// in\n    tag_422:\n        /* \"#utility.yul\":6817:6936   */\n    tag_421:\n        /* \"#utility.yul\":6975:6976   */\n      0x00\n        /* \"#utility.yul\":7000:7053   */\n      tag_423\n        /* \"#utility.yul\":7045:7052   */\n      dup5\n        /* \"#utility.yul\":7036:7042   */\n      dup3\n        /* \"#utility.yul\":7025:7034   */\n      dup6\n        /* \"#utility.yul\":7021:7043   */\n      add\n        /* \"#utility.yul\":7000:7053   */\n      tag_301\n      jump\t// in\n    tag_423:\n        /* \"#utility.yul\":6990:7053   */\n      swap2\n      pop\n        /* \"#utility.yul\":6946:7063   */\n      pop\n        /* \"#utility.yul\":6741:7070   */\n      swap3\n      swap2\n      pop\n      pop\n      jump\t// out\n        /* \"#utility.yul\":7076:7193   */\n    tag_308:\n        /* \"#utility.yul\":7185:7186   */\n      0x00\n        /* \"#utility.yul\":7182:7183   */\n      dup1\n        /* \"#utility.yul\":7175:7187   */\n      revert\n        /* \"#utility.yul\":7199:7316   */\n    tag_309:\n        /* \"#utility.yul\":7308:7309   */\n      0x00\n        /* \"#utility.yul\":7305:7306   */\n      dup1\n        /* \"#utility.yul\":7298:7310   */\n      revert\n        /* \"#utility.yul\":7322:7502   */\n    tag_310:\n        /* \"#utility.yul\":7370:7447   */\n      0x4e487b7100000000000000000000000000000000000000000000000000000000\n        /* \"#utility.yul\":7367:7368   */\n      0x00\n        /* \"#utility.yul\":7360:7448   */\n      mstore\n        /* \"#utility.yul\":7467:7471   */\n      0x41\n        /* \"#utility.yul\":7464:7465   */\n      0x04\n        /* \"#utility.yul\":7457:7472   */\n      mstore\n        /* \"#utility.yul\":7491:7495   */\n      0x24\n        /* \"#utility.yul\":7488:7489   */\n      0x00\n        /* \"#utility.yul\":7481:7496   */\n      revert\n        /* \"#utility.yul\":7508:7789   */\n    tag_311:\n        /* \"#utility.yul\":7591:7618   */\n      tag_428\n        /* \"#utility.yul\":7613:7617   */\n      dup3\n        /* \"#utility.yul\":7591:7618   */\n      tag_290\n      jump\t// in\n    tag_428:\n        /* \"#utility.yul\":7583:7589   */\n      dup2\n        /* \"#utility.yul\":7579:7619   */\n      add\n        /* \"#utility.yul\":7721:7727   */\n      dup2\n        /* \"#utility.yul\":7709:7719   */\n      dup2\n        /* \"#utility.yul\":7706:7728   */\n      lt\n        /* \"#utility.yul\":7685:7703   */\n      0xffffffffffffffff\n        /* \"#utility.yul\":7673:7683   */\n      dup3\n        /* \"#utility.yul\":7670:7704   */\n      gt\n        /* \"#utility.yul\":7667:7729   */\n      or\n        /* \"#utility.yul\":7664:7752   */\n      iszero\n      tag_429\n      jumpi\n        /* \"#utility.yul\":7732:7750   */\n      tag_430\n      tag_310\n      jump\t// in\n    tag_430:\n        /* \"#utility.yul\":7664:7752   */\n    tag_429:\n        /* \"#utility.yul\":7772:7782   */\n      dup1\n        /* \"#utility.yul\":7768:7770   */\n      0x40\n        /* \"#utility.yul\":7761:7783   */\n      mstore\n        /* \"#utility.yul\":7551:7789   */\n      pop\n        /* \"#utility.yul\":7508:7789   */\n      pop\n      pop\n      jump\t// out\n        /* \"#utility.yul\":7795:7924   */\n    tag_312:\n        /* \"#utility.yul\":7829:7835   */\n      0x00\n        /* \"#utility.yul\":7856:7876   */\n      tag_432\n      tag_292\n      jump\t// in\n    tag_432:\n        /* \"#utility.yul\":7846:7876   */\n      swap1\n      pop\n        /* \"#utility.yul\":7885:7918   */\n      tag_433\n        /* \"#utility.yul\":7913:7917   */\n      dup3\n        /* \"#utility.yul\":7905:7911   */\n      dup3\n        /* \"#utility.yul\":7885:7918   */\n      tag_311\n      jump\t// in\n    tag_433:\n        /* \"#utility.yul\":7795:7924   */\n      swap2\n      swap1\n      pop\n      jump\t// out\n        /* \"#utility.yul\":7930:8238   */\n    tag_313:\n        /* \"#utility.yul\":7992:7996   */\n      0x00\n        /* \"#utility.yul\":8082:8100   */\n      0xffffffffffffffff\n        /* \"#utility.yul\":8074:8080   */\n      dup3\n        /* \"#utility.yul\":8071:8101   */\n      gt\n        /* \"#utility.yul\":8068:8124   */\n      iszero\n      tag_435\n      jumpi\n        /* \"#utility.yul\":8104:8122   */\n      tag_436\n      tag_310\n      jump\t// in\n    tag_436:\n        /* \"#utility.yul\":8068:8124   */\n    tag_435:\n        /* \"#utility.yul\":8142:8171   */\n      tag_437\n        /* \"#utility.yul\":8164:8170   */\n      dup3\n        /* \"#utility.yul\":8142:8171   */\n      tag_290\n      jump\t// in\n    tag_437:\n        /* \"#utility.yul\":8134:8171   */\n      swap1\n      pop\n        /* \"#utility.yul\":8226:8230   */\n      0x20\n        /* \"#utility.yul\":8220:8224   */\n      dup2\n        /* \"#utility.yul\":8216:8231   */\n      add\n        /* \"#utility.yul\":8208:8231   */\n      swap1\n      pop\n        /* \"#utility.yul\":7930:8238   */\n      swap2\n      swap1\n      pop\n      jump\t// out\n        /* \"#utility.yul\":8244:8390   */\n    tag_314:\n        /* \"#utility.yul\":8341:8347   */\n      dup3\n        /* \"#utility.yul\":8336:8339   */\n      dup2\n        /* \"#utility.yul\":8331:8334   */\n      dup4\n        /* \"#utility.yul\":8318:8348   */\n      calldatacopy\n        /* \"#utility.yul\":8382:8383   */\n      0x00\n        /* \"#utility.yul\":8373:8379   */\n      dup4\n        /* \"#utility.yul\":8368:8371   */\n      dup4\n        /* \"#utility.yul\":8364:8380   */\n      add\n        /* \"#utility.yul\":8357:8384   */\n      mstore\n        /* \"#utility.yul\":8244:8390   */\n      pop\n      pop\n      pop\n      jump\t// out\n        /* \"#utility.yul\":8396:8821   */\n    tag_315:\n        /* \"#utility.yul\":8474:8479   */\n      0x00\n        /* \"#utility.yul\":8499:8565   */\n      tag_440\n        /* \"#utility.yul\":8515:8564   */\n      tag_441\n        /* \"#utility.yul\":8557:8563   */\n      dup5\n        /* \"#utility.yul\":8515:8564   */\n      tag_313\n      jump\t// in\n    tag_441:\n        /* \"#utility.yul\":8499:8565   */\n      tag_312\n      jump\t// in\n    tag_440:\n        /* \"#utility.yul\":8490:8565   */\n      swap1\n      pop\n        /* \"#utility.yul\":8588:8594   */\n      dup3\n        /* \"#utility.yul\":8581:8586   */\n      dup2\n        /* \"#utility.yul\":8574:8595   */\n      mstore\n        /* \"#utility.yul\":8626:8630   */\n      0x20\n        /* \"#utility.yul\":8619:8624   */\n      dup2\n        /* \"#utility.yul\":8615:8631   */\n      add\n        /* \"#utility.yul\":8664:8667   */\n      dup5\n        /* \"#utility.yul\":8655:8661   */\n      dup5\n        /* \"#utility.yul\":8650:8653   */\n      dup5\n        /* \"#utility.yul\":8646:8662   */\n      add\n        /* \"#utility.yul\":8643:8668   */\n      gt\n        /* \"#utility.yul\":8640:8752   */\n      iszero\n      tag_442\n      jumpi\n        /* \"#utility.yul\":8671:8750   */\n      tag_443\n      tag_309\n      jump\t// in\n    tag_443:\n        /* \"#utility.yul\":8640:8752   */\n    tag_442:\n        /* \"#utility.yul\":8761:8815   */\n      tag_444\n        /* \"#utility.yul\":8808:8814   */\n      dup5\n        /* \"#utility.yul\":8803:8806   */\n      dup3\n        /* \"#utility.yul\":8798:8801   */\n      dup6\n        /* \"#utility.yul\":8761:8815   */\n      tag_314\n      jump\t// in\n    tag_444:\n        /* \"#utility.yul\":8480:8821   */\n      pop\n        /* \"#utility.yul\":8396:8821   */\n      swap4\n      swap3\n      pop\n      pop\n      pop\n      jump\t// out\n        /* \"#utility.yul\":8841:9181   */\n    tag_316:\n        /* \"#utility.yul\":8897:8902   */\n      0x00\n        /* \"#utility.yul\":8946:8949   */\n      dup3\n        /* \"#utility.yul\":8939:8943   */\n      0x1f\n        /* \"#utility.yul\":8931:8937   */\n      dup4\n        /* \"#utility.yul\":8927:8944   */\n      add\n        /* \"#utility.yul\":8923:8950   */\n      slt\n        /* \"#utility.yul\":8913:9035   */\n      tag_446\n      jumpi\n        /* \"#utility.yul\":8954:9033   */\n      tag_447\n      tag_308\n      jump\t// in\n    tag_447:\n        /* \"#utility.yul\":8913:9035   */\n    tag_446:\n        /* \"#utility.yul\":9071:9077   */\n      dup2\n        /* \"#utility.yul\":9058:9078   */\n      calldataload\n        /* \"#utility.yul\":9096:9175   */\n      tag_448\n        /* \"#utility.yul\":9171:9174   */\n      dup5\n        /* \"#utility.yul\":9163:9169   */\n      dup3\n        /* \"#utility.yul\":9156:9160   */\n      0x20\n        /* \"#utility.yul\":9148:9154   */\n      dup7\n        /* \"#utility.yul\":9144:9161   */\n      add\n        /* \"#utility.yul\":9096:9175   */\n      tag_315\n      jump\t// in\n    tag_448:\n        /* \"#utility.yul\":9087:9175   */\n      swap2\n      pop\n        /* \"#utility.yul\":8903:9181   */\n      pop\n        /* \"#utility.yul\":8841:9181   */\n      swap3\n      swap2\n      pop\n      pop\n      jump\t// out\n        /* \"#utility.yul\":9187:10346   */\n    tag_107:\n        /* \"#utility.yul\":9294:9300   */\n      0x00\n        /* \"#utility.yul\":9302:9308   */\n      dup1\n        /* \"#utility.yul\":9310:9316   */\n      0x00\n        /* \"#utility.yul\":9359:9361   */\n      0x60\n        /* \"#utility.yul\":9347:9356   */\n      dup5\n        /* \"#utility.yul\":9338:9345   */\n      dup7\n        /* \"#utility.yul\":9334:9357   */\n      sub\n        /* \"#utility.yul\":9330:9362   */\n      slt\n        /* \"#utility.yul\":9327:9446   */\n      iszero\n      tag_450\n      jumpi\n        /* \"#utility.yul\":9365:9444   */\n      tag_451\n      tag_293\n      jump\t// in\n    tag_451:\n        /* \"#utility.yul\":9327:9446   */\n    tag_450:\n        /* \"#utility.yul\":9513:9514   */\n      0x00\n        /* \"#utility.yul\":9502:9511   */\n      dup5\n        /* \"#utility.yul\":9498:9515   */\n      add\n        /* \"#utility.yul\":9485:9516   */\n      calldataload\n        /* \"#utility.yul\":9543:9561   */\n      0xffffffffffffffff\n        /* \"#utility.yul\":9535:9541   */\n      dup2\n        /* \"#utility.yul\":9532:9562   */\n      gt\n        /* \"#utility.yul\":9529:9646   */\n      iszero\n      tag_452\n      jumpi\n        /* \"#utility.yul\":9565:9644   */\n      tag_453\n      tag_294\n      jump\t// in\n    tag_453:\n        /* \"#utility.yul\":9529:9646   */\n    tag_452:\n        /* \"#utility.yul\":9670:9733   */\n      tag_454\n        /* \"#utility.yul\":9725:9732   */\n      dup7\n        /* \"#utility.yul\":9716:9722   */\n      dup3\n        /* \"#utility.yul\":9705:9714   */\n      dup8\n        /* \"#utility.yul\":9701:9723   */\n      add\n        /* \"#utility.yul\":9670:9733   */\n      tag_316\n      jump\t// in\n    tag_454:\n        /* \"#utility.yul\":9660:9733   */\n      swap4\n      pop\n        /* \"#utility.yul\":9456:9743   */\n      pop\n        /* \"#utility.yul\":9810:9812   */\n      0x20\n        /* \"#utility.yul\":9799:9808   */\n      dup5\n        /* \"#utility.yul\":9795:9813   */\n      add\n        /* \"#utility.yul\":9782:9814   */\n      calldataload\n        /* \"#utility.yul\":9841:9859   */\n      0xffffffffffffffff\n        /* \"#utility.yul\":9833:9839   */\n      dup2\n        /* \"#utility.yul\":9830:9860   */\n      gt\n        /* \"#utility.yul\":9827:9944   */\n      iszero\n      tag_455\n      jumpi\n        /* \"#utility.yul\":9863:9942   */\n      tag_456\n      tag_294\n      jump\t// in\n    tag_456:\n        /* \"#utility.yul\":9827:9944   */\n    tag_455:\n        /* \"#utility.yul\":9968:10031   */\n      tag_457\n        /* \"#utility.yul\":10023:10030   */\n      dup7\n        /* \"#utility.yul\":10014:10020   */\n      dup3\n        /* \"#utility.yul\":10003:10012   */\n      dup8\n        /* \"#utility.yul\":9999:10021   */\n      add\n        /* \"#utility.yul\":9968:10031   */\n      tag_316\n      jump\t// in\n    tag_457:\n        /* \"#utility.yul\":9958:10031   */\n      swap3\n      pop\n        /* \"#utility.yul\":9753:10041   */\n      pop\n        /* \"#utility.yul\":10108:10110   */\n      0x40\n        /* \"#utility.yul\":10097:10106   */\n      dup5\n        /* \"#utility.yul\":10093:10111   */\n      add\n        /* \"#utility.yul\":10080:10112   */\n      calldataload\n        /* \"#utility.yul\":10139:10157   */\n      0xffffffffffffffff\n        /* \"#utility.yul\":10131:10137   */\n      dup2\n        /* \"#utility.yul\":10128:10158   */\n      gt\n        /* \"#utility.yul\":10125:10242   */\n      iszero\n      tag_458\n      jumpi\n        /* \"#utility.yul\":10161:10240   */\n      tag_459\n      tag_294\n      jump\t// in\n    tag_459:\n        /* \"#utility.yul\":10125:10242   */\n    tag_458:\n        /* \"#utility.yul\":10266:10329   */\n      tag_460\n        /* \"#utility.yul\":10321:10328   */\n      dup7\n        /* \"#utility.yul\":10312:10318   */\n      dup3\n        /* \"#utility.yul\":10301:10310   */\n      dup8\n        /* \"#utility.yul\":10297:10319   */\n      add\n        /* \"#utility.yul\":10266:10329   */\n      tag_316\n      jump\t// in\n    tag_460:\n        /* \"#utility.yul\":10256:10329   */\n      swap2\n      pop\n        /* \"#utility.yul\":10051:10339   */\n      pop\n        /* \"#utility.yul\":9187:10346   */\n      swap3\n      pop\n      swap3\n      pop\n      swap3\n      jump\t// out\n        /* \"#utility.yul\":10352:10826   */\n    tag_115:\n        /* \"#utility.yul\":10420:10426   */\n      0x00\n        /* \"#utility.yul\":10428:10434   */\n      dup1\n        /* \"#utility.yul\":10477:10479   */\n      0x40\n        /* \"#utility.yul\":10465:10474   */\n      dup4\n        /* \"#utility.yul\":10456:10463   */\n      dup6\n        /* \"#utility.yul\":10452:10475   */\n      sub\n        /* \"#utility.yul\":10448:10480   */\n      slt\n        /* \"#utility.yul\":10445:10564   */\n      iszero\n      tag_462\n      jumpi\n        /* \"#utility.yul\":10483:10562   */\n      tag_463\n      tag_293\n      jump\t// in\n    tag_463:\n        /* \"#utility.yul\":10445:10564   */\n    tag_462:\n        /* \"#utility.yul\":10603:10604   */\n      0x00\n        /* \"#utility.yul\":10628:10681   */\n      tag_464\n        /* \"#utility.yul\":10673:10680   */\n      dup6\n        /* \"#utility.yul\":10664:10670   */\n      dup3\n        /* \"#utility.yul\":10653:10662   */\n      dup7\n        /* \"#utility.yul\":10649:10671   */\n      add\n        /* \"#utility.yul\":10628:10681   */\n      tag_298\n      jump\t// in\n    tag_464:\n        /* \"#utility.yul\":10618:10681   */\n      swap3\n      pop\n        /* \"#utility.yul\":10574:10691   */\n      pop\n        /* \"#utility.yul\":10730:10732   */\n      0x20\n        /* \"#utility.yul\":10756:10809   */\n      tag_465\n        /* \"#utility.yul\":10801:10808   */\n      dup6\n        /* \"#utility.yul\":10792:10798   */\n      dup3\n        /* \"#utility.yul\":10781:10790   */\n      dup7\n        /* \"#utility.yul\":10777:10799   */\n      add\n        /* \"#utility.yul\":10756:10809   */\n      tag_298\n      jump\t// in\n    tag_465:\n        /* \"#utility.yul\":10746:10809   */\n      swap2\n      pop\n        /* \"#utility.yul\":10701:10819   */\n      pop\n        /* \"#utility.yul\":10352:10826   */\n      swap3\n      pop\n      swap3\n      swap1\n      pop\n      jump\t// out\n        /* \"#utility.yul\":10832:11012   */\n    tag_317:\n        /* \"#utility.yul\":10880:10957   */\n      0x4e487b7100000000000000000000000000000000000000000000000000000000\n        /* \"#utility.yul\":10877:10878   */\n      0x00\n        /* \"#utility.yul\":10870:10958   */\n      mstore\n        /* \"#utility.yul\":10977:10981   */\n      0x22\n        /* \"#utility.yul\":10974:10975   */\n      0x04\n        /* \"#utility.yul\":10967:10982   */\n      mstore\n        /* \"#utility.yul\":11001:11005   */\n      0x24\n        /* \"#utility.yul\":10998:10999   */\n      0x00\n        /* \"#utility.yul\":10991:11006   */\n      revert\n        /* \"#utility.yul\":11018:11338   */\n    tag_132:\n        /* \"#utility.yul\":11062:11068   */\n      0x00\n        /* \"#utility.yul\":11099:11100   */\n      0x02\n        /* \"#utility.yul\":11093:11097   */\n      dup3\n        /* \"#utility.yul\":11089:11101   */\n      div\n        /* \"#utility.yul\":11079:11101   */\n      swap1\n      pop\n        /* \"#utility.yul\":11146:11147   */\n      0x01\n        /* \"#utility.yul\":11140:11144   */\n      dup3\n        /* \"#utility.yul\":11136:11148   */\n      and\n        /* \"#utility.yul\":11167:11185   */\n      dup1\n        /* \"#utility.yul\":11157:11238   */\n      tag_468\n      jumpi\n        /* \"#utility.yul\":11223:11227   */\n      0x7f\n        /* \"#utility.yul\":11215:11221   */\n      dup3\n        /* \"#utility.yul\":11211:11228   */\n      and\n        /* \"#utility.yul\":11201:11228   */\n      swap2\n      pop\n        /* \"#utility.yul\":11157:11238   */\n    tag_468:\n        /* \"#utility.yul\":11285:11287   */\n      0x20\n        /* \"#utility.yul\":11277:11283   */\n      dup3\n        /* \"#utility.yul\":11274:11288   */\n      lt\n        /* \"#utility.yul\":11254:11272   */\n      dup2\n        /* \"#utility.yul\":11251:11289   */\n      sub\n        /* \"#utility.yul\":11248:11332   */\n      tag_469\n      jumpi\n        /* \"#utility.yul\":11304:11322   */\n      tag_470\n      tag_317\n      jump\t// in\n    tag_470:\n        /* \"#utility.yul\":11248:11332   */\n    tag_469:\n        /* \"#utility.yul\":11069:11338   */\n      pop\n        /* \"#utility.yul\":11018:11338   */\n      swap2\n      swap1\n      pop\n      jump\t// out\n        /* \"#utility.yul\":11344:11520   */\n    tag_318:\n        /* \"#utility.yul\":11484:11512   */\n      0x557365726e616d65206d757374206e6f7420626520656d707479000000000000\n        /* \"#utility.yul\":11480:11481   */\n      0x00\n        /* \"#utility.yul\":11472:11478   */\n      dup3\n        /* \"#utility.yul\":11468:11482   */\n      add\n        /* \"#utility.yul\":11461:11513   */\n      mstore\n        /* \"#utility.yul\":11344:11520   */\n      pop\n      jump\t// out\n        /* \"#utility.yul\":11526:11892   */\n    tag_319:\n        /* \"#utility.yul\":11668:11671   */\n      0x00\n        /* \"#utility.yul\":11689:11756   */\n      tag_473\n        /* \"#utility.yul\":11753:11755   */\n      0x1a\n        /* \"#utility.yul\":11748:11751   */\n      dup4\n        /* \"#utility.yul\":11689:11756   */\n      tag_288\n      jump\t// in\n    tag_473:\n        /* \"#utility.yul\":11682:11756   */\n      swap2\n      pop\n        /* \"#utility.yul\":11765:11858   */\n      tag_474\n        /* \"#utility.yul\":11854:11857   */\n      dup3\n        /* \"#utility.yul\":11765:11858   */\n      tag_318\n      jump\t// in\n    tag_474:\n        /* \"#utility.yul\":11883:11885   */\n      0x20\n        /* \"#utility.yul\":11878:11881   */\n      dup3\n        /* \"#utility.yul\":11874:11886   */\n      add\n        /* \"#utility.yul\":11867:11886   */\n      swap1\n      pop\n        /* \"#utility.yul\":11526:11892   */\n      swap2\n      swap1\n      pop\n      jump\t// out\n        /* \"#utility.yul\":11898:12317   */\n    tag_196:\n        /* \"#utility.yul\":12064:12068   */\n      0x00\n        /* \"#utility.yul\":12102:12104   */\n      0x20\n        /* \"#utility.yul\":12091:12100   */\n      dup3\n        /* \"#utility.yul\":12087:12105   */\n      add\n        /* \"#utility.yul\":12079:12105   */\n      swap1\n      pop\n        /* \"#utility.yul\":12151:12160   */\n      dup2\n        /* \"#utility.yul\":12145:12149   */\n      dup2\n        /* \"#utility.yul\":12141:12161   */\n      sub\n        /* \"#utility.yul\":12137:12138   */\n      0x00\n        /* \"#utility.yul\":12126:12135   */\n      dup4\n        /* \"#utility.yul\":12122:12139   */\n      add\n        /* \"#utility.yul\":12115:12162   */\n      mstore\n        /* \"#utility.yul\":12179:12310   */\n      tag_476\n        /* \"#utility.yul\":12305:12309   */\n      dup2\n        /* \"#utility.yul\":12179:12310   */\n      tag_319\n      jump\t// in\n    tag_476:\n        /* \"#utility.yul\":12171:12310   */\n      swap1\n      pop\n        /* \"#utility.yul\":11898:12317   */\n      swap2\n      swap1\n      pop\n      jump\t// out\n        /* \"#utility.yul\":12323:12496   */\n    tag_320:\n        /* \"#utility.yul\":12463:12488   */\n      0x456d61696c206d757374206e6f7420626520656d707479000000000000000000\n        /* \"#utility.yul\":12459:12460   */\n      0x00\n        /* \"#utility.yul\":12451:12457   */\n      dup3\n        /* \"#utility.yul\":12447:12461   */\n      add\n        /* \"#utility.yul\":12440:12489   */\n      mstore\n        /* \"#utility.yul\":12323:12496   */\n      pop\n      jump\t// out\n        /* \"#utility.yul\":12502:12868   */\n    tag_321:\n        /* \"#utility.yul\":12644:12647   */\n      0x00\n        /* \"#utility.yul\":12665:12732   */\n      tag_479\n        /* \"#utility.yul\":12729:12731   */\n      0x17\n        /* \"#utility.yul\":12724:12727   */\n      dup4\n        /* \"#utility.yul\":12665:12732   */\n      tag_288\n      jump\t// in\n    tag_479:\n        /* \"#utility.yul\":12658:12732   */\n      swap2\n      pop\n        /* \"#utility.yul\":12741:12834   */\n      tag_480\n        /* \"#utility.yul\":12830:12833   */\n      dup3\n        /* \"#utility.yul\":12741:12834   */\n      tag_320\n      jump\t// in\n    tag_480:\n        /* \"#utility.yul\":12859:12861   */\n      0x20\n        /* \"#utility.yul\":12854:12857   */\n      dup3\n        /* \"#utility.yul\":12850:12862   */\n      add\n        /* \"#utility.yul\":12843:12862   */\n      swap1\n      pop\n        /* \"#utility.yul\":12502:12868   */\n      swap2\n      swap1\n      pop\n      jump\t// out\n        /* \"#utility.yul\":12874:13293   */\n    tag_199:\n        /* \"#utility.yul\":13040:13044   */\n      0x00\n        /* \"#utility.yul\":13078:13080   */\n      0x20\n        /* \"#utility.yul\":13067:13076   */\n      dup3\n        /* \"#utility.yul\":13063:13081   */\n      add\n        /* \"#utility.yul\":13055:13081   */\n      swap1\n      pop\n        /* \"#utility.yul\":13127:13136   */\n      dup2\n        /* \"#utility.yul\":13121:13125   */\n      dup2\n        /* \"#utility.yul\":13117:13137   */\n      sub\n        /* \"#utility.yul\":13113:13114   */\n      0x00\n        /* \"#utility.yul\":13102:13111   */\n      dup4\n        /* \"#utility.yul\":13098:13115   */\n      add\n        /* \"#utility.yul\":13091:13138   */\n      mstore\n        /* \"#utility.yul\":13155:13286   */\n      tag_482\n        /* \"#utility.yul\":13281:13285   */\n      dup2\n        /* \"#utility.yul\":13155:13286   */\n      tag_321\n      jump\t// in\n    tag_482:\n        /* \"#utility.yul\":13147:13286   */\n      swap1\n      pop\n        /* \"#utility.yul\":12874:13293   */\n      swap2\n      swap1\n      pop\n      jump\t// out\n        /* \"#utility.yul\":13299:13440   */\n    tag_322:\n        /* \"#utility.yul\":13348:13352   */\n      0x00\n        /* \"#utility.yul\":13371:13374   */\n      dup2\n        /* \"#utility.yul\":13363:13374   */\n      swap1\n      pop\n        /* \"#utility.yul\":13394:13397   */\n      dup2\n        /* \"#utility.yul\":13391:13392   */\n      0x00\n        /* \"#utility.yul\":13384:13398   */\n      mstore\n        /* \"#utility.yul\":13428:13432   */\n      0x20\n        /* \"#utility.yul\":13425:13426   */\n      0x00\n        /* \"#utility.yul\":13415:13433   */\n      keccak256\n        /* \"#utility.yul\":13407:13433   */\n      swap1\n      pop\n        /* \"#utility.yul\":13299:13440   */\n      swap2\n      swap1\n      pop\n      jump\t// out\n        /* \"#utility.yul\":13446:13539   */\n    tag_323:\n        /* \"#utility.yul\":13483:13489   */\n      0x00\n        /* \"#utility.yul\":13530:13532   */\n      0x20\n        /* \"#utility.yul\":13525:13527   */\n      0x1f\n        /* \"#utility.yul\":13518:13523   */\n      dup4\n        /* \"#utility.yul\":13514:13528   */\n      add\n        /* \"#utility.yul\":13510:13533   */\n      div\n        /* \"#utility.yul\":13500:13533   */\n      swap1\n      pop\n        /* \"#utility.yul\":13446:13539   */\n      swap2\n      swap1\n      pop\n      jump\t// out\n        /* \"#utility.yul\":13545:13652   */\n    tag_324:\n        /* \"#utility.yul\":13589:13597   */\n      0x00\n        /* \"#utility.yul\":13639:13644   */\n      dup3\n        /* \"#utility.yul\":13633:13637   */\n      dup3\n        /* \"#utility.yul\":13629:13645   */\n      shl\n        /* \"#utility.yul\":13608:13645   */\n      swap1\n      pop\n        /* \"#utility.yul\":13545:13652   */\n      swap3\n      swap2\n      pop\n      pop\n      jump\t// out\n        /* \"#utility.yul\":13658:14051   */\n    tag_325:\n        /* \"#utility.yul\":13727:13733   */\n      0x00\n        /* \"#utility.yul\":13777:13778   */\n      0x08\n        /* \"#utility.yul\":13765:13775   */\n      dup4\n        /* \"#utility.yul\":13761:13779   */\n      mul\n        /* \"#utility.yul\":13800:13897   */\n      tag_487\n        /* \"#utility.yul\":13830:13896   */\n      0xffffffffffffffffffffffffffffffffffffffffffffffffffffffffffffffff\n        /* \"#utility.yul\":13819:13828   */\n      dup3\n        /* \"#utility.yul\":13800:13897   */\n      tag_324\n      jump\t// in\n    tag_487:\n        /* \"#utility.yul\":13918:13957   */\n      tag_488\n        /* \"#utility.yul\":13948:13956   */\n      dup7\n        /* \"#utility.yul\":13937:13946   */\n      dup4\n        /* \"#utility.yul\":13918:13957   */\n      tag_324\n      jump\t// in\n    tag_488:\n        /* \"#utility.yul\":13906:13957   */\n      swap6\n      pop\n        /* \"#utility.yul\":13990:13994   */\n      dup1\n        /* \"#utility.yul\":13986:13995   */\n      not\n        /* \"#utility.yul\":13979:13984   */\n      dup5\n        /* \"#utility.yul\":13975:13996   */\n      and\n        /* \"#utility.yul\":13966:13996   */\n      swap4\n      pop\n        /* \"#utility.yul\":14039:14043   */\n      dup1\n        /* \"#utility.yul\":14029:14037   */\n      dup7\n        /* \"#utility.yul\":14025:14044   */\n      and\n        /* \"#utility.yul\":14018:14023   */\n      dup5\n        /* \"#utility.yul\":14015:14045   */\n      or\n        /* \"#utility.yul\":14005:14045   */\n      swap3\n      pop\n        /* \"#utility.yul\":13734:14051   */\n      pop\n      pop\n        /* \"#utility.yul\":13658:14051   */\n      swap4\n      swap3\n      pop\n      pop\n      pop\n      jump\t// out\n        /* \"#utility.yul\":14057:14117   */\n    tag_326:\n        /* \"#utility.yul\":14085:14088   */\n      0x00\n        /* \"#utility.yul\":14106:14111   */\n      dup2\n        /* \"#utility.yul\":14099:14111   */\n      swap1\n      pop\n        /* \"#utility.yul\":14057:14117   */\n      swap2\n      swap1\n      pop\n      jump\t// out\n        /* \"#utility.yul\":14123:14265   */\n    tag_327:\n        /* \"#utility.yul\":14173:14182   */\n      0x00\n        /* \"#utility.yul\":14206:14259   */\n      tag_491\n        /* \"#utility.yul\":14224:14258   */\n      tag_492\n        /* \"#utility.yul\":14233:14257   */\n      tag_493\n        /* \"#utility.yul\":14251:14256   */\n      dup5\n        /* \"#utility.yul\":14233:14257   */\n      tag_299\n      jump\t// in\n    tag_493:\n        /* \"#utility.yul\":14224:14258   */\n      tag_326\n      jump\t// in\n    tag_492:\n        /* \"#utility.yul\":14206:14259   */\n      tag_299\n      jump\t// in\n    tag_491:\n        /* \"#utility.yul\":14193:14259   */\n      swap1\n      pop\n        /* \"#utility.yul\":14123:14265   */\n      swap2\n      swap1\n      pop\n      jump\t// out\n        /* \"#utility.yul\":14271:14346   */\n    tag_328:\n        /* \"#utility.yul\":14314:14317   */\n      0x00\n        /* \"#utility.yul\":14335:14340   */\n      dup2\n        /* \"#utility.yul\":14328:14340   */\n      swap1\n      pop\n        /* \"#utility.yul\":14271:14346   */\n      swap2\n      swap1\n      pop\n      jump\t// out\n        /* \"#utility.yul\":14352:14621   */\n    tag_329:\n        /* \"#utility.yul\":14462:14501   */\n      tag_496\n        /* \"#utility.yul\":14493:14500   */\n      dup4\n        /* \"#utility.yul\":14462:14501   */\n      tag_327\n      jump\t// in\n    tag_496:\n        /* \"#utility.yul\":14523:14614   */\n      tag_497\n        /* \"#utility.yul\":14572:14613   */\n      tag_498\n        /* \"#utility.yul\":14596:14612   */\n      dup3\n        /* \"#utility.yul\":14572:14613   */\n      tag_328\n      jump\t// in\n    tag_498:\n        /* \"#utility.yul\":14564:14570   */\n      dup5\n        /* \"#utility.yul\":14557:14561   */\n      dup5\n        /* \"#utility.yul\":14551:14562   */\n      sload\n        /* \"#utility.yul\":14523:14614   */\n      tag_325\n      jump\t// in\n    tag_497:\n        /* \"#utility.yul\":14517:14521   */\n      dup3\n        /* \"#utility.yul\":14510:14615   */\n      sstore\n        /* \"#utility.yul\":14428:14621   */\n      pop\n        /* \"#utility.yul\":14352:14621   */\n      pop\n      pop\n      pop\n      jump\t// out\n        /* \"#utility.yul\":14627:14700   */\n    tag_330:\n        /* \"#utility.yul\":14672:14675   */\n      0x00\n        /* \"#utility.yul\":14627:14700   */\n      swap1\n      jump\t// out\n        /* \"#utility.yul\":14706:14895   */\n    tag_331:\n        /* \"#utility.yul\":14783:14815   */\n      tag_501\n      tag_330\n      jump\t// in\n    tag_501:\n        /* \"#utility.yul\":14824:14889   */\n      tag_502\n        /* \"#utility.yul\":14882:14888   */\n      dup2\n        /* \"#utility.yul\":14874:14880   */\n      dup5\n        /* \"#utility.yul\":14868:14872   */\n      dup5\n        /* \"#utility.yul\":14824:14889   */\n      tag_329\n      jump\t// in\n    tag_502:\n        /* \"#utility.yul\":14759:14895   */\n      pop\n        /* \"#utility.yul\":14706:14895   */\n      pop\n      pop\n      jump\t// out\n        /* \"#utility.yul\":14901:15087   */\n    tag_332:\n        /* \"#utility.yul\":14961:15081   */\n    tag_504:\n        /* \"#utility.yul\":14978:14981   */\n      dup2\n        /* \"#utility.yul\":14971:14976   */\n      dup2\n        /* \"#utility.yul\":14968:14982   */\n      lt\n        /* \"#utility.yul\":14961:15081   */\n      iszero\n      tag_506\n      jumpi\n        /* \"#utility.yul\":15032:15071   */\n      tag_507\n        /* \"#utility.yul\":15069:15070   */\n      0x00\n        /* \"#utility.yul\":15062:15067   */\n      dup3\n        /* \"#utility.yul\":15032:15071   */\n      tag_331\n      jump\t// in\n    tag_507:\n        /* \"#utility.yul\":15005:15006   */\n      0x01\n        /* \"#utility.yul\":14998:15003   */\n      dup2\n        /* \"#utility.yul\":14994:15007   */\n      add\n        /* \"#utility.yul\":14985:15007   */\n      swap1\n      pop\n        /* \"#utility.yul\":14961:15081   */\n      jump(tag_504)\n    tag_506:\n        /* \"#utility.yul\":14901:15087   */\n      pop\n      pop\n      jump\t// out\n        /* \"#utility.yul\":15093:15636   */\n    tag_333:\n        /* \"#utility.yul\":15194:15196   */\n      0x1f\n        /* \"#utility.yul\":15189:15192   */\n      dup3\n        /* \"#utility.yul\":15186:15197   */\n      gt\n        /* \"#utility.yul\":15183:15629   */\n      iszero\n      tag_509\n      jumpi\n        /* \"#utility.yul\":15228:15266   */\n      tag_510\n        /* \"#utility.yul\":15260:15265   */\n      dup2\n        /* \"#utility.yul\":15228:15266   */\n      tag_322\n      jump\t// in\n    tag_510:\n        /* \"#utility.yul\":15312:15341   */\n      tag_511\n        /* \"#utility.yul\":15330:15340   */\n      dup5\n        /* \"#utility.yul\":15312:15341   */\n      tag_323\n      jump\t// in\n    tag_511:\n        /* \"#utility.yul\":15302:15310   */\n      dup2\n        /* \"#utility.yul\":15298:15342   */\n      add\n        /* \"#utility.yul\":15495:15497   */\n      0x20\n        /* \"#utility.yul\":15483:15493   */\n      dup6\n        /* \"#utility.yul\":15480:15498   */\n      lt\n        /* \"#utility.yul\":15477:15526   */\n      iszero\n      tag_512\n      jumpi\n        /* \"#utility.yul\":15516:15524   */\n      dup2\n        /* \"#utility.yul\":15501:15524   */\n      swap1\n      pop\n        /* \"#utility.yul\":15477:15526   */\n    tag_512:\n        /* \"#utility.yul\":15539:15619   */\n      tag_513\n        /* \"#utility.yul\":15595:15617   */\n      tag_514\n        /* \"#utility.yul\":15613:15616   */\n      dup6\n        /* \"#utility.yul\":15595:15617   */\n      tag_323\n      jump\t// in\n    tag_514:\n        /* \"#utility.yul\":15585:15593   */\n      dup4\n        /* \"#utility.yul\":15581:15618   */\n      add\n        /* \"#utility.yul\":15568:15579   */\n      dup3\n        /* \"#utility.yul\":15539:15619   */\n      tag_332\n      jump\t// in\n    tag_513:\n        /* \"#utility.yul\":15198:15629   */\n      pop\n      pop\n        /* \"#utility.yul\":15183:15629   */\n    tag_509:\n        /* \"#utility.yul\":15093:15636   */\n      pop\n      pop\n      pop\n      jump\t// out\n        /* \"#utility.yul\":15642:15759   */\n    tag_334:\n        /* \"#utility.yul\":15696:15704   */\n      0x00\n        /* \"#utility.yul\":15746:15751   */\n      dup3\n        /* \"#utility.yul\":15740:15744   */\n      dup3\n        /* \"#utility.yul\":15736:15752   */\n      shr\n        /* \"#utility.yul\":15715:15752   */\n      swap1\n      pop\n        /* \"#utility.yul\":15642:15759   */\n      swap3\n      swap2\n      pop\n      pop\n      jump\t// out\n        /* \"#utility.yul\":15765:15934   */\n    tag_335:\n        /* \"#utility.yul\":15809:15815   */\n      0x00\n        /* \"#utility.yul\":15842:15893   */\n      tag_517\n        /* \"#utility.yul\":15890:15891   */\n      0x00\n        /* \"#utility.yul\":15886:15892   */\n      not\n        /* \"#utility.yul\":15878:15883   */\n      dup5\n        /* \"#utility.yul\":15875:15876   */\n      0x08\n        /* \"#utility.yul\":15871:15884   */\n      mul\n        /* \"#utility.yul\":15842:15893   */\n      tag_334\n      jump\t// in\n    tag_517:\n        /* \"#utility.yul\":15838:15894   */\n      not\n        /* \"#utility.yul\":15923:15927   */\n      dup1\n        /* \"#utility.yul\":15917:15921   */\n      dup4\n        /* \"#utility.yul\":15913:15928   */\n      and\n        /* \"#utility.yul\":15903:15928   */\n      swap2\n      pop\n        /* \"#utility.yul\":15816:15934   */\n      pop\n        /* \"#utility.yul\":15765:15934   */\n      swap3\n      swap2\n      pop\n      pop\n      jump\t// out\n        /* \"#utility.yul\":15939:16234   */\n    tag_336:\n        /* \"#utility.yul\":16015:16019   */\n      0x00\n        /* \"#utility.yul\":16161:16190   */\n      tag_519\n        /* \"#utility.yul\":16186:16189   */\n      dup4\n        /* \"#utility.yul\":16180:16184   */\n      dup4\n        /* \"#utility.yul\":16161:16190   */\n      tag_335\n      jump\t// in\n    tag_519:\n        /* \"#utility.yul\":16153:16190   */\n      swap2\n      pop\n        /* \"#utility.yul\":16223:16226   */\n      dup3\n        /* \"#utility.yul\":16220:16221   */\n      0x02\n        /* \"#utility.yul\":16216:16227   */\n      mul\n        /* \"#utility.yul\":16210:16214   */\n      dup3\n        /* \"#utility.yul\":16207:16228   */\n      or\n        /* \"#utility.yul\":16199:16228   */\n      swap1\n      pop\n        /* \"#utility.yul\":15939:16234   */\n      swap3\n      swap2\n      pop\n      pop\n      jump\t// out\n        /* \"#utility.yul\":16239:17634   */\n    tag_201:\n        /* \"#utility.yul\":16356:16393   */\n      tag_521\n        /* \"#utility.yul\":16389:16392   */\n      dup3\n        /* \"#utility.yul\":16356:16393   */\n      tag_287\n      jump\t// in\n    tag_521:\n        /* \"#utility.yul\":16458:16476   */\n      0xffffffffffffffff\n        /* \"#utility.yul\":16450:16456   */\n      dup2\n        /* \"#utility.yul\":16447:16477   */\n      gt\n        /* \"#utility.yul\":16444:16500   */\n      iszero\n      tag_522\n      jumpi\n        /* \"#utility.yul\":16480:16498   */\n      tag_523\n      tag_310\n      jump\t// in\n    tag_523:\n        /* \"#utility.yul\":16444:16500   */\n    tag_522:\n        /* \"#utility.yul\":16524:16562   */\n      tag_524\n        /* \"#utility.yul\":16556:16560   */\n      dup3\n        /* \"#utility.yul\":16550:16561   */\n      sload\n        /* \"#utility.yul\":16524:16562   */\n      tag_132\n      jump\t// in\n    tag_524:\n        /* \"#utility.yul\":16609:16676   */\n      tag_525\n        /* \"#utility.yul\":16669:16675   */\n      dup3\n        /* \"#utility.yul\":16661:16667   */\n      dup3\n        /* \"#utility.yul\":16655:16659   */\n      dup6\n        /* \"#utility.yul\":16609:16676   */\n      tag_333\n      jump\t// in\n    tag_525:\n        /* \"#utility.yul\":16703:16704   */\n      0x00\n        /* \"#utility.yul\":16727:16731   */\n      0x20\n        /* \"#utility.yul\":16714:16731   */\n      swap1\n      pop\n        /* \"#utility.yul\":16759:16761   */\n      0x1f\n        /* \"#utility.yul\":16751:16757   */\n      dup4\n        /* \"#utility.yul\":16748:16762   */\n      gt\n        /* \"#utility.yul\":16776:16777   */\n      0x01\n        /* \"#utility.yul\":16771:17389   */\n      dup2\n      eq\n      tag_527\n      jumpi\n        /* \"#utility.yul\":17433:17434   */\n      0x00\n        /* \"#utility.yul\":17450:17456   */\n      dup5\n        /* \"#utility.yul\":17447:17524   */\n      iszero\n      tag_528\n      jumpi\n        /* \"#utility.yul\":17499:17508   */\n      dup3\n        /* \"#utility.yul\":17494:17497   */\n      dup8\n        /* \"#utility.yul\":17490:17509   */\n      add\n        /* \"#utility.yul\":17484:17510   */\n      mload\n        /* \"#utility.yul\":17475:17510   */\n      swap1\n      pop\n        /* \"#utility.yul\":17447:17524   */\n    tag_528:\n        /* \"#utility.yul\":17550:17617   */\n      tag_529\n        /* \"#utility.yul\":17610:17616   */\n      dup6\n        /* \"#utility.yul\":17603:17608   */\n      dup3\n        /* \"#utility.yul\":17550:17617   */\n      tag_336\n      jump\t// in\n    tag_529:\n        /* \"#utility.yul\":17544:17548   */\n      dup7\n        /* \"#utility.yul\":17537:17618   */\n      sstore\n        /* \"#utility.yul\":17406:17628   */\n      pop\n        /* \"#utility.yul\":16741:17628   */\n      jump(tag_526)\n        /* \"#utility.yul\":16771:17389   */\n    tag_527:\n        /* \"#utility.yul\":16823:16827   */\n      0x1f\n        /* \"#utility.yul\":16819:16828   */\n      not\n        /* \"#utility.yul\":16811:16817   */\n      dup5\n        /* \"#utility.yul\":16807:16829   */\n      and\n        /* \"#utility.yul\":16857:16894   */\n      tag_530\n        /* \"#utility.yul\":16889:16893   */\n      dup7\n        /* \"#utility.yul\":16857:16894   */\n      tag_322\n      jump\t// in\n    tag_530:\n        /* \"#utility.yul\":16916:16917   */\n      0x00\n        /* \"#utility.yul\":16930:17138   */\n    tag_531:\n        /* \"#utility.yul\":16944:16951   */\n      dup3\n        /* \"#utility.yul\":16941:16942   */\n      dup2\n        /* \"#utility.yul\":16938:16952   */\n      lt\n        /* \"#utility.yul\":16930:17138   */\n      iszero\n      tag_533\n      jumpi\n        /* \"#utility.yul\":17023:17032   */\n      dup5\n        /* \"#utility.yul\":17018:17021   */\n      dup10\n        /* \"#utility.yul\":17014:17033   */\n      add\n        /* \"#utility.yul\":17008:17034   */\n      mload\n        /* \"#utility.yul\":17000:17006   */\n      dup3\n        /* \"#utility.yul\":16993:17035   */\n      sstore\n        /* \"#utility.yul\":17074:17075   */\n      0x01\n        /* \"#utility.yul\":17066:17072   */\n      dup3\n        /* \"#utility.yul\":17062:17076   */\n      add\n        /* \"#utility.yul\":17052:17076   */\n      swap2\n      pop\n        /* \"#utility.yul\":17121:17123   */\n      0x20\n        /* \"#utility.yul\":17110:17119   */\n      dup6\n        /* \"#utility.yul\":17106:17124   */\n      add\n        /* \"#utility.yul\":17093:17124   */\n      swap5\n      pop\n        /* \"#utility.yul\":16967:16971   */\n      0x20\n        /* \"#utility.yul\":16964:16965   */\n      dup2\n        /* \"#utility.yul\":16960:16972   */\n      add\n        /* \"#utility.yul\":16955:16972   */\n      swap1\n      pop\n        /* \"#utility.yul\":16930:17138   */\n      jump(tag_531)\n    tag_533:\n        /* \"#utility.yul\":17166:17172   */\n      dup7\n        /* \"#utility.yul\":17157:17164   */\n      dup4\n        /* \"#utility.yul\":17154:17173   */\n      lt\n        /* \"#utility.yul\":17151:17330   */\n      iszero\n      tag_534\n      jumpi\n        /* \"#utility.yul\":17224:17233   */\n      dup5\n        /* \"#utility.yul\":17219:17222   */\n      dup10\n        /* \"#utility.yul\":17215:17234   */\n      add\n        /* \"#utility.yul\":17209:17235   */\n      mload\n        /* \"#utility.yul\":17267:17315   */\n      tag_535\n        /* \"#utility.yul\":17309:17313   */\n      0x1f\n        /* \"#utility.yul\":17301:17307   */\n      dup10\n        /* \"#utility.yul\":17297:17314   */\n      and\n        /* \"#utility.yul\":17286:17295   */\n      dup3\n        /* \"#utility.yul\":17267:17315   */\n      tag_335\n      jump\t// in\n    tag_535:\n        /* \"#utility.yul\":17259:17265   */\n      dup4\n        /* \"#utility.yul\":17252:17316   */\n      sstore\n        /* \"#utility.yul\":17174:17330   */\n      pop\n        /* \"#utility.yul\":17151:17330   */\n    tag_534:\n        /* \"#utility.yul\":17376:17377   */\n      0x01\n        /* \"#utility.yul\":17372:17373   */\n      0x02\n        /* \"#utility.yul\":17364:17370   */\n      dup9\n        /* \"#utility.yul\":17360:17374   */\n      mul\n        /* \"#utility.yul\":17356:17378   */\n      add\n        /* \"#utility.yul\":17350:17354   */\n      dup9\n        /* \"#utility.yul\":17343:17379   */\n      sstore\n        /* \"#utility.yul\":16778:17389   */\n      pop\n      pop\n      pop\n        /* \"#utility.yul\":16741:17628   */\n    tag_526:\n      pop\n        /* \"#utility.yul\":16331:17634   */\n      pop\n      pop\n      pop\n        /* \"#utility.yul\":16239:17634   */\n      pop\n      pop\n      jump\t// out\n        /* \"#utility.yul\":17640:17820   */\n    tag_337:\n        /* \"#utility.yul\":17688:17765   */\n      0x4e487b7100000000000000000000000000000000000000000000000000000000\n        /* \"#utility.yul\":17685:17686   */\n      0x00\n        /* \"#utility.yul\":17678:17766   */\n      mstore\n        /* \"#utility.yul\":17785:17789   */\n      0x11\n        /* \"#utility.yul\":17782:17783   */\n      0x04\n        /* \"#utility.yul\":17775:17790   */\n      mstore\n        /* \"#utility.yul\":17809:17813   */\n      0x24\n        /* \"#utility.yul\":17806:17807   */\n      0x00\n        /* \"#utility.yul\":17799:17814   */\n      revert\n        /* \"#utility.yul\":17826:17928   */\n    tag_338:\n        /* \"#utility.yul\":17868:17876   */\n      0x00\n        /* \"#utility.yul\":17915:17920   */\n      dup2\n        /* \"#utility.yul\":17912:17913   */\n      0x01\n        /* \"#utility.yul\":17908:17921   */\n      shr\n        /* \"#utility.yul\":17887:17921   */\n      swap1\n      pop\n        /* \"#utility.yul\":17826:17928   */\n      swap2\n      swap1\n      pop\n      jump\t// out\n        /* \"#utility.yul\":17934:18782   */\n    tag_339:\n        /* \"#utility.yul\":17995:18000   */\n      0x00\n        /* \"#utility.yul\":18002:18006   */\n      dup1\n        /* \"#utility.yul\":18026:18032   */\n      dup3\n        /* \"#utility.yul\":18017:18032   */\n      swap2\n      pop\n        /* \"#utility.yul\":18050:18055   */\n      dup4\n        /* \"#utility.yul\":18041:18055   */\n      swap1\n      pop\n        /* \"#utility.yul\":18064:18776   */\n    tag_539:\n        /* \"#utility.yul\":18085:18086   */\n      0x01\n        /* \"#utility.yul\":18075:18083   */\n      dup6\n        /* \"#utility.yul\":18072:18087   */\n      gt\n        /* \"#utility.yul\":18064:18776   */\n      iszero\n      tag_541\n      jumpi\n        /* \"#utility.yul\":18180:18184   */\n      dup1\n        /* \"#utility.yul\":18175:18178   */\n      dup7\n        /* \"#utility.yul\":18171:18185   */\n      div\n        /* \"#utility.yul\":18165:18169   */\n      dup2\n        /* \"#utility.yul\":18162:18186   */\n      gt\n        /* \"#utility.yul\":18159:18209   */\n      iszero\n      tag_542\n      jumpi\n        /* \"#utility.yul\":18189:18207   */\n      tag_543\n      tag_337\n      jump\t// in\n    tag_543:\n        /* \"#utility.yul\":18159:18209   */\n    tag_542:\n        /* \"#utility.yul\":18239:18240   */\n      0x01\n        /* \"#utility.yul\":18229:18237   */\n      dup6\n        /* \"#utility.yul\":18225:18241   */\n      and\n        /* \"#utility.yul\":18222:18673   */\n      iszero\n      tag_544\n      jumpi\n        /* \"#utility.yul\":18654:18658   */\n      dup1\n        /* \"#utility.yul\":18647:18652   */\n      dup3\n        /* \"#utility.yul\":18643:18659   */\n      mul\n        /* \"#utility.yul\":18634:18659   */\n      swap2\n      pop\n        /* \"#utility.yul\":18222:18673   */\n    tag_544:\n        /* \"#utility.yul\":18704:18708   */\n      dup1\n        /* \"#utility.yul\":18698:18702   */\n      dup2\n        /* \"#utility.yul\":18694:18709   */\n      mul\n        /* \"#utility.yul\":18686:18709   */\n      swap1\n      pop\n        /* \"#utility.yul\":18734:18766   */\n      tag_545\n        /* \"#utility.yul\":18757:18765   */\n      dup6\n        /* \"#utility.yul\":18734:18766   */\n      tag_338\n      jump\t// in\n    tag_545:\n        /* \"#utility.yul\":18722:18766   */\n      swap5\n      pop\n        /* \"#utility.yul\":18064:18776   */\n      jump(tag_539)\n    tag_541:\n        /* \"#utility.yul\":17934:18782   */\n      swap5\n      pop\n      swap5\n      swap3\n      pop\n      pop\n      pop\n      jump\t// out\n        /* \"#utility.yul\":18788:19861   */\n    tag_340:\n        /* \"#utility.yul\":18842:18847   */\n      0x00\n        /* \"#utility.yul\":19033:19041   */\n      dup3\n        /* \"#utility.yul\":19023:19063   */\n      tag_547\n      jumpi\n        /* \"#utility.yul\":19054:19055   */\n      0x01\n        /* \"#utility.yul\":19045:19055   */\n      swap1\n      pop\n        /* \"#utility.yul\":19056:19061   */\n      jump(tag_546)\n        /* \"#utility.yul\":19023:19063   */\n    tag_547:\n        /* \"#utility.yul\":19082:19086   */\n      dup2\n        /* \"#utility.yul\":19072:19108   */\n      tag_548\n      jumpi\n        /* \"#utility.yul\":19099:19100   */\n      0x00\n        /* \"#utility.yul\":19090:19100   */\n      swap1\n      pop\n        /* \"#utility.yul\":19101:19106   */\n      jump(tag_546)\n        /* \"#utility.yul\":19072:19108   */\n    tag_548:\n        /* \"#utility.yul\":19168:19172   */\n      dup2\n        /* \"#utility.yul\":19216:19217   */\n      0x01\n        /* \"#utility.yul\":19211:19238   */\n      dup2\n      eq\n      tag_550\n      jumpi\n        /* \"#utility.yul\":19252:19253   */\n      0x02\n        /* \"#utility.yul\":19247:19438   */\n      dup2\n      eq\n      tag_551\n      jumpi\n        /* \"#utility.yul\":19161:19438   */\n      jump(tag_549)\n        /* \"#utility.yul\":19211:19238   */\n    tag_550:\n        /* \"#utility.yul\":19229:19230   */\n      0x01\n        /* \"#utility.yul\":19220:19230   */\n      swap2\n      pop\n        /* \"#utility.yul\":19231:19236   */\n      pop\n      jump(tag_546)\n        /* \"#utility.yul\":19247:19438   */\n    tag_551:\n        /* \"#utility.yul\":19292:19295   */\n      0xff\n        /* \"#utility.yul\":19282:19290   */\n      dup5\n        /* \"#utility.yul\":19279:19296   */\n      gt\n        /* \"#utility.yul\":19276:19319   */\n      iszero\n      tag_552\n      jumpi\n        /* \"#utility.yul\":19299:19317   */\n      tag_553\n      tag_337\n      jump\t// in\n    tag_553:\n        /* \"#utility.yul\":19276:19319   */\n    tag_552:\n        /* \"#utility.yul\":19348:19356   */\n      dup4\n        /* \"#utility.yul\":19345:19346   */\n      0x02\n        /* \"#utility.yul\":19341:19357   */\n      exp\n        /* \"#utility.yul\":19332:19357   */\n      swap2\n      pop\n        /* \"#utility.yul\":19383:19386   */\n      dup5\n        /* \"#utility.yul\":19376:19381   */\n      dup3\n        /* \"#utility.yul\":19373:19387   */\n      gt\n        /* \"#utility.yul\":19370:19410   */\n      iszero\n      tag_554\n      jumpi\n        /* \"#utility.yul\":19390:19408   */\n      tag_555\n      tag_337\n      jump\t// in\n    tag_555:\n        /* \"#utility.yul\":19370:19410   */\n    tag_554:\n        /* \"#utility.yul\":19423:19428   */\n      pop\n      jump(tag_546)\n        /* \"#utility.yul\":19161:19438   */\n    tag_549:\n      pop\n        /* \"#utility.yul\":19547:19549   */\n      0x20\n        /* \"#utility.yul\":19537:19545   */\n      dup4\n        /* \"#utility.yul\":19534:19550   */\n      lt\n        /* \"#utility.yul\":19528:19531   */\n      0x0133\n        /* \"#utility.yul\":19522:19526   */\n      dup4\n        /* \"#utility.yul\":19519:19532   */\n      lt\n        /* \"#utility.yul\":19515:19551   */\n      and\n        /* \"#utility.yul\":19497:19499   */\n      0x4e\n        /* \"#utility.yul\":19487:19495   */\n      dup5\n        /* \"#utility.yul\":19484:19500   */\n      lt\n        /* \"#utility.yul\":19479:19481   */\n      0x0b\n        /* \"#utility.yul\":19473:19477   */\n      dup5\n        /* \"#utility.yul\":19470:19482   */\n      lt\n        /* \"#utility.yul\":19466:19501   */\n      and\n        /* \"#utility.yul\":19450:19561   */\n      or\n        /* \"#utility.yul\":19447:19693   */\n      iszero\n      tag_556\n      jumpi\n        /* \"#utility.yul\":19603:19611   */\n      dup3\n        /* \"#utility.yul\":19597:19601   */\n      dup3\n        /* \"#utility.yul\":19593:19612   */\n      exp\n        /* \"#utility.yul\":19584:19612   */\n      swap1\n      pop\n        /* \"#utility.yul\":19638:19641   */\n      dup4\n        /* \"#utility.yul\":19631:19636   */\n      dup2\n        /* \"#utility.yul\":19628:19642   */\n      gt\n        /* \"#utility.yul\":19625:19665   */\n      iszero\n      tag_557\n      jumpi\n        /* \"#utility.yul\":19645:19663   */\n      tag_558\n      tag_337\n      jump\t// in\n    tag_558:\n        /* \"#utility.yul\":19625:19665   */\n    tag_557:\n        /* \"#utility.yul\":19678:19683   */\n      jump(tag_546)\n        /* \"#utility.yul\":19447:19693   */\n    tag_556:\n        /* \"#utility.yul\":19718:19760   */\n      tag_559\n        /* \"#utility.yul\":19756:19759   */\n      dup5\n        /* \"#utility.yul\":19746:19754   */\n      dup5\n        /* \"#utility.yul\":19740:19744   */\n      dup5\n        /* \"#utility.yul\":19737:19738   */\n      0x01\n        /* \"#utility.yul\":19718:19760   */\n      tag_339\n      jump\t// in\n    tag_559:\n        /* \"#utility.yul\":19703:19760   */\n      swap3\n      pop\n      swap1\n      pop\n        /* \"#utility.yul\":19792:19796   */\n      dup2\n        /* \"#utility.yul\":19787:19790   */\n      dup5\n        /* \"#utility.yul\":19783:19797   */\n      div\n        /* \"#utility.yul\":19776:19781   */\n      dup2\n        /* \"#utility.yul\":19773:19798   */\n      gt\n        /* \"#utility.yul\":19770:19821   */\n      iszero\n      tag_560\n      jumpi\n        /* \"#utility.yul\":19801:19819   */\n      tag_561\n      tag_337\n      jump\t// in\n    tag_561:\n        /* \"#utility.yul\":19770:19821   */\n    tag_560:\n        /* \"#utility.yul\":19850:19854   */\n      dup2\n        /* \"#utility.yul\":19843:19848   */\n      dup2\n        /* \"#utility.yul\":19839:19855   */\n      mul\n        /* \"#utility.yul\":19830:19855   */\n      swap1\n      pop\n        /* \"#utility.yul\":18788:19861   */\n    tag_546:\n      swap4\n      swap3\n      pop\n      pop\n      pop\n      jump\t// out\n        /* \"#utility.yul\":19867:20148   */\n    tag_207:\n        /* \"#utility.yul\":19925:19930   */\n      0x00\n        /* \"#utility.yul\":19949:19972   */\n      tag_563\n        /* \"#utility.yul\":19967:19971   */\n      dup3\n        /* \"#utility.yul\":19949:19972   */\n      tag_299\n      jump\t// in\n    tag_563:\n        /* \"#utility.yul\":19941:19972   */\n      swap2\n      pop\n        /* \"#utility.yul\":19993:20018   */\n      tag_564\n        /* \"#utility.yul\":20009:20017   */\n      dup4\n        /* \"#utility.yul\":19993:20018   */\n      tag_305\n      jump\t// in\n    tag_564:\n        /* \"#utility.yul\":19981:20018   */\n      swap3\n      pop\n        /* \"#utility.yul\":20037:20141   */\n      tag_565\n        /* \"#utility.yul\":20074:20140   */\n      0xffffffffffffffffffffffffffffffffffffffffffffffffffffffffffffffff\n        /* \"#utility.yul\":20064:20072   */\n      dup5\n        /* \"#utility.yul\":20058:20062   */\n      dup5\n        /* \"#utility.yul\":20037:20141   */\n      tag_340\n      jump\t// in\n    tag_565:\n        /* \"#utility.yul\":20028:20141   */\n      swap1\n      pop\n        /* \"#utility.yul\":19867:20148   */\n      swap3\n      swap2\n      pop\n      pop\n      jump\t// out\n        /* \"#utility.yul\":20154:20564   */\n    tag_209:\n        /* \"#utility.yul\":20194:20201   */\n      0x00\n        /* \"#utility.yul\":20217:20237   */\n      tag_567\n        /* \"#utility.yul\":20235:20236   */\n      dup3\n        /* \"#utility.yul\":20217:20237   */\n      tag_299\n      jump\t// in\n    tag_567:\n        /* \"#utility.yul\":20212:20237   */\n      swap2\n      pop\n        /* \"#utility.yul\":20251:20271   */\n      tag_568\n        /* \"#utility.yul\":20269:20270   */\n      dup4\n        /* \"#utility.yul\":20251:20271   */\n      tag_299\n      jump\t// in\n    tag_568:\n        /* \"#utility.yul\":20246:20271   */\n      swap3\n      pop\n        /* \"#utility.yul\":20306:20307   */\n      dup3\n        /* \"#utility.yul\":20303:20304   */\n      dup3\n        /* \"#utility.yul\":20299:20308   */\n      mul\n        /* \"#utility.yul\":20328:20358   */\n      tag_569\n        /* \"#utility.yul\":20346:20357   */\n      dup2\n        /* \"#utility.yul\":20328:20358   */\n      tag_299\n      jump\t// in\n    tag_569:\n        /* \"#utility.yul\":20317:20358   */\n      swap2\n      pop\n        /* \"#utility.yul\":20507:20508   */\n      dup3\n        /* \"#utility.yul\":20498:20505   */\n      dup3\n        /* \"#utility.yul\":20494:20509   */\n      div\n        /* \"#utility.yul\":20491:20492   */\n      dup5\n        /* \"#utility.yul\":20488:20510   */\n      eq\n        /* \"#utility.yul\":20468:20469   */\n      dup4\n        /* \"#utility.yul\":20461:20470   */\n      iszero\n        /* \"#utility.yul\":20441:20524   */\n      or\n        /* \"#utility.yul\":20418:20557   */\n      tag_570\n      jumpi\n        /* \"#utility.yul\":20537:20555   */\n      tag_571\n      tag_337\n      jump\t// in\n    tag_571:\n        /* \"#utility.yul\":20418:20557   */\n    tag_570:\n        /* \"#utility.yul\":20202:20564   */\n      pop\n        /* \"#utility.yul\":20154:20564   */\n      swap3\n      swap2\n      pop\n      pop\n      jump\t// out\n        /* \"#utility.yul\":20570:20750   */\n    tag_341:\n        /* \"#utility.yul\":20618:20695   */\n      0x4e487b7100000000000000000000000000000000000000000000000000000000\n        /* \"#utility.yul\":20615:20616   */\n      0x00\n        /* \"#utility.yul\":20608:20696   */\n      mstore\n        /* \"#utility.yul\":20715:20719   */\n      0x12\n        /* \"#utility.yul\":20712:20713   */\n      0x04\n        /* \"#utility.yul\":20705:20720   */\n      mstore\n        /* \"#utility.yul\":20739:20743   */\n      0x24\n        /* \"#utility.yul\":20736:20737   */\n      0x00\n        /* \"#utility.yul\":20729:20744   */\n      revert\n        /* \"#utility.yul\":20756:20941   */\n    tag_211:\n        /* \"#utility.yul\":20796:20797   */\n      0x00\n        /* \"#utility.yul\":20813:20833   */\n      tag_574\n        /* \"#utility.yul\":20831:20832   */\n      dup3\n        /* \"#utility.yul\":20813:20833   */\n      tag_299\n      jump\t// in\n    tag_574:\n        /* \"#utility.yul\":20808:20833   */\n      swap2\n      pop\n        /* \"#utility.yul\":20847:20867   */\n      tag_575\n        /* \"#utility.yul\":20865:20866   */\n      dup4\n        /* \"#utility.yul\":20847:20867   */\n      tag_299\n      jump\t// in\n    tag_575:\n        /* \"#utility.yul\":20842:20867   */\n      swap3\n      pop\n        /* \"#utility.yul\":20886:20887   */\n      dup3\n        /* \"#utility.yul\":20876:20911   */\n      tag_576\n      jumpi\n        /* \"#utility.yul\":20891:20909   */\n      tag_577\n      tag_341\n      jump\t// in\n    tag_577:\n        /* \"#utility.yul\":20876:20911   */\n    tag_576:\n        /* \"#utility.yul\":20933:20934   */\n      dup3\n        /* \"#utility.yul\":20930:20931   */\n      dup3\n        /* \"#utility.yul\":20926:20935   */\n      div\n        /* \"#utility.yul\":20921:20935   */\n      swap1\n      pop\n        /* \"#utility.yul\":20756:20941   */\n      swap3\n      swap2\n      pop\n      pop\n      jump\t// out\n        /* \"#utility.yul\":20947:21122   */\n    tag_342:\n        /* \"#utility.yul\":21087:21114   */\n      0x496e636f72726563742045544820616d6f756e742073656e7400000000000000\n        /* \"#utility.yul\":21083:21084   */\n      0x00\n        /* \"#utility.yul\":21075:21081   */\n      dup3\n        /* \"#utility.yul\":21071:21085   */\n      add\n        /* \"#utility.yul\":21064:21115   */\n      mstore\n        /* \"#utility.yul\":20947:21122   */\n      pop\n      jump\t// out\n        /* \"#utility.yul\":21128:21494   */\n    tag_343:\n        /* \"#utility.yul\":21270:21273   */\n      0x00\n        /* \"#utility.yul\":21291:21358   */\n      tag_580\n        /* \"#utility.yul\":21355:21357   */\n      0x19\n        /* \"#utility.yul\":21350:21353   */\n      dup4\n        /* \"#utility.yul\":21291:21358   */\n      tag_288\n      jump\t// in\n    tag_580:\n        /* \"#utility.yul\":21284:21358   */\n      swap2\n      pop\n        /* \"#utility.yul\":21367:21460   */\n      tag_581\n        /* \"#utility.yul\":21456:21459   */\n      dup3\n        /* \"#utility.yul\":21367:21460   */\n      tag_342\n      jump\t// in\n    tag_581:\n        /* \"#utility.yul\":21485:21487   */\n      0x20\n        /* \"#utility.yul\":21480:21483   */\n      dup3\n        /* \"#utility.yul\":21476:21488   */\n      add\n        /* \"#utility.yul\":21469:21488   */\n      swap1\n      pop\n        /* \"#utility.yul\":21128:21494   */\n      swap2\n      swap1\n      pop\n      jump\t// out\n        /* \"#utility.yul\":21500:21919   */\n    tag_214:\n        /* \"#utility.yul\":21666:21670   */\n      0x00\n        /* \"#utility.yul\":21704:21706   */\n      0x20\n        /* \"#utility.yul\":21693:21702   */\n      dup3\n        /* \"#utility.yul\":21689:21707   */\n      add\n        /* \"#utility.yul\":21681:21707   */\n      swap1\n      pop\n        /* \"#utility.yul\":21753:21762   */\n      dup2\n        /* \"#utility.yul\":21747:21751   */\n      dup2\n        /* \"#utility.yul\":21743:21763   */\n      sub\n        /* \"#utility.yul\":21739:21740   */\n      0x00\n        /* \"#utility.yul\":21728:21737   */\n      dup4\n        /* \"#utility.yul\":21724:21741   */\n      add\n        /* \"#utility.yul\":21717:21764   */\n      mstore\n        /* \"#utility.yul\":21781:21912   */\n      tag_583\n        /* \"#utility.yul\":21907:21911   */\n      dup2\n        /* \"#utility.yul\":21781:21912   */\n      tag_343\n      jump\t// in\n    tag_583:\n        /* \"#utility.yul\":21773:21912   */\n      swap1\n      pop\n        /* \"#utility.yul\":21500:21919   */\n      swap2\n      swap1\n      pop\n      jump\t// out\n        /* \"#utility.yul\":21925:22098   */\n    tag_344:\n        /* \"#utility.yul\":22065:22090   */\n      0x496e73756666696369656e74204e422062616c616e6365000000000000000000\n        /* \"#utility.yul\":22061:22062   */\n      0x00\n        /* \"#utility.yul\":22053:22059   */\n      dup3\n        /* \"#utility.yul\":22049:22063   */\n      add\n        /* \"#utility.yul\":22042:22091   */\n      mstore\n        /* \"#utility.yul\":21925:22098   */\n      pop\n      jump\t// out\n        /* \"#utility.yul\":22104:22470   */\n    tag_345:\n        /* \"#utility.yul\":22246:22249   */\n      0x00\n        /* \"#utility.yul\":22267:22334   */\n      tag_586\n        /* \"#utility.yul\":22331:22333   */\n      0x17\n        /* \"#utility.yul\":22326:22329   */\n      dup4\n        /* \"#utility.yul\":22267:22334   */\n      tag_288\n      jump\t// in\n    tag_586:\n        /* \"#utility.yul\":22260:22334   */\n      swap2\n      pop\n        /* \"#utility.yul\":22343:22436   */\n      tag_587\n        /* \"#utility.yul\":22432:22435   */\n      dup3\n        /* \"#utility.yul\":22343:22436   */\n      tag_344\n      jump\t// in\n    tag_587:\n        /* \"#utility.yul\":22461:22463   */\n      0x20\n        /* \"#utility.yul\":22456:22459   */\n      dup3\n        /* \"#utility.yul\":22452:22464   */\n      add\n        /* \"#utility.yul\":22445:22464   */\n      swap1\n      pop\n        /* \"#utility.yul\":22104:22470   */\n      swap2\n      swap1\n      pop\n      jump\t// out\n        /* \"#utility.yul\":22476:22895   */\n    tag_226:\n        /* \"#utility.yul\":22642:22646   */\n      0x00\n        /* \"#utility.yul\":22680:22682   */\n      0x20\n        /* \"#utility.yul\":22669:22678   */\n      dup3\n        /* \"#utility.yul\":22665:22683   */\n      add\n        /* \"#utility.yul\":22657:22683   */\n      swap1\n      pop\n        /* \"#utility.yul\":22729:22738   */\n      dup2\n        /* \"#utility.yul\":22723:22727   */\n      dup2\n        /* \"#utility.yul\":22719:22739   */\n      sub\n        /* \"#utility.yul\":22715:22716   */\n      0x00\n        /* \"#utility.yul\":22704:22713   */\n      dup4\n        /* \"#utility.yul\":22700:22717   */\n      add\n        /* \"#utility.yul\":22693:22740   */\n      mstore\n        /* \"#utility.yul\":22757:22888   */\n      tag_589\n        /* \"#utility.yul\":22883:22887   */\n      dup2\n        /* \"#utility.yul\":22757:22888   */\n      tag_345\n      jump\t// in\n    tag_589:\n        /* \"#utility.yul\":22749:22888   */\n      swap1\n      pop\n        /* \"#utility.yul\":22476:22895   */\n      swap2\n      swap1\n      pop\n      jump\t// out\n        /* \"#utility.yul\":22901:23343   */\n    tag_246:\n        /* \"#utility.yul\":23050:23054   */\n      0x00\n        /* \"#utility.yul\":23088:23090   */\n      0x60\n        /* \"#utility.yul\":23077:23086   */\n      dup3\n        /* \"#utility.yul\":23073:23091   */\n      add\n        /* \"#utility.yul\":23065:23091   */\n      swap1\n      pop\n        /* \"#utility.yul\":23101:23172   */\n      tag_591\n        /* \"#utility.yul\":23169:23170   */\n      0x00\n        /* \"#utility.yul\":23158:23167   */\n      dup4\n        /* \"#utility.yul\":23154:23171   */\n      add\n        /* \"#utility.yul\":23145:23151   */\n      dup7\n        /* \"#utility.yul\":23101:23172   */\n      tag_307\n      jump\t// in\n    tag_591:\n        /* \"#utility.yul\":23182:23254   */\n      tag_592\n        /* \"#utility.yul\":23250:23252   */\n      0x20\n        /* \"#utility.yul\":23239:23248   */\n      dup4\n        /* \"#utility.yul\":23235:23253   */\n      add\n        /* \"#utility.yul\":23226:23232   */\n      dup6\n        /* \"#utility.yul\":23182:23254   */\n      tag_304\n      jump\t// in\n    tag_592:\n        /* \"#utility.yul\":23264:23336   */\n      tag_593\n        /* \"#utility.yul\":23332:23334   */\n      0x40\n        /* \"#utility.yul\":23321:23330   */\n      dup4\n        /* \"#utility.yul\":23317:23335   */\n      add\n        /* \"#utility.yul\":23308:23314   */\n      dup5\n        /* \"#utility.yul\":23264:23336   */\n      tag_304\n      jump\t// in\n    tag_593:\n        /* \"#utility.yul\":22901:23343   */\n      swap5\n      swap4\n      pop\n      pop\n      pop\n      pop\n      jump\t// out\n        /* \"#utility.yul\":23349:23540   */\n    tag_280:\n        /* \"#utility.yul\":23389:23392   */\n      0x00\n        /* \"#utility.yul\":23408:23428   */\n      tag_595\n        /* \"#utility.yul\":23426:23427   */\n      dup3\n        /* \"#utility.yul\":23408:23428   */\n      tag_299\n      jump\t// in\n    tag_595:\n        /* \"#utility.yul\":23403:23428   */\n      swap2\n      pop\n        /* \"#utility.yul\":23442:23462   */\n      tag_596\n        /* \"#utility.yul\":23460:23461   */\n      dup4\n        /* \"#utility.yul\":23442:23462   */\n      tag_299\n      jump\t// in\n    tag_596:\n        /* \"#utility.yul\":23437:23462   */\n      swap3\n      pop\n        /* \"#utility.yul\":23485:23486   */\n      dup3\n        /* \"#utility.yul\":23482:23483   */\n      dup3\n        /* \"#utility.yul\":23478:23487   */\n      add\n        /* \"#utility.yul\":23471:23487   */\n      swap1\n      pop\n        /* \"#utility.yul\":23506:23509   */\n      dup1\n        /* \"#utility.yul\":23503:23504   */\n      dup3\n        /* \"#utility.yul\":23500:23510   */\n      gt\n        /* \"#utility.yul\":23497:23533   */\n      iszero\n      tag_597\n      jumpi\n        /* \"#utility.yul\":23513:23531   */\n      tag_598\n      tag_337\n      jump\t// in\n    tag_598:\n        /* \"#utility.yul\":23497:23533   */\n    tag_597:\n        /* \"#utility.yul\":23349:23540   */\n      swap3\n      swap2\n      pop\n      pop\n      jump\t// out\n\n    auxdata: 0xa26469706673582212206081271ba147e3e4e4647ffcbe81946f695845a4225ca1877056e9d5d70e58fc64736f6c63430008160033\n}\n",
				"bytecode": {
					"linkReferences": {},
					"object": "6080604052600a60065560066007553480156200001a575f80fd5b50336040518060400160405280601081526020017f4e616d617a62656b277320546f6b656e000000000000000000000000000000008152506040518060400160405280600281526020017f4e42000000000000000000000000000000000000000000000000000000000000815250816003908162000099919062000754565b508060049081620000ab919062000754565b5050505f73ffffffffffffffffffffffffffffffffffffffff168173ffffffffffffffffffffffffffffffffffffffff160362000121575f6040517f1e4fbdf70000000000000000000000000000000000000000000000000000000081526004016200011891906200087b565b60405180910390fd5b62000132816200017760201b60201c565b506200017133620001486200023a60201b60201c565b600a62000156919062000a1f565b6103e862000165919062000a6f565b6200024260201b60201c565b62000b5a565b5f60055f9054906101000a900473ffffffffffffffffffffffffffffffffffffffff1690508160055f6101000a81548173ffffffffffffffffffffffffffffffffffffffff021916908373ffffffffffffffffffffffffffffffffffffffff1602179055508173ffffffffffffffffffffffffffffffffffffffff168173ffffffffffffffffffffffffffffffffffffffff167f8be0079c531659141344cd1fd0a4f28419497f9722a3daafe3b4186f6b6457e060405160405180910390a35050565b5f6012905090565b5f73ffffffffffffffffffffffffffffffffffffffff168273ffffffffffffffffffffffffffffffffffffffff1603620002b5575f6040517fec442f05000000000000000000000000000000000000000000000000000000008152600401620002ac91906200087b565b60405180910390fd5b620002c85f8383620002cc60201b60201c565b5050565b5f73ffffffffffffffffffffffffffffffffffffffff168373ffffffffffffffffffffffffffffffffffffffff160362000320578060025f82825462000313919062000ab9565b92505081905550620003f1565b5f805f8573ffffffffffffffffffffffffffffffffffffffff1673ffffffffffffffffffffffffffffffffffffffff1681526020019081526020015f2054905081811015620003ac578381836040517fe450d38c000000000000000000000000000000000000000000000000000000008152600401620003a39392919062000b04565b60405180910390fd5b8181035f808673ffffffffffffffffffffffffffffffffffffffff1673ffffffffffffffffffffffffffffffffffffffff1681526020019081526020015f2081905550505b5f73ffffffffffffffffffffffffffffffffffffffff168273ffffffffffffffffffffffffffffffffffffffff16036200043a578060025f828254039250508190555062000484565b805f808473ffffffffffffffffffffffffffffffffffffffff1673ffffffffffffffffffffffffffffffffffffffff1681526020019081526020015f205f82825401925050819055505b8173ffffffffffffffffffffffffffffffffffffffff168373ffffffffffffffffffffffffffffffffffffffff167fddf252ad1be2c89b69c2b068fc378daa952ba7f163c4a11628f55a4df523b3ef83604051620004e3919062000b3f565b60405180910390a3505050565b5f81519050919050565b7f4e487b71000000000000000000000000000000000000000000000000000000005f52604160045260245ffd5b7f4e487b71000000000000000000000000000000000000000000000000000000005f52602260045260245ffd5b5f60028204905060018216806200056c57607f821691505b60208210810362000582576200058162000527565b5b50919050565b5f819050815f5260205f209050919050565b5f6020601f8301049050919050565b5f82821b905092915050565b5f60088302620005e67fffffffffffffffffffffffffffffffffffffffffffffffffffffffffffffffff82620005a9565b620005f28683620005a9565b95508019841693508086168417925050509392505050565b5f819050919050565b5f819050919050565b5f6200063c6200063662000630846200060a565b62000613565b6200060a565b9050919050565b5f819050919050565b62000657836200061c565b6200066f620006668262000643565b848454620005b5565b825550505050565b5f90565b6200068562000677565b620006928184846200064c565b505050565b5b81811015620006b957620006ad5f826200067b565b60018101905062000698565b5050565b601f8211156200070857620006d28162000588565b620006dd846200059a565b81016020851015620006ed578190505b62000705620006fc856200059a565b83018262000697565b50505b505050565b5f82821c905092915050565b5f6200072a5f19846008026200070d565b1980831691505092915050565b5f62000744838362000719565b9150826002028217905092915050565b6200075f82620004f0565b67ffffffffffffffff8111156200077b576200077a620004fa565b5b62000787825462000554565b62000794828285620006bd565b5f60209050601f831160018114620007ca575f8415620007b5578287015190505b620007c1858262000737565b86555062000830565b601f198416620007da8662000588565b5f5b828110156200080357848901518255600182019150602085019450602081019050620007dc565b868310156200082357848901516200081f601f89168262000719565b8355505b6001600288020188555050505b505050505050565b5f73ffffffffffffffffffffffffffffffffffffffff82169050919050565b5f620008638262000838565b9050919050565b620008758162000857565b82525050565b5f602082019050620008905f8301846200086a565b92915050565b7f4e487b71000000000000000000000000000000000000000000000000000000005f52601160045260245ffd5b5f8160011c9050919050565b5f808291508390505b60018511156200092057808604811115620008f857620008f762000896565b5b6001851615620009085780820291505b80810290506200091885620008c3565b9450620008d8565b94509492505050565b5f826200093a576001905062000a0c565b8162000949575f905062000a0c565b81600181146200096257600281146200096d57620009a3565b600191505062000a0c565b60ff84111562000982576200098162000896565b5b8360020a9150848211156200099c576200099b62000896565b5b5062000a0c565b5060208310610133831016604e8410600b8410161715620009dd5782820a905083811115620009d757620009d662000896565b5b62000a0c565b620009ec8484846001620008cf565b9250905081840481111562000a065762000a0562000896565b5b81810290505b9392505050565b5f60ff82169050919050565b5f62000a2b826200060a565b915062000a388362000a13565b925062000a677fffffffffffffffffffffffffffffffffffffffffffffffffffffffffffffffff848462000929565b905092915050565b5f62000a7b826200060a565b915062000a88836200060a565b925082820262000a98816200060a565b9150828204841483151762000ab25762000ab162000896565b5b5092915050565b5f62000ac5826200060a565b915062000ad2836200060a565b925082820190508082111562000aed5762000aec62000896565b5b92915050565b62000afe816200060a565b82525050565b5f60608201905062000b195f8301866200086a565b62000b28602083018562000af3565b62000b37604083018462000af3565b949350505050565b5f60208201905062000b545f83018462000af3565b92915050565b6121808062000b685f395ff3fe60806040526004361061012d575f3560e01c806395d89b41116100aa578063d637dcfa1161006e578063d637dcfa146103f0578063d96a094a14610418578063dd62ed3e14610434578063e4849b3214610470578063f2fde38b14610498578063fc37987b146104c057610134565b806395d89b4114610312578063a9059cbb1461033c578063ac6af28014610378578063cb797836146103a0578063d0679d34146103c857610134565b80636217229b116100f15780636217229b1461022e5780636386c1c71461025857806370a0823114610296578063715018a6146102d25780638da5cb5b146102e857610134565b806306fdde0314610138578063095ea7b31461016257806318160ddd1461019e57806323b872dd146101c8578063313ce5671461020457610134565b3661013457005b5f80fd5b348015610143575f80fd5b5061014c6104ea565b6040516101599190611546565b60405180910390f35b34801561016d575f80fd5b5061018860048036038101906101839190611604565b61057a565b604051610195919061165c565b60405180910390f35b3480156101a9575f80fd5b506101b261059c565b6040516101bf9190611684565b60405180910390f35b3480156101d3575f80fd5b506101ee60048036038101906101e9919061169d565b6105a5565b6040516101fb919061165c565b60405180910390f35b34801561020f575f80fd5b506102186105d3565b6040516102259190611708565b60405180910390f35b348015610239575f80fd5b506102426105db565b60405161024f9190611684565b60405180910390f35b348015610263575f80fd5b5061027e60048036038101906102799190611721565b6105e1565b60405161028d9392919061174c565b60405180910390f35b3480156102a1575f80fd5b506102bc60048036038101906102b79190611721565b6107fc565b6040516102c99190611684565b60405180910390f35b3480156102dd575f80fd5b506102e6610841565b005b3480156102f3575f80fd5b506102fc610854565b60405161030991906117a5565b60405180910390f35b34801561031d575f80fd5b5061032661087c565b6040516103339190611546565b60405180910390f35b348015610347575f80fd5b50610362600480360381019061035d9190611604565b61090c565b60405161036f919061165c565b60405180910390f35b348015610383575f80fd5b5061039e600480360381019061039991906117be565b61092e565b005b3480156103ab575f80fd5b506103c660048036038101906103c191906117fc565b610948565b005b3480156103d3575f80fd5b506103ee60048036038101906103e99190611604565b610965565b005b3480156103fb575f80fd5b5061041660048036038101906104119190611953565b610974565b005b610432600480360381019061042d91906117fc565b610a9a565b005b34801561043f575f80fd5b5061045a600480360381019061045591906119f7565b610b19565b6040516104679190611684565b60405180910390f35b34801561047b575f80fd5b50610496600480360381019061049191906117fc565b610b9b565b005b3480156104a3575f80fd5b506104be60048036038101906104b99190611721565b610c67565b005b3480156104cb575f80fd5b506104d4610ceb565b6040516104e19190611684565b60405180910390f35b6060600380546104f990611a62565b80601f016020809104026020016040519081016040528092919081815260200182805461052590611a62565b80156105705780601f1061054757610100808354040283529160200191610570565b820191905f5260205f20905b81548152906001019060200180831161055357829003601f168201915b5050505050905090565b5f80610584610cf1565b9050610591818585610cf8565b600191505092915050565b5f600254905090565b5f806105af610cf1565b90506105bc858285610d0a565b6105c7858585610d9c565b60019150509392505050565b5f6012905090565b60065481565b60608060605f60085f8673ffffffffffffffffffffffffffffffffffffffff1673ffffffffffffffffffffffffffffffffffffffff1681526020019081526020015f206040518060600160405290815f8201805461063e90611a62565b80601f016020809104026020016040519081016040528092919081815260200182805461066a90611a62565b80156106b55780601f1061068c576101008083540402835291602001916106b5565b820191905f5260205f20905b81548152906001019060200180831161069857829003601f168201915b505050505081526020016001820180546106ce90611a62565b80601f01602080910402602001604051908101604052809291908181526020018280546106fa90611a62565b80156107455780601f1061071c57610100808354040283529160200191610745565b820191905f5260205f20905b81548152906001019060200180831161072857829003601f168201915b5050505050815260200160028201805461075e90611a62565b80601f016020809104026020016040519081016040528092919081815260200182805461078a90611a62565b80156107d55780601f106107ac576101008083540402835291602001916107d5565b820191905f5260205f20905b8154815290600101906020018083116107b857829003601f168201915b5050505050815250509050805f015181602001518260400151935093509350509193909250565b5f805f8373ffffffffffffffffffffffffffffffffffffffff1673ffffffffffffffffffffffffffffffffffffffff1681526020019081526020015f20549050919050565b610849610e8c565b6108525f610f13565b565b5f60055f9054906101000a900473ffffffffffffffffffffffffffffffffffffffff16905090565b60606004805461088b90611a62565b80601f01602080910402602001604051908101604052809291908181526020018280546108b790611a62565b80156109025780601f106108d957610100808354040283529160200191610902565b820191905f5260205f20905b8154815290600101906020018083116108e557829003601f168201915b5050505050905090565b5f80610916610cf1565b9050610923818585610d9c565b600191505092915050565b610936610e8c565b81600681905550806007819055505050565b610950610e8c565b6109623361095c610854565b83610d9c565b50565b610970338383610d9c565b5050565b5f8351116109b7576040517f08c379a00000000000000000000000000000000000000000000000000000000081526004016109ae90611adc565b60405180910390fd5b5f8251116109fa576040517f08c379a00000000000000000000000000000000000000000000000000000000081526004016109f190611b44565b60405180910390fd5b60405180606001604052808481526020018381526020018281525060085f3373ffffffffffffffffffffffffffffffffffffffff1673ffffffffffffffffffffffffffffffffffffffff1681526020019081526020015f205f820151815f019081610a659190611cff565b506020820151816001019081610a7b9190611cff565b506040820151816002019081610a919190611cff565b50905050505050565b5f610aa36105d3565b600a610aaf9190611f2a565b60065483610abd9190611f74565b610ac79190611fe2565b9050803414610b0b576040517f08c379a0000000000000000000000000000000000000000000000000000000008152600401610b029061205c565b60405180910390fd5b610b153383610fd6565b5050565b5f60015f8473ffffffffffffffffffffffffffffffffffffffff1673ffffffffffffffffffffffffffffffffffffffff1681526020019081526020015f205f8373ffffffffffffffffffffffffffffffffffffffff1673ffffffffffffffffffffffffffffffffffffffff1681526020019081526020015f2054905092915050565b5f610ba46105d3565b600a610bb09190611f2a565b60075483610bbe9190611f74565b610bc89190611fe2565b905081610bd4336107fc565b1015610c15576040517f08c379a0000000000000000000000000000000000000000000000000000000008152600401610c0c906120c4565b60405180910390fd5b610c1f3383611055565b3373ffffffffffffffffffffffffffffffffffffffff166108fc8290811502906040515f60405180830381858888f19350505050158015610c62573d5f803e3d5ffd5b505050565b610c6f610e8c565b5f73ffffffffffffffffffffffffffffffffffffffff168173ffffffffffffffffffffffffffffffffffffffff1603610cdf575f6040517f1e4fbdf7000000000000000000000000000000000000000000000000000000008152600401610cd691906117a5565b60405180910390fd5b610ce881610f13565b50565b60075481565b5f33905090565b610d0583838360016110d4565b505050565b5f610d158484610b19565b90507fffffffffffffffffffffffffffffffffffffffffffffffffffffffffffffffff8114610d965781811015610d87578281836040517ffb8f41b2000000000000000000000000000000000000000000000000000000008152600401610d7e939291906120e2565b60405180910390fd5b610d9584848484035f6110d4565b5b50505050565b5f73ffffffffffffffffffffffffffffffffffffffff168373ffffffffffffffffffffffffffffffffffffffff1603610e0c575f6040517f96c6fd1e000000000000000000000000000000000000000000000000000000008152600401610e0391906117a5565b60405180910390fd5b5f73ffffffffffffffffffffffffffffffffffffffff168273ffffffffffffffffffffffffffffffffffffffff1603610e7c575f6040517fec442f05000000000000000000000000000000000000000000000000000000008152600401610e7391906117a5565b60405180910390fd5b610e878383836112a3565b505050565b610e94610cf1565b73ffffffffffffffffffffffffffffffffffffffff16610eb2610854565b73ffffffffffffffffffffffffffffffffffffffff1614610f1157610ed5610cf1565b6040517f118cdaa7000000000000000000000000000000000000000000000000000000008152600401610f0891906117a5565b60405180910390fd5b565b5f60055f9054906101000a900473ffffffffffffffffffffffffffffffffffffffff1690508160055f6101000a81548173ffffffffffffffffffffffffffffffffffffffff021916908373ffffffffffffffffffffffffffffffffffffffff1602179055508173ffffffffffffffffffffffffffffffffffffffff168173ffffffffffffffffffffffffffffffffffffffff167f8be0079c531659141344cd1fd0a4f28419497f9722a3daafe3b4186f6b6457e060405160405180910390a35050565b5f73ffffffffffffffffffffffffffffffffffffffff168273ffffffffffffffffffffffffffffffffffffffff1603611046575f6040517fec442f0500000000000000000000000000000000000000000000000000000000815260040161103d91906117a5565b60405180910390fd5b6110515f83836112a3565b5050565b5f73ffffffffffffffffffffffffffffffffffffffff168273ffffffffffffffffffffffffffffffffffffffff16036110c5575f6040517f96c6fd1e0000000000000000000000000000000000000000000000000000000081526004016110bc91906117a5565b60405180910390fd5b6110d0825f836112a3565b5050565b5f73ffffffffffffffffffffffffffffffffffffffff168473ffffffffffffffffffffffffffffffffffffffff1603611144575f6040517fe602df0500000000000000000000000000000000000000000000000000000000815260040161113b91906117a5565b60405180910390fd5b5f73ffffffffffffffffffffffffffffffffffffffff168373ffffffffffffffffffffffffffffffffffffffff16036111b4575f6040517f94280d620000000000000000000000000000000000000000000000000000000081526004016111ab91906117a5565b60405180910390fd5b8160015f8673ffffffffffffffffffffffffffffffffffffffff1673ffffffffffffffffffffffffffffffffffffffff1681526020019081526020015f205f8573ffffffffffffffffffffffffffffffffffffffff1673ffffffffffffffffffffffffffffffffffffffff1681526020019081526020015f2081905550801561129d578273ffffffffffffffffffffffffffffffffffffffff168473ffffffffffffffffffffffffffffffffffffffff167f8c5be1e5ebec7d5bd14f71427d1e84f3dd0314c0f7b2291e5b200ac8c7c3b925846040516112949190611684565b60405180910390a35b50505050565b5f73ffffffffffffffffffffffffffffffffffffffff168373ffffffffffffffffffffffffffffffffffffffff16036112f3578060025f8282546112e79190612117565b925050819055506113c1565b5f805f8573ffffffffffffffffffffffffffffffffffffffff1673ffffffffffffffffffffffffffffffffffffffff1681526020019081526020015f205490508181101561137c578381836040517fe450d38c000000000000000000000000000000000000000000000000000000008152600401611373939291906120e2565b60405180910390fd5b8181035f808673ffffffffffffffffffffffffffffffffffffffff1673ffffffffffffffffffffffffffffffffffffffff1681526020019081526020015f2081905550505b5f73ffffffffffffffffffffffffffffffffffffffff168273ffffffffffffffffffffffffffffffffffffffff1603611408578060025f8282540392505081905550611452565b805f808473ffffffffffffffffffffffffffffffffffffffff1673ffffffffffffffffffffffffffffffffffffffff1681526020019081526020015f205f82825401925050819055505b8173ffffffffffffffffffffffffffffffffffffffff168373ffffffffffffffffffffffffffffffffffffffff167fddf252ad1be2c89b69c2b068fc378daa952ba7f163c4a11628f55a4df523b3ef836040516114af9190611684565b60405180910390a3505050565b5f81519050919050565b5f82825260208201905092915050565b5f5b838110156114f35780820151818401526020810190506114d8565b5f8484015250505050565b5f601f19601f8301169050919050565b5f611518826114bc565b61152281856114c6565b93506115328185602086016114d6565b61153b816114fe565b840191505092915050565b5f6020820190508181035f83015261155e818461150e565b905092915050565b5f604051905090565b5f80fd5b5f80fd5b5f73ffffffffffffffffffffffffffffffffffffffff82169050919050565b5f6115a082611577565b9050919050565b6115b081611596565b81146115ba575f80fd5b50565b5f813590506115cb816115a7565b92915050565b5f819050919050565b6115e3816115d1565b81146115ed575f80fd5b50565b5f813590506115fe816115da565b92915050565b5f806040838503121561161a5761161961156f565b5b5f611627858286016115bd565b9250506020611638858286016115f0565b9150509250929050565b5f8115159050919050565b61165681611642565b82525050565b5f60208201905061166f5f83018461164d565b92915050565b61167e816115d1565b82525050565b5f6020820190506116975f830184611675565b92915050565b5f805f606084860312156116b4576116b361156f565b5b5f6116c1868287016115bd565b93505060206116d2868287016115bd565b92505060406116e3868287016115f0565b9150509250925092565b5f60ff82169050919050565b611702816116ed565b82525050565b5f60208201905061171b5f8301846116f9565b92915050565b5f602082840312156117365761173561156f565b5b5f611743848285016115bd565b91505092915050565b5f6060820190508181035f830152611764818661150e565b90508181036020830152611778818561150e565b9050818103604083015261178c818461150e565b9050949350505050565b61179f81611596565b82525050565b5f6020820190506117b85f830184611796565b92915050565b5f80604083850312156117d4576117d361156f565b5b5f6117e1858286016115f0565b92505060206117f2858286016115f0565b9150509250929050565b5f602082840312156118115761181061156f565b5b5f61181e848285016115f0565b91505092915050565b5f80fd5b5f80fd5b7f4e487b71000000000000000000000000000000000000000000000000000000005f52604160045260245ffd5b611865826114fe565b810181811067ffffffffffffffff821117156118845761188361182f565b5b80604052505050565b5f611896611566565b90506118a2828261185c565b919050565b5f67ffffffffffffffff8211156118c1576118c061182f565b5b6118ca826114fe565b9050602081019050919050565b828183375f83830152505050565b5f6118f76118f2846118a7565b61188d565b9050828152602081018484840111156119135761191261182b565b5b61191e8482856118d7565b509392505050565b5f82601f83011261193a57611939611827565b5b813561194a8482602086016118e5565b91505092915050565b5f805f6060848603121561196a5761196961156f565b5b5f84013567ffffffffffffffff81111561198757611986611573565b5b61199386828701611926565b935050602084013567ffffffffffffffff8111156119b4576119b3611573565b5b6119c086828701611926565b925050604084013567ffffffffffffffff8111156119e1576119e0611573565b5b6119ed86828701611926565b9150509250925092565b5f8060408385031215611a0d57611a0c61156f565b5b5f611a1a858286016115bd565b9250506020611a2b858286016115bd565b9150509250929050565b7f4e487b71000000000000000000000000000000000000000000000000000000005f52602260045260245ffd5b5f6002820490506001821680611a7957607f821691505b602082108103611a8c57611a8b611a35565b5b50919050565b7f557365726e616d65206d757374206e6f7420626520656d7074790000000000005f82015250565b5f611ac6601a836114c6565b9150611ad182611a92565b602082019050919050565b5f6020820190508181035f830152611af381611aba565b9050919050565b7f456d61696c206d757374206e6f7420626520656d7074790000000000000000005f82015250565b5f611b2e6017836114c6565b9150611b3982611afa565b602082019050919050565b5f6020820190508181035f830152611b5b81611b22565b9050919050565b5f819050815f5260205f209050919050565b5f6020601f8301049050919050565b5f82821b905092915050565b5f60088302611bbe7fffffffffffffffffffffffffffffffffffffffffffffffffffffffffffffffff82611b83565b611bc88683611b83565b95508019841693508086168417925050509392505050565b5f819050919050565b5f611c03611bfe611bf9846115d1565b611be0565b6115d1565b9050919050565b5f819050919050565b611c1c83611be9565b611c30611c2882611c0a565b848454611b8f565b825550505050565b5f90565b611c44611c38565b611c4f818484611c13565b505050565b5b81811015611c7257611c675f82611c3c565b600181019050611c55565b5050565b601f821115611cb757611c8881611b62565b611c9184611b74565b81016020851015611ca0578190505b611cb4611cac85611b74565b830182611c54565b50505b505050565b5f82821c905092915050565b5f611cd75f1984600802611cbc565b1980831691505092915050565b5f611cef8383611cc8565b9150826002028217905092915050565b611d08826114bc565b67ffffffffffffffff811115611d2157611d2061182f565b5b611d2b8254611a62565b611d36828285611c76565b5f60209050601f831160018114611d67575f8415611d55578287015190505b611d5f8582611ce4565b865550611dc6565b601f198416611d7586611b62565b5f5b82811015611d9c57848901518255600182019150602085019450602081019050611d77565b86831015611db95784890151611db5601f891682611cc8565b8355505b6001600288020188555050505b505050505050565b7f4e487b71000000000000000000000000000000000000000000000000000000005f52601160045260245ffd5b5f8160011c9050919050565b5f808291508390505b6001851115611e5057808604811115611e2c57611e2b611dce565b5b6001851615611e3b5780820291505b8081029050611e4985611dfb565b9450611e10565b94509492505050565b5f82611e685760019050611f23565b81611e75575f9050611f23565b8160018114611e8b5760028114611e9557611ec4565b6001915050611f23565b60ff841115611ea757611ea6611dce565b5b8360020a915084821115611ebe57611ebd611dce565b5b50611f23565b5060208310610133831016604e8410600b8410161715611ef95782820a905083811115611ef457611ef3611dce565b5b611f23565b611f068484846001611e07565b92509050818404811115611f1d57611f1c611dce565b5b81810290505b9392505050565b5f611f34826115d1565b9150611f3f836116ed565b9250611f6c7fffffffffffffffffffffffffffffffffffffffffffffffffffffffffffffffff8484611e59565b905092915050565b5f611f7e826115d1565b9150611f89836115d1565b9250828202611f97816115d1565b91508282048414831517611fae57611fad611dce565b5b5092915050565b7f4e487b71000000000000000000000000000000000000000000000000000000005f52601260045260245ffd5b5f611fec826115d1565b9150611ff7836115d1565b92508261200757612006611fb5565b5b828204905092915050565b7f496e636f72726563742045544820616d6f756e742073656e74000000000000005f82015250565b5f6120466019836114c6565b915061205182612012565b602082019050919050565b5f6020820190508181035f8301526120738161203a565b9050919050565b7f496e73756666696369656e74204e422062616c616e63650000000000000000005f82015250565b5f6120ae6017836114c6565b91506120b98261207a565b602082019050919050565b5f6020820190508181035f8301526120db816120a2565b9050919050565b5f6060820190506120f55f830186611796565b6121026020830185611675565b61210f6040830184611675565b949350505050565b5f612121826115d1565b915061212c836115d1565b925082820190508082111561214457612143611dce565b5b9291505056fea26469706673582212206081271ba147e3e4e4647ffcbe81946f695845a4225ca1877056e9d5d70e58fc64736f6c63430008160033",
					"opcodes": "PUSH1 0x80 PUSH1 0x40 MSTORE PUSH1 0xA PUSH1 0x6 SSTORE PUSH1 0x6 PUSH1 0x7 SSTORE CALLVALUE DUP1 ISZERO PUSH3 0x1A JUMPI PUSH0 DUP1 REVERT JUMPDEST POP CALLER PUSH1 0x40 MLOAD DUP1 PUSH1 0x40 ADD PUSH1 0x40 MSTORE DUP1 PUSH1 0x10 DUP2 MSTORE PUSH1 0x20 ADD PUSH32 0x4E616D617A62656B277320546F6B656E00000000000000000000000000000000 DUP2 MSTORE POP PUSH1 0x40 MLOAD DUP1 PUSH1 0x40 ADD PUSH1 0x40 MSTORE DUP1 PUSH1 0x2 DUP2 MSTORE PUSH1 0x20 ADD PUSH32 0x4E42000000000000000000000000000000000000000000000000000000000000 DUP2 MSTORE POP DUP2 PUSH1 0x3 SWAP1 DUP2 PUSH3 0x99 SWAP2 SWAP1 PUSH3 0x754 JUMP JUMPDEST POP DUP1 PUSH1 0x4 SWAP1 DUP2 PUSH3 0xAB SWAP2 SWAP1 PUSH3 0x754 JUMP JUMPDEST POP POP POP PUSH0 PUSH20 0xFFFFFFFFFFFFFFFFFFFFFFFFFFFFFFFFFFFFFFFF AND DUP2 PUSH20 0xFFFFFFFFFFFFFFFFFFFFFFFFFFFFFFFFFFFFFFFF AND SUB PUSH3 0x121 JUMPI PUSH0 PUSH1 0x40 MLOAD PUSH32 0x1E4FBDF700000000000000000000000000000000000000000000000000000000 DUP2 MSTORE PUSH1 0x4 ADD PUSH3 0x118 SWAP2 SWAP1 PUSH3 0x87B JUMP JUMPDEST PUSH1 0x40 MLOAD DUP1 SWAP2 SUB SWAP1 REVERT JUMPDEST PUSH3 0x132 DUP2 PUSH3 0x177 PUSH1 0x20 SHL PUSH1 0x20 SHR JUMP JUMPDEST POP PUSH3 0x171 CALLER PUSH3 0x148 PUSH3 0x23A PUSH1 0x20 SHL PUSH1 0x20 SHR JUMP JUMPDEST PUSH1 0xA PUSH3 0x156 SWAP2 SWAP1 PUSH3 0xA1F JUMP JUMPDEST PUSH2 0x3E8 PUSH3 0x165 SWAP2 SWAP1 PUSH3 0xA6F JUMP JUMPDEST PUSH3 0x242 PUSH1 0x20 SHL PUSH1 0x20 SHR JUMP JUMPDEST PUSH3 0xB5A JUMP JUMPDEST PUSH0 PUSH1 0x5 PUSH0 SWAP1 SLOAD SWAP1 PUSH2 0x100 EXP SWAP1 DIV PUSH20 0xFFFFFFFFFFFFFFFFFFFFFFFFFFFFFFFFFFFFFFFF AND SWAP1 POP DUP2 PUSH1 0x5 PUSH0 PUSH2 0x100 EXP DUP2 SLOAD DUP2 PUSH20 0xFFFFFFFFFFFFFFFFFFFFFFFFFFFFFFFFFFFFFFFF MUL NOT AND SWAP1 DUP4 PUSH20 0xFFFFFFFFFFFFFFFFFFFFFFFFFFFFFFFFFFFFFFFF AND MUL OR SWAP1 SSTORE POP DUP2 PUSH20 0xFFFFFFFFFFFFFFFFFFFFFFFFFFFFFFFFFFFFFFFF AND DUP2 PUSH20 0xFFFFFFFFFFFFFFFFFFFFFFFFFFFFFFFFFFFFFFFF AND PUSH32 0x8BE0079C531659141344CD1FD0A4F28419497F9722A3DAAFE3B4186F6B6457E0 PUSH1 0x40 MLOAD PUSH1 0x40 MLOAD DUP1 SWAP2 SUB SWAP1 LOG3 POP POP JUMP JUMPDEST PUSH0 PUSH1 0x12 SWAP1 POP SWAP1 JUMP JUMPDEST PUSH0 PUSH20 0xFFFFFFFFFFFFFFFFFFFFFFFFFFFFFFFFFFFFFFFF AND DUP3 PUSH20 0xFFFFFFFFFFFFFFFFFFFFFFFFFFFFFFFFFFFFFFFF AND SUB PUSH3 0x2B5 JUMPI PUSH0 PUSH1 0x40 MLOAD PUSH32 0xEC442F0500000000000000000000000000000000000000000000000000000000 DUP2 MSTORE PUSH1 0x4 ADD PUSH3 0x2AC SWAP2 SWAP1 PUSH3 0x87B JUMP JUMPDEST PUSH1 0x40 MLOAD DUP1 SWAP2 SUB SWAP1 REVERT JUMPDEST PUSH3 0x2C8 PUSH0 DUP4 DUP4 PUSH3 0x2CC PUSH1 0x20 SHL PUSH1 0x20 SHR JUMP JUMPDEST POP POP JUMP JUMPDEST PUSH0 PUSH20 0xFFFFFFFFFFFFFFFFFFFFFFFFFFFFFFFFFFFFFFFF AND DUP4 PUSH20 0xFFFFFFFFFFFFFFFFFFFFFFFFFFFFFFFFFFFFFFFF AND SUB PUSH3 0x320 JUMPI DUP1 PUSH1 0x2 PUSH0 DUP3 DUP3 SLOAD PUSH3 0x313 SWAP2 SWAP1 PUSH3 0xAB9 JUMP JUMPDEST SWAP3 POP POP DUP2 SWAP1 SSTORE POP PUSH3 0x3F1 JUMP JUMPDEST PUSH0 DUP1 PUSH0 DUP6 PUSH20 0xFFFFFFFFFFFFFFFFFFFFFFFFFFFFFFFFFFFFFFFF AND PUSH20 0xFFFFFFFFFFFFFFFFFFFFFFFFFFFFFFFFFFFFFFFF AND DUP2 MSTORE PUSH1 0x20 ADD SWAP1 DUP2 MSTORE PUSH1 0x20 ADD PUSH0 KECCAK256 SLOAD SWAP1 POP DUP2 DUP2 LT ISZERO PUSH3 0x3AC JUMPI DUP4 DUP2 DUP4 PUSH1 0x40 MLOAD PUSH32 0xE450D38C00000000000000000000000000000000000000000000000000000000 DUP2 MSTORE PUSH1 0x4 ADD PUSH3 0x3A3 SWAP4 SWAP3 SWAP2 SWAP1 PUSH3 0xB04 JUMP JUMPDEST PUSH1 0x40 MLOAD DUP1 SWAP2 SUB SWAP1 REVERT JUMPDEST DUP2 DUP2 SUB PUSH0 DUP1 DUP7 PUSH20 0xFFFFFFFFFFFFFFFFFFFFFFFFFFFFFFFFFFFFFFFF AND PUSH20 0xFFFFFFFFFFFFFFFFFFFFFFFFFFFFFFFFFFFFFFFF AND DUP2 MSTORE PUSH1 0x20 ADD SWAP1 DUP2 MSTORE PUSH1 0x20 ADD PUSH0 KECCAK256 DUP2 SWAP1 SSTORE POP POP JUMPDEST PUSH0 PUSH20 0xFFFFFFFFFFFFFFFFFFFFFFFFFFFFFFFFFFFFFFFF AND DUP3 PUSH20 0xFFFFFFFFFFFFFFFFFFFFFFFFFFFFFFFFFFFFFFFF AND SUB PUSH3 0x43A JUMPI DUP1 PUSH1 0x2 PUSH0 DUP3 DUP3 SLOAD SUB SWAP3 POP POP DUP2 SWAP1 SSTORE POP PUSH3 0x484 JUMP JUMPDEST DUP1 PUSH0 DUP1 DUP5 PUSH20 0xFFFFFFFFFFFFFFFFFFFFFFFFFFFFFFFFFFFFFFFF AND PUSH20 0xFFFFFFFFFFFFFFFFFFFFFFFFFFFFFFFFFFFFFFFF AND DUP2 MSTORE PUSH1 0x20 ADD SWAP1 DUP2 MSTORE PUSH1 0x20 ADD PUSH0 KECCAK256 PUSH0 DUP3 DUP3 SLOAD ADD SWAP3 POP POP DUP2 SWAP1 SSTORE POP JUMPDEST DUP2 PUSH20 0xFFFFFFFFFFFFFFFFFFFFFFFFFFFFFFFFFFFFFFFF AND DUP4 PUSH20 0xFFFFFFFFFFFFFFFFFFFFFFFFFFFFFFFFFFFFFFFF AND PUSH32 0xDDF252AD1BE2C89B69C2B068FC378DAA952BA7F163C4A11628F55A4DF523B3EF DUP4 PUSH1 0x40 MLOAD PUSH3 0x4E3 SWAP2 SWAP1 PUSH3 0xB3F JUMP JUMPDEST PUSH1 0x40 MLOAD DUP1 SWAP2 SUB SWAP1 LOG3 POP POP POP JUMP JUMPDEST PUSH0 DUP2 MLOAD SWAP1 POP SWAP2 SWAP1 POP JUMP JUMPDEST PUSH32 0x4E487B7100000000000000000000000000000000000000000000000000000000 PUSH0 MSTORE PUSH1 0x41 PUSH1 0x4 MSTORE PUSH1 0x24 PUSH0 REVERT JUMPDEST PUSH32 0x4E487B7100000000000000000000000000000000000000000000000000000000 PUSH0 MSTORE PUSH1 0x22 PUSH1 0x4 MSTORE PUSH1 0x24 PUSH0 REVERT JUMPDEST PUSH0 PUSH1 0x2 DUP3 DIV SWAP1 POP PUSH1 0x1 DUP3 AND DUP1 PUSH3 0x56C JUMPI PUSH1 0x7F DUP3 AND SWAP2 POP JUMPDEST PUSH1 0x20 DUP3 LT DUP2 SUB PUSH3 0x582 JUMPI PUSH3 0x581 PUSH3 0x527 JUMP JUMPDEST JUMPDEST POP SWAP2 SWAP1 POP JUMP JUMPDEST PUSH0 DUP2 SWAP1 POP DUP2 PUSH0 MSTORE PUSH1 0x20 PUSH0 KECCAK256 SWAP1 POP SWAP2 SWAP1 POP JUMP JUMPDEST PUSH0 PUSH1 0x20 PUSH1 0x1F DUP4 ADD DIV SWAP1 POP SWAP2 SWAP1 POP JUMP JUMPDEST PUSH0 DUP3 DUP3 SHL SWAP1 POP SWAP3 SWAP2 POP POP JUMP JUMPDEST PUSH0 PUSH1 0x8 DUP4 MUL PUSH3 0x5E6 PUSH32 0xFFFFFFFFFFFFFFFFFFFFFFFFFFFFFFFFFFFFFFFFFFFFFFFFFFFFFFFFFFFFFFFF DUP3 PUSH3 0x5A9 JUMP JUMPDEST PUSH3 0x5F2 DUP7 DUP4 PUSH3 0x5A9 JUMP JUMPDEST SWAP6 POP DUP1 NOT DUP5 AND SWAP4 POP DUP1 DUP7 AND DUP5 OR SWAP3 POP POP POP SWAP4 SWAP3 POP POP POP JUMP JUMPDEST PUSH0 DUP2 SWAP1 POP SWAP2 SWAP1 POP JUMP JUMPDEST PUSH0 DUP2 SWAP1 POP SWAP2 SWAP1 POP JUMP JUMPDEST PUSH0 PUSH3 0x63C PUSH3 0x636 PUSH3 0x630 DUP5 PUSH3 0x60A JUMP JUMPDEST PUSH3 0x613 JUMP JUMPDEST PUSH3 0x60A JUMP JUMPDEST SWAP1 POP SWAP2 SWAP1 POP JUMP JUMPDEST PUSH0 DUP2 SWAP1 POP SWAP2 SWAP1 POP JUMP JUMPDEST PUSH3 0x657 DUP4 PUSH3 0x61C JUMP JUMPDEST PUSH3 0x66F PUSH3 0x666 DUP3 PUSH3 0x643 JUMP JUMPDEST DUP5 DUP5 SLOAD PUSH3 0x5B5 JUMP JUMPDEST DUP3 SSTORE POP POP POP POP JUMP JUMPDEST PUSH0 SWAP1 JUMP JUMPDEST PUSH3 0x685 PUSH3 0x677 JUMP JUMPDEST PUSH3 0x692 DUP2 DUP5 DUP5 PUSH3 0x64C JUMP JUMPDEST POP POP POP JUMP JUMPDEST JUMPDEST DUP2 DUP2 LT ISZERO PUSH3 0x6B9 JUMPI PUSH3 0x6AD PUSH0 DUP3 PUSH3 0x67B JUMP JUMPDEST PUSH1 0x1 DUP2 ADD SWAP1 POP PUSH3 0x698 JUMP JUMPDEST POP POP JUMP JUMPDEST PUSH1 0x1F DUP3 GT ISZERO PUSH3 0x708 JUMPI PUSH3 0x6D2 DUP2 PUSH3 0x588 JUMP JUMPDEST PUSH3 0x6DD DUP5 PUSH3 0x59A JUMP JUMPDEST DUP2 ADD PUSH1 0x20 DUP6 LT ISZERO PUSH3 0x6ED JUMPI DUP2 SWAP1 POP JUMPDEST PUSH3 0x705 PUSH3 0x6FC DUP6 PUSH3 0x59A JUMP JUMPDEST DUP4 ADD DUP3 PUSH3 0x697 JUMP JUMPDEST POP POP JUMPDEST POP POP POP JUMP JUMPDEST PUSH0 DUP3 DUP3 SHR SWAP1 POP SWAP3 SWAP2 POP POP JUMP JUMPDEST PUSH0 PUSH3 0x72A PUSH0 NOT DUP5 PUSH1 0x8 MUL PUSH3 0x70D JUMP JUMPDEST NOT DUP1 DUP4 AND SWAP2 POP POP SWAP3 SWAP2 POP POP JUMP JUMPDEST PUSH0 PUSH3 0x744 DUP4 DUP4 PUSH3 0x719 JUMP JUMPDEST SWAP2 POP DUP3 PUSH1 0x2 MUL DUP3 OR SWAP1 POP SWAP3 SWAP2 POP POP JUMP JUMPDEST PUSH3 0x75F DUP3 PUSH3 0x4F0 JUMP JUMPDEST PUSH8 0xFFFFFFFFFFFFFFFF DUP2 GT ISZERO PUSH3 0x77B JUMPI PUSH3 0x77A PUSH3 0x4FA JUMP JUMPDEST JUMPDEST PUSH3 0x787 DUP3 SLOAD PUSH3 0x554 JUMP JUMPDEST PUSH3 0x794 DUP3 DUP3 DUP6 PUSH3 0x6BD JUMP JUMPDEST PUSH0 PUSH1 0x20 SWAP1 POP PUSH1 0x1F DUP4 GT PUSH1 0x1 DUP2 EQ PUSH3 0x7CA JUMPI PUSH0 DUP5 ISZERO PUSH3 0x7B5 JUMPI DUP3 DUP8 ADD MLOAD SWAP1 POP JUMPDEST PUSH3 0x7C1 DUP6 DUP3 PUSH3 0x737 JUMP JUMPDEST DUP7 SSTORE POP PUSH3 0x830 JUMP JUMPDEST PUSH1 0x1F NOT DUP5 AND PUSH3 0x7DA DUP7 PUSH3 0x588 JUMP JUMPDEST PUSH0 JUMPDEST DUP3 DUP2 LT ISZERO PUSH3 0x803 JUMPI DUP5 DUP10 ADD MLOAD DUP3 SSTORE PUSH1 0x1 DUP3 ADD SWAP2 POP PUSH1 0x20 DUP6 ADD SWAP5 POP PUSH1 0x20 DUP2 ADD SWAP1 POP PUSH3 0x7DC JUMP JUMPDEST DUP7 DUP4 LT ISZERO PUSH3 0x823 JUMPI DUP5 DUP10 ADD MLOAD PUSH3 0x81F PUSH1 0x1F DUP10 AND DUP3 PUSH3 0x719 JUMP JUMPDEST DUP4 SSTORE POP JUMPDEST PUSH1 0x1 PUSH1 0x2 DUP9 MUL ADD DUP9 SSTORE POP POP POP JUMPDEST POP POP POP POP POP POP JUMP JUMPDEST PUSH0 PUSH20 0xFFFFFFFFFFFFFFFFFFFFFFFFFFFFFFFFFFFFFFFF DUP3 AND SWAP1 POP SWAP2 SWAP1 POP JUMP JUMPDEST PUSH0 PUSH3 0x863 DUP3 PUSH3 0x838 JUMP JUMPDEST SWAP1 POP SWAP2 SWAP1 POP JUMP JUMPDEST PUSH3 0x875 DUP2 PUSH3 0x857 JUMP JUMPDEST DUP3 MSTORE POP POP JUMP JUMPDEST PUSH0 PUSH1 0x20 DUP3 ADD SWAP1 POP PUSH3 0x890 PUSH0 DUP4 ADD DUP5 PUSH3 0x86A JUMP JUMPDEST SWAP3 SWAP2 POP POP JUMP JUMPDEST PUSH32 0x4E487B7100000000000000000000000000000000000000000000000000000000 PUSH0 MSTORE PUSH1 0x11 PUSH1 0x4 MSTORE PUSH1 0x24 PUSH0 REVERT JUMPDEST PUSH0 DUP2 PUSH1 0x1 SHR SWAP1 POP SWAP2 SWAP1 POP JUMP JUMPDEST PUSH0 DUP1 DUP3 SWAP2 POP DUP4 SWAP1 POP JUMPDEST PUSH1 0x1 DUP6 GT ISZERO PUSH3 0x920 JUMPI DUP1 DUP7 DIV DUP2 GT ISZERO PUSH3 0x8F8 JUMPI PUSH3 0x8F7 PUSH3 0x896 JUMP JUMPDEST JUMPDEST PUSH1 0x1 DUP6 AND ISZERO PUSH3 0x908 JUMPI DUP1 DUP3 MUL SWAP2 POP JUMPDEST DUP1 DUP2 MUL SWAP1 POP PUSH3 0x918 DUP6 PUSH3 0x8C3 JUMP JUMPDEST SWAP5 POP PUSH3 0x8D8 JUMP JUMPDEST SWAP5 POP SWAP5 SWAP3 POP POP POP JUMP JUMPDEST PUSH0 DUP3 PUSH3 0x93A JUMPI PUSH1 0x1 SWAP1 POP PUSH3 0xA0C JUMP JUMPDEST DUP2 PUSH3 0x949 JUMPI PUSH0 SWAP1 POP PUSH3 0xA0C JUMP JUMPDEST DUP2 PUSH1 0x1 DUP2 EQ PUSH3 0x962 JUMPI PUSH1 0x2 DUP2 EQ PUSH3 0x96D JUMPI PUSH3 0x9A3 JUMP JUMPDEST PUSH1 0x1 SWAP2 POP POP PUSH3 0xA0C JUMP JUMPDEST PUSH1 0xFF DUP5 GT ISZERO PUSH3 0x982 JUMPI PUSH3 0x981 PUSH3 0x896 JUMP JUMPDEST JUMPDEST DUP4 PUSH1 0x2 EXP SWAP2 POP DUP5 DUP3 GT ISZERO PUSH3 0x99C JUMPI PUSH3 0x99B PUSH3 0x896 JUMP JUMPDEST JUMPDEST POP PUSH3 0xA0C JUMP JUMPDEST POP PUSH1 0x20 DUP4 LT PUSH2 0x133 DUP4 LT AND PUSH1 0x4E DUP5 LT PUSH1 0xB DUP5 LT AND OR ISZERO PUSH3 0x9DD JUMPI DUP3 DUP3 EXP SWAP1 POP DUP4 DUP2 GT ISZERO PUSH3 0x9D7 JUMPI PUSH3 0x9D6 PUSH3 0x896 JUMP JUMPDEST JUMPDEST PUSH3 0xA0C JUMP JUMPDEST PUSH3 0x9EC DUP5 DUP5 DUP5 PUSH1 0x1 PUSH3 0x8CF JUMP JUMPDEST SWAP3 POP SWAP1 POP DUP2 DUP5 DIV DUP2 GT ISZERO PUSH3 0xA06 JUMPI PUSH3 0xA05 PUSH3 0x896 JUMP JUMPDEST JUMPDEST DUP2 DUP2 MUL SWAP1 POP JUMPDEST SWAP4 SWAP3 POP POP POP JUMP JUMPDEST PUSH0 PUSH1 0xFF DUP3 AND SWAP1 POP SWAP2 SWAP1 POP JUMP JUMPDEST PUSH0 PUSH3 0xA2B DUP3 PUSH3 0x60A JUMP JUMPDEST SWAP2 POP PUSH3 0xA38 DUP4 PUSH3 0xA13 JUMP JUMPDEST SWAP3 POP PUSH3 0xA67 PUSH32 0xFFFFFFFFFFFFFFFFFFFFFFFFFFFFFFFFFFFFFFFFFFFFFFFFFFFFFFFFFFFFFFFF DUP5 DUP5 PUSH3 0x929 JUMP JUMPDEST SWAP1 POP SWAP3 SWAP2 POP POP JUMP JUMPDEST PUSH0 PUSH3 0xA7B DUP3 PUSH3 0x60A JUMP JUMPDEST SWAP2 POP PUSH3 0xA88 DUP4 PUSH3 0x60A JUMP JUMPDEST SWAP3 POP DUP3 DUP3 MUL PUSH3 0xA98 DUP2 PUSH3 0x60A JUMP JUMPDEST SWAP2 POP DUP3 DUP3 DIV DUP5 EQ DUP4 ISZERO OR PUSH3 0xAB2 JUMPI PUSH3 0xAB1 PUSH3 0x896 JUMP JUMPDEST JUMPDEST POP SWAP3 SWAP2 POP POP JUMP JUMPDEST PUSH0 PUSH3 0xAC5 DUP3 PUSH3 0x60A JUMP JUMPDEST SWAP2 POP PUSH3 0xAD2 DUP4 PUSH3 0x60A JUMP JUMPDEST SWAP3 POP DUP3 DUP3 ADD SWAP1 POP DUP1 DUP3 GT ISZERO PUSH3 0xAED JUMPI PUSH3 0xAEC PUSH3 0x896 JUMP JUMPDEST JUMPDEST SWAP3 SWAP2 POP POP JUMP JUMPDEST PUSH3 0xAFE DUP2 PUSH3 0x60A JUMP JUMPDEST DUP3 MSTORE POP POP JUMP JUMPDEST PUSH0 PUSH1 0x60 DUP3 ADD SWAP1 POP PUSH3 0xB19 PUSH0 DUP4 ADD DUP7 PUSH3 0x86A JUMP JUMPDEST PUSH3 0xB28 PUSH1 0x20 DUP4 ADD DUP6 PUSH3 0xAF3 JUMP JUMPDEST PUSH3 0xB37 PUSH1 0x40 DUP4 ADD DUP5 PUSH3 0xAF3 JUMP JUMPDEST SWAP5 SWAP4 POP POP POP POP JUMP JUMPDEST PUSH0 PUSH1 0x20 DUP3 ADD SWAP1 POP PUSH3 0xB54 PUSH0 DUP4 ADD DUP5 PUSH3 0xAF3 JUMP JUMPDEST SWAP3 SWAP2 POP POP JUMP JUMPDEST PUSH2 0x2180 DUP1 PUSH3 0xB68 PUSH0 CODECOPY PUSH0 RETURN INVALID PUSH1 0x80 PUSH1 0x40 MSTORE PUSH1 0x4 CALLDATASIZE LT PUSH2 0x12D JUMPI PUSH0 CALLDATALOAD PUSH1 0xE0 SHR DUP1 PUSH4 0x95D89B41 GT PUSH2 0xAA JUMPI DUP1 PUSH4 0xD637DCFA GT PUSH2 0x6E JUMPI DUP1 PUSH4 0xD637DCFA EQ PUSH2 0x3F0 JUMPI DUP1 PUSH4 0xD96A094A EQ PUSH2 0x418 JUMPI DUP1 PUSH4 0xDD62ED3E EQ PUSH2 0x434 JUMPI DUP1 PUSH4 0xE4849B32 EQ PUSH2 0x470 JUMPI DUP1 PUSH4 0xF2FDE38B EQ PUSH2 0x498 JUMPI DUP1 PUSH4 0xFC37987B EQ PUSH2 0x4C0 JUMPI PUSH2 0x134 JUMP JUMPDEST DUP1 PUSH4 0x95D89B41 EQ PUSH2 0x312 JUMPI DUP1 PUSH4 0xA9059CBB EQ PUSH2 0x33C JUMPI DUP1 PUSH4 0xAC6AF280 EQ PUSH2 0x378 JUMPI DUP1 PUSH4 0xCB797836 EQ PUSH2 0x3A0 JUMPI DUP1 PUSH4 0xD0679D34 EQ PUSH2 0x3C8 JUMPI PUSH2 0x134 JUMP JUMPDEST DUP1 PUSH4 0x6217229B GT PUSH2 0xF1 JUMPI DUP1 PUSH4 0x6217229B EQ PUSH2 0x22E JUMPI DUP1 PUSH4 0x6386C1C7 EQ PUSH2 0x258 JUMPI DUP1 PUSH4 0x70A08231 EQ PUSH2 0x296 JUMPI DUP1 PUSH4 0x715018A6 EQ PUSH2 0x2D2 JUMPI DUP1 PUSH4 0x8DA5CB5B EQ PUSH2 0x2E8 JUMPI PUSH2 0x134 JUMP JUMPDEST DUP1 PUSH4 0x6FDDE03 EQ PUSH2 0x138 JUMPI DUP1 PUSH4 0x95EA7B3 EQ PUSH2 0x162 JUMPI DUP1 PUSH4 0x18160DDD EQ PUSH2 0x19E JUMPI DUP1 PUSH4 0x23B872DD EQ PUSH2 0x1C8 JUMPI DUP1 PUSH4 0x313CE567 EQ PUSH2 0x204 JUMPI PUSH2 0x134 JUMP JUMPDEST CALLDATASIZE PUSH2 0x134 JUMPI STOP JUMPDEST PUSH0 DUP1 REVERT JUMPDEST CALLVALUE DUP1 ISZERO PUSH2 0x143 JUMPI PUSH0 DUP1 REVERT JUMPDEST POP PUSH2 0x14C PUSH2 0x4EA JUMP JUMPDEST PUSH1 0x40 MLOAD PUSH2 0x159 SWAP2 SWAP1 PUSH2 0x1546 JUMP JUMPDEST PUSH1 0x40 MLOAD DUP1 SWAP2 SUB SWAP1 RETURN JUMPDEST CALLVALUE DUP1 ISZERO PUSH2 0x16D JUMPI PUSH0 DUP1 REVERT JUMPDEST POP PUSH2 0x188 PUSH1 0x4 DUP1 CALLDATASIZE SUB DUP2 ADD SWAP1 PUSH2 0x183 SWAP2 SWAP1 PUSH2 0x1604 JUMP JUMPDEST PUSH2 0x57A JUMP JUMPDEST PUSH1 0x40 MLOAD PUSH2 0x195 SWAP2 SWAP1 PUSH2 0x165C JUMP JUMPDEST PUSH1 0x40 MLOAD DUP1 SWAP2 SUB SWAP1 RETURN JUMPDEST CALLVALUE DUP1 ISZERO PUSH2 0x1A9 JUMPI PUSH0 DUP1 REVERT JUMPDEST POP PUSH2 0x1B2 PUSH2 0x59C JUMP JUMPDEST PUSH1 0x40 MLOAD PUSH2 0x1BF SWAP2 SWAP1 PUSH2 0x1684 JUMP JUMPDEST PUSH1 0x40 MLOAD DUP1 SWAP2 SUB SWAP1 RETURN JUMPDEST CALLVALUE DUP1 ISZERO PUSH2 0x1D3 JUMPI PUSH0 DUP1 REVERT JUMPDEST POP PUSH2 0x1EE PUSH1 0x4 DUP1 CALLDATASIZE SUB DUP2 ADD SWAP1 PUSH2 0x1E9 SWAP2 SWAP1 PUSH2 0x169D JUMP JUMPDEST PUSH2 0x5A5 JUMP JUMPDEST PUSH1 0x40 MLOAD PUSH2 0x1FB SWAP2 SWAP1 PUSH2 0x165C JUMP JUMPDEST PUSH1 0x40 MLOAD DUP1 SWAP2 SUB SWAP1 RETURN JUMPDEST CALLVALUE DUP1 ISZERO PUSH2 0x20F JUMPI PUSH0 DUP1 REVERT JUMPDEST POP PUSH2 0x218 PUSH2 0x5D3 JUMP JUMPDEST PUSH1 0x40 MLOAD PUSH2 0x225 SWAP2 SWAP1 PUSH2 0x1708 JUMP JUMPDEST PUSH1 0x40 MLOAD DUP1 SWAP2 SUB SWAP1 RETURN JUMPDEST CALLVALUE DUP1 ISZERO PUSH2 0x239 JUMPI PUSH0 DUP1 REVERT JUMPDEST POP PUSH2 0x242 PUSH2 0x5DB JUMP JUMPDEST PUSH1 0x40 MLOAD PUSH2 0x24F SWAP2 SWAP1 PUSH2 0x1684 JUMP JUMPDEST PUSH1 0x40 MLOAD DUP1 SWAP2 SUB SWAP1 RETURN JUMPDEST CALLVALUE DUP1 ISZERO PUSH2 0x263 JUMPI PUSH0 DUP1 REVERT JUMPDEST POP PUSH2 0x27E PUSH1 0x4 DUP1 CALLDATASIZE SUB DUP2 ADD SWAP1 PUSH2 0x279 SWAP2 SWAP1 PUSH2 0x1721 JUMP JUMPDEST PUSH2 0x5E1 JUMP JUMPDEST PUSH1 0x40 MLOAD PUSH2 0x28D SWAP4 SWAP3 SWAP2 SWAP1 PUSH2 0x174C JUMP JUMPDEST PUSH1 0x40 MLOAD DUP1 SWAP2 SUB SWAP1 RETURN JUMPDEST CALLVALUE DUP1 ISZERO PUSH2 0x2A1 JUMPI PUSH0 DUP1 REVERT JUMPDEST POP PUSH2 0x2BC PUSH1 0x4 DUP1 CALLDATASIZE SUB DUP2 ADD SWAP1 PUSH2 0x2B7 SWAP2 SWAP1 PUSH2 0x1721 JUMP JUMPDEST PUSH2 0x7FC JUMP JUMPDEST PUSH1 0x40 MLOAD PUSH2 0x2C9 SWAP2 SWAP1 PUSH2 0x1684 JUMP JUMPDEST PUSH1 0x40 MLOAD DUP1 SWAP2 SUB SWAP1 RETURN JUMPDEST CALLVALUE DUP1 ISZERO PUSH2 0x2DD JUMPI PUSH0 DUP1 REVERT JUMPDEST POP PUSH2 0x2E6 PUSH2 0x841 JUMP JUMPDEST STOP JUMPDEST CALLVALUE DUP1 ISZERO PUSH2 0x2F3 JUMPI PUSH0 DUP1 REVERT JUMPDEST POP PUSH2 0x2FC PUSH2 0x854 JUMP JUMPDEST PUSH1 0x40 MLOAD PUSH2 0x309 SWAP2 SWAP1 PUSH2 0x17A5 JUMP JUMPDEST PUSH1 0x40 MLOAD DUP1 SWAP2 SUB SWAP1 RETURN JUMPDEST CALLVALUE DUP1 ISZERO PUSH2 0x31D JUMPI PUSH0 DUP1 REVERT JUMPDEST POP PUSH2 0x326 PUSH2 0x87C JUMP JUMPDEST PUSH1 0x40 MLOAD PUSH2 0x333 SWAP2 SWAP1 PUSH2 0x1546 JUMP JUMPDEST PUSH1 0x40 MLOAD DUP1 SWAP2 SUB SWAP1 RETURN JUMPDEST CALLVALUE DUP1 ISZERO PUSH2 0x347 JUMPI PUSH0 DUP1 REVERT JUMPDEST POP PUSH2 0x362 PUSH1 0x4 DUP1 CALLDATASIZE SUB DUP2 ADD SWAP1 PUSH2 0x35D SWAP2 SWAP1 PUSH2 0x1604 JUMP JUMPDEST PUSH2 0x90C JUMP JUMPDEST PUSH1 0x40 MLOAD PUSH2 0x36F SWAP2 SWAP1 PUSH2 0x165C JUMP JUMPDEST PUSH1 0x40 MLOAD DUP1 SWAP2 SUB SWAP1 RETURN JUMPDEST CALLVALUE DUP1 ISZERO PUSH2 0x383 JUMPI PUSH0 DUP1 REVERT JUMPDEST POP PUSH2 0x39E PUSH1 0x4 DUP1 CALLDATASIZE SUB DUP2 ADD SWAP1 PUSH2 0x399 SWAP2 SWAP1 PUSH2 0x17BE JUMP JUMPDEST PUSH2 0x92E JUMP JUMPDEST STOP JUMPDEST CALLVALUE DUP1 ISZERO PUSH2 0x3AB JUMPI PUSH0 DUP1 REVERT JUMPDEST POP PUSH2 0x3C6 PUSH1 0x4 DUP1 CALLDATASIZE SUB DUP2 ADD SWAP1 PUSH2 0x3C1 SWAP2 SWAP1 PUSH2 0x17FC JUMP JUMPDEST PUSH2 0x948 JUMP JUMPDEST STOP JUMPDEST CALLVALUE DUP1 ISZERO PUSH2 0x3D3 JUMPI PUSH0 DUP1 REVERT JUMPDEST POP PUSH2 0x3EE PUSH1 0x4 DUP1 CALLDATASIZE SUB DUP2 ADD SWAP1 PUSH2 0x3E9 SWAP2 SWAP1 PUSH2 0x1604 JUMP JUMPDEST PUSH2 0x965 JUMP JUMPDEST STOP JUMPDEST CALLVALUE DUP1 ISZERO PUSH2 0x3FB JUMPI PUSH0 DUP1 REVERT JUMPDEST POP PUSH2 0x416 PUSH1 0x4 DUP1 CALLDATASIZE SUB DUP2 ADD SWAP1 PUSH2 0x411 SWAP2 SWAP1 PUSH2 0x1953 JUMP JUMPDEST PUSH2 0x974 JUMP JUMPDEST STOP JUMPDEST PUSH2 0x432 PUSH1 0x4 DUP1 CALLDATASIZE SUB DUP2 ADD SWAP1 PUSH2 0x42D SWAP2 SWAP1 PUSH2 0x17FC JUMP JUMPDEST PUSH2 0xA9A JUMP JUMPDEST STOP JUMPDEST CALLVALUE DUP1 ISZERO PUSH2 0x43F JUMPI PUSH0 DUP1 REVERT JUMPDEST POP PUSH2 0x45A PUSH1 0x4 DUP1 CALLDATASIZE SUB DUP2 ADD SWAP1 PUSH2 0x455 SWAP2 SWAP1 PUSH2 0x19F7 JUMP JUMPDEST PUSH2 0xB19 JUMP JUMPDEST PUSH1 0x40 MLOAD PUSH2 0x467 SWAP2 SWAP1 PUSH2 0x1684 JUMP JUMPDEST PUSH1 0x40 MLOAD DUP1 SWAP2 SUB SWAP1 RETURN JUMPDEST CALLVALUE DUP1 ISZERO PUSH2 0x47B JUMPI PUSH0 DUP1 REVERT JUMPDEST POP PUSH2 0x496 PUSH1 0x4 DUP1 CALLDATASIZE SUB DUP2 ADD SWAP1 PUSH2 0x491 SWAP2 SWAP1 PUSH2 0x17FC JUMP JUMPDEST PUSH2 0xB9B JUMP JUMPDEST STOP JUMPDEST CALLVALUE DUP1 ISZERO PUSH2 0x4A3 JUMPI PUSH0 DUP1 REVERT JUMPDEST POP PUSH2 0x4BE PUSH1 0x4 DUP1 CALLDATASIZE SUB DUP2 ADD SWAP1 PUSH2 0x4B9 SWAP2 SWAP1 PUSH2 0x1721 JUMP JUMPDEST PUSH2 0xC67 JUMP JUMPDEST STOP JUMPDEST CALLVALUE DUP1 ISZERO PUSH2 0x4CB JUMPI PUSH0 DUP1 REVERT JUMPDEST POP PUSH2 0x4D4 PUSH2 0xCEB JUMP JUMPDEST PUSH1 0x40 MLOAD PUSH2 0x4E1 SWAP2 SWAP1 PUSH2 0x1684 JUMP JUMPDEST PUSH1 0x40 MLOAD DUP1 SWAP2 SUB SWAP1 RETURN JUMPDEST PUSH1 0x60 PUSH1 0x3 DUP1 SLOAD PUSH2 0x4F9 SWAP1 PUSH2 0x1A62 JUMP JUMPDEST DUP1 PUSH1 0x1F ADD PUSH1 0x20 DUP1 SWAP2 DIV MUL PUSH1 0x20 ADD PUSH1 0x40 MLOAD SWAP1 DUP2 ADD PUSH1 0x40 MSTORE DUP1 SWAP3 SWAP2 SWAP1 DUP2 DUP2 MSTORE PUSH1 0x20 ADD DUP3 DUP1 SLOAD PUSH2 0x525 SWAP1 PUSH2 0x1A62 JUMP JUMPDEST DUP1 ISZERO PUSH2 0x570 JUMPI DUP1 PUSH1 0x1F LT PUSH2 0x547 JUMPI PUSH2 0x100 DUP1 DUP4 SLOAD DIV MUL DUP4 MSTORE SWAP2 PUSH1 0x20 ADD SWAP2 PUSH2 0x570 JUMP JUMPDEST DUP3 ADD SWAP2 SWAP1 PUSH0 MSTORE PUSH1 0x20 PUSH0 KECCAK256 SWAP1 JUMPDEST DUP2 SLOAD DUP2 MSTORE SWAP1 PUSH1 0x1 ADD SWAP1 PUSH1 0x20 ADD DUP1 DUP4 GT PUSH2 0x553 JUMPI DUP3 SWAP1 SUB PUSH1 0x1F AND DUP3 ADD SWAP2 JUMPDEST POP POP POP POP POP SWAP1 POP SWAP1 JUMP JUMPDEST PUSH0 DUP1 PUSH2 0x584 PUSH2 0xCF1 JUMP JUMPDEST SWAP1 POP PUSH2 0x591 DUP2 DUP6 DUP6 PUSH2 0xCF8 JUMP JUMPDEST PUSH1 0x1 SWAP2 POP POP SWAP3 SWAP2 POP POP JUMP JUMPDEST PUSH0 PUSH1 0x2 SLOAD SWAP1 POP SWAP1 JUMP JUMPDEST PUSH0 DUP1 PUSH2 0x5AF PUSH2 0xCF1 JUMP JUMPDEST SWAP1 POP PUSH2 0x5BC DUP6 DUP3 DUP6 PUSH2 0xD0A JUMP JUMPDEST PUSH2 0x5C7 DUP6 DUP6 DUP6 PUSH2 0xD9C JUMP JUMPDEST PUSH1 0x1 SWAP2 POP POP SWAP4 SWAP3 POP POP POP JUMP JUMPDEST PUSH0 PUSH1 0x12 SWAP1 POP SWAP1 JUMP JUMPDEST PUSH1 0x6 SLOAD DUP2 JUMP JUMPDEST PUSH1 0x60 DUP1 PUSH1 0x60 PUSH0 PUSH1 0x8 PUSH0 DUP7 PUSH20 0xFFFFFFFFFFFFFFFFFFFFFFFFFFFFFFFFFFFFFFFF AND PUSH20 0xFFFFFFFFFFFFFFFFFFFFFFFFFFFFFFFFFFFFFFFF AND DUP2 MSTORE PUSH1 0x20 ADD SWAP1 DUP2 MSTORE PUSH1 0x20 ADD PUSH0 KECCAK256 PUSH1 0x40 MLOAD DUP1 PUSH1 0x60 ADD PUSH1 0x40 MSTORE SWAP1 DUP2 PUSH0 DUP3 ADD DUP1 SLOAD PUSH2 0x63E SWAP1 PUSH2 0x1A62 JUMP JUMPDEST DUP1 PUSH1 0x1F ADD PUSH1 0x20 DUP1 SWAP2 DIV MUL PUSH1 0x20 ADD PUSH1 0x40 MLOAD SWAP1 DUP2 ADD PUSH1 0x40 MSTORE DUP1 SWAP3 SWAP2 SWAP1 DUP2 DUP2 MSTORE PUSH1 0x20 ADD DUP3 DUP1 SLOAD PUSH2 0x66A SWAP1 PUSH2 0x1A62 JUMP JUMPDEST DUP1 ISZERO PUSH2 0x6B5 JUMPI DUP1 PUSH1 0x1F LT PUSH2 0x68C JUMPI PUSH2 0x100 DUP1 DUP4 SLOAD DIV MUL DUP4 MSTORE SWAP2 PUSH1 0x20 ADD SWAP2 PUSH2 0x6B5 JUMP JUMPDEST DUP3 ADD SWAP2 SWAP1 PUSH0 MSTORE PUSH1 0x20 PUSH0 KECCAK256 SWAP1 JUMPDEST DUP2 SLOAD DUP2 MSTORE SWAP1 PUSH1 0x1 ADD SWAP1 PUSH1 0x20 ADD DUP1 DUP4 GT PUSH2 0x698 JUMPI DUP3 SWAP1 SUB PUSH1 0x1F AND DUP3 ADD SWAP2 JUMPDEST POP POP POP POP POP DUP2 MSTORE PUSH1 0x20 ADD PUSH1 0x1 DUP3 ADD DUP1 SLOAD PUSH2 0x6CE SWAP1 PUSH2 0x1A62 JUMP JUMPDEST DUP1 PUSH1 0x1F ADD PUSH1 0x20 DUP1 SWAP2 DIV MUL PUSH1 0x20 ADD PUSH1 0x40 MLOAD SWAP1 DUP2 ADD PUSH1 0x40 MSTORE DUP1 SWAP3 SWAP2 SWAP1 DUP2 DUP2 MSTORE PUSH1 0x20 ADD DUP3 DUP1 SLOAD PUSH2 0x6FA SWAP1 PUSH2 0x1A62 JUMP JUMPDEST DUP1 ISZERO PUSH2 0x745 JUMPI DUP1 PUSH1 0x1F LT PUSH2 0x71C JUMPI PUSH2 0x100 DUP1 DUP4 SLOAD DIV MUL DUP4 MSTORE SWAP2 PUSH1 0x20 ADD SWAP2 PUSH2 0x745 JUMP JUMPDEST DUP3 ADD SWAP2 SWAP1 PUSH0 MSTORE PUSH1 0x20 PUSH0 KECCAK256 SWAP1 JUMPDEST DUP2 SLOAD DUP2 MSTORE SWAP1 PUSH1 0x1 ADD SWAP1 PUSH1 0x20 ADD DUP1 DUP4 GT PUSH2 0x728 JUMPI DUP3 SWAP1 SUB PUSH1 0x1F AND DUP3 ADD SWAP2 JUMPDEST POP POP POP POP POP DUP2 MSTORE PUSH1 0x20 ADD PUSH1 0x2 DUP3 ADD DUP1 SLOAD PUSH2 0x75E SWAP1 PUSH2 0x1A62 JUMP JUMPDEST DUP1 PUSH1 0x1F ADD PUSH1 0x20 DUP1 SWAP2 DIV MUL PUSH1 0x20 ADD PUSH1 0x40 MLOAD SWAP1 DUP2 ADD PUSH1 0x40 MSTORE DUP1 SWAP3 SWAP2 SWAP1 DUP2 DUP2 MSTORE PUSH1 0x20 ADD DUP3 DUP1 SLOAD PUSH2 0x78A SWAP1 PUSH2 0x1A62 JUMP JUMPDEST DUP1 ISZERO PUSH2 0x7D5 JUMPI DUP1 PUSH1 0x1F LT PUSH2 0x7AC JUMPI PUSH2 0x100 DUP1 DUP4 SLOAD DIV MUL DUP4 MSTORE SWAP2 PUSH1 0x20 ADD SWAP2 PUSH2 0x7D5 JUMP JUMPDEST DUP3 ADD SWAP2 SWAP1 PUSH0 MSTORE PUSH1 0x20 PUSH0 KECCAK256 SWAP1 JUMPDEST DUP2 SLOAD DUP2 MSTORE SWAP1 PUSH1 0x1 ADD SWAP1 PUSH1 0x20 ADD DUP1 DUP4 GT PUSH2 0x7B8 JUMPI DUP3 SWAP1 SUB PUSH1 0x1F AND DUP3 ADD SWAP2 JUMPDEST POP POP POP POP POP DUP2 MSTORE POP POP SWAP1 POP DUP1 PUSH0 ADD MLOAD DUP2 PUSH1 0x20 ADD MLOAD DUP3 PUSH1 0x40 ADD MLOAD SWAP4 POP SWAP4 POP SWAP4 POP POP SWAP2 SWAP4 SWAP1 SWAP3 POP JUMP JUMPDEST PUSH0 DUP1 PUSH0 DUP4 PUSH20 0xFFFFFFFFFFFFFFFFFFFFFFFFFFFFFFFFFFFFFFFF AND PUSH20 0xFFFFFFFFFFFFFFFFFFFFFFFFFFFFFFFFFFFFFFFF AND DUP2 MSTORE PUSH1 0x20 ADD SWAP1 DUP2 MSTORE PUSH1 0x20 ADD PUSH0 KECCAK256 SLOAD SWAP1 POP SWAP2 SWAP1 POP JUMP JUMPDEST PUSH2 0x849 PUSH2 0xE8C JUMP JUMPDEST PUSH2 0x852 PUSH0 PUSH2 0xF13 JUMP JUMPDEST JUMP JUMPDEST PUSH0 PUSH1 0x5 PUSH0 SWAP1 SLOAD SWAP1 PUSH2 0x100 EXP SWAP1 DIV PUSH20 0xFFFFFFFFFFFFFFFFFFFFFFFFFFFFFFFFFFFFFFFF AND SWAP1 POP SWAP1 JUMP JUMPDEST PUSH1 0x60 PUSH1 0x4 DUP1 SLOAD PUSH2 0x88B SWAP1 PUSH2 0x1A62 JUMP JUMPDEST DUP1 PUSH1 0x1F ADD PUSH1 0x20 DUP1 SWAP2 DIV MUL PUSH1 0x20 ADD PUSH1 0x40 MLOAD SWAP1 DUP2 ADD PUSH1 0x40 MSTORE DUP1 SWAP3 SWAP2 SWAP1 DUP2 DUP2 MSTORE PUSH1 0x20 ADD DUP3 DUP1 SLOAD PUSH2 0x8B7 SWAP1 PUSH2 0x1A62 JUMP JUMPDEST DUP1 ISZERO PUSH2 0x902 JUMPI DUP1 PUSH1 0x1F LT PUSH2 0x8D9 JUMPI PUSH2 0x100 DUP1 DUP4 SLOAD DIV MUL DUP4 MSTORE SWAP2 PUSH1 0x20 ADD SWAP2 PUSH2 0x902 JUMP JUMPDEST DUP3 ADD SWAP2 SWAP1 PUSH0 MSTORE PUSH1 0x20 PUSH0 KECCAK256 SWAP1 JUMPDEST DUP2 SLOAD DUP2 MSTORE SWAP1 PUSH1 0x1 ADD SWAP1 PUSH1 0x20 ADD DUP1 DUP4 GT PUSH2 0x8E5 JUMPI DUP3 SWAP1 SUB PUSH1 0x1F AND DUP3 ADD SWAP2 JUMPDEST POP POP POP POP POP SWAP1 POP SWAP1 JUMP JUMPDEST PUSH0 DUP1 PUSH2 0x916 PUSH2 0xCF1 JUMP JUMPDEST SWAP1 POP PUSH2 0x923 DUP2 DUP6 DUP6 PUSH2 0xD9C JUMP JUMPDEST PUSH1 0x1 SWAP2 POP POP SWAP3 SWAP2 POP POP JUMP JUMPDEST PUSH2 0x936 PUSH2 0xE8C JUMP JUMPDEST DUP2 PUSH1 0x6 DUP2 SWAP1 SSTORE POP DUP1 PUSH1 0x7 DUP2 SWAP1 SSTORE POP POP POP JUMP JUMPDEST PUSH2 0x950 PUSH2 0xE8C JUMP JUMPDEST PUSH2 0x962 CALLER PUSH2 0x95C PUSH2 0x854 JUMP JUMPDEST DUP4 PUSH2 0xD9C JUMP JUMPDEST POP JUMP JUMPDEST PUSH2 0x970 CALLER DUP4 DUP4 PUSH2 0xD9C JUMP JUMPDEST POP POP JUMP JUMPDEST PUSH0 DUP4 MLOAD GT PUSH2 0x9B7 JUMPI PUSH1 0x40 MLOAD PUSH32 0x8C379A000000000000000000000000000000000000000000000000000000000 DUP2 MSTORE PUSH1 0x4 ADD PUSH2 0x9AE SWAP1 PUSH2 0x1ADC JUMP JUMPDEST PUSH1 0x40 MLOAD DUP1 SWAP2 SUB SWAP1 REVERT JUMPDEST PUSH0 DUP3 MLOAD GT PUSH2 0x9FA JUMPI PUSH1 0x40 MLOAD PUSH32 0x8C379A000000000000000000000000000000000000000000000000000000000 DUP2 MSTORE PUSH1 0x4 ADD PUSH2 0x9F1 SWAP1 PUSH2 0x1B44 JUMP JUMPDEST PUSH1 0x40 MLOAD DUP1 SWAP2 SUB SWAP1 REVERT JUMPDEST PUSH1 0x40 MLOAD DUP1 PUSH1 0x60 ADD PUSH1 0x40 MSTORE DUP1 DUP5 DUP2 MSTORE PUSH1 0x20 ADD DUP4 DUP2 MSTORE PUSH1 0x20 ADD DUP3 DUP2 MSTORE POP PUSH1 0x8 PUSH0 CALLER PUSH20 0xFFFFFFFFFFFFFFFFFFFFFFFFFFFFFFFFFFFFFFFF AND PUSH20 0xFFFFFFFFFFFFFFFFFFFFFFFFFFFFFFFFFFFFFFFF AND DUP2 MSTORE PUSH1 0x20 ADD SWAP1 DUP2 MSTORE PUSH1 0x20 ADD PUSH0 KECCAK256 PUSH0 DUP3 ADD MLOAD DUP2 PUSH0 ADD SWAP1 DUP2 PUSH2 0xA65 SWAP2 SWAP1 PUSH2 0x1CFF JUMP JUMPDEST POP PUSH1 0x20 DUP3 ADD MLOAD DUP2 PUSH1 0x1 ADD SWAP1 DUP2 PUSH2 0xA7B SWAP2 SWAP1 PUSH2 0x1CFF JUMP JUMPDEST POP PUSH1 0x40 DUP3 ADD MLOAD DUP2 PUSH1 0x2 ADD SWAP1 DUP2 PUSH2 0xA91 SWAP2 SWAP1 PUSH2 0x1CFF JUMP JUMPDEST POP SWAP1 POP POP POP POP POP JUMP JUMPDEST PUSH0 PUSH2 0xAA3 PUSH2 0x5D3 JUMP JUMPDEST PUSH1 0xA PUSH2 0xAAF SWAP2 SWAP1 PUSH2 0x1F2A JUMP JUMPDEST PUSH1 0x6 SLOAD DUP4 PUSH2 0xABD SWAP2 SWAP1 PUSH2 0x1F74 JUMP JUMPDEST PUSH2 0xAC7 SWAP2 SWAP1 PUSH2 0x1FE2 JUMP JUMPDEST SWAP1 POP DUP1 CALLVALUE EQ PUSH2 0xB0B JUMPI PUSH1 0x40 MLOAD PUSH32 0x8C379A000000000000000000000000000000000000000000000000000000000 DUP2 MSTORE PUSH1 0x4 ADD PUSH2 0xB02 SWAP1 PUSH2 0x205C JUMP JUMPDEST PUSH1 0x40 MLOAD DUP1 SWAP2 SUB SWAP1 REVERT JUMPDEST PUSH2 0xB15 CALLER DUP4 PUSH2 0xFD6 JUMP JUMPDEST POP POP JUMP JUMPDEST PUSH0 PUSH1 0x1 PUSH0 DUP5 PUSH20 0xFFFFFFFFFFFFFFFFFFFFFFFFFFFFFFFFFFFFFFFF AND PUSH20 0xFFFFFFFFFFFFFFFFFFFFFFFFFFFFFFFFFFFFFFFF AND DUP2 MSTORE PUSH1 0x20 ADD SWAP1 DUP2 MSTORE PUSH1 0x20 ADD PUSH0 KECCAK256 PUSH0 DUP4 PUSH20 0xFFFFFFFFFFFFFFFFFFFFFFFFFFFFFFFFFFFFFFFF AND PUSH20 0xFFFFFFFFFFFFFFFFFFFFFFFFFFFFFFFFFFFFFFFF AND DUP2 MSTORE PUSH1 0x20 ADD SWAP1 DUP2 MSTORE PUSH1 0x20 ADD PUSH0 KECCAK256 SLOAD SWAP1 POP SWAP3 SWAP2 POP POP JUMP JUMPDEST PUSH0 PUSH2 0xBA4 PUSH2 0x5D3 JUMP JUMPDEST PUSH1 0xA PUSH2 0xBB0 SWAP2 SWAP1 PUSH2 0x1F2A JUMP JUMPDEST PUSH1 0x7 SLOAD DUP4 PUSH2 0xBBE SWAP2 SWAP1 PUSH2 0x1F74 JUMP JUMPDEST PUSH2 0xBC8 SWAP2 SWAP1 PUSH2 0x1FE2 JUMP JUMPDEST SWAP1 POP DUP2 PUSH2 0xBD4 CALLER PUSH2 0x7FC JUMP JUMPDEST LT ISZERO PUSH2 0xC15 JUMPI PUSH1 0x40 MLOAD PUSH32 0x8C379A000000000000000000000000000000000000000000000000000000000 DUP2 MSTORE PUSH1 0x4 ADD PUSH2 0xC0C SWAP1 PUSH2 0x20C4 JUMP JUMPDEST PUSH1 0x40 MLOAD DUP1 SWAP2 SUB SWAP1 REVERT JUMPDEST PUSH2 0xC1F CALLER DUP4 PUSH2 0x1055 JUMP JUMPDEST CALLER PUSH20 0xFFFFFFFFFFFFFFFFFFFFFFFFFFFFFFFFFFFFFFFF AND PUSH2 0x8FC DUP3 SWAP1 DUP2 ISZERO MUL SWAP1 PUSH1 0x40 MLOAD PUSH0 PUSH1 0x40 MLOAD DUP1 DUP4 SUB DUP2 DUP6 DUP9 DUP9 CALL SWAP4 POP POP POP POP ISZERO DUP1 ISZERO PUSH2 0xC62 JUMPI RETURNDATASIZE PUSH0 DUP1 RETURNDATACOPY RETURNDATASIZE PUSH0 REVERT JUMPDEST POP POP POP JUMP JUMPDEST PUSH2 0xC6F PUSH2 0xE8C JUMP JUMPDEST PUSH0 PUSH20 0xFFFFFFFFFFFFFFFFFFFFFFFFFFFFFFFFFFFFFFFF AND DUP2 PUSH20 0xFFFFFFFFFFFFFFFFFFFFFFFFFFFFFFFFFFFFFFFF AND SUB PUSH2 0xCDF JUMPI PUSH0 PUSH1 0x40 MLOAD PUSH32 0x1E4FBDF700000000000000000000000000000000000000000000000000000000 DUP2 MSTORE PUSH1 0x4 ADD PUSH2 0xCD6 SWAP2 SWAP1 PUSH2 0x17A5 JUMP JUMPDEST PUSH1 0x40 MLOAD DUP1 SWAP2 SUB SWAP1 REVERT JUMPDEST PUSH2 0xCE8 DUP2 PUSH2 0xF13 JUMP JUMPDEST POP JUMP JUMPDEST PUSH1 0x7 SLOAD DUP2 JUMP JUMPDEST PUSH0 CALLER SWAP1 POP SWAP1 JUMP JUMPDEST PUSH2 0xD05 DUP4 DUP4 DUP4 PUSH1 0x1 PUSH2 0x10D4 JUMP JUMPDEST POP POP POP JUMP JUMPDEST PUSH0 PUSH2 0xD15 DUP5 DUP5 PUSH2 0xB19 JUMP JUMPDEST SWAP1 POP PUSH32 0xFFFFFFFFFFFFFFFFFFFFFFFFFFFFFFFFFFFFFFFFFFFFFFFFFFFFFFFFFFFFFFFF DUP2 EQ PUSH2 0xD96 JUMPI DUP2 DUP2 LT ISZERO PUSH2 0xD87 JUMPI DUP3 DUP2 DUP4 PUSH1 0x40 MLOAD PUSH32 0xFB8F41B200000000000000000000000000000000000000000000000000000000 DUP2 MSTORE PUSH1 0x4 ADD PUSH2 0xD7E SWAP4 SWAP3 SWAP2 SWAP1 PUSH2 0x20E2 JUMP JUMPDEST PUSH1 0x40 MLOAD DUP1 SWAP2 SUB SWAP1 REVERT JUMPDEST PUSH2 0xD95 DUP5 DUP5 DUP5 DUP5 SUB PUSH0 PUSH2 0x10D4 JUMP JUMPDEST JUMPDEST POP POP POP POP JUMP JUMPDEST PUSH0 PUSH20 0xFFFFFFFFFFFFFFFFFFFFFFFFFFFFFFFFFFFFFFFF AND DUP4 PUSH20 0xFFFFFFFFFFFFFFFFFFFFFFFFFFFFFFFFFFFFFFFF AND SUB PUSH2 0xE0C JUMPI PUSH0 PUSH1 0x40 MLOAD PUSH32 0x96C6FD1E00000000000000000000000000000000000000000000000000000000 DUP2 MSTORE PUSH1 0x4 ADD PUSH2 0xE03 SWAP2 SWAP1 PUSH2 0x17A5 JUMP JUMPDEST PUSH1 0x40 MLOAD DUP1 SWAP2 SUB SWAP1 REVERT JUMPDEST PUSH0 PUSH20 0xFFFFFFFFFFFFFFFFFFFFFFFFFFFFFFFFFFFFFFFF AND DUP3 PUSH20 0xFFFFFFFFFFFFFFFFFFFFFFFFFFFFFFFFFFFFFFFF AND SUB PUSH2 0xE7C JUMPI PUSH0 PUSH1 0x40 MLOAD PUSH32 0xEC442F0500000000000000000000000000000000000000000000000000000000 DUP2 MSTORE PUSH1 0x4 ADD PUSH2 0xE73 SWAP2 SWAP1 PUSH2 0x17A5 JUMP JUMPDEST PUSH1 0x40 MLOAD DUP1 SWAP2 SUB SWAP1 REVERT JUMPDEST PUSH2 0xE87 DUP4 DUP4 DUP4 PUSH2 0x12A3 JUMP JUMPDEST POP POP POP JUMP JUMPDEST PUSH2 0xE94 PUSH2 0xCF1 JUMP JUMPDEST PUSH20 0xFFFFFFFFFFFFFFFFFFFFFFFFFFFFFFFFFFFFFFFF AND PUSH2 0xEB2 PUSH2 0x854 JUMP JUMPDEST PUSH20 0xFFFFFFFFFFFFFFFFFFFFFFFFFFFFFFFFFFFFFFFF AND EQ PUSH2 0xF11 JUMPI PUSH2 0xED5 PUSH2 0xCF1 JUMP JUMPDEST PUSH1 0x40 MLOAD PUSH32 0x118CDAA700000000000000000000000000000000000000000000000000000000 DUP2 MSTORE PUSH1 0x4 ADD PUSH2 0xF08 SWAP2 SWAP1 PUSH2 0x17A5 JUMP JUMPDEST PUSH1 0x40 MLOAD DUP1 SWAP2 SUB SWAP1 REVERT JUMPDEST JUMP JUMPDEST PUSH0 PUSH1 0x5 PUSH0 SWAP1 SLOAD SWAP1 PUSH2 0x100 EXP SWAP1 DIV PUSH20 0xFFFFFFFFFFFFFFFFFFFFFFFFFFFFFFFFFFFFFFFF AND SWAP1 POP DUP2 PUSH1 0x5 PUSH0 PUSH2 0x100 EXP DUP2 SLOAD DUP2 PUSH20 0xFFFFFFFFFFFFFFFFFFFFFFFFFFFFFFFFFFFFFFFF MUL NOT AND SWAP1 DUP4 PUSH20 0xFFFFFFFFFFFFFFFFFFFFFFFFFFFFFFFFFFFFFFFF AND MUL OR SWAP1 SSTORE POP DUP2 PUSH20 0xFFFFFFFFFFFFFFFFFFFFFFFFFFFFFFFFFFFFFFFF AND DUP2 PUSH20 0xFFFFFFFFFFFFFFFFFFFFFFFFFFFFFFFFFFFFFFFF AND PUSH32 0x8BE0079C531659141344CD1FD0A4F28419497F9722A3DAAFE3B4186F6B6457E0 PUSH1 0x40 MLOAD PUSH1 0x40 MLOAD DUP1 SWAP2 SUB SWAP1 LOG3 POP POP JUMP JUMPDEST PUSH0 PUSH20 0xFFFFFFFFFFFFFFFFFFFFFFFFFFFFFFFFFFFFFFFF AND DUP3 PUSH20 0xFFFFFFFFFFFFFFFFFFFFFFFFFFFFFFFFFFFFFFFF AND SUB PUSH2 0x1046 JUMPI PUSH0 PUSH1 0x40 MLOAD PUSH32 0xEC442F0500000000000000000000000000000000000000000000000000000000 DUP2 MSTORE PUSH1 0x4 ADD PUSH2 0x103D SWAP2 SWAP1 PUSH2 0x17A5 JUMP JUMPDEST PUSH1 0x40 MLOAD DUP1 SWAP2 SUB SWAP1 REVERT JUMPDEST PUSH2 0x1051 PUSH0 DUP4 DUP4 PUSH2 0x12A3 JUMP JUMPDEST POP POP JUMP JUMPDEST PUSH0 PUSH20 0xFFFFFFFFFFFFFFFFFFFFFFFFFFFFFFFFFFFFFFFF AND DUP3 PUSH20 0xFFFFFFFFFFFFFFFFFFFFFFFFFFFFFFFFFFFFFFFF AND SUB PUSH2 0x10C5 JUMPI PUSH0 PUSH1 0x40 MLOAD PUSH32 0x96C6FD1E00000000000000000000000000000000000000000000000000000000 DUP2 MSTORE PUSH1 0x4 ADD PUSH2 0x10BC SWAP2 SWAP1 PUSH2 0x17A5 JUMP JUMPDEST PUSH1 0x40 MLOAD DUP1 SWAP2 SUB SWAP1 REVERT JUMPDEST PUSH2 0x10D0 DUP3 PUSH0 DUP4 PUSH2 0x12A3 JUMP JUMPDEST POP POP JUMP JUMPDEST PUSH0 PUSH20 0xFFFFFFFFFFFFFFFFFFFFFFFFFFFFFFFFFFFFFFFF AND DUP5 PUSH20 0xFFFFFFFFFFFFFFFFFFFFFFFFFFFFFFFFFFFFFFFF AND SUB PUSH2 0x1144 JUMPI PUSH0 PUSH1 0x40 MLOAD PUSH32 0xE602DF0500000000000000000000000000000000000000000000000000000000 DUP2 MSTORE PUSH1 0x4 ADD PUSH2 0x113B SWAP2 SWAP1 PUSH2 0x17A5 JUMP JUMPDEST PUSH1 0x40 MLOAD DUP1 SWAP2 SUB SWAP1 REVERT JUMPDEST PUSH0 PUSH20 0xFFFFFFFFFFFFFFFFFFFFFFFFFFFFFFFFFFFFFFFF AND DUP4 PUSH20 0xFFFFFFFFFFFFFFFFFFFFFFFFFFFFFFFFFFFFFFFF AND SUB PUSH2 0x11B4 JUMPI PUSH0 PUSH1 0x40 MLOAD PUSH32 0x94280D6200000000000000000000000000000000000000000000000000000000 DUP2 MSTORE PUSH1 0x4 ADD PUSH2 0x11AB SWAP2 SWAP1 PUSH2 0x17A5 JUMP JUMPDEST PUSH1 0x40 MLOAD DUP1 SWAP2 SUB SWAP1 REVERT JUMPDEST DUP2 PUSH1 0x1 PUSH0 DUP7 PUSH20 0xFFFFFFFFFFFFFFFFFFFFFFFFFFFFFFFFFFFFFFFF AND PUSH20 0xFFFFFFFFFFFFFFFFFFFFFFFFFFFFFFFFFFFFFFFF AND DUP2 MSTORE PUSH1 0x20 ADD SWAP1 DUP2 MSTORE PUSH1 0x20 ADD PUSH0 KECCAK256 PUSH0 DUP6 PUSH20 0xFFFFFFFFFFFFFFFFFFFFFFFFFFFFFFFFFFFFFFFF AND PUSH20 0xFFFFFFFFFFFFFFFFFFFFFFFFFFFFFFFFFFFFFFFF AND DUP2 MSTORE PUSH1 0x20 ADD SWAP1 DUP2 MSTORE PUSH1 0x20 ADD PUSH0 KECCAK256 DUP2 SWAP1 SSTORE POP DUP1 ISZERO PUSH2 0x129D JUMPI DUP3 PUSH20 0xFFFFFFFFFFFFFFFFFFFFFFFFFFFFFFFFFFFFFFFF AND DUP5 PUSH20 0xFFFFFFFFFFFFFFFFFFFFFFFFFFFFFFFFFFFFFFFF AND PUSH32 0x8C5BE1E5EBEC7D5BD14F71427D1E84F3DD0314C0F7B2291E5B200AC8C7C3B925 DUP5 PUSH1 0x40 MLOAD PUSH2 0x1294 SWAP2 SWAP1 PUSH2 0x1684 JUMP JUMPDEST PUSH1 0x40 MLOAD DUP1 SWAP2 SUB SWAP1 LOG3 JUMPDEST POP POP POP POP JUMP JUMPDEST PUSH0 PUSH20 0xFFFFFFFFFFFFFFFFFFFFFFFFFFFFFFFFFFFFFFFF AND DUP4 PUSH20 0xFFFFFFFFFFFFFFFFFFFFFFFFFFFFFFFFFFFFFFFF AND SUB PUSH2 0x12F3 JUMPI DUP1 PUSH1 0x2 PUSH0 DUP3 DUP3 SLOAD PUSH2 0x12E7 SWAP2 SWAP1 PUSH2 0x2117 JUMP JUMPDEST SWAP3 POP POP DUP2 SWAP1 SSTORE POP PUSH2 0x13C1 JUMP JUMPDEST PUSH0 DUP1 PUSH0 DUP6 PUSH20 0xFFFFFFFFFFFFFFFFFFFFFFFFFFFFFFFFFFFFFFFF AND PUSH20 0xFFFFFFFFFFFFFFFFFFFFFFFFFFFFFFFFFFFFFFFF AND DUP2 MSTORE PUSH1 0x20 ADD SWAP1 DUP2 MSTORE PUSH1 0x20 ADD PUSH0 KECCAK256 SLOAD SWAP1 POP DUP2 DUP2 LT ISZERO PUSH2 0x137C JUMPI DUP4 DUP2 DUP4 PUSH1 0x40 MLOAD PUSH32 0xE450D38C00000000000000000000000000000000000000000000000000000000 DUP2 MSTORE PUSH1 0x4 ADD PUSH2 0x1373 SWAP4 SWAP3 SWAP2 SWAP1 PUSH2 0x20E2 JUMP JUMPDEST PUSH1 0x40 MLOAD DUP1 SWAP2 SUB SWAP1 REVERT JUMPDEST DUP2 DUP2 SUB PUSH0 DUP1 DUP7 PUSH20 0xFFFFFFFFFFFFFFFFFFFFFFFFFFFFFFFFFFFFFFFF AND PUSH20 0xFFFFFFFFFFFFFFFFFFFFFFFFFFFFFFFFFFFFFFFF AND DUP2 MSTORE PUSH1 0x20 ADD SWAP1 DUP2 MSTORE PUSH1 0x20 ADD PUSH0 KECCAK256 DUP2 SWAP1 SSTORE POP POP JUMPDEST PUSH0 PUSH20 0xFFFFFFFFFFFFFFFFFFFFFFFFFFFFFFFFFFFFFFFF AND DUP3 PUSH20 0xFFFFFFFFFFFFFFFFFFFFFFFFFFFFFFFFFFFFFFFF AND SUB PUSH2 0x1408 JUMPI DUP1 PUSH1 0x2 PUSH0 DUP3 DUP3 SLOAD SUB SWAP3 POP POP DUP2 SWAP1 SSTORE POP PUSH2 0x1452 JUMP JUMPDEST DUP1 PUSH0 DUP1 DUP5 PUSH20 0xFFFFFFFFFFFFFFFFFFFFFFFFFFFFFFFFFFFFFFFF AND PUSH20 0xFFFFFFFFFFFFFFFFFFFFFFFFFFFFFFFFFFFFFFFF AND DUP2 MSTORE PUSH1 0x20 ADD SWAP1 DUP2 MSTORE PUSH1 0x20 ADD PUSH0 KECCAK256 PUSH0 DUP3 DUP3 SLOAD ADD SWAP3 POP POP DUP2 SWAP1 SSTORE POP JUMPDEST DUP2 PUSH20 0xFFFFFFFFFFFFFFFFFFFFFFFFFFFFFFFFFFFFFFFF AND DUP4 PUSH20 0xFFFFFFFFFFFFFFFFFFFFFFFFFFFFFFFFFFFFFFFF AND PUSH32 0xDDF252AD1BE2C89B69C2B068FC378DAA952BA7F163C4A11628F55A4DF523B3EF DUP4 PUSH1 0x40 MLOAD PUSH2 0x14AF SWAP2 SWAP1 PUSH2 0x1684 JUMP JUMPDEST PUSH1 0x40 MLOAD DUP1 SWAP2 SUB SWAP1 LOG3 POP POP POP JUMP JUMPDEST PUSH0 DUP2 MLOAD SWAP1 POP SWAP2 SWAP1 POP JUMP JUMPDEST PUSH0 DUP3 DUP3 MSTORE PUSH1 0x20 DUP3 ADD SWAP1 POP SWAP3 SWAP2 POP POP JUMP JUMPDEST PUSH0 JUMPDEST DUP4 DUP2 LT ISZERO PUSH2 0x14F3 JUMPI DUP1 DUP3 ADD MLOAD DUP2 DUP5 ADD MSTORE PUSH1 0x20 DUP2 ADD SWAP1 POP PUSH2 0x14D8 JUMP JUMPDEST PUSH0 DUP5 DUP5 ADD MSTORE POP POP POP POP JUMP JUMPDEST PUSH0 PUSH1 0x1F NOT PUSH1 0x1F DUP4 ADD AND SWAP1 POP SWAP2 SWAP1 POP JUMP JUMPDEST PUSH0 PUSH2 0x1518 DUP3 PUSH2 0x14BC JUMP JUMPDEST PUSH2 0x1522 DUP2 DUP6 PUSH2 0x14C6 JUMP JUMPDEST SWAP4 POP PUSH2 0x1532 DUP2 DUP6 PUSH1 0x20 DUP7 ADD PUSH2 0x14D6 JUMP JUMPDEST PUSH2 0x153B DUP2 PUSH2 0x14FE JUMP JUMPDEST DUP5 ADD SWAP2 POP POP SWAP3 SWAP2 POP POP JUMP JUMPDEST PUSH0 PUSH1 0x20 DUP3 ADD SWAP1 POP DUP2 DUP2 SUB PUSH0 DUP4 ADD MSTORE PUSH2 0x155E DUP2 DUP5 PUSH2 0x150E JUMP JUMPDEST SWAP1 POP SWAP3 SWAP2 POP POP JUMP JUMPDEST PUSH0 PUSH1 0x40 MLOAD SWAP1 POP SWAP1 JUMP JUMPDEST PUSH0 DUP1 REVERT JUMPDEST PUSH0 DUP1 REVERT JUMPDEST PUSH0 PUSH20 0xFFFFFFFFFFFFFFFFFFFFFFFFFFFFFFFFFFFFFFFF DUP3 AND SWAP1 POP SWAP2 SWAP1 POP JUMP JUMPDEST PUSH0 PUSH2 0x15A0 DUP3 PUSH2 0x1577 JUMP JUMPDEST SWAP1 POP SWAP2 SWAP1 POP JUMP JUMPDEST PUSH2 0x15B0 DUP2 PUSH2 0x1596 JUMP JUMPDEST DUP2 EQ PUSH2 0x15BA JUMPI PUSH0 DUP1 REVERT JUMPDEST POP JUMP JUMPDEST PUSH0 DUP2 CALLDATALOAD SWAP1 POP PUSH2 0x15CB DUP2 PUSH2 0x15A7 JUMP JUMPDEST SWAP3 SWAP2 POP POP JUMP JUMPDEST PUSH0 DUP2 SWAP1 POP SWAP2 SWAP1 POP JUMP JUMPDEST PUSH2 0x15E3 DUP2 PUSH2 0x15D1 JUMP JUMPDEST DUP2 EQ PUSH2 0x15ED JUMPI PUSH0 DUP1 REVERT JUMPDEST POP JUMP JUMPDEST PUSH0 DUP2 CALLDATALOAD SWAP1 POP PUSH2 0x15FE DUP2 PUSH2 0x15DA JUMP JUMPDEST SWAP3 SWAP2 POP POP JUMP JUMPDEST PUSH0 DUP1 PUSH1 0x40 DUP4 DUP6 SUB SLT ISZERO PUSH2 0x161A JUMPI PUSH2 0x1619 PUSH2 0x156F JUMP JUMPDEST JUMPDEST PUSH0 PUSH2 0x1627 DUP6 DUP3 DUP7 ADD PUSH2 0x15BD JUMP JUMPDEST SWAP3 POP POP PUSH1 0x20 PUSH2 0x1638 DUP6 DUP3 DUP7 ADD PUSH2 0x15F0 JUMP JUMPDEST SWAP2 POP POP SWAP3 POP SWAP3 SWAP1 POP JUMP JUMPDEST PUSH0 DUP2 ISZERO ISZERO SWAP1 POP SWAP2 SWAP1 POP JUMP JUMPDEST PUSH2 0x1656 DUP2 PUSH2 0x1642 JUMP JUMPDEST DUP3 MSTORE POP POP JUMP JUMPDEST PUSH0 PUSH1 0x20 DUP3 ADD SWAP1 POP PUSH2 0x166F PUSH0 DUP4 ADD DUP5 PUSH2 0x164D JUMP JUMPDEST SWAP3 SWAP2 POP POP JUMP JUMPDEST PUSH2 0x167E DUP2 PUSH2 0x15D1 JUMP JUMPDEST DUP3 MSTORE POP POP JUMP JUMPDEST PUSH0 PUSH1 0x20 DUP3 ADD SWAP1 POP PUSH2 0x1697 PUSH0 DUP4 ADD DUP5 PUSH2 0x1675 JUMP JUMPDEST SWAP3 SWAP2 POP POP JUMP JUMPDEST PUSH0 DUP1 PUSH0 PUSH1 0x60 DUP5 DUP7 SUB SLT ISZERO PUSH2 0x16B4 JUMPI PUSH2 0x16B3 PUSH2 0x156F JUMP JUMPDEST JUMPDEST PUSH0 PUSH2 0x16C1 DUP7 DUP3 DUP8 ADD PUSH2 0x15BD JUMP JUMPDEST SWAP4 POP POP PUSH1 0x20 PUSH2 0x16D2 DUP7 DUP3 DUP8 ADD PUSH2 0x15BD JUMP JUMPDEST SWAP3 POP POP PUSH1 0x40 PUSH2 0x16E3 DUP7 DUP3 DUP8 ADD PUSH2 0x15F0 JUMP JUMPDEST SWAP2 POP POP SWAP3 POP SWAP3 POP SWAP3 JUMP JUMPDEST PUSH0 PUSH1 0xFF DUP3 AND SWAP1 POP SWAP2 SWAP1 POP JUMP JUMPDEST PUSH2 0x1702 DUP2 PUSH2 0x16ED JUMP JUMPDEST DUP3 MSTORE POP POP JUMP JUMPDEST PUSH0 PUSH1 0x20 DUP3 ADD SWAP1 POP PUSH2 0x171B PUSH0 DUP4 ADD DUP5 PUSH2 0x16F9 JUMP JUMPDEST SWAP3 SWAP2 POP POP JUMP JUMPDEST PUSH0 PUSH1 0x20 DUP3 DUP5 SUB SLT ISZERO PUSH2 0x1736 JUMPI PUSH2 0x1735 PUSH2 0x156F JUMP JUMPDEST JUMPDEST PUSH0 PUSH2 0x1743 DUP5 DUP3 DUP6 ADD PUSH2 0x15BD JUMP JUMPDEST SWAP2 POP POP SWAP3 SWAP2 POP POP JUMP JUMPDEST PUSH0 PUSH1 0x60 DUP3 ADD SWAP1 POP DUP2 DUP2 SUB PUSH0 DUP4 ADD MSTORE PUSH2 0x1764 DUP2 DUP7 PUSH2 0x150E JUMP JUMPDEST SWAP1 POP DUP2 DUP2 SUB PUSH1 0x20 DUP4 ADD MSTORE PUSH2 0x1778 DUP2 DUP6 PUSH2 0x150E JUMP JUMPDEST SWAP1 POP DUP2 DUP2 SUB PUSH1 0x40 DUP4 ADD MSTORE PUSH2 0x178C DUP2 DUP5 PUSH2 0x150E JUMP JUMPDEST SWAP1 POP SWAP5 SWAP4 POP POP POP POP JUMP JUMPDEST PUSH2 0x179F DUP2 PUSH2 0x1596 JUMP JUMPDEST DUP3 MSTORE POP POP JUMP JUMPDEST PUSH0 PUSH1 0x20 DUP3 ADD SWAP1 POP PUSH2 0x17B8 PUSH0 DUP4 ADD DUP5 PUSH2 0x1796 JUMP JUMPDEST SWAP3 SWAP2 POP POP JUMP JUMPDEST PUSH0 DUP1 PUSH1 0x40 DUP4 DUP6 SUB SLT ISZERO PUSH2 0x17D4 JUMPI PUSH2 0x17D3 PUSH2 0x156F JUMP JUMPDEST JUMPDEST PUSH0 PUSH2 0x17E1 DUP6 DUP3 DUP7 ADD PUSH2 0x15F0 JUMP JUMPDEST SWAP3 POP POP PUSH1 0x20 PUSH2 0x17F2 DUP6 DUP3 DUP7 ADD PUSH2 0x15F0 JUMP JUMPDEST SWAP2 POP POP SWAP3 POP SWAP3 SWAP1 POP JUMP JUMPDEST PUSH0 PUSH1 0x20 DUP3 DUP5 SUB SLT ISZERO PUSH2 0x1811 JUMPI PUSH2 0x1810 PUSH2 0x156F JUMP JUMPDEST JUMPDEST PUSH0 PUSH2 0x181E DUP5 DUP3 DUP6 ADD PUSH2 0x15F0 JUMP JUMPDEST SWAP2 POP POP SWAP3 SWAP2 POP POP JUMP JUMPDEST PUSH0 DUP1 REVERT JUMPDEST PUSH0 DUP1 REVERT JUMPDEST PUSH32 0x4E487B7100000000000000000000000000000000000000000000000000000000 PUSH0 MSTORE PUSH1 0x41 PUSH1 0x4 MSTORE PUSH1 0x24 PUSH0 REVERT JUMPDEST PUSH2 0x1865 DUP3 PUSH2 0x14FE JUMP JUMPDEST DUP2 ADD DUP2 DUP2 LT PUSH8 0xFFFFFFFFFFFFFFFF DUP3 GT OR ISZERO PUSH2 0x1884 JUMPI PUSH2 0x1883 PUSH2 0x182F JUMP JUMPDEST JUMPDEST DUP1 PUSH1 0x40 MSTORE POP POP POP JUMP JUMPDEST PUSH0 PUSH2 0x1896 PUSH2 0x1566 JUMP JUMPDEST SWAP1 POP PUSH2 0x18A2 DUP3 DUP3 PUSH2 0x185C JUMP JUMPDEST SWAP2 SWAP1 POP JUMP JUMPDEST PUSH0 PUSH8 0xFFFFFFFFFFFFFFFF DUP3 GT ISZERO PUSH2 0x18C1 JUMPI PUSH2 0x18C0 PUSH2 0x182F JUMP JUMPDEST JUMPDEST PUSH2 0x18CA DUP3 PUSH2 0x14FE JUMP JUMPDEST SWAP1 POP PUSH1 0x20 DUP2 ADD SWAP1 POP SWAP2 SWAP1 POP JUMP JUMPDEST DUP3 DUP2 DUP4 CALLDATACOPY PUSH0 DUP4 DUP4 ADD MSTORE POP POP POP JUMP JUMPDEST PUSH0 PUSH2 0x18F7 PUSH2 0x18F2 DUP5 PUSH2 0x18A7 JUMP JUMPDEST PUSH2 0x188D JUMP JUMPDEST SWAP1 POP DUP3 DUP2 MSTORE PUSH1 0x20 DUP2 ADD DUP5 DUP5 DUP5 ADD GT ISZERO PUSH2 0x1913 JUMPI PUSH2 0x1912 PUSH2 0x182B JUMP JUMPDEST JUMPDEST PUSH2 0x191E DUP5 DUP3 DUP6 PUSH2 0x18D7 JUMP JUMPDEST POP SWAP4 SWAP3 POP POP POP JUMP JUMPDEST PUSH0 DUP3 PUSH1 0x1F DUP4 ADD SLT PUSH2 0x193A JUMPI PUSH2 0x1939 PUSH2 0x1827 JUMP JUMPDEST JUMPDEST DUP2 CALLDATALOAD PUSH2 0x194A DUP5 DUP3 PUSH1 0x20 DUP7 ADD PUSH2 0x18E5 JUMP JUMPDEST SWAP2 POP POP SWAP3 SWAP2 POP POP JUMP JUMPDEST PUSH0 DUP1 PUSH0 PUSH1 0x60 DUP5 DUP7 SUB SLT ISZERO PUSH2 0x196A JUMPI PUSH2 0x1969 PUSH2 0x156F JUMP JUMPDEST JUMPDEST PUSH0 DUP5 ADD CALLDATALOAD PUSH8 0xFFFFFFFFFFFFFFFF DUP2 GT ISZERO PUSH2 0x1987 JUMPI PUSH2 0x1986 PUSH2 0x1573 JUMP JUMPDEST JUMPDEST PUSH2 0x1993 DUP7 DUP3 DUP8 ADD PUSH2 0x1926 JUMP JUMPDEST SWAP4 POP POP PUSH1 0x20 DUP5 ADD CALLDATALOAD PUSH8 0xFFFFFFFFFFFFFFFF DUP2 GT ISZERO PUSH2 0x19B4 JUMPI PUSH2 0x19B3 PUSH2 0x1573 JUMP JUMPDEST JUMPDEST PUSH2 0x19C0 DUP7 DUP3 DUP8 ADD PUSH2 0x1926 JUMP JUMPDEST SWAP3 POP POP PUSH1 0x40 DUP5 ADD CALLDATALOAD PUSH8 0xFFFFFFFFFFFFFFFF DUP2 GT ISZERO PUSH2 0x19E1 JUMPI PUSH2 0x19E0 PUSH2 0x1573 JUMP JUMPDEST JUMPDEST PUSH2 0x19ED DUP7 DUP3 DUP8 ADD PUSH2 0x1926 JUMP JUMPDEST SWAP2 POP POP SWAP3 POP SWAP3 POP SWAP3 JUMP JUMPDEST PUSH0 DUP1 PUSH1 0x40 DUP4 DUP6 SUB SLT ISZERO PUSH2 0x1A0D JUMPI PUSH2 0x1A0C PUSH2 0x156F JUMP JUMPDEST JUMPDEST PUSH0 PUSH2 0x1A1A DUP6 DUP3 DUP7 ADD PUSH2 0x15BD JUMP JUMPDEST SWAP3 POP POP PUSH1 0x20 PUSH2 0x1A2B DUP6 DUP3 DUP7 ADD PUSH2 0x15BD JUMP JUMPDEST SWAP2 POP POP SWAP3 POP SWAP3 SWAP1 POP JUMP JUMPDEST PUSH32 0x4E487B7100000000000000000000000000000000000000000000000000000000 PUSH0 MSTORE PUSH1 0x22 PUSH1 0x4 MSTORE PUSH1 0x24 PUSH0 REVERT JUMPDEST PUSH0 PUSH1 0x2 DUP3 DIV SWAP1 POP PUSH1 0x1 DUP3 AND DUP1 PUSH2 0x1A79 JUMPI PUSH1 0x7F DUP3 AND SWAP2 POP JUMPDEST PUSH1 0x20 DUP3 LT DUP2 SUB PUSH2 0x1A8C JUMPI PUSH2 0x1A8B PUSH2 0x1A35 JUMP JUMPDEST JUMPDEST POP SWAP2 SWAP1 POP JUMP JUMPDEST PUSH32 0x557365726E616D65206D757374206E6F7420626520656D707479000000000000 PUSH0 DUP3 ADD MSTORE POP JUMP JUMPDEST PUSH0 PUSH2 0x1AC6 PUSH1 0x1A DUP4 PUSH2 0x14C6 JUMP JUMPDEST SWAP2 POP PUSH2 0x1AD1 DUP3 PUSH2 0x1A92 JUMP JUMPDEST PUSH1 0x20 DUP3 ADD SWAP1 POP SWAP2 SWAP1 POP JUMP JUMPDEST PUSH0 PUSH1 0x20 DUP3 ADD SWAP1 POP DUP2 DUP2 SUB PUSH0 DUP4 ADD MSTORE PUSH2 0x1AF3 DUP2 PUSH2 0x1ABA JUMP JUMPDEST SWAP1 POP SWAP2 SWAP1 POP JUMP JUMPDEST PUSH32 0x456D61696C206D757374206E6F7420626520656D707479000000000000000000 PUSH0 DUP3 ADD MSTORE POP JUMP JUMPDEST PUSH0 PUSH2 0x1B2E PUSH1 0x17 DUP4 PUSH2 0x14C6 JUMP JUMPDEST SWAP2 POP PUSH2 0x1B39 DUP3 PUSH2 0x1AFA JUMP JUMPDEST PUSH1 0x20 DUP3 ADD SWAP1 POP SWAP2 SWAP1 POP JUMP JUMPDEST PUSH0 PUSH1 0x20 DUP3 ADD SWAP1 POP DUP2 DUP2 SUB PUSH0 DUP4 ADD MSTORE PUSH2 0x1B5B DUP2 PUSH2 0x1B22 JUMP JUMPDEST SWAP1 POP SWAP2 SWAP1 POP JUMP JUMPDEST PUSH0 DUP2 SWAP1 POP DUP2 PUSH0 MSTORE PUSH1 0x20 PUSH0 KECCAK256 SWAP1 POP SWAP2 SWAP1 POP JUMP JUMPDEST PUSH0 PUSH1 0x20 PUSH1 0x1F DUP4 ADD DIV SWAP1 POP SWAP2 SWAP1 POP JUMP JUMPDEST PUSH0 DUP3 DUP3 SHL SWAP1 POP SWAP3 SWAP2 POP POP JUMP JUMPDEST PUSH0 PUSH1 0x8 DUP4 MUL PUSH2 0x1BBE PUSH32 0xFFFFFFFFFFFFFFFFFFFFFFFFFFFFFFFFFFFFFFFFFFFFFFFFFFFFFFFFFFFFFFFF DUP3 PUSH2 0x1B83 JUMP JUMPDEST PUSH2 0x1BC8 DUP7 DUP4 PUSH2 0x1B83 JUMP JUMPDEST SWAP6 POP DUP1 NOT DUP5 AND SWAP4 POP DUP1 DUP7 AND DUP5 OR SWAP3 POP POP POP SWAP4 SWAP3 POP POP POP JUMP JUMPDEST PUSH0 DUP2 SWAP1 POP SWAP2 SWAP1 POP JUMP JUMPDEST PUSH0 PUSH2 0x1C03 PUSH2 0x1BFE PUSH2 0x1BF9 DUP5 PUSH2 0x15D1 JUMP JUMPDEST PUSH2 0x1BE0 JUMP JUMPDEST PUSH2 0x15D1 JUMP JUMPDEST SWAP1 POP SWAP2 SWAP1 POP JUMP JUMPDEST PUSH0 DUP2 SWAP1 POP SWAP2 SWAP1 POP JUMP JUMPDEST PUSH2 0x1C1C DUP4 PUSH2 0x1BE9 JUMP JUMPDEST PUSH2 0x1C30 PUSH2 0x1C28 DUP3 PUSH2 0x1C0A JUMP JUMPDEST DUP5 DUP5 SLOAD PUSH2 0x1B8F JUMP JUMPDEST DUP3 SSTORE POP POP POP POP JUMP JUMPDEST PUSH0 SWAP1 JUMP JUMPDEST PUSH2 0x1C44 PUSH2 0x1C38 JUMP JUMPDEST PUSH2 0x1C4F DUP2 DUP5 DUP5 PUSH2 0x1C13 JUMP JUMPDEST POP POP POP JUMP JUMPDEST JUMPDEST DUP2 DUP2 LT ISZERO PUSH2 0x1C72 JUMPI PUSH2 0x1C67 PUSH0 DUP3 PUSH2 0x1C3C JUMP JUMPDEST PUSH1 0x1 DUP2 ADD SWAP1 POP PUSH2 0x1C55 JUMP JUMPDEST POP POP JUMP JUMPDEST PUSH1 0x1F DUP3 GT ISZERO PUSH2 0x1CB7 JUMPI PUSH2 0x1C88 DUP2 PUSH2 0x1B62 JUMP JUMPDEST PUSH2 0x1C91 DUP5 PUSH2 0x1B74 JUMP JUMPDEST DUP2 ADD PUSH1 0x20 DUP6 LT ISZERO PUSH2 0x1CA0 JUMPI DUP2 SWAP1 POP JUMPDEST PUSH2 0x1CB4 PUSH2 0x1CAC DUP6 PUSH2 0x1B74 JUMP JUMPDEST DUP4 ADD DUP3 PUSH2 0x1C54 JUMP JUMPDEST POP POP JUMPDEST POP POP POP JUMP JUMPDEST PUSH0 DUP3 DUP3 SHR SWAP1 POP SWAP3 SWAP2 POP POP JUMP JUMPDEST PUSH0 PUSH2 0x1CD7 PUSH0 NOT DUP5 PUSH1 0x8 MUL PUSH2 0x1CBC JUMP JUMPDEST NOT DUP1 DUP4 AND SWAP2 POP POP SWAP3 SWAP2 POP POP JUMP JUMPDEST PUSH0 PUSH2 0x1CEF DUP4 DUP4 PUSH2 0x1CC8 JUMP JUMPDEST SWAP2 POP DUP3 PUSH1 0x2 MUL DUP3 OR SWAP1 POP SWAP3 SWAP2 POP POP JUMP JUMPDEST PUSH2 0x1D08 DUP3 PUSH2 0x14BC JUMP JUMPDEST PUSH8 0xFFFFFFFFFFFFFFFF DUP2 GT ISZERO PUSH2 0x1D21 JUMPI PUSH2 0x1D20 PUSH2 0x182F JUMP JUMPDEST JUMPDEST PUSH2 0x1D2B DUP3 SLOAD PUSH2 0x1A62 JUMP JUMPDEST PUSH2 0x1D36 DUP3 DUP3 DUP6 PUSH2 0x1C76 JUMP JUMPDEST PUSH0 PUSH1 0x20 SWAP1 POP PUSH1 0x1F DUP4 GT PUSH1 0x1 DUP2 EQ PUSH2 0x1D67 JUMPI PUSH0 DUP5 ISZERO PUSH2 0x1D55 JUMPI DUP3 DUP8 ADD MLOAD SWAP1 POP JUMPDEST PUSH2 0x1D5F DUP6 DUP3 PUSH2 0x1CE4 JUMP JUMPDEST DUP7 SSTORE POP PUSH2 0x1DC6 JUMP JUMPDEST PUSH1 0x1F NOT DUP5 AND PUSH2 0x1D75 DUP7 PUSH2 0x1B62 JUMP JUMPDEST PUSH0 JUMPDEST DUP3 DUP2 LT ISZERO PUSH2 0x1D9C JUMPI DUP5 DUP10 ADD MLOAD DUP3 SSTORE PUSH1 0x1 DUP3 ADD SWAP2 POP PUSH1 0x20 DUP6 ADD SWAP5 POP PUSH1 0x20 DUP2 ADD SWAP1 POP PUSH2 0x1D77 JUMP JUMPDEST DUP7 DUP4 LT ISZERO PUSH2 0x1DB9 JUMPI DUP5 DUP10 ADD MLOAD PUSH2 0x1DB5 PUSH1 0x1F DUP10 AND DUP3 PUSH2 0x1CC8 JUMP JUMPDEST DUP4 SSTORE POP JUMPDEST PUSH1 0x1 PUSH1 0x2 DUP9 MUL ADD DUP9 SSTORE POP POP POP JUMPDEST POP POP POP POP POP POP JUMP JUMPDEST PUSH32 0x4E487B7100000000000000000000000000000000000000000000000000000000 PUSH0 MSTORE PUSH1 0x11 PUSH1 0x4 MSTORE PUSH1 0x24 PUSH0 REVERT JUMPDEST PUSH0 DUP2 PUSH1 0x1 SHR SWAP1 POP SWAP2 SWAP1 POP JUMP JUMPDEST PUSH0 DUP1 DUP3 SWAP2 POP DUP4 SWAP1 POP JUMPDEST PUSH1 0x1 DUP6 GT ISZERO PUSH2 0x1E50 JUMPI DUP1 DUP7 DIV DUP2 GT ISZERO PUSH2 0x1E2C JUMPI PUSH2 0x1E2B PUSH2 0x1DCE JUMP JUMPDEST JUMPDEST PUSH1 0x1 DUP6 AND ISZERO PUSH2 0x1E3B JUMPI DUP1 DUP3 MUL SWAP2 POP JUMPDEST DUP1 DUP2 MUL SWAP1 POP PUSH2 0x1E49 DUP6 PUSH2 0x1DFB JUMP JUMPDEST SWAP5 POP PUSH2 0x1E10 JUMP JUMPDEST SWAP5 POP SWAP5 SWAP3 POP POP POP JUMP JUMPDEST PUSH0 DUP3 PUSH2 0x1E68 JUMPI PUSH1 0x1 SWAP1 POP PUSH2 0x1F23 JUMP JUMPDEST DUP2 PUSH2 0x1E75 JUMPI PUSH0 SWAP1 POP PUSH2 0x1F23 JUMP JUMPDEST DUP2 PUSH1 0x1 DUP2 EQ PUSH2 0x1E8B JUMPI PUSH1 0x2 DUP2 EQ PUSH2 0x1E95 JUMPI PUSH2 0x1EC4 JUMP JUMPDEST PUSH1 0x1 SWAP2 POP POP PUSH2 0x1F23 JUMP JUMPDEST PUSH1 0xFF DUP5 GT ISZERO PUSH2 0x1EA7 JUMPI PUSH2 0x1EA6 PUSH2 0x1DCE JUMP JUMPDEST JUMPDEST DUP4 PUSH1 0x2 EXP SWAP2 POP DUP5 DUP3 GT ISZERO PUSH2 0x1EBE JUMPI PUSH2 0x1EBD PUSH2 0x1DCE JUMP JUMPDEST JUMPDEST POP PUSH2 0x1F23 JUMP JUMPDEST POP PUSH1 0x20 DUP4 LT PUSH2 0x133 DUP4 LT AND PUSH1 0x4E DUP5 LT PUSH1 0xB DUP5 LT AND OR ISZERO PUSH2 0x1EF9 JUMPI DUP3 DUP3 EXP SWAP1 POP DUP4 DUP2 GT ISZERO PUSH2 0x1EF4 JUMPI PUSH2 0x1EF3 PUSH2 0x1DCE JUMP JUMPDEST JUMPDEST PUSH2 0x1F23 JUMP JUMPDEST PUSH2 0x1F06 DUP5 DUP5 DUP5 PUSH1 0x1 PUSH2 0x1E07 JUMP JUMPDEST SWAP3 POP SWAP1 POP DUP2 DUP5 DIV DUP2 GT ISZERO PUSH2 0x1F1D JUMPI PUSH2 0x1F1C PUSH2 0x1DCE JUMP JUMPDEST JUMPDEST DUP2 DUP2 MUL SWAP1 POP JUMPDEST SWAP4 SWAP3 POP POP POP JUMP JUMPDEST PUSH0 PUSH2 0x1F34 DUP3 PUSH2 0x15D1 JUMP JUMPDEST SWAP2 POP PUSH2 0x1F3F DUP4 PUSH2 0x16ED JUMP JUMPDEST SWAP3 POP PUSH2 0x1F6C PUSH32 0xFFFFFFFFFFFFFFFFFFFFFFFFFFFFFFFFFFFFFFFFFFFFFFFFFFFFFFFFFFFFFFFF DUP5 DUP5 PUSH2 0x1E59 JUMP JUMPDEST SWAP1 POP SWAP3 SWAP2 POP POP JUMP JUMPDEST PUSH0 PUSH2 0x1F7E DUP3 PUSH2 0x15D1 JUMP JUMPDEST SWAP2 POP PUSH2 0x1F89 DUP4 PUSH2 0x15D1 JUMP JUMPDEST SWAP3 POP DUP3 DUP3 MUL PUSH2 0x1F97 DUP2 PUSH2 0x15D1 JUMP JUMPDEST SWAP2 POP DUP3 DUP3 DIV DUP5 EQ DUP4 ISZERO OR PUSH2 0x1FAE JUMPI PUSH2 0x1FAD PUSH2 0x1DCE JUMP JUMPDEST JUMPDEST POP SWAP3 SWAP2 POP POP JUMP JUMPDEST PUSH32 0x4E487B7100000000000000000000000000000000000000000000000000000000 PUSH0 MSTORE PUSH1 0x12 PUSH1 0x4 MSTORE PUSH1 0x24 PUSH0 REVERT JUMPDEST PUSH0 PUSH2 0x1FEC DUP3 PUSH2 0x15D1 JUMP JUMPDEST SWAP2 POP PUSH2 0x1FF7 DUP4 PUSH2 0x15D1 JUMP JUMPDEST SWAP3 POP DUP3 PUSH2 0x2007 JUMPI PUSH2 0x2006 PUSH2 0x1FB5 JUMP JUMPDEST JUMPDEST DUP3 DUP3 DIV SWAP1 POP SWAP3 SWAP2 POP POP JUMP JUMPDEST PUSH32 0x496E636F72726563742045544820616D6F756E742073656E7400000000000000 PUSH0 DUP3 ADD MSTORE POP JUMP JUMPDEST PUSH0 PUSH2 0x2046 PUSH1 0x19 DUP4 PUSH2 0x14C6 JUMP JUMPDEST SWAP2 POP PUSH2 0x2051 DUP3 PUSH2 0x2012 JUMP JUMPDEST PUSH1 0x20 DUP3 ADD SWAP1 POP SWAP2 SWAP1 POP JUMP JUMPDEST PUSH0 PUSH1 0x20 DUP3 ADD SWAP1 POP DUP2 DUP2 SUB PUSH0 DUP4 ADD MSTORE PUSH2 0x2073 DUP2 PUSH2 0x203A JUMP JUMPDEST SWAP1 POP SWAP2 SWAP1 POP JUMP JUMPDEST PUSH32 0x496E73756666696369656E74204E422062616C616E6365000000000000000000 PUSH0 DUP3 ADD MSTORE POP JUMP JUMPDEST PUSH0 PUSH2 0x20AE PUSH1 0x17 DUP4 PUSH2 0x14C6 JUMP JUMPDEST SWAP2 POP PUSH2 0x20B9 DUP3 PUSH2 0x207A JUMP JUMPDEST PUSH1 0x20 DUP3 ADD SWAP1 POP SWAP2 SWAP1 POP JUMP JUMPDEST PUSH0 PUSH1 0x20 DUP3 ADD SWAP1 POP DUP2 DUP2 SUB PUSH0 DUP4 ADD MSTORE PUSH2 0x20DB DUP2 PUSH2 0x20A2 JUMP JUMPDEST SWAP1 POP SWAP2 SWAP1 POP JUMP JUMPDEST PUSH0 PUSH1 0x60 DUP3 ADD SWAP1 POP PUSH2 0x20F5 PUSH0 DUP4 ADD DUP7 PUSH2 0x1796 JUMP JUMPDEST PUSH2 0x2102 PUSH1 0x20 DUP4 ADD DUP6 PUSH2 0x1675 JUMP JUMPDEST PUSH2 0x210F PUSH1 0x40 DUP4 ADD DUP5 PUSH2 0x1675 JUMP JUMPDEST SWAP5 SWAP4 POP POP POP POP JUMP JUMPDEST PUSH0 PUSH2 0x2121 DUP3 PUSH2 0x15D1 JUMP JUMPDEST SWAP2 POP PUSH2 0x212C DUP4 PUSH2 0x15D1 JUMP JUMPDEST SWAP3 POP DUP3 DUP3 ADD SWAP1 POP DUP1 DUP3 GT ISZERO PUSH2 0x2144 JUMPI PUSH2 0x2143 PUSH2 0x1DCE JUMP JUMPDEST JUMPDEST SWAP3 SWAP2 POP POP JUMP INVALID LOG2 PUSH5 0x6970667358 0x22 SLT KECCAK256 PUSH1 0x81 0x27 SHL LOG1 SELFBALANCE 0xE3 0xE4 0xE4 PUSH5 0x7FFCBE8194 PUSH16 0x695845A4225CA1877056E9D5D70E58FC PUSH5 0x736F6C6343 STOP ADDMOD AND STOP CALLER "
				},
				"gasEstimates": {
					"creation": {
						"codeDepositCost": "1715200",
						"executionCost": "infinite",
						"totalCost": "infinite"
					},
					"external": {
						"allowance(address,address)": "infinite",
						"approve(address,uint256)": "infinite",
						"balanceOf(address)": "2896",
						"buy(uint256)": "infinite",
						"buyRate()": "2557",
						"decimals()": "450",
						"getUserInfo(address)": "infinite",
						"name()": "infinite",
						"owner()": "2626",
						"registerUser(string,string,string)": "infinite",
						"renounceOwnership()": "infinite",
						"sell(uint256)": "infinite",
						"sellRate()": "2448",
						"send(address,uint256)": "infinite",
						"sendToOwner(uint256)": "infinite",
						"setRates(uint256,uint256)": "infinite",
						"symbol()": "infinite",
						"totalSupply()": "2500",
						"transfer(address,uint256)": "infinite",
						"transferFrom(address,address,uint256)": "infinite",
						"transferOwnership(address)": "infinite"
					}
				},
				"methodIdentifiers": {
					"allowance(address,address)": "dd62ed3e",
					"approve(address,uint256)": "095ea7b3",
					"balanceOf(address)": "70a08231",
					"buy(uint256)": "d96a094a",
					"buyRate()": "fc37987b",
					"decimals()": "313ce567",
					"getUserInfo(address)": "6386c1c7",
					"name()": "06fdde03",
					"owner()": "8da5cb5b",
					"registerUser(string,string,string)": "d637dcfa",
					"renounceOwnership()": "715018a6",
					"sell(uint256)": "e4849b32",
					"sellRate()": "6217229b",
					"send(address,uint256)": "d0679d34",
					"sendToOwner(uint256)": "cb797836",
					"setRates(uint256,uint256)": "ac6af280",
					"symbol()": "95d89b41",
					"totalSupply()": "18160ddd",
					"transfer(address,uint256)": "a9059cbb",
					"transferFrom(address,address,uint256)": "23b872dd",
					"transferOwnership(address)": "f2fde38b"
				}
			},
			"storageLayout": {
				"storage": [
					{
						"astId": 307,
						"contract": "FinalProject2/GameCoin.sol:GameCoin",
						"label": "_balances",
						"offset": 0,
						"slot": "0",
						"type": "t_mapping(t_address,t_uint256)"
					},
					{
						"astId": 313,
						"contract": "FinalProject2/GameCoin.sol:GameCoin",
						"label": "_allowances",
						"offset": 0,
						"slot": "1",
						"type": "t_mapping(t_address,t_mapping(t_address,t_uint256))"
					},
					{
						"astId": 315,
						"contract": "FinalProject2/GameCoin.sol:GameCoin",
						"label": "_totalSupply",
						"offset": 0,
						"slot": "2",
						"type": "t_uint256"
					},
					{
						"astId": 317,
						"contract": "FinalProject2/GameCoin.sol:GameCoin",
						"label": "_name",
						"offset": 0,
						"slot": "3",
						"type": "t_string_storage"
					},
					{
						"astId": 319,
						"contract": "FinalProject2/GameCoin.sol:GameCoin",
						"label": "_symbol",
						"offset": 0,
						"slot": "4",
						"type": "t_string_storage"
					},
					{
						"astId": 8,
						"contract": "FinalProject2/GameCoin.sol:GameCoin",
						"label": "_owner",
						"offset": 0,
						"slot": "5",
						"type": "t_address"
					},
					{
						"astId": 944,
						"contract": "FinalProject2/GameCoin.sol:GameCoin",
						"label": "sellRate",
						"offset": 0,
						"slot": "6",
						"type": "t_uint256"
					},
					{
						"astId": 947,
						"contract": "FinalProject2/GameCoin.sol:GameCoin",
						"label": "buyRate",
						"offset": 0,
						"slot": "7",
						"type": "t_uint256"
					},
					{
						"astId": 952,
						"contract": "FinalProject2/GameCoin.sol:GameCoin",
						"label": "users",
						"offset": 0,
						"slot": "8",
						"type": "t_mapping(t_address,t_struct(User)959_storage)"
					}
				],
				"types": {
					"t_address": {
						"encoding": "inplace",
						"label": "address",
						"numberOfBytes": "20"
					},
					"t_mapping(t_address,t_mapping(t_address,t_uint256))": {
						"encoding": "mapping",
						"key": "t_address",
						"label": "mapping(address => mapping(address => uint256))",
						"numberOfBytes": "32",
						"value": "t_mapping(t_address,t_uint256)"
					},
					"t_mapping(t_address,t_struct(User)959_storage)": {
						"encoding": "mapping",
						"key": "t_address",
						"label": "mapping(address => struct GameCoin.User)",
						"numberOfBytes": "32",
						"value": "t_struct(User)959_storage"
					},
					"t_mapping(t_address,t_uint256)": {
						"encoding": "mapping",
						"key": "t_address",
						"label": "mapping(address => uint256)",
						"numberOfBytes": "32",
						"value": "t_uint256"
					},
					"t_string_storage": {
						"encoding": "bytes",
						"label": "string",
						"numberOfBytes": "32"
					},
					"t_struct(User)959_storage": {
						"encoding": "inplace",
						"label": "struct GameCoin.User",
						"members": [
							{
								"astId": 954,
								"contract": "FinalProject2/GameCoin.sol:GameCoin",
								"label": "username",
								"offset": 0,
								"slot": "0",
								"type": "t_string_storage"
							},
							{
								"astId": 956,
								"contract": "FinalProject2/GameCoin.sol:GameCoin",
								"label": "email",
								"offset": 0,
								"slot": "1",
								"type": "t_string_storage"
							},
							{
								"astId": 958,
								"contract": "FinalProject2/GameCoin.sol:GameCoin",
								"label": "bio",
								"offset": 0,
								"slot": "2",
								"type": "t_string_storage"
							}
						],
						"numberOfBytes": "96"
					},
					"t_uint256": {
						"encoding": "inplace",
						"label": "uint256",
						"numberOfBytes": "32"
					}
				}
			},
			"userdoc": {
				"kind": "user",
				"methods": {},
				"version": 1
			}
		}
	}
}